{
	"contracts/Transactions.sol": {
		"Transactions": {
			"abi": [
				{
					"inputs": [],
					"stateMutability": "nonpayable",
					"type": "constructor"
				},
				{
					"inputs": [
						{
							"components": [
								{
									"internalType": "string",
									"name": "subject_entity_id",
									"type": "string"
								},
								{
									"internalType": "enum Transactions.EntityType",
									"name": "subject_entity_type",
									"type": "uint8"
								},
								{
									"internalType": "string",
									"name": "action",
									"type": "string"
								},
								{
									"internalType": "string",
									"name": "context_entity_id",
									"type": "string"
								},
								{
									"internalType": "enum Transactions.EntityType",
									"name": "context_entity_type",
									"type": "uint8"
								},
								{
									"internalType": "string",
									"name": "tokens_involved",
									"type": "string"
								},
								{
									"internalType": "string",
									"name": "token_price_in_inr",
									"type": "string"
								},
								{
									"internalType": "string",
									"name": "created_at",
									"type": "string"
								}
							],
							"internalType": "struct Transactions.Transaction",
							"name": "newTransaction",
							"type": "tuple"
						}
					],
					"name": "addNewTransaction",
					"outputs": [],
					"stateMutability": "nonpayable",
					"type": "function"
				},
				{
					"inputs": [],
					"name": "getAllTransactions",
					"outputs": [
						{
							"components": [
								{
									"internalType": "string",
									"name": "subject_entity_id",
									"type": "string"
								},
								{
									"internalType": "enum Transactions.EntityType",
									"name": "subject_entity_type",
									"type": "uint8"
								},
								{
									"internalType": "string",
									"name": "action",
									"type": "string"
								},
								{
									"internalType": "string",
									"name": "context_entity_id",
									"type": "string"
								},
								{
									"internalType": "enum Transactions.EntityType",
									"name": "context_entity_type",
									"type": "uint8"
								},
								{
									"internalType": "string",
									"name": "tokens_involved",
									"type": "string"
								},
								{
									"internalType": "string",
									"name": "token_price_in_inr",
									"type": "string"
								},
								{
									"internalType": "string",
									"name": "created_at",
									"type": "string"
								}
							],
							"internalType": "struct Transactions.Transaction[]",
							"name": "",
							"type": "tuple[]"
						}
					],
					"stateMutability": "view",
					"type": "function"
				},
				{
					"inputs": [
						{
							"internalType": "uint256",
							"name": "",
							"type": "uint256"
						}
					],
					"name": "transactions",
					"outputs": [
						{
							"internalType": "string",
							"name": "subject_entity_id",
							"type": "string"
						},
						{
							"internalType": "enum Transactions.EntityType",
							"name": "subject_entity_type",
							"type": "uint8"
						},
						{
							"internalType": "string",
							"name": "action",
							"type": "string"
						},
						{
							"internalType": "string",
							"name": "context_entity_id",
							"type": "string"
						},
						{
							"internalType": "enum Transactions.EntityType",
							"name": "context_entity_type",
							"type": "uint8"
						},
						{
							"internalType": "string",
							"name": "tokens_involved",
							"type": "string"
						},
						{
							"internalType": "string",
							"name": "token_price_in_inr",
							"type": "string"
						},
						{
							"internalType": "string",
							"name": "created_at",
							"type": "string"
						}
					],
					"stateMutability": "view",
					"type": "function"
				}
			],
			"devdoc": {
				"kind": "dev",
				"methods": {},
				"version": 1
			},
			"evm": {
				"assembly": "    /* \"contracts/Transactions.sol\":70:1247  contract Transactions {... */\n  mstore(0x40, 0x80)\n    /* \"contracts/Transactions.sol\":595:1005  constructor() {... */\n  callvalue\n  dup1\n  iszero\n  tag_1\n  jumpi\n  0x00\n  dup1\n  revert\ntag_1:\n  pop\n    /* \"contracts/Transactions.sol\":619:631  transactions */\n  0x00\n    /* \"contracts/Transactions.sol\":637:997  Transaction({... */\n  mload(0x40)\n  dup1\n  0x0100\n  add\n  0x40\n  mstore\n  dup1\n  mload(0x40)\n  dup1\n  0x40\n  add\n  0x40\n  mstore\n  dup1\n  0x03\n  dup2\n  mstore\n  0x20\n  add\n  0x6e696b0000000000000000000000000000000000000000000000000000000000\n  dup2\n  mstore\n  pop\n  dup2\n  mstore\n  0x20\n  add\n    /* \"contracts/Transactions.sol\":722:746  EntityType.SmartContract */\n  0x05\n    /* \"contracts/Transactions.sol\":637:997  Transaction({... */\n  0x06\n  dup2\n  gt\n  iszero\n  tag_4\n  jumpi\n  tag_5\n  tag_6\n  jump\t// in\ntag_5:\ntag_4:\n  dup2\n  mstore\n  0x20\n  add\n  mload(0x40)\n  dup1\n  0x40\n  add\n  0x40\n  mstore\n  dup1\n  0x04\n  dup2\n  mstore\n  0x20\n  add\n  0x496e697400000000000000000000000000000000000000000000000000000000\n  dup2\n  mstore\n  pop\n  dup2\n  mstore\n  0x20\n  add\n  mload(0x40)\n  dup1\n  0x20\n  add\n  0x40\n  mstore\n  dup1\n  0x00\n  dup2\n  mstore\n  pop\n  dup2\n  mstore\n  0x20\n  add\n    /* \"contracts/Transactions.sol\":844:859  EntityType.Null */\n  0x06\n    /* \"contracts/Transactions.sol\":637:997  Transaction({... */\n  dup1\n  dup2\n  gt\n  iszero\n  tag_7\n  jumpi\n  tag_8\n  tag_6\n  jump\t// in\ntag_8:\ntag_7:\n  dup2\n  mstore\n  0x20\n  add\n  mload(0x40)\n  dup1\n  0x40\n  add\n  0x40\n  mstore\n  dup1\n  0x01\n  dup2\n  mstore\n  0x20\n  add\n  0x3000000000000000000000000000000000000000000000000000000000000000\n  dup2\n  mstore\n  pop\n  dup2\n  mstore\n  0x20\n  add\n  mload(0x40)\n  dup1\n  0x40\n  add\n  0x40\n  mstore\n  dup1\n  0x12\n  dup2\n  mstore\n  0x20\n  add\n  0x746f6b656e5f70726963655f696e5f696e720000000000000000000000000000\n  dup2\n  mstore\n  pop\n  dup2\n  mstore\n  0x20\n  add\n  mload(0x40)\n  dup1\n  0x40\n  add\n  0x40\n  mstore\n  dup1\n  0x0a\n  dup2\n  mstore\n  0x20\n  add\n  0x323032352d30322d303600000000000000000000000000000000000000000000\n  dup2\n  mstore\n  pop\n  dup2\n  mstore\n  pop\n    /* \"contracts/Transactions.sol\":619:998  transactions.push(Transaction({... */\n  swap1\n  dup1\n  0x01\n  dup2\n  sload\n  add\n  dup1\n  dup3\n  sstore\n  dup1\n  swap2\n  pop\n  pop\n  0x01\n  swap1\n  sub\n  swap1\n  0x00\n  mstore\n  keccak256(0x00, 0x20)\n  swap1\n  0x08\n  mul\n  add\n  0x00\n  swap1\n  swap2\n  swap1\n  swap2\n  swap1\n  swap2\n  pop\n  0x00\n  dup3\n  add\n  mload\n  dup2\n  0x00\n  add\n  swap1\n  dup2\n  tag_10\n  swap2\n  swap1\n  tag_11\n  jump\t// in\ntag_10:\n  pop\n  0x20\n  dup3\n  add\n  mload\n  dup2\n  0x01\n  add\n  exp(0x0100, 0x00)\n  dup2\n  sload\n  dup2\n  0xff\n  mul\n  not\n  and\n  swap1\n  dup4\n  0x06\n  dup2\n  gt\n  iszero\n  tag_12\n  jumpi\n  tag_13\n  tag_6\n  jump\t// in\ntag_13:\ntag_12:\n  mul\n  or\n  swap1\n  sstore\n  pop\n  0x40\n  dup3\n  add\n  mload\n  dup2\n  0x02\n  add\n  swap1\n  dup2\n  tag_14\n  swap2\n  swap1\n  tag_11\n  jump\t// in\ntag_14:\n  pop\n  0x60\n  dup3\n  add\n  mload\n  dup2\n  0x03\n  add\n  swap1\n  dup2\n  tag_15\n  swap2\n  swap1\n  tag_11\n  jump\t// in\ntag_15:\n  pop\n  0x80\n  dup3\n  add\n  mload\n  dup2\n  0x04\n  add\n  exp(0x0100, 0x00)\n  dup2\n  sload\n  dup2\n  0xff\n  mul\n  not\n  and\n  swap1\n  dup4\n  0x06\n  dup2\n  gt\n  iszero\n  tag_16\n  jumpi\n  tag_17\n  tag_6\n  jump\t// in\ntag_17:\ntag_16:\n  mul\n  or\n  swap1\n  sstore\n  pop\n  0xa0\n  dup3\n  add\n  mload\n  dup2\n  0x05\n  add\n  swap1\n  dup2\n  tag_18\n  swap2\n  swap1\n  tag_11\n  jump\t// in\ntag_18:\n  pop\n  0xc0\n  dup3\n  add\n  mload\n  dup2\n  0x06\n  add\n  swap1\n  dup2\n  tag_19\n  swap2\n  swap1\n  tag_11\n  jump\t// in\ntag_19:\n  pop\n  0xe0\n  dup3\n  add\n  mload\n  dup2\n  0x07\n  add\n  swap1\n  dup2\n  tag_20\n  swap2\n  swap1\n  tag_11\n  jump\t// in\ntag_20:\n  pop\n  pop\n  pop\n    /* \"contracts/Transactions.sol\":70:1247  contract Transactions {... */\n  jump(tag_21)\n    /* \"#utility.yul\":7:187   */\ntag_6:\n    /* \"#utility.yul\":55:132   */\n  0x4e487b7100000000000000000000000000000000000000000000000000000000\n    /* \"#utility.yul\":52:53   */\n  0x00\n    /* \"#utility.yul\":45:133   */\n  mstore\n    /* \"#utility.yul\":152:156   */\n  0x21\n    /* \"#utility.yul\":149:150   */\n  0x04\n    /* \"#utility.yul\":142:157   */\n  mstore\n    /* \"#utility.yul\":176:180   */\n  0x24\n    /* \"#utility.yul\":173:174   */\n  0x00\n    /* \"#utility.yul\":166:181   */\n  revert\n    /* \"#utility.yul\":193:292   */\ntag_22:\n    /* \"#utility.yul\":245:251   */\n  0x00\n    /* \"#utility.yul\":279:284   */\n  dup2\n    /* \"#utility.yul\":273:285   */\n  mload\n    /* \"#utility.yul\":263:285   */\n  swap1\n  pop\n    /* \"#utility.yul\":193:292   */\n  swap2\n  swap1\n  pop\n  jump\t// out\n    /* \"#utility.yul\":298:478   */\ntag_23:\n    /* \"#utility.yul\":346:423   */\n  0x4e487b7100000000000000000000000000000000000000000000000000000000\n    /* \"#utility.yul\":343:344   */\n  0x00\n    /* \"#utility.yul\":336:424   */\n  mstore\n    /* \"#utility.yul\":443:447   */\n  0x41\n    /* \"#utility.yul\":440:441   */\n  0x04\n    /* \"#utility.yul\":433:448   */\n  mstore\n    /* \"#utility.yul\":467:471   */\n  0x24\n    /* \"#utility.yul\":464:465   */\n  0x00\n    /* \"#utility.yul\":457:472   */\n  revert\n    /* \"#utility.yul\":484:664   */\ntag_24:\n    /* \"#utility.yul\":532:609   */\n  0x4e487b7100000000000000000000000000000000000000000000000000000000\n    /* \"#utility.yul\":529:530   */\n  0x00\n    /* \"#utility.yul\":522:610   */\n  mstore\n    /* \"#utility.yul\":629:633   */\n  0x22\n    /* \"#utility.yul\":626:627   */\n  0x04\n    /* \"#utility.yul\":619:634   */\n  mstore\n    /* \"#utility.yul\":653:657   */\n  0x24\n    /* \"#utility.yul\":650:651   */\n  0x00\n    /* \"#utility.yul\":643:658   */\n  revert\n    /* \"#utility.yul\":670:990   */\ntag_25:\n    /* \"#utility.yul\":714:720   */\n  0x00\n    /* \"#utility.yul\":751:752   */\n  0x02\n    /* \"#utility.yul\":745:749   */\n  dup3\n    /* \"#utility.yul\":741:753   */\n  div\n    /* \"#utility.yul\":731:753   */\n  swap1\n  pop\n    /* \"#utility.yul\":798:799   */\n  0x01\n    /* \"#utility.yul\":792:796   */\n  dup3\n    /* \"#utility.yul\":788:800   */\n  and\n    /* \"#utility.yul\":819:837   */\n  dup1\n    /* \"#utility.yul\":809:890   */\n  tag_48\n  jumpi\n    /* \"#utility.yul\":875:879   */\n  0x7f\n    /* \"#utility.yul\":867:873   */\n  dup3\n    /* \"#utility.yul\":863:880   */\n  and\n    /* \"#utility.yul\":853:880   */\n  swap2\n  pop\n    /* \"#utility.yul\":809:890   */\ntag_48:\n    /* \"#utility.yul\":937:939   */\n  0x20\n    /* \"#utility.yul\":929:935   */\n  dup3\n    /* \"#utility.yul\":926:940   */\n  lt\n    /* \"#utility.yul\":906:924   */\n  dup2\n    /* \"#utility.yul\":903:941   */\n  sub\n    /* \"#utility.yul\":900:984   */\n  tag_49\n  jumpi\n    /* \"#utility.yul\":956:974   */\n  tag_50\n  tag_24\n  jump\t// in\ntag_50:\n    /* \"#utility.yul\":900:984   */\ntag_49:\n    /* \"#utility.yul\":721:990   */\n  pop\n    /* \"#utility.yul\":670:990   */\n  swap2\n  swap1\n  pop\n  jump\t// out\n    /* \"#utility.yul\":996:1137   */\ntag_26:\n    /* \"#utility.yul\":1045:1049   */\n  0x00\n    /* \"#utility.yul\":1068:1071   */\n  dup2\n    /* \"#utility.yul\":1060:1071   */\n  swap1\n  pop\n    /* \"#utility.yul\":1091:1094   */\n  dup2\n    /* \"#utility.yul\":1088:1089   */\n  0x00\n    /* \"#utility.yul\":1081:1095   */\n  mstore\n    /* \"#utility.yul\":1125:1129   */\n  0x20\n    /* \"#utility.yul\":1122:1123   */\n  0x00\n    /* \"#utility.yul\":1112:1130   */\n  keccak256\n    /* \"#utility.yul\":1104:1130   */\n  swap1\n  pop\n    /* \"#utility.yul\":996:1137   */\n  swap2\n  swap1\n  pop\n  jump\t// out\n    /* \"#utility.yul\":1143:1236   */\ntag_27:\n    /* \"#utility.yul\":1180:1186   */\n  0x00\n    /* \"#utility.yul\":1227:1229   */\n  0x20\n    /* \"#utility.yul\":1222:1224   */\n  0x1f\n    /* \"#utility.yul\":1215:1220   */\n  dup4\n    /* \"#utility.yul\":1211:1225   */\n  add\n    /* \"#utility.yul\":1207:1230   */\n  div\n    /* \"#utility.yul\":1197:1230   */\n  swap1\n  pop\n    /* \"#utility.yul\":1143:1236   */\n  swap2\n  swap1\n  pop\n  jump\t// out\n    /* \"#utility.yul\":1242:1349   */\ntag_28:\n    /* \"#utility.yul\":1286:1294   */\n  0x00\n    /* \"#utility.yul\":1336:1341   */\n  dup3\n    /* \"#utility.yul\":1330:1334   */\n  dup3\n    /* \"#utility.yul\":1326:1342   */\n  shl\n    /* \"#utility.yul\":1305:1342   */\n  swap1\n  pop\n    /* \"#utility.yul\":1242:1349   */\n  swap3\n  swap2\n  pop\n  pop\n  jump\t// out\n    /* \"#utility.yul\":1355:1748   */\ntag_29:\n    /* \"#utility.yul\":1424:1430   */\n  0x00\n    /* \"#utility.yul\":1474:1475   */\n  0x08\n    /* \"#utility.yul\":1462:1472   */\n  dup4\n    /* \"#utility.yul\":1458:1476   */\n  mul\n    /* \"#utility.yul\":1497:1594   */\n  tag_55\n    /* \"#utility.yul\":1527:1593   */\n  0xffffffffffffffffffffffffffffffffffffffffffffffffffffffffffffffff\n    /* \"#utility.yul\":1516:1525   */\n  dup3\n    /* \"#utility.yul\":1497:1594   */\n  tag_28\n  jump\t// in\ntag_55:\n    /* \"#utility.yul\":1615:1654   */\n  tag_56\n    /* \"#utility.yul\":1645:1653   */\n  dup7\n    /* \"#utility.yul\":1634:1643   */\n  dup4\n    /* \"#utility.yul\":1615:1654   */\n  tag_28\n  jump\t// in\ntag_56:\n    /* \"#utility.yul\":1603:1654   */\n  swap6\n  pop\n    /* \"#utility.yul\":1687:1691   */\n  dup1\n    /* \"#utility.yul\":1683:1692   */\n  not\n    /* \"#utility.yul\":1676:1681   */\n  dup5\n    /* \"#utility.yul\":1672:1693   */\n  and\n    /* \"#utility.yul\":1663:1693   */\n  swap4\n  pop\n    /* \"#utility.yul\":1736:1740   */\n  dup1\n    /* \"#utility.yul\":1726:1734   */\n  dup7\n    /* \"#utility.yul\":1722:1741   */\n  and\n    /* \"#utility.yul\":1715:1720   */\n  dup5\n    /* \"#utility.yul\":1712:1742   */\n  or\n    /* \"#utility.yul\":1702:1742   */\n  swap3\n  pop\n    /* \"#utility.yul\":1431:1748   */\n  pop\n  pop\n    /* \"#utility.yul\":1355:1748   */\n  swap4\n  swap3\n  pop\n  pop\n  pop\n  jump\t// out\n    /* \"#utility.yul\":1754:1831   */\ntag_30:\n    /* \"#utility.yul\":1791:1798   */\n  0x00\n    /* \"#utility.yul\":1820:1825   */\n  dup2\n    /* \"#utility.yul\":1809:1825   */\n  swap1\n  pop\n    /* \"#utility.yul\":1754:1831   */\n  swap2\n  swap1\n  pop\n  jump\t// out\n    /* \"#utility.yul\":1837:1897   */\ntag_31:\n    /* \"#utility.yul\":1865:1868   */\n  0x00\n    /* \"#utility.yul\":1886:1891   */\n  dup2\n    /* \"#utility.yul\":1879:1891   */\n  swap1\n  pop\n    /* \"#utility.yul\":1837:1897   */\n  swap2\n  swap1\n  pop\n  jump\t// out\n    /* \"#utility.yul\":1903:2045   */\ntag_32:\n    /* \"#utility.yul\":1953:1962   */\n  0x00\n    /* \"#utility.yul\":1986:2039   */\n  tag_60\n    /* \"#utility.yul\":2004:2038   */\n  tag_61\n    /* \"#utility.yul\":2013:2037   */\n  tag_62\n    /* \"#utility.yul\":2031:2036   */\n  dup5\n    /* \"#utility.yul\":2013:2037   */\n  tag_30\n  jump\t// in\ntag_62:\n    /* \"#utility.yul\":2004:2038   */\n  tag_31\n  jump\t// in\ntag_61:\n    /* \"#utility.yul\":1986:2039   */\n  tag_30\n  jump\t// in\ntag_60:\n    /* \"#utility.yul\":1973:2039   */\n  swap1\n  pop\n    /* \"#utility.yul\":1903:2045   */\n  swap2\n  swap1\n  pop\n  jump\t// out\n    /* \"#utility.yul\":2051:2126   */\ntag_33:\n    /* \"#utility.yul\":2094:2097   */\n  0x00\n    /* \"#utility.yul\":2115:2120   */\n  dup2\n    /* \"#utility.yul\":2108:2120   */\n  swap1\n  pop\n    /* \"#utility.yul\":2051:2126   */\n  swap2\n  swap1\n  pop\n  jump\t// out\n    /* \"#utility.yul\":2132:2401   */\ntag_34:\n    /* \"#utility.yul\":2242:2281   */\n  tag_65\n    /* \"#utility.yul\":2273:2280   */\n  dup4\n    /* \"#utility.yul\":2242:2281   */\n  tag_32\n  jump\t// in\ntag_65:\n    /* \"#utility.yul\":2303:2394   */\n  tag_66\n    /* \"#utility.yul\":2352:2393   */\n  tag_67\n    /* \"#utility.yul\":2376:2392   */\n  dup3\n    /* \"#utility.yul\":2352:2393   */\n  tag_33\n  jump\t// in\ntag_67:\n    /* \"#utility.yul\":2344:2350   */\n  dup5\n    /* \"#utility.yul\":2337:2341   */\n  dup5\n    /* \"#utility.yul\":2331:2342   */\n  sload\n    /* \"#utility.yul\":2303:2394   */\n  tag_29\n  jump\t// in\ntag_66:\n    /* \"#utility.yul\":2297:2301   */\n  dup3\n    /* \"#utility.yul\":2290:2395   */\n  sstore\n    /* \"#utility.yul\":2208:2401   */\n  pop\n    /* \"#utility.yul\":2132:2401   */\n  pop\n  pop\n  pop\n  jump\t// out\n    /* \"#utility.yul\":2407:2480   */\ntag_35:\n    /* \"#utility.yul\":2452:2455   */\n  0x00\n    /* \"#utility.yul\":2407:2480   */\n  swap1\n  jump\t// out\n    /* \"#utility.yul\":2486:2675   */\ntag_36:\n    /* \"#utility.yul\":2563:2595   */\n  tag_70\n  tag_35\n  jump\t// in\ntag_70:\n    /* \"#utility.yul\":2604:2669   */\n  tag_71\n    /* \"#utility.yul\":2662:2668   */\n  dup2\n    /* \"#utility.yul\":2654:2660   */\n  dup5\n    /* \"#utility.yul\":2648:2652   */\n  dup5\n    /* \"#utility.yul\":2604:2669   */\n  tag_34\n  jump\t// in\ntag_71:\n    /* \"#utility.yul\":2539:2675   */\n  pop\n    /* \"#utility.yul\":2486:2675   */\n  pop\n  pop\n  jump\t// out\n    /* \"#utility.yul\":2681:2867   */\ntag_37:\n    /* \"#utility.yul\":2741:2861   */\ntag_73:\n    /* \"#utility.yul\":2758:2761   */\n  dup2\n    /* \"#utility.yul\":2751:2756   */\n  dup2\n    /* \"#utility.yul\":2748:2762   */\n  lt\n    /* \"#utility.yul\":2741:2861   */\n  iszero\n  tag_75\n  jumpi\n    /* \"#utility.yul\":2812:2851   */\n  tag_76\n    /* \"#utility.yul\":2849:2850   */\n  0x00\n    /* \"#utility.yul\":2842:2847   */\n  dup3\n    /* \"#utility.yul\":2812:2851   */\n  tag_36\n  jump\t// in\ntag_76:\n    /* \"#utility.yul\":2785:2786   */\n  0x01\n    /* \"#utility.yul\":2778:2783   */\n  dup2\n    /* \"#utility.yul\":2774:2787   */\n  add\n    /* \"#utility.yul\":2765:2787   */\n  swap1\n  pop\n    /* \"#utility.yul\":2741:2861   */\n  jump(tag_73)\ntag_75:\n    /* \"#utility.yul\":2681:2867   */\n  pop\n  pop\n  jump\t// out\n    /* \"#utility.yul\":2873:3416   */\ntag_38:\n    /* \"#utility.yul\":2974:2976   */\n  0x1f\n    /* \"#utility.yul\":2969:2972   */\n  dup3\n    /* \"#utility.yul\":2966:2977   */\n  gt\n    /* \"#utility.yul\":2963:3409   */\n  iszero\n  tag_78\n  jumpi\n    /* \"#utility.yul\":3008:3046   */\n  tag_79\n    /* \"#utility.yul\":3040:3045   */\n  dup2\n    /* \"#utility.yul\":3008:3046   */\n  tag_26\n  jump\t// in\ntag_79:\n    /* \"#utility.yul\":3092:3121   */\n  tag_80\n    /* \"#utility.yul\":3110:3120   */\n  dup5\n    /* \"#utility.yul\":3092:3121   */\n  tag_27\n  jump\t// in\ntag_80:\n    /* \"#utility.yul\":3082:3090   */\n  dup2\n    /* \"#utility.yul\":3078:3122   */\n  add\n    /* \"#utility.yul\":3275:3277   */\n  0x20\n    /* \"#utility.yul\":3263:3273   */\n  dup6\n    /* \"#utility.yul\":3260:3278   */\n  lt\n    /* \"#utility.yul\":3257:3306   */\n  iszero\n  tag_81\n  jumpi\n    /* \"#utility.yul\":3296:3304   */\n  dup2\n    /* \"#utility.yul\":3281:3304   */\n  swap1\n  pop\n    /* \"#utility.yul\":3257:3306   */\ntag_81:\n    /* \"#utility.yul\":3319:3399   */\n  tag_82\n    /* \"#utility.yul\":3375:3397   */\n  tag_83\n    /* \"#utility.yul\":3393:3396   */\n  dup6\n    /* \"#utility.yul\":3375:3397   */\n  tag_27\n  jump\t// in\ntag_83:\n    /* \"#utility.yul\":3365:3373   */\n  dup4\n    /* \"#utility.yul\":3361:3398   */\n  add\n    /* \"#utility.yul\":3348:3359   */\n  dup3\n    /* \"#utility.yul\":3319:3399   */\n  tag_37\n  jump\t// in\ntag_82:\n    /* \"#utility.yul\":2978:3409   */\n  pop\n  pop\n    /* \"#utility.yul\":2963:3409   */\ntag_78:\n    /* \"#utility.yul\":2873:3416   */\n  pop\n  pop\n  pop\n  jump\t// out\n    /* \"#utility.yul\":3422:3539   */\ntag_39:\n    /* \"#utility.yul\":3476:3484   */\n  0x00\n    /* \"#utility.yul\":3526:3531   */\n  dup3\n    /* \"#utility.yul\":3520:3524   */\n  dup3\n    /* \"#utility.yul\":3516:3532   */\n  shr\n    /* \"#utility.yul\":3495:3532   */\n  swap1\n  pop\n    /* \"#utility.yul\":3422:3539   */\n  swap3\n  swap2\n  pop\n  pop\n  jump\t// out\n    /* \"#utility.yul\":3545:3714   */\ntag_40:\n    /* \"#utility.yul\":3589:3595   */\n  0x00\n    /* \"#utility.yul\":3622:3673   */\n  tag_86\n    /* \"#utility.yul\":3670:3671   */\n  0x00\n    /* \"#utility.yul\":3666:3672   */\n  not\n    /* \"#utility.yul\":3658:3663   */\n  dup5\n    /* \"#utility.yul\":3655:3656   */\n  0x08\n    /* \"#utility.yul\":3651:3664   */\n  mul\n    /* \"#utility.yul\":3622:3673   */\n  tag_39\n  jump\t// in\ntag_86:\n    /* \"#utility.yul\":3618:3674   */\n  not\n    /* \"#utility.yul\":3703:3707   */\n  dup1\n    /* \"#utility.yul\":3697:3701   */\n  dup4\n    /* \"#utility.yul\":3693:3708   */\n  and\n    /* \"#utility.yul\":3683:3708   */\n  swap2\n  pop\n    /* \"#utility.yul\":3596:3714   */\n  pop\n    /* \"#utility.yul\":3545:3714   */\n  swap3\n  swap2\n  pop\n  pop\n  jump\t// out\n    /* \"#utility.yul\":3719:4014   */\ntag_41:\n    /* \"#utility.yul\":3795:3799   */\n  0x00\n    /* \"#utility.yul\":3941:3970   */\n  tag_88\n    /* \"#utility.yul\":3966:3969   */\n  dup4\n    /* \"#utility.yul\":3960:3964   */\n  dup4\n    /* \"#utility.yul\":3941:3970   */\n  tag_40\n  jump\t// in\ntag_88:\n    /* \"#utility.yul\":3933:3970   */\n  swap2\n  pop\n    /* \"#utility.yul\":4003:4006   */\n  dup3\n    /* \"#utility.yul\":4000:4001   */\n  0x02\n    /* \"#utility.yul\":3996:4007   */\n  mul\n    /* \"#utility.yul\":3990:3994   */\n  dup3\n    /* \"#utility.yul\":3987:4008   */\n  or\n    /* \"#utility.yul\":3979:4008   */\n  swap1\n  pop\n    /* \"#utility.yul\":3719:4014   */\n  swap3\n  swap2\n  pop\n  pop\n  jump\t// out\n    /* \"#utility.yul\":4019:5414   */\ntag_11:\n    /* \"#utility.yul\":4136:4173   */\n  tag_90\n    /* \"#utility.yul\":4169:4172   */\n  dup3\n    /* \"#utility.yul\":4136:4173   */\n  tag_22\n  jump\t// in\ntag_90:\n    /* \"#utility.yul\":4238:4256   */\n  0xffffffffffffffff\n    /* \"#utility.yul\":4230:4236   */\n  dup2\n    /* \"#utility.yul\":4227:4257   */\n  gt\n    /* \"#utility.yul\":4224:4280   */\n  iszero\n  tag_91\n  jumpi\n    /* \"#utility.yul\":4260:4278   */\n  tag_92\n  tag_23\n  jump\t// in\ntag_92:\n    /* \"#utility.yul\":4224:4280   */\ntag_91:\n    /* \"#utility.yul\":4304:4342   */\n  tag_93\n    /* \"#utility.yul\":4336:4340   */\n  dup3\n    /* \"#utility.yul\":4330:4341   */\n  sload\n    /* \"#utility.yul\":4304:4342   */\n  tag_25\n  jump\t// in\ntag_93:\n    /* \"#utility.yul\":4389:4456   */\n  tag_94\n    /* \"#utility.yul\":4449:4455   */\n  dup3\n    /* \"#utility.yul\":4441:4447   */\n  dup3\n    /* \"#utility.yul\":4435:4439   */\n  dup6\n    /* \"#utility.yul\":4389:4456   */\n  tag_38\n  jump\t// in\ntag_94:\n    /* \"#utility.yul\":4483:4484   */\n  0x00\n    /* \"#utility.yul\":4507:4511   */\n  0x20\n    /* \"#utility.yul\":4494:4511   */\n  swap1\n  pop\n    /* \"#utility.yul\":4539:4541   */\n  0x1f\n    /* \"#utility.yul\":4531:4537   */\n  dup4\n    /* \"#utility.yul\":4528:4542   */\n  gt\n    /* \"#utility.yul\":4556:4557   */\n  0x01\n    /* \"#utility.yul\":4551:5169   */\n  dup2\n  eq\n  tag_96\n  jumpi\n    /* \"#utility.yul\":5213:5214   */\n  0x00\n    /* \"#utility.yul\":5230:5236   */\n  dup5\n    /* \"#utility.yul\":5227:5304   */\n  iszero\n  tag_97\n  jumpi\n    /* \"#utility.yul\":5279:5288   */\n  dup3\n    /* \"#utility.yul\":5274:5277   */\n  dup8\n    /* \"#utility.yul\":5270:5289   */\n  add\n    /* \"#utility.yul\":5264:5290   */\n  mload\n    /* \"#utility.yul\":5255:5290   */\n  swap1\n  pop\n    /* \"#utility.yul\":5227:5304   */\ntag_97:\n    /* \"#utility.yul\":5330:5397   */\n  tag_98\n    /* \"#utility.yul\":5390:5396   */\n  dup6\n    /* \"#utility.yul\":5383:5388   */\n  dup3\n    /* \"#utility.yul\":5330:5397   */\n  tag_41\n  jump\t// in\ntag_98:\n    /* \"#utility.yul\":5324:5328   */\n  dup7\n    /* \"#utility.yul\":5317:5398   */\n  sstore\n    /* \"#utility.yul\":5186:5408   */\n  pop\n    /* \"#utility.yul\":4521:5408   */\n  jump(tag_95)\n    /* \"#utility.yul\":4551:5169   */\ntag_96:\n    /* \"#utility.yul\":4603:4607   */\n  0x1f\n    /* \"#utility.yul\":4599:4608   */\n  not\n    /* \"#utility.yul\":4591:4597   */\n  dup5\n    /* \"#utility.yul\":4587:4609   */\n  and\n    /* \"#utility.yul\":4637:4674   */\n  tag_99\n    /* \"#utility.yul\":4669:4673   */\n  dup7\n    /* \"#utility.yul\":4637:4674   */\n  tag_26\n  jump\t// in\ntag_99:\n    /* \"#utility.yul\":4696:4697   */\n  0x00\n    /* \"#utility.yul\":4710:4918   */\ntag_100:\n    /* \"#utility.yul\":4724:4731   */\n  dup3\n    /* \"#utility.yul\":4721:4722   */\n  dup2\n    /* \"#utility.yul\":4718:4732   */\n  lt\n    /* \"#utility.yul\":4710:4918   */\n  iszero\n  tag_102\n  jumpi\n    /* \"#utility.yul\":4803:4812   */\n  dup5\n    /* \"#utility.yul\":4798:4801   */\n  dup10\n    /* \"#utility.yul\":4794:4813   */\n  add\n    /* \"#utility.yul\":4788:4814   */\n  mload\n    /* \"#utility.yul\":4780:4786   */\n  dup3\n    /* \"#utility.yul\":4773:4815   */\n  sstore\n    /* \"#utility.yul\":4854:4855   */\n  0x01\n    /* \"#utility.yul\":4846:4852   */\n  dup3\n    /* \"#utility.yul\":4842:4856   */\n  add\n    /* \"#utility.yul\":4832:4856   */\n  swap2\n  pop\n    /* \"#utility.yul\":4901:4903   */\n  0x20\n    /* \"#utility.yul\":4890:4899   */\n  dup6\n    /* \"#utility.yul\":4886:4904   */\n  add\n    /* \"#utility.yul\":4873:4904   */\n  swap5\n  pop\n    /* \"#utility.yul\":4747:4751   */\n  0x20\n    /* \"#utility.yul\":4744:4745   */\n  dup2\n    /* \"#utility.yul\":4740:4752   */\n  add\n    /* \"#utility.yul\":4735:4752   */\n  swap1\n  pop\n    /* \"#utility.yul\":4710:4918   */\n  jump(tag_100)\ntag_102:\n    /* \"#utility.yul\":4946:4952   */\n  dup7\n    /* \"#utility.yul\":4937:4944   */\n  dup4\n    /* \"#utility.yul\":4934:4953   */\n  lt\n    /* \"#utility.yul\":4931:5110   */\n  iszero\n  tag_103\n  jumpi\n    /* \"#utility.yul\":5004:5013   */\n  dup5\n    /* \"#utility.yul\":4999:5002   */\n  dup10\n    /* \"#utility.yul\":4995:5014   */\n  add\n    /* \"#utility.yul\":4989:5015   */\n  mload\n    /* \"#utility.yul\":5047:5095   */\n  tag_104\n    /* \"#utility.yul\":5089:5093   */\n  0x1f\n    /* \"#utility.yul\":5081:5087   */\n  dup10\n    /* \"#utility.yul\":5077:5094   */\n  and\n    /* \"#utility.yul\":5066:5075   */\n  dup3\n    /* \"#utility.yul\":5047:5095   */\n  tag_40\n  jump\t// in\ntag_104:\n    /* \"#utility.yul\":5039:5045   */\n  dup4\n    /* \"#utility.yul\":5032:5096   */\n  sstore\n    /* \"#utility.yul\":4954:5110   */\n  pop\n    /* \"#utility.yul\":4931:5110   */\ntag_103:\n    /* \"#utility.yul\":5156:5157   */\n  0x01\n    /* \"#utility.yul\":5152:5153   */\n  0x02\n    /* \"#utility.yul\":5144:5150   */\n  dup9\n    /* \"#utility.yul\":5140:5154   */\n  mul\n    /* \"#utility.yul\":5136:5158   */\n  add\n    /* \"#utility.yul\":5130:5134   */\n  dup9\n    /* \"#utility.yul\":5123:5159   */\n  sstore\n    /* \"#utility.yul\":4558:5169   */\n  pop\n  pop\n  pop\n    /* \"#utility.yul\":4521:5408   */\ntag_95:\n  pop\n    /* \"#utility.yul\":4111:5414   */\n  pop\n  pop\n  pop\n    /* \"#utility.yul\":4019:5414   */\n  pop\n  pop\n  jump\t// out\n    /* \"contracts/Transactions.sol\":70:1247  contract Transactions {... */\ntag_21:\n  dataSize(sub_0)\n  dup1\n  dataOffset(sub_0)\n  0x00\n  codecopy\n  0x00\n  return\nstop\n\nsub_0: assembly {\n        /* \"contracts/Transactions.sol\":70:1247  contract Transactions {... */\n      mstore(0x40, 0x80)\n      callvalue\n      dup1\n      iszero\n      tag_1\n      jumpi\n      0x00\n      dup1\n      revert\n    tag_1:\n      pop\n      jumpi(tag_2, lt(calldatasize, 0x04))\n      shr(0xe0, calldataload(0x00))\n      dup1\n      0x27506f53\n      eq\n      tag_3\n      jumpi\n      dup1\n      0x3e05c134\n      eq\n      tag_4\n      jumpi\n      dup1\n      0x9ace38c2\n      eq\n      tag_5\n      jumpi\n    tag_2:\n      0x00\n      dup1\n      revert\n        /* \"contracts/Transactions.sol\":1011:1120  function getAllTransactions() public view returns (Transaction[] memory) {... */\n    tag_3:\n      tag_6\n      tag_7\n      jump\t// in\n    tag_6:\n      mload(0x40)\n      tag_8\n      swap2\n      swap1\n      tag_9\n      jump\t// in\n    tag_8:\n      mload(0x40)\n      dup1\n      swap2\n      sub\n      swap1\n      return\n        /* \"contracts/Transactions.sol\":1126:1245  function addNewTransaction(Transaction memory newTransaction) public {... */\n    tag_4:\n      tag_10\n      0x04\n      dup1\n      calldatasize\n      sub\n      dup2\n      add\n      swap1\n      tag_11\n      swap2\n      swap1\n      tag_12\n      jump\t// in\n    tag_11:\n      tag_13\n      jump\t// in\n    tag_10:\n      stop\n        /* \"contracts/Transactions.sol\":555:588  Transaction[] public transactions */\n    tag_5:\n      tag_14\n      0x04\n      dup1\n      calldatasize\n      sub\n      dup2\n      add\n      swap1\n      tag_15\n      swap2\n      swap1\n      tag_16\n      jump\t// in\n    tag_15:\n      tag_17\n      jump\t// in\n    tag_14:\n      mload(0x40)\n      tag_18\n      swap9\n      swap8\n      swap7\n      swap6\n      swap5\n      swap4\n      swap3\n      swap2\n      swap1\n      tag_19\n      jump\t// in\n    tag_18:\n      mload(0x40)\n      dup1\n      swap2\n      sub\n      swap1\n      return\n        /* \"contracts/Transactions.sol\":1011:1120  function getAllTransactions() public view returns (Transaction[] memory) {... */\n    tag_7:\n        /* \"contracts/Transactions.sol\":1062:1082  Transaction[] memory */\n      0x60\n        /* \"contracts/Transactions.sol\":1101:1113  transactions */\n      0x00\n        /* \"contracts/Transactions.sol\":1094:1113  return transactions */\n      dup1\n      sload\n      dup1\n      0x20\n      mul\n      0x20\n      add\n      mload(0x40)\n      swap1\n      dup2\n      add\n      0x40\n      mstore\n      dup1\n      swap3\n      swap2\n      swap1\n      dup2\n      dup2\n      mstore\n      0x20\n      add\n      0x00\n      swap1\n    tag_21:\n      dup3\n      dup3\n      lt\n      iszero\n      tag_22\n      jumpi\n      dup4\n      dup3\n      swap1\n      0x00\n      mstore\n      keccak256(0x00, 0x20)\n      swap1\n      0x08\n      mul\n      add\n      mload(0x40)\n      dup1\n      0x0100\n      add\n      0x40\n      mstore\n      swap1\n      dup2\n      0x00\n      dup3\n      add\n      dup1\n      sload\n      tag_24\n      swap1\n      tag_25\n      jump\t// in\n    tag_24:\n      dup1\n      0x1f\n      add\n      0x20\n      dup1\n      swap2\n      div\n      mul\n      0x20\n      add\n      mload(0x40)\n      swap1\n      dup2\n      add\n      0x40\n      mstore\n      dup1\n      swap3\n      swap2\n      swap1\n      dup2\n      dup2\n      mstore\n      0x20\n      add\n      dup3\n      dup1\n      sload\n      tag_26\n      swap1\n      tag_25\n      jump\t// in\n    tag_26:\n      dup1\n      iszero\n      tag_27\n      jumpi\n      dup1\n      0x1f\n      lt\n      tag_28\n      jumpi\n      0x0100\n      dup1\n      dup4\n      sload\n      div\n      mul\n      dup4\n      mstore\n      swap2\n      0x20\n      add\n      swap2\n      jump(tag_27)\n    tag_28:\n      dup3\n      add\n      swap2\n      swap1\n      0x00\n      mstore\n      keccak256(0x00, 0x20)\n      swap1\n    tag_29:\n      dup2\n      sload\n      dup2\n      mstore\n      swap1\n      0x01\n      add\n      swap1\n      0x20\n      add\n      dup1\n      dup4\n      gt\n      tag_29\n      jumpi\n      dup3\n      swap1\n      sub\n      0x1f\n      and\n      dup3\n      add\n      swap2\n    tag_27:\n      pop\n      pop\n      pop\n      pop\n      pop\n      dup2\n      mstore\n      0x20\n      add\n      0x01\n      dup3\n      add\n      0x00\n      swap1\n      sload\n      swap1\n      0x0100\n      exp\n      swap1\n      div\n      0xff\n      and\n      0x06\n      dup2\n      gt\n      iszero\n      tag_30\n      jumpi\n      tag_31\n      tag_32\n      jump\t// in\n    tag_31:\n    tag_30:\n      0x06\n      dup2\n      gt\n      iszero\n      tag_33\n      jumpi\n      tag_34\n      tag_32\n      jump\t// in\n    tag_34:\n    tag_33:\n      dup2\n      mstore\n      0x20\n      add\n      0x02\n      dup3\n      add\n      dup1\n      sload\n      tag_35\n      swap1\n      tag_25\n      jump\t// in\n    tag_35:\n      dup1\n      0x1f\n      add\n      0x20\n      dup1\n      swap2\n      div\n      mul\n      0x20\n      add\n      mload(0x40)\n      swap1\n      dup2\n      add\n      0x40\n      mstore\n      dup1\n      swap3\n      swap2\n      swap1\n      dup2\n      dup2\n      mstore\n      0x20\n      add\n      dup3\n      dup1\n      sload\n      tag_36\n      swap1\n      tag_25\n      jump\t// in\n    tag_36:\n      dup1\n      iszero\n      tag_37\n      jumpi\n      dup1\n      0x1f\n      lt\n      tag_38\n      jumpi\n      0x0100\n      dup1\n      dup4\n      sload\n      div\n      mul\n      dup4\n      mstore\n      swap2\n      0x20\n      add\n      swap2\n      jump(tag_37)\n    tag_38:\n      dup3\n      add\n      swap2\n      swap1\n      0x00\n      mstore\n      keccak256(0x00, 0x20)\n      swap1\n    tag_39:\n      dup2\n      sload\n      dup2\n      mstore\n      swap1\n      0x01\n      add\n      swap1\n      0x20\n      add\n      dup1\n      dup4\n      gt\n      tag_39\n      jumpi\n      dup3\n      swap1\n      sub\n      0x1f\n      and\n      dup3\n      add\n      swap2\n    tag_37:\n      pop\n      pop\n      pop\n      pop\n      pop\n      dup2\n      mstore\n      0x20\n      add\n      0x03\n      dup3\n      add\n      dup1\n      sload\n      tag_40\n      swap1\n      tag_25\n      jump\t// in\n    tag_40:\n      dup1\n      0x1f\n      add\n      0x20\n      dup1\n      swap2\n      div\n      mul\n      0x20\n      add\n      mload(0x40)\n      swap1\n      dup2\n      add\n      0x40\n      mstore\n      dup1\n      swap3\n      swap2\n      swap1\n      dup2\n      dup2\n      mstore\n      0x20\n      add\n      dup3\n      dup1\n      sload\n      tag_41\n      swap1\n      tag_25\n      jump\t// in\n    tag_41:\n      dup1\n      iszero\n      tag_42\n      jumpi\n      dup1\n      0x1f\n      lt\n      tag_43\n      jumpi\n      0x0100\n      dup1\n      dup4\n      sload\n      div\n      mul\n      dup4\n      mstore\n      swap2\n      0x20\n      add\n      swap2\n      jump(tag_42)\n    tag_43:\n      dup3\n      add\n      swap2\n      swap1\n      0x00\n      mstore\n      keccak256(0x00, 0x20)\n      swap1\n    tag_44:\n      dup2\n      sload\n      dup2\n      mstore\n      swap1\n      0x01\n      add\n      swap1\n      0x20\n      add\n      dup1\n      dup4\n      gt\n      tag_44\n      jumpi\n      dup3\n      swap1\n      sub\n      0x1f\n      and\n      dup3\n      add\n      swap2\n    tag_42:\n      pop\n      pop\n      pop\n      pop\n      pop\n      dup2\n      mstore\n      0x20\n      add\n      0x04\n      dup3\n      add\n      0x00\n      swap1\n      sload\n      swap1\n      0x0100\n      exp\n      swap1\n      div\n      0xff\n      and\n      0x06\n      dup2\n      gt\n      iszero\n      tag_45\n      jumpi\n      tag_46\n      tag_32\n      jump\t// in\n    tag_46:\n    tag_45:\n      0x06\n      dup2\n      gt\n      iszero\n      tag_47\n      jumpi\n      tag_48\n      tag_32\n      jump\t// in\n    tag_48:\n    tag_47:\n      dup2\n      mstore\n      0x20\n      add\n      0x05\n      dup3\n      add\n      dup1\n      sload\n      tag_49\n      swap1\n      tag_25\n      jump\t// in\n    tag_49:\n      dup1\n      0x1f\n      add\n      0x20\n      dup1\n      swap2\n      div\n      mul\n      0x20\n      add\n      mload(0x40)\n      swap1\n      dup2\n      add\n      0x40\n      mstore\n      dup1\n      swap3\n      swap2\n      swap1\n      dup2\n      dup2\n      mstore\n      0x20\n      add\n      dup3\n      dup1\n      sload\n      tag_50\n      swap1\n      tag_25\n      jump\t// in\n    tag_50:\n      dup1\n      iszero\n      tag_51\n      jumpi\n      dup1\n      0x1f\n      lt\n      tag_52\n      jumpi\n      0x0100\n      dup1\n      dup4\n      sload\n      div\n      mul\n      dup4\n      mstore\n      swap2\n      0x20\n      add\n      swap2\n      jump(tag_51)\n    tag_52:\n      dup3\n      add\n      swap2\n      swap1\n      0x00\n      mstore\n      keccak256(0x00, 0x20)\n      swap1\n    tag_53:\n      dup2\n      sload\n      dup2\n      mstore\n      swap1\n      0x01\n      add\n      swap1\n      0x20\n      add\n      dup1\n      dup4\n      gt\n      tag_53\n      jumpi\n      dup3\n      swap1\n      sub\n      0x1f\n      and\n      dup3\n      add\n      swap2\n    tag_51:\n      pop\n      pop\n      pop\n      pop\n      pop\n      dup2\n      mstore\n      0x20\n      add\n      0x06\n      dup3\n      add\n      dup1\n      sload\n      tag_54\n      swap1\n      tag_25\n      jump\t// in\n    tag_54:\n      dup1\n      0x1f\n      add\n      0x20\n      dup1\n      swap2\n      div\n      mul\n      0x20\n      add\n      mload(0x40)\n      swap1\n      dup2\n      add\n      0x40\n      mstore\n      dup1\n      swap3\n      swap2\n      swap1\n      dup2\n      dup2\n      mstore\n      0x20\n      add\n      dup3\n      dup1\n      sload\n      tag_55\n      swap1\n      tag_25\n      jump\t// in\n    tag_55:\n      dup1\n      iszero\n      tag_56\n      jumpi\n      dup1\n      0x1f\n      lt\n      tag_57\n      jumpi\n      0x0100\n      dup1\n      dup4\n      sload\n      div\n      mul\n      dup4\n      mstore\n      swap2\n      0x20\n      add\n      swap2\n      jump(tag_56)\n    tag_57:\n      dup3\n      add\n      swap2\n      swap1\n      0x00\n      mstore\n      keccak256(0x00, 0x20)\n      swap1\n    tag_58:\n      dup2\n      sload\n      dup2\n      mstore\n      swap1\n      0x01\n      add\n      swap1\n      0x20\n      add\n      dup1\n      dup4\n      gt\n      tag_58\n      jumpi\n      dup3\n      swap1\n      sub\n      0x1f\n      and\n      dup3\n      add\n      swap2\n    tag_56:\n      pop\n      pop\n      pop\n      pop\n      pop\n      dup2\n      mstore\n      0x20\n      add\n      0x07\n      dup3\n      add\n      dup1\n      sload\n      tag_59\n      swap1\n      tag_25\n      jump\t// in\n    tag_59:\n      dup1\n      0x1f\n      add\n      0x20\n      dup1\n      swap2\n      div\n      mul\n      0x20\n      add\n      mload(0x40)\n      swap1\n      dup2\n      add\n      0x40\n      mstore\n      dup1\n      swap3\n      swap2\n      swap1\n      dup2\n      dup2\n      mstore\n      0x20\n      add\n      dup3\n      dup1\n      sload\n      tag_60\n      swap1\n      tag_25\n      jump\t// in\n    tag_60:\n      dup1\n      iszero\n      tag_61\n      jumpi\n      dup1\n      0x1f\n      lt\n      tag_62\n      jumpi\n      0x0100\n      dup1\n      dup4\n      sload\n      div\n      mul\n      dup4\n      mstore\n      swap2\n      0x20\n      add\n      swap2\n      jump(tag_61)\n    tag_62:\n      dup3\n      add\n      swap2\n      swap1\n      0x00\n      mstore\n      keccak256(0x00, 0x20)\n      swap1\n    tag_63:\n      dup2\n      sload\n      dup2\n      mstore\n      swap1\n      0x01\n      add\n      swap1\n      0x20\n      add\n      dup1\n      dup4\n      gt\n      tag_63\n      jumpi\n      dup3\n      swap1\n      sub\n      0x1f\n      and\n      dup3\n      add\n      swap2\n    tag_61:\n      pop\n      pop\n      pop\n      pop\n      pop\n      dup2\n      mstore\n      pop\n      pop\n      dup2\n      mstore\n      0x20\n      add\n      swap1\n      0x01\n      add\n      swap1\n      jump(tag_21)\n    tag_22:\n      pop\n      pop\n      pop\n      pop\n      swap1\n      pop\n        /* \"contracts/Transactions.sol\":1011:1120  function getAllTransactions() public view returns (Transaction[] memory) {... */\n      swap1\n      jump\t// out\n        /* \"contracts/Transactions.sol\":1126:1245  function addNewTransaction(Transaction memory newTransaction) public {... */\n    tag_13:\n        /* \"contracts/Transactions.sol\":1205:1217  transactions */\n      0x00\n        /* \"contracts/Transactions.sol\":1223:1237  newTransaction */\n      dup2\n        /* \"contracts/Transactions.sol\":1205:1238  transactions.push(newTransaction) */\n      swap1\n      dup1\n      0x01\n      dup2\n      sload\n      add\n      dup1\n      dup3\n      sstore\n      dup1\n      swap2\n      pop\n      pop\n      0x01\n      swap1\n      sub\n      swap1\n      0x00\n      mstore\n      keccak256(0x00, 0x20)\n      swap1\n      0x08\n      mul\n      add\n      0x00\n      swap1\n      swap2\n      swap1\n      swap2\n      swap1\n      swap2\n      pop\n      0x00\n      dup3\n      add\n      mload\n      dup2\n      0x00\n      add\n      swap1\n      dup2\n      tag_66\n      swap2\n      swap1\n      tag_67\n      jump\t// in\n    tag_66:\n      pop\n      0x20\n      dup3\n      add\n      mload\n      dup2\n      0x01\n      add\n      exp(0x0100, 0x00)\n      dup2\n      sload\n      dup2\n      0xff\n      mul\n      not\n      and\n      swap1\n      dup4\n      0x06\n      dup2\n      gt\n      iszero\n      tag_68\n      jumpi\n      tag_69\n      tag_32\n      jump\t// in\n    tag_69:\n    tag_68:\n      mul\n      or\n      swap1\n      sstore\n      pop\n      0x40\n      dup3\n      add\n      mload\n      dup2\n      0x02\n      add\n      swap1\n      dup2\n      tag_70\n      swap2\n      swap1\n      tag_67\n      jump\t// in\n    tag_70:\n      pop\n      0x60\n      dup3\n      add\n      mload\n      dup2\n      0x03\n      add\n      swap1\n      dup2\n      tag_71\n      swap2\n      swap1\n      tag_67\n      jump\t// in\n    tag_71:\n      pop\n      0x80\n      dup3\n      add\n      mload\n      dup2\n      0x04\n      add\n      exp(0x0100, 0x00)\n      dup2\n      sload\n      dup2\n      0xff\n      mul\n      not\n      and\n      swap1\n      dup4\n      0x06\n      dup2\n      gt\n      iszero\n      tag_72\n      jumpi\n      tag_73\n      tag_32\n      jump\t// in\n    tag_73:\n    tag_72:\n      mul\n      or\n      swap1\n      sstore\n      pop\n      0xa0\n      dup3\n      add\n      mload\n      dup2\n      0x05\n      add\n      swap1\n      dup2\n      tag_74\n      swap2\n      swap1\n      tag_67\n      jump\t// in\n    tag_74:\n      pop\n      0xc0\n      dup3\n      add\n      mload\n      dup2\n      0x06\n      add\n      swap1\n      dup2\n      tag_75\n      swap2\n      swap1\n      tag_67\n      jump\t// in\n    tag_75:\n      pop\n      0xe0\n      dup3\n      add\n      mload\n      dup2\n      0x07\n      add\n      swap1\n      dup2\n      tag_76\n      swap2\n      swap1\n      tag_67\n      jump\t// in\n    tag_76:\n      pop\n      pop\n      pop\n        /* \"contracts/Transactions.sol\":1126:1245  function addNewTransaction(Transaction memory newTransaction) public {... */\n      pop\n      jump\t// out\n        /* \"contracts/Transactions.sol\":555:588  Transaction[] public transactions */\n    tag_17:\n      0x00\n      dup2\n      dup2\n      sload\n      dup2\n      lt\n      tag_77\n      jumpi\n      0x00\n      dup1\n      revert\n    tag_77:\n      swap1\n      0x00\n      mstore\n      keccak256(0x00, 0x20)\n      swap1\n      0x08\n      mul\n      add\n      0x00\n      swap2\n      pop\n      swap1\n      pop\n      dup1\n      0x00\n      add\n      dup1\n      sload\n      tag_79\n      swap1\n      tag_25\n      jump\t// in\n    tag_79:\n      dup1\n      0x1f\n      add\n      0x20\n      dup1\n      swap2\n      div\n      mul\n      0x20\n      add\n      mload(0x40)\n      swap1\n      dup2\n      add\n      0x40\n      mstore\n      dup1\n      swap3\n      swap2\n      swap1\n      dup2\n      dup2\n      mstore\n      0x20\n      add\n      dup3\n      dup1\n      sload\n      tag_80\n      swap1\n      tag_25\n      jump\t// in\n    tag_80:\n      dup1\n      iszero\n      tag_81\n      jumpi\n      dup1\n      0x1f\n      lt\n      tag_82\n      jumpi\n      0x0100\n      dup1\n      dup4\n      sload\n      div\n      mul\n      dup4\n      mstore\n      swap2\n      0x20\n      add\n      swap2\n      jump(tag_81)\n    tag_82:\n      dup3\n      add\n      swap2\n      swap1\n      0x00\n      mstore\n      keccak256(0x00, 0x20)\n      swap1\n    tag_83:\n      dup2\n      sload\n      dup2\n      mstore\n      swap1\n      0x01\n      add\n      swap1\n      0x20\n      add\n      dup1\n      dup4\n      gt\n      tag_83\n      jumpi\n      dup3\n      swap1\n      sub\n      0x1f\n      and\n      dup3\n      add\n      swap2\n    tag_81:\n      pop\n      pop\n      pop\n      pop\n      pop\n      swap1\n      dup1\n      0x01\n      add\n      0x00\n      swap1\n      sload\n      swap1\n      0x0100\n      exp\n      swap1\n      div\n      0xff\n      and\n      swap1\n      dup1\n      0x02\n      add\n      dup1\n      sload\n      tag_84\n      swap1\n      tag_25\n      jump\t// in\n    tag_84:\n      dup1\n      0x1f\n      add\n      0x20\n      dup1\n      swap2\n      div\n      mul\n      0x20\n      add\n      mload(0x40)\n      swap1\n      dup2\n      add\n      0x40\n      mstore\n      dup1\n      swap3\n      swap2\n      swap1\n      dup2\n      dup2\n      mstore\n      0x20\n      add\n      dup3\n      dup1\n      sload\n      tag_85\n      swap1\n      tag_25\n      jump\t// in\n    tag_85:\n      dup1\n      iszero\n      tag_86\n      jumpi\n      dup1\n      0x1f\n      lt\n      tag_87\n      jumpi\n      0x0100\n      dup1\n      dup4\n      sload\n      div\n      mul\n      dup4\n      mstore\n      swap2\n      0x20\n      add\n      swap2\n      jump(tag_86)\n    tag_87:\n      dup3\n      add\n      swap2\n      swap1\n      0x00\n      mstore\n      keccak256(0x00, 0x20)\n      swap1\n    tag_88:\n      dup2\n      sload\n      dup2\n      mstore\n      swap1\n      0x01\n      add\n      swap1\n      0x20\n      add\n      dup1\n      dup4\n      gt\n      tag_88\n      jumpi\n      dup3\n      swap1\n      sub\n      0x1f\n      and\n      dup3\n      add\n      swap2\n    tag_86:\n      pop\n      pop\n      pop\n      pop\n      pop\n      swap1\n      dup1\n      0x03\n      add\n      dup1\n      sload\n      tag_89\n      swap1\n      tag_25\n      jump\t// in\n    tag_89:\n      dup1\n      0x1f\n      add\n      0x20\n      dup1\n      swap2\n      div\n      mul\n      0x20\n      add\n      mload(0x40)\n      swap1\n      dup2\n      add\n      0x40\n      mstore\n      dup1\n      swap3\n      swap2\n      swap1\n      dup2\n      dup2\n      mstore\n      0x20\n      add\n      dup3\n      dup1\n      sload\n      tag_90\n      swap1\n      tag_25\n      jump\t// in\n    tag_90:\n      dup1\n      iszero\n      tag_91\n      jumpi\n      dup1\n      0x1f\n      lt\n      tag_92\n      jumpi\n      0x0100\n      dup1\n      dup4\n      sload\n      div\n      mul\n      dup4\n      mstore\n      swap2\n      0x20\n      add\n      swap2\n      jump(tag_91)\n    tag_92:\n      dup3\n      add\n      swap2\n      swap1\n      0x00\n      mstore\n      keccak256(0x00, 0x20)\n      swap1\n    tag_93:\n      dup2\n      sload\n      dup2\n      mstore\n      swap1\n      0x01\n      add\n      swap1\n      0x20\n      add\n      dup1\n      dup4\n      gt\n      tag_93\n      jumpi\n      dup3\n      swap1\n      sub\n      0x1f\n      and\n      dup3\n      add\n      swap2\n    tag_91:\n      pop\n      pop\n      pop\n      pop\n      pop\n      swap1\n      dup1\n      0x04\n      add\n      0x00\n      swap1\n      sload\n      swap1\n      0x0100\n      exp\n      swap1\n      div\n      0xff\n      and\n      swap1\n      dup1\n      0x05\n      add\n      dup1\n      sload\n      tag_94\n      swap1\n      tag_25\n      jump\t// in\n    tag_94:\n      dup1\n      0x1f\n      add\n      0x20\n      dup1\n      swap2\n      div\n      mul\n      0x20\n      add\n      mload(0x40)\n      swap1\n      dup2\n      add\n      0x40\n      mstore\n      dup1\n      swap3\n      swap2\n      swap1\n      dup2\n      dup2\n      mstore\n      0x20\n      add\n      dup3\n      dup1\n      sload\n      tag_95\n      swap1\n      tag_25\n      jump\t// in\n    tag_95:\n      dup1\n      iszero\n      tag_96\n      jumpi\n      dup1\n      0x1f\n      lt\n      tag_97\n      jumpi\n      0x0100\n      dup1\n      dup4\n      sload\n      div\n      mul\n      dup4\n      mstore\n      swap2\n      0x20\n      add\n      swap2\n      jump(tag_96)\n    tag_97:\n      dup3\n      add\n      swap2\n      swap1\n      0x00\n      mstore\n      keccak256(0x00, 0x20)\n      swap1\n    tag_98:\n      dup2\n      sload\n      dup2\n      mstore\n      swap1\n      0x01\n      add\n      swap1\n      0x20\n      add\n      dup1\n      dup4\n      gt\n      tag_98\n      jumpi\n      dup3\n      swap1\n      sub\n      0x1f\n      and\n      dup3\n      add\n      swap2\n    tag_96:\n      pop\n      pop\n      pop\n      pop\n      pop\n      swap1\n      dup1\n      0x06\n      add\n      dup1\n      sload\n      tag_99\n      swap1\n      tag_25\n      jump\t// in\n    tag_99:\n      dup1\n      0x1f\n      add\n      0x20\n      dup1\n      swap2\n      div\n      mul\n      0x20\n      add\n      mload(0x40)\n      swap1\n      dup2\n      add\n      0x40\n      mstore\n      dup1\n      swap3\n      swap2\n      swap1\n      dup2\n      dup2\n      mstore\n      0x20\n      add\n      dup3\n      dup1\n      sload\n      tag_100\n      swap1\n      tag_25\n      jump\t// in\n    tag_100:\n      dup1\n      iszero\n      tag_101\n      jumpi\n      dup1\n      0x1f\n      lt\n      tag_102\n      jumpi\n      0x0100\n      dup1\n      dup4\n      sload\n      div\n      mul\n      dup4\n      mstore\n      swap2\n      0x20\n      add\n      swap2\n      jump(tag_101)\n    tag_102:\n      dup3\n      add\n      swap2\n      swap1\n      0x00\n      mstore\n      keccak256(0x00, 0x20)\n      swap1\n    tag_103:\n      dup2\n      sload\n      dup2\n      mstore\n      swap1\n      0x01\n      add\n      swap1\n      0x20\n      add\n      dup1\n      dup4\n      gt\n      tag_103\n      jumpi\n      dup3\n      swap1\n      sub\n      0x1f\n      and\n      dup3\n      add\n      swap2\n    tag_101:\n      pop\n      pop\n      pop\n      pop\n      pop\n      swap1\n      dup1\n      0x07\n      add\n      dup1\n      sload\n      tag_104\n      swap1\n      tag_25\n      jump\t// in\n    tag_104:\n      dup1\n      0x1f\n      add\n      0x20\n      dup1\n      swap2\n      div\n      mul\n      0x20\n      add\n      mload(0x40)\n      swap1\n      dup2\n      add\n      0x40\n      mstore\n      dup1\n      swap3\n      swap2\n      swap1\n      dup2\n      dup2\n      mstore\n      0x20\n      add\n      dup3\n      dup1\n      sload\n      tag_105\n      swap1\n      tag_25\n      jump\t// in\n    tag_105:\n      dup1\n      iszero\n      tag_106\n      jumpi\n      dup1\n      0x1f\n      lt\n      tag_107\n      jumpi\n      0x0100\n      dup1\n      dup4\n      sload\n      div\n      mul\n      dup4\n      mstore\n      swap2\n      0x20\n      add\n      swap2\n      jump(tag_106)\n    tag_107:\n      dup3\n      add\n      swap2\n      swap1\n      0x00\n      mstore\n      keccak256(0x00, 0x20)\n      swap1\n    tag_108:\n      dup2\n      sload\n      dup2\n      mstore\n      swap1\n      0x01\n      add\n      swap1\n      0x20\n      add\n      dup1\n      dup4\n      gt\n      tag_108\n      jumpi\n      dup3\n      swap1\n      sub\n      0x1f\n      and\n      dup3\n      add\n      swap2\n    tag_106:\n      pop\n      pop\n      pop\n      pop\n      pop\n      swap1\n      pop\n      dup9\n      jump\t// out\n        /* \"#utility.yul\":7:148   */\n    tag_109:\n        /* \"#utility.yul\":101:107   */\n      0x00\n        /* \"#utility.yul\":135:140   */\n      dup2\n        /* \"#utility.yul\":129:141   */\n      mload\n        /* \"#utility.yul\":119:141   */\n      swap1\n      pop\n        /* \"#utility.yul\":7:148   */\n      swap2\n      swap1\n      pop\n      jump\t// out\n        /* \"#utility.yul\":154:365   */\n    tag_110:\n        /* \"#utility.yul\":280:291   */\n      0x00\n        /* \"#utility.yul\":314:320   */\n      dup3\n        /* \"#utility.yul\":309:312   */\n      dup3\n        /* \"#utility.yul\":302:321   */\n      mstore\n        /* \"#utility.yul\":354:358   */\n      0x20\n        /* \"#utility.yul\":349:352   */\n      dup3\n        /* \"#utility.yul\":345:359   */\n      add\n        /* \"#utility.yul\":330:359   */\n      swap1\n      pop\n        /* \"#utility.yul\":154:365   */\n      swap3\n      swap2\n      pop\n      pop\n      jump\t// out\n        /* \"#utility.yul\":371:530   */\n    tag_111:\n        /* \"#utility.yul\":465:469   */\n      0x00\n        /* \"#utility.yul\":488:491   */\n      dup2\n        /* \"#utility.yul\":480:491   */\n      swap1\n      pop\n        /* \"#utility.yul\":518:522   */\n      0x20\n        /* \"#utility.yul\":513:516   */\n      dup3\n        /* \"#utility.yul\":509:523   */\n      add\n        /* \"#utility.yul\":501:523   */\n      swap1\n      pop\n        /* \"#utility.yul\":371:530   */\n      swap2\n      swap1\n      pop\n      jump\t// out\n        /* \"#utility.yul\":536:635   */\n    tag_112:\n        /* \"#utility.yul\":588:594   */\n      0x00\n        /* \"#utility.yul\":622:627   */\n      dup2\n        /* \"#utility.yul\":616:628   */\n      mload\n        /* \"#utility.yul\":606:628   */\n      swap1\n      pop\n        /* \"#utility.yul\":536:635   */\n      swap2\n      swap1\n      pop\n      jump\t// out\n        /* \"#utility.yul\":641:800   */\n    tag_113:\n        /* \"#utility.yul\":715:726   */\n      0x00\n        /* \"#utility.yul\":749:755   */\n      dup3\n        /* \"#utility.yul\":744:747   */\n      dup3\n        /* \"#utility.yul\":737:756   */\n      mstore\n        /* \"#utility.yul\":789:793   */\n      0x20\n        /* \"#utility.yul\":784:787   */\n      dup3\n        /* \"#utility.yul\":780:794   */\n      add\n        /* \"#utility.yul\":765:794   */\n      swap1\n      pop\n        /* \"#utility.yul\":641:800   */\n      swap3\n      swap2\n      pop\n      pop\n      jump\t// out\n        /* \"#utility.yul\":806:945   */\n    tag_114:\n        /* \"#utility.yul\":895:901   */\n      dup3\n        /* \"#utility.yul\":890:893   */\n      dup2\n        /* \"#utility.yul\":885:888   */\n      dup4\n        /* \"#utility.yul\":879:902   */\n      mcopy\n        /* \"#utility.yul\":936:937   */\n      0x00\n        /* \"#utility.yul\":927:933   */\n      dup4\n        /* \"#utility.yul\":922:925   */\n      dup4\n        /* \"#utility.yul\":918:934   */\n      add\n        /* \"#utility.yul\":911:938   */\n      mstore\n        /* \"#utility.yul\":806:945   */\n      pop\n      pop\n      pop\n      jump\t// out\n        /* \"#utility.yul\":951:1053   */\n    tag_115:\n        /* \"#utility.yul\":992:998   */\n      0x00\n        /* \"#utility.yul\":1043:1045   */\n      0x1f\n        /* \"#utility.yul\":1039:1046   */\n      not\n        /* \"#utility.yul\":1034:1036   */\n      0x1f\n        /* \"#utility.yul\":1027:1032   */\n      dup4\n        /* \"#utility.yul\":1023:1037   */\n      add\n        /* \"#utility.yul\":1019:1047   */\n      and\n        /* \"#utility.yul\":1009:1047   */\n      swap1\n      pop\n        /* \"#utility.yul\":951:1053   */\n      swap2\n      swap1\n      pop\n      jump\t// out\n        /* \"#utility.yul\":1059:1416   */\n    tag_116:\n        /* \"#utility.yul\":1137:1140   */\n      0x00\n        /* \"#utility.yul\":1165:1204   */\n      tag_173\n        /* \"#utility.yul\":1198:1203   */\n      dup3\n        /* \"#utility.yul\":1165:1204   */\n      tag_112\n      jump\t// in\n    tag_173:\n        /* \"#utility.yul\":1220:1281   */\n      tag_174\n        /* \"#utility.yul\":1274:1280   */\n      dup2\n        /* \"#utility.yul\":1269:1272   */\n      dup6\n        /* \"#utility.yul\":1220:1281   */\n      tag_113\n      jump\t// in\n    tag_174:\n        /* \"#utility.yul\":1213:1281   */\n      swap4\n      pop\n        /* \"#utility.yul\":1290:1355   */\n      tag_175\n        /* \"#utility.yul\":1348:1354   */\n      dup2\n        /* \"#utility.yul\":1343:1346   */\n      dup6\n        /* \"#utility.yul\":1336:1340   */\n      0x20\n        /* \"#utility.yul\":1329:1334   */\n      dup7\n        /* \"#utility.yul\":1325:1341   */\n      add\n        /* \"#utility.yul\":1290:1355   */\n      tag_114\n      jump\t// in\n    tag_175:\n        /* \"#utility.yul\":1380:1409   */\n      tag_176\n        /* \"#utility.yul\":1402:1408   */\n      dup2\n        /* \"#utility.yul\":1380:1409   */\n      tag_115\n      jump\t// in\n    tag_176:\n        /* \"#utility.yul\":1375:1378   */\n      dup5\n        /* \"#utility.yul\":1371:1410   */\n      add\n        /* \"#utility.yul\":1364:1410   */\n      swap2\n      pop\n        /* \"#utility.yul\":1141:1416   */\n      pop\n        /* \"#utility.yul\":1059:1416   */\n      swap3\n      swap2\n      pop\n      pop\n      jump\t// out\n        /* \"#utility.yul\":1422:1602   */\n    tag_32:\n        /* \"#utility.yul\":1470:1547   */\n      0x4e487b7100000000000000000000000000000000000000000000000000000000\n        /* \"#utility.yul\":1467:1468   */\n      0x00\n        /* \"#utility.yul\":1460:1548   */\n      mstore\n        /* \"#utility.yul\":1567:1571   */\n      0x21\n        /* \"#utility.yul\":1564:1565   */\n      0x04\n        /* \"#utility.yul\":1557:1572   */\n      mstore\n        /* \"#utility.yul\":1591:1595   */\n      0x24\n        /* \"#utility.yul\":1588:1589   */\n      0x00\n        /* \"#utility.yul\":1581:1596   */\n      revert\n        /* \"#utility.yul\":1608:1725   */\n    tag_117:\n        /* \"#utility.yul\":1693:1694   */\n      0x07\n        /* \"#utility.yul\":1686:1691   */\n      dup2\n        /* \"#utility.yul\":1683:1695   */\n      lt\n        /* \"#utility.yul\":1673:1719   */\n      tag_179\n      jumpi\n        /* \"#utility.yul\":1699:1717   */\n      tag_180\n      tag_32\n      jump\t// in\n    tag_180:\n        /* \"#utility.yul\":1673:1719   */\n    tag_179:\n        /* \"#utility.yul\":1608:1725   */\n      pop\n      jump\t// out\n        /* \"#utility.yul\":1731:1866   */\n    tag_118:\n        /* \"#utility.yul\":1780:1787   */\n      0x00\n        /* \"#utility.yul\":1809:1814   */\n      dup2\n        /* \"#utility.yul\":1798:1814   */\n      swap1\n      pop\n        /* \"#utility.yul\":1815:1860   */\n      tag_182\n        /* \"#utility.yul\":1854:1859   */\n      dup3\n        /* \"#utility.yul\":1815:1860   */\n      tag_117\n      jump\t// in\n    tag_182:\n        /* \"#utility.yul\":1731:1866   */\n      swap2\n      swap1\n      pop\n      jump\t// out\n        /* \"#utility.yul\":1872:2007   */\n    tag_119:\n        /* \"#utility.yul\":1932:1941   */\n      0x00\n        /* \"#utility.yul\":1965:2001   */\n      tag_184\n        /* \"#utility.yul\":1995:2000   */\n      dup3\n        /* \"#utility.yul\":1965:2001   */\n      tag_118\n      jump\t// in\n    tag_184:\n        /* \"#utility.yul\":1952:2001   */\n      swap1\n      pop\n        /* \"#utility.yul\":1872:2007   */\n      swap2\n      swap1\n      pop\n      jump\t// out\n        /* \"#utility.yul\":2013:2154   */\n    tag_120:\n        /* \"#utility.yul\":2100:2147   */\n      tag_186\n        /* \"#utility.yul\":2141:2146   */\n      dup2\n        /* \"#utility.yul\":2100:2147   */\n      tag_119\n      jump\t// in\n    tag_186:\n        /* \"#utility.yul\":2095:2098   */\n      dup3\n        /* \"#utility.yul\":2088:2148   */\n      mstore\n        /* \"#utility.yul\":2013:2154   */\n      pop\n      pop\n      jump\t// out\n        /* \"#utility.yul\":2234:4344   */\n    tag_121:\n        /* \"#utility.yul\":2347:2350   */\n      0x00\n        /* \"#utility.yul\":2383:2389   */\n      0x0100\n        /* \"#utility.yul\":2378:2381   */\n      dup4\n        /* \"#utility.yul\":2374:2390   */\n      add\n        /* \"#utility.yul\":2485:2489   */\n      0x00\n        /* \"#utility.yul\":2478:2483   */\n      dup4\n        /* \"#utility.yul\":2474:2490   */\n      add\n        /* \"#utility.yul\":2468:2491   */\n      mload\n        /* \"#utility.yul\":2538:2541   */\n      dup5\n        /* \"#utility.yul\":2532:2536   */\n      dup3\n        /* \"#utility.yul\":2528:2542   */\n      sub\n        /* \"#utility.yul\":2521:2525   */\n      0x00\n        /* \"#utility.yul\":2516:2519   */\n      dup7\n        /* \"#utility.yul\":2512:2526   */\n      add\n        /* \"#utility.yul\":2505:2543   */\n      mstore\n        /* \"#utility.yul\":2564:2637   */\n      tag_188\n        /* \"#utility.yul\":2632:2636   */\n      dup3\n        /* \"#utility.yul\":2618:2630   */\n      dup3\n        /* \"#utility.yul\":2564:2637   */\n      tag_116\n      jump\t// in\n    tag_188:\n        /* \"#utility.yul\":2556:2637   */\n      swap2\n      pop\n        /* \"#utility.yul\":2400:2648   */\n      pop\n        /* \"#utility.yul\":2745:2749   */\n      0x20\n        /* \"#utility.yul\":2738:2743   */\n      dup4\n        /* \"#utility.yul\":2734:2750   */\n      add\n        /* \"#utility.yul\":2728:2751   */\n      mload\n        /* \"#utility.yul\":2764:2837   */\n      tag_189\n        /* \"#utility.yul\":2831:2835   */\n      0x20\n        /* \"#utility.yul\":2826:2829   */\n      dup7\n        /* \"#utility.yul\":2822:2836   */\n      add\n        /* \"#utility.yul\":2808:2820   */\n      dup3\n        /* \"#utility.yul\":2764:2837   */\n      tag_120\n      jump\t// in\n    tag_189:\n        /* \"#utility.yul\":2658:2847   */\n      pop\n        /* \"#utility.yul\":2931:2935   */\n      0x40\n        /* \"#utility.yul\":2924:2929   */\n      dup4\n        /* \"#utility.yul\":2920:2936   */\n      add\n        /* \"#utility.yul\":2914:2937   */\n      mload\n        /* \"#utility.yul\":2984:2987   */\n      dup5\n        /* \"#utility.yul\":2978:2982   */\n      dup3\n        /* \"#utility.yul\":2974:2988   */\n      sub\n        /* \"#utility.yul\":2967:2971   */\n      0x40\n        /* \"#utility.yul\":2962:2965   */\n      dup7\n        /* \"#utility.yul\":2958:2972   */\n      add\n        /* \"#utility.yul\":2951:2989   */\n      mstore\n        /* \"#utility.yul\":3010:3083   */\n      tag_190\n        /* \"#utility.yul\":3078:3082   */\n      dup3\n        /* \"#utility.yul\":3064:3076   */\n      dup3\n        /* \"#utility.yul\":3010:3083   */\n      tag_116\n      jump\t// in\n    tag_190:\n        /* \"#utility.yul\":3002:3083   */\n      swap2\n      pop\n        /* \"#utility.yul\":2857:3094   */\n      pop\n        /* \"#utility.yul\":3189:3193   */\n      0x60\n        /* \"#utility.yul\":3182:3187   */\n      dup4\n        /* \"#utility.yul\":3178:3194   */\n      add\n        /* \"#utility.yul\":3172:3195   */\n      mload\n        /* \"#utility.yul\":3242:3245   */\n      dup5\n        /* \"#utility.yul\":3236:3240   */\n      dup3\n        /* \"#utility.yul\":3232:3246   */\n      sub\n        /* \"#utility.yul\":3225:3229   */\n      0x60\n        /* \"#utility.yul\":3220:3223   */\n      dup7\n        /* \"#utility.yul\":3216:3230   */\n      add\n        /* \"#utility.yul\":3209:3247   */\n      mstore\n        /* \"#utility.yul\":3268:3341   */\n      tag_191\n        /* \"#utility.yul\":3336:3340   */\n      dup3\n        /* \"#utility.yul\":3322:3334   */\n      dup3\n        /* \"#utility.yul\":3268:3341   */\n      tag_116\n      jump\t// in\n    tag_191:\n        /* \"#utility.yul\":3260:3341   */\n      swap2\n      pop\n        /* \"#utility.yul\":3104:3352   */\n      pop\n        /* \"#utility.yul\":3449:3453   */\n      0x80\n        /* \"#utility.yul\":3442:3447   */\n      dup4\n        /* \"#utility.yul\":3438:3454   */\n      add\n        /* \"#utility.yul\":3432:3455   */\n      mload\n        /* \"#utility.yul\":3468:3541   */\n      tag_192\n        /* \"#utility.yul\":3535:3539   */\n      0x80\n        /* \"#utility.yul\":3530:3533   */\n      dup7\n        /* \"#utility.yul\":3526:3540   */\n      add\n        /* \"#utility.yul\":3512:3524   */\n      dup3\n        /* \"#utility.yul\":3468:3541   */\n      tag_120\n      jump\t// in\n    tag_192:\n        /* \"#utility.yul\":3362:3551   */\n      pop\n        /* \"#utility.yul\":3644:3648   */\n      0xa0\n        /* \"#utility.yul\":3637:3642   */\n      dup4\n        /* \"#utility.yul\":3633:3649   */\n      add\n        /* \"#utility.yul\":3627:3650   */\n      mload\n        /* \"#utility.yul\":3697:3700   */\n      dup5\n        /* \"#utility.yul\":3691:3695   */\n      dup3\n        /* \"#utility.yul\":3687:3701   */\n      sub\n        /* \"#utility.yul\":3680:3684   */\n      0xa0\n        /* \"#utility.yul\":3675:3678   */\n      dup7\n        /* \"#utility.yul\":3671:3685   */\n      add\n        /* \"#utility.yul\":3664:3702   */\n      mstore\n        /* \"#utility.yul\":3723:3796   */\n      tag_193\n        /* \"#utility.yul\":3791:3795   */\n      dup3\n        /* \"#utility.yul\":3777:3789   */\n      dup3\n        /* \"#utility.yul\":3723:3796   */\n      tag_116\n      jump\t// in\n    tag_193:\n        /* \"#utility.yul\":3715:3796   */\n      swap2\n      pop\n        /* \"#utility.yul\":3561:3807   */\n      pop\n        /* \"#utility.yul\":3903:3907   */\n      0xc0\n        /* \"#utility.yul\":3896:3901   */\n      dup4\n        /* \"#utility.yul\":3892:3908   */\n      add\n        /* \"#utility.yul\":3886:3909   */\n      mload\n        /* \"#utility.yul\":3956:3959   */\n      dup5\n        /* \"#utility.yul\":3950:3954   */\n      dup3\n        /* \"#utility.yul\":3946:3960   */\n      sub\n        /* \"#utility.yul\":3939:3943   */\n      0xc0\n        /* \"#utility.yul\":3934:3937   */\n      dup7\n        /* \"#utility.yul\":3930:3944   */\n      add\n        /* \"#utility.yul\":3923:3961   */\n      mstore\n        /* \"#utility.yul\":3982:4055   */\n      tag_194\n        /* \"#utility.yul\":4050:4054   */\n      dup3\n        /* \"#utility.yul\":4036:4048   */\n      dup3\n        /* \"#utility.yul\":3982:4055   */\n      tag_116\n      jump\t// in\n    tag_194:\n        /* \"#utility.yul\":3974:4055   */\n      swap2\n      pop\n        /* \"#utility.yul\":3817:4066   */\n      pop\n        /* \"#utility.yul\":4154:4158   */\n      0xe0\n        /* \"#utility.yul\":4147:4152   */\n      dup4\n        /* \"#utility.yul\":4143:4159   */\n      add\n        /* \"#utility.yul\":4137:4160   */\n      mload\n        /* \"#utility.yul\":4207:4210   */\n      dup5\n        /* \"#utility.yul\":4201:4205   */\n      dup3\n        /* \"#utility.yul\":4197:4211   */\n      sub\n        /* \"#utility.yul\":4190:4194   */\n      0xe0\n        /* \"#utility.yul\":4185:4188   */\n      dup7\n        /* \"#utility.yul\":4181:4195   */\n      add\n        /* \"#utility.yul\":4174:4212   */\n      mstore\n        /* \"#utility.yul\":4233:4306   */\n      tag_195\n        /* \"#utility.yul\":4301:4305   */\n      dup3\n        /* \"#utility.yul\":4287:4299   */\n      dup3\n        /* \"#utility.yul\":4233:4306   */\n      tag_116\n      jump\t// in\n    tag_195:\n        /* \"#utility.yul\":4225:4306   */\n      swap2\n      pop\n        /* \"#utility.yul\":4076:4317   */\n      pop\n        /* \"#utility.yul\":4334:4338   */\n      dup1\n        /* \"#utility.yul\":4327:4338   */\n      swap2\n      pop\n        /* \"#utility.yul\":2352:4344   */\n      pop\n        /* \"#utility.yul\":2234:4344   */\n      swap3\n      swap2\n      pop\n      pop\n      jump\t// out\n        /* \"#utility.yul\":4350:4614   */\n    tag_122:\n        /* \"#utility.yul\":4473:4483   */\n      0x00\n        /* \"#utility.yul\":4508:4608   */\n      tag_197\n        /* \"#utility.yul\":4604:4607   */\n      dup4\n        /* \"#utility.yul\":4596:4602   */\n      dup4\n        /* \"#utility.yul\":4508:4608   */\n      tag_121\n      jump\t// in\n    tag_197:\n        /* \"#utility.yul\":4494:4608   */\n      swap1\n      pop\n        /* \"#utility.yul\":4350:4614   */\n      swap3\n      swap2\n      pop\n      pop\n      jump\t// out\n        /* \"#utility.yul\":4620:4760   */\n    tag_123:\n        /* \"#utility.yul\":4717:4721   */\n      0x00\n        /* \"#utility.yul\":4749:4753   */\n      0x20\n        /* \"#utility.yul\":4744:4747   */\n      dup3\n        /* \"#utility.yul\":4740:4754   */\n      add\n        /* \"#utility.yul\":4732:4754   */\n      swap1\n      pop\n        /* \"#utility.yul\":4620:4760   */\n      swap2\n      swap1\n      pop\n      jump\t// out\n        /* \"#utility.yul\":4844:5971   */\n    tag_124:\n        /* \"#utility.yul\":5017:5020   */\n      0x00\n        /* \"#utility.yul\":5046:5127   */\n      tag_200\n        /* \"#utility.yul\":5121:5126   */\n      dup3\n        /* \"#utility.yul\":5046:5127   */\n      tag_109\n      jump\t// in\n    tag_200:\n        /* \"#utility.yul\":5143:5256   */\n      tag_201\n        /* \"#utility.yul\":5249:5255   */\n      dup2\n        /* \"#utility.yul\":5244:5247   */\n      dup6\n        /* \"#utility.yul\":5143:5256   */\n      tag_110\n      jump\t// in\n    tag_201:\n        /* \"#utility.yul\":5136:5256   */\n      swap4\n      pop\n        /* \"#utility.yul\":5282:5285   */\n      dup4\n        /* \"#utility.yul\":5327:5331   */\n      0x20\n        /* \"#utility.yul\":5319:5325   */\n      dup3\n        /* \"#utility.yul\":5315:5332   */\n      mul\n        /* \"#utility.yul\":5310:5313   */\n      dup6\n        /* \"#utility.yul\":5306:5333   */\n      add\n        /* \"#utility.yul\":5357:5440   */\n      tag_202\n        /* \"#utility.yul\":5434:5439   */\n      dup6\n        /* \"#utility.yul\":5357:5440   */\n      tag_111\n      jump\t// in\n    tag_202:\n        /* \"#utility.yul\":5463:5470   */\n      dup1\n        /* \"#utility.yul\":5494:5495   */\n      0x00\n        /* \"#utility.yul\":5479:5926   */\n    tag_203:\n        /* \"#utility.yul\":5504:5510   */\n      dup6\n        /* \"#utility.yul\":5501:5502   */\n      dup2\n        /* \"#utility.yul\":5498:5511   */\n      lt\n        /* \"#utility.yul\":5479:5926   */\n      iszero\n      tag_205\n      jumpi\n        /* \"#utility.yul\":5575:5584   */\n      dup5\n        /* \"#utility.yul\":5569:5573   */\n      dup5\n        /* \"#utility.yul\":5565:5585   */\n      sub\n        /* \"#utility.yul\":5560:5563   */\n      dup10\n        /* \"#utility.yul\":5553:5586   */\n      mstore\n        /* \"#utility.yul\":5626:5632   */\n      dup2\n        /* \"#utility.yul\":5620:5633   */\n      mload\n        /* \"#utility.yul\":5654:5772   */\n      tag_206\n        /* \"#utility.yul\":5767:5771   */\n      dup6\n        /* \"#utility.yul\":5752:5765   */\n      dup3\n        /* \"#utility.yul\":5654:5772   */\n      tag_122\n      jump\t// in\n    tag_206:\n        /* \"#utility.yul\":5646:5772   */\n      swap5\n      pop\n        /* \"#utility.yul\":5795:5882   */\n      tag_207\n        /* \"#utility.yul\":5875:5881   */\n      dup4\n        /* \"#utility.yul\":5795:5882   */\n      tag_123\n      jump\t// in\n    tag_207:\n        /* \"#utility.yul\":5785:5882   */\n      swap3\n      pop\n        /* \"#utility.yul\":5911:5915   */\n      0x20\n        /* \"#utility.yul\":5906:5909   */\n      dup11\n        /* \"#utility.yul\":5902:5916   */\n      add\n        /* \"#utility.yul\":5895:5916   */\n      swap10\n      pop\n        /* \"#utility.yul\":5539:5926   */\n      pop\n        /* \"#utility.yul\":5526:5527   */\n      0x01\n        /* \"#utility.yul\":5523:5524   */\n      dup2\n        /* \"#utility.yul\":5519:5528   */\n      add\n        /* \"#utility.yul\":5514:5528   */\n      swap1\n      pop\n        /* \"#utility.yul\":5479:5926   */\n      jump(tag_203)\n    tag_205:\n        /* \"#utility.yul\":5483:5497   */\n      pop\n        /* \"#utility.yul\":5942:5946   */\n      dup3\n        /* \"#utility.yul\":5935:5946   */\n      swap8\n      pop\n        /* \"#utility.yul\":5962:5965   */\n      dup8\n        /* \"#utility.yul\":5955:5965   */\n      swap6\n      pop\n        /* \"#utility.yul\":5022:5971   */\n      pop\n      pop\n      pop\n      pop\n      pop\n        /* \"#utility.yul\":4844:5971   */\n      swap3\n      swap2\n      pop\n      pop\n      jump\t// out\n        /* \"#utility.yul\":5977:6458   */\n    tag_9:\n        /* \"#utility.yul\":6174:6178   */\n      0x00\n        /* \"#utility.yul\":6212:6214   */\n      0x20\n        /* \"#utility.yul\":6201:6210   */\n      dup3\n        /* \"#utility.yul\":6197:6215   */\n      add\n        /* \"#utility.yul\":6189:6215   */\n      swap1\n      pop\n        /* \"#utility.yul\":6261:6270   */\n      dup2\n        /* \"#utility.yul\":6255:6259   */\n      dup2\n        /* \"#utility.yul\":6251:6271   */\n      sub\n        /* \"#utility.yul\":6247:6248   */\n      0x00\n        /* \"#utility.yul\":6236:6245   */\n      dup4\n        /* \"#utility.yul\":6232:6249   */\n      add\n        /* \"#utility.yul\":6225:6272   */\n      mstore\n        /* \"#utility.yul\":6289:6451   */\n      tag_209\n        /* \"#utility.yul\":6446:6450   */\n      dup2\n        /* \"#utility.yul\":6437:6443   */\n      dup5\n        /* \"#utility.yul\":6289:6451   */\n      tag_124\n      jump\t// in\n    tag_209:\n        /* \"#utility.yul\":6281:6451   */\n      swap1\n      pop\n        /* \"#utility.yul\":5977:6458   */\n      swap3\n      swap2\n      pop\n      pop\n      jump\t// out\n        /* \"#utility.yul\":6464:6539   */\n    tag_125:\n        /* \"#utility.yul\":6497:6503   */\n      0x00\n        /* \"#utility.yul\":6530:6532   */\n      0x40\n        /* \"#utility.yul\":6524:6533   */\n      mload\n        /* \"#utility.yul\":6514:6533   */\n      swap1\n      pop\n        /* \"#utility.yul\":6464:6539   */\n      swap1\n      jump\t// out\n        /* \"#utility.yul\":6545:6662   */\n    tag_126:\n        /* \"#utility.yul\":6654:6655   */\n      0x00\n        /* \"#utility.yul\":6651:6652   */\n      dup1\n        /* \"#utility.yul\":6644:6656   */\n      revert\n        /* \"#utility.yul\":6668:6785   */\n    tag_127:\n        /* \"#utility.yul\":6777:6778   */\n      0x00\n        /* \"#utility.yul\":6774:6775   */\n      dup1\n        /* \"#utility.yul\":6767:6779   */\n      revert\n        /* \"#utility.yul\":6791:6908   */\n    tag_128:\n        /* \"#utility.yul\":6900:6901   */\n      0x00\n        /* \"#utility.yul\":6897:6898   */\n      dup1\n        /* \"#utility.yul\":6890:6902   */\n      revert\n        /* \"#utility.yul\":6914:7094   */\n    tag_129:\n        /* \"#utility.yul\":6962:7039   */\n      0x4e487b7100000000000000000000000000000000000000000000000000000000\n        /* \"#utility.yul\":6959:6960   */\n      0x00\n        /* \"#utility.yul\":6952:7040   */\n      mstore\n        /* \"#utility.yul\":7059:7063   */\n      0x41\n        /* \"#utility.yul\":7056:7057   */\n      0x04\n        /* \"#utility.yul\":7049:7064   */\n      mstore\n        /* \"#utility.yul\":7083:7087   */\n      0x24\n        /* \"#utility.yul\":7080:7081   */\n      0x00\n        /* \"#utility.yul\":7073:7088   */\n      revert\n        /* \"#utility.yul\":7100:7381   */\n    tag_130:\n        /* \"#utility.yul\":7183:7210   */\n      tag_216\n        /* \"#utility.yul\":7205:7209   */\n      dup3\n        /* \"#utility.yul\":7183:7210   */\n      tag_115\n      jump\t// in\n    tag_216:\n        /* \"#utility.yul\":7175:7181   */\n      dup2\n        /* \"#utility.yul\":7171:7211   */\n      add\n        /* \"#utility.yul\":7313:7319   */\n      dup2\n        /* \"#utility.yul\":7301:7311   */\n      dup2\n        /* \"#utility.yul\":7298:7320   */\n      lt\n        /* \"#utility.yul\":7277:7295   */\n      0xffffffffffffffff\n        /* \"#utility.yul\":7265:7275   */\n      dup3\n        /* \"#utility.yul\":7262:7296   */\n      gt\n        /* \"#utility.yul\":7259:7321   */\n      or\n        /* \"#utility.yul\":7256:7344   */\n      iszero\n      tag_217\n      jumpi\n        /* \"#utility.yul\":7324:7342   */\n      tag_218\n      tag_129\n      jump\t// in\n    tag_218:\n        /* \"#utility.yul\":7256:7344   */\n    tag_217:\n        /* \"#utility.yul\":7364:7374   */\n      dup1\n        /* \"#utility.yul\":7360:7362   */\n      0x40\n        /* \"#utility.yul\":7353:7375   */\n      mstore\n        /* \"#utility.yul\":7143:7381   */\n      pop\n        /* \"#utility.yul\":7100:7381   */\n      pop\n      pop\n      jump\t// out\n        /* \"#utility.yul\":7387:7516   */\n    tag_131:\n        /* \"#utility.yul\":7421:7427   */\n      0x00\n        /* \"#utility.yul\":7448:7468   */\n      tag_220\n      tag_125\n      jump\t// in\n    tag_220:\n        /* \"#utility.yul\":7438:7468   */\n      swap1\n      pop\n        /* \"#utility.yul\":7477:7510   */\n      tag_221\n        /* \"#utility.yul\":7505:7509   */\n      dup3\n        /* \"#utility.yul\":7497:7503   */\n      dup3\n        /* \"#utility.yul\":7477:7510   */\n      tag_130\n      jump\t// in\n    tag_221:\n        /* \"#utility.yul\":7387:7516   */\n      swap2\n      swap1\n      pop\n      jump\t// out\n        /* \"#utility.yul\":7522:7639   */\n    tag_132:\n        /* \"#utility.yul\":7631:7632   */\n      0x00\n        /* \"#utility.yul\":7628:7629   */\n      dup1\n        /* \"#utility.yul\":7621:7633   */\n      revert\n        /* \"#utility.yul\":7645:7762   */\n    tag_133:\n        /* \"#utility.yul\":7754:7755   */\n      0x00\n        /* \"#utility.yul\":7751:7752   */\n      dup1\n        /* \"#utility.yul\":7744:7756   */\n      revert\n        /* \"#utility.yul\":7768:7885   */\n    tag_134:\n        /* \"#utility.yul\":7877:7878   */\n      0x00\n        /* \"#utility.yul\":7874:7875   */\n      dup1\n        /* \"#utility.yul\":7867:7879   */\n      revert\n        /* \"#utility.yul\":7891:8199   */\n    tag_135:\n        /* \"#utility.yul\":7953:7957   */\n      0x00\n        /* \"#utility.yul\":8043:8061   */\n      0xffffffffffffffff\n        /* \"#utility.yul\":8035:8041   */\n      dup3\n        /* \"#utility.yul\":8032:8062   */\n      gt\n        /* \"#utility.yul\":8029:8085   */\n      iszero\n      tag_226\n      jumpi\n        /* \"#utility.yul\":8065:8083   */\n      tag_227\n      tag_129\n      jump\t// in\n    tag_227:\n        /* \"#utility.yul\":8029:8085   */\n    tag_226:\n        /* \"#utility.yul\":8103:8132   */\n      tag_228\n        /* \"#utility.yul\":8125:8131   */\n      dup3\n        /* \"#utility.yul\":8103:8132   */\n      tag_115\n      jump\t// in\n    tag_228:\n        /* \"#utility.yul\":8095:8132   */\n      swap1\n      pop\n        /* \"#utility.yul\":8187:8191   */\n      0x20\n        /* \"#utility.yul\":8181:8185   */\n      dup2\n        /* \"#utility.yul\":8177:8192   */\n      add\n        /* \"#utility.yul\":8169:8192   */\n      swap1\n      pop\n        /* \"#utility.yul\":7891:8199   */\n      swap2\n      swap1\n      pop\n      jump\t// out\n        /* \"#utility.yul\":8205:8353   */\n    tag_136:\n        /* \"#utility.yul\":8303:8309   */\n      dup3\n        /* \"#utility.yul\":8298:8301   */\n      dup2\n        /* \"#utility.yul\":8293:8296   */\n      dup4\n        /* \"#utility.yul\":8280:8310   */\n      calldatacopy\n        /* \"#utility.yul\":8344:8345   */\n      0x00\n        /* \"#utility.yul\":8335:8341   */\n      dup4\n        /* \"#utility.yul\":8330:8333   */\n      dup4\n        /* \"#utility.yul\":8326:8342   */\n      add\n        /* \"#utility.yul\":8319:8346   */\n      mstore\n        /* \"#utility.yul\":8205:8353   */\n      pop\n      pop\n      pop\n      jump\t// out\n        /* \"#utility.yul\":8359:8784   */\n    tag_137:\n        /* \"#utility.yul\":8437:8442   */\n      0x00\n        /* \"#utility.yul\":8462:8528   */\n      tag_231\n        /* \"#utility.yul\":8478:8527   */\n      tag_232\n        /* \"#utility.yul\":8520:8526   */\n      dup5\n        /* \"#utility.yul\":8478:8527   */\n      tag_135\n      jump\t// in\n    tag_232:\n        /* \"#utility.yul\":8462:8528   */\n      tag_131\n      jump\t// in\n    tag_231:\n        /* \"#utility.yul\":8453:8528   */\n      swap1\n      pop\n        /* \"#utility.yul\":8551:8557   */\n      dup3\n        /* \"#utility.yul\":8544:8549   */\n      dup2\n        /* \"#utility.yul\":8537:8558   */\n      mstore\n        /* \"#utility.yul\":8589:8593   */\n      0x20\n        /* \"#utility.yul\":8582:8587   */\n      dup2\n        /* \"#utility.yul\":8578:8594   */\n      add\n        /* \"#utility.yul\":8627:8630   */\n      dup5\n        /* \"#utility.yul\":8618:8624   */\n      dup5\n        /* \"#utility.yul\":8613:8616   */\n      dup5\n        /* \"#utility.yul\":8609:8625   */\n      add\n        /* \"#utility.yul\":8606:8631   */\n      gt\n        /* \"#utility.yul\":8603:8715   */\n      iszero\n      tag_233\n      jumpi\n        /* \"#utility.yul\":8634:8713   */\n      tag_234\n      tag_134\n      jump\t// in\n    tag_234:\n        /* \"#utility.yul\":8603:8715   */\n    tag_233:\n        /* \"#utility.yul\":8724:8778   */\n      tag_235\n        /* \"#utility.yul\":8771:8777   */\n      dup5\n        /* \"#utility.yul\":8766:8769   */\n      dup3\n        /* \"#utility.yul\":8761:8764   */\n      dup6\n        /* \"#utility.yul\":8724:8778   */\n      tag_136\n      jump\t// in\n    tag_235:\n        /* \"#utility.yul\":8443:8784   */\n      pop\n        /* \"#utility.yul\":8359:8784   */\n      swap4\n      swap3\n      pop\n      pop\n      pop\n      jump\t// out\n        /* \"#utility.yul\":8804:9144   */\n    tag_138:\n        /* \"#utility.yul\":8860:8865   */\n      0x00\n        /* \"#utility.yul\":8909:8912   */\n      dup3\n        /* \"#utility.yul\":8902:8906   */\n      0x1f\n        /* \"#utility.yul\":8894:8900   */\n      dup4\n        /* \"#utility.yul\":8890:8907   */\n      add\n        /* \"#utility.yul\":8886:8913   */\n      slt\n        /* \"#utility.yul\":8876:8998   */\n      tag_237\n      jumpi\n        /* \"#utility.yul\":8917:8996   */\n      tag_238\n      tag_133\n      jump\t// in\n    tag_238:\n        /* \"#utility.yul\":8876:8998   */\n    tag_237:\n        /* \"#utility.yul\":9034:9040   */\n      dup2\n        /* \"#utility.yul\":9021:9041   */\n      calldataload\n        /* \"#utility.yul\":9059:9138   */\n      tag_239\n        /* \"#utility.yul\":9134:9137   */\n      dup5\n        /* \"#utility.yul\":9126:9132   */\n      dup3\n        /* \"#utility.yul\":9119:9123   */\n      0x20\n        /* \"#utility.yul\":9111:9117   */\n      dup7\n        /* \"#utility.yul\":9107:9124   */\n      add\n        /* \"#utility.yul\":9059:9138   */\n      tag_137\n      jump\t// in\n    tag_239:\n        /* \"#utility.yul\":9050:9138   */\n      swap2\n      pop\n        /* \"#utility.yul\":8866:9144   */\n      pop\n        /* \"#utility.yul\":8804:9144   */\n      swap3\n      swap2\n      pop\n      pop\n      jump\t// out\n        /* \"#utility.yul\":9150:9261   */\n    tag_139:\n        /* \"#utility.yul\":9235:9236   */\n      0x07\n        /* \"#utility.yul\":9228:9233   */\n      dup2\n        /* \"#utility.yul\":9225:9237   */\n      lt\n        /* \"#utility.yul\":9215:9255   */\n      tag_241\n      jumpi\n        /* \"#utility.yul\":9251:9252   */\n      0x00\n        /* \"#utility.yul\":9248:9249   */\n      dup1\n        /* \"#utility.yul\":9241:9253   */\n      revert\n        /* \"#utility.yul\":9215:9255   */\n    tag_241:\n        /* \"#utility.yul\":9150:9261   */\n      pop\n      jump\t// out\n        /* \"#utility.yul\":9267:9430   */\n    tag_140:\n        /* \"#utility.yul\":9325:9330   */\n      0x00\n        /* \"#utility.yul\":9363:9369   */\n      dup2\n        /* \"#utility.yul\":9350:9370   */\n      calldataload\n        /* \"#utility.yul\":9341:9370   */\n      swap1\n      pop\n        /* \"#utility.yul\":9379:9424   */\n      tag_243\n        /* \"#utility.yul\":9418:9423   */\n      dup2\n        /* \"#utility.yul\":9379:9424   */\n      tag_139\n      jump\t// in\n    tag_243:\n        /* \"#utility.yul\":9267:9430   */\n      swap3\n      swap2\n      pop\n      pop\n      jump\t// out\n        /* \"#utility.yul\":9475:12158   */\n    tag_141:\n        /* \"#utility.yul\":9551:9556   */\n      0x00\n        /* \"#utility.yul\":9595:9601   */\n      0x0100\n        /* \"#utility.yul\":9583:9592   */\n      dup3\n        /* \"#utility.yul\":9578:9581   */\n      dup5\n        /* \"#utility.yul\":9574:9593   */\n      sub\n        /* \"#utility.yul\":9570:9602   */\n      slt\n        /* \"#utility.yul\":9567:9686   */\n      iszero\n      tag_245\n      jumpi\n        /* \"#utility.yul\":9605:9684   */\n      tag_246\n      tag_128\n      jump\t// in\n    tag_246:\n        /* \"#utility.yul\":9567:9686   */\n    tag_245:\n        /* \"#utility.yul\":9704:9727   */\n      tag_247\n        /* \"#utility.yul\":9720:9726   */\n      0x0100\n        /* \"#utility.yul\":9704:9727   */\n      tag_131\n      jump\t// in\n    tag_247:\n        /* \"#utility.yul\":9695:9727   */\n      swap1\n      pop\n        /* \"#utility.yul\":9827:9828   */\n      0x00\n        /* \"#utility.yul\":9816:9825   */\n      dup3\n        /* \"#utility.yul\":9812:9829   */\n      add\n        /* \"#utility.yul\":9799:9830   */\n      calldataload\n        /* \"#utility.yul\":9857:9875   */\n      0xffffffffffffffff\n        /* \"#utility.yul\":9849:9855   */\n      dup2\n        /* \"#utility.yul\":9846:9876   */\n      gt\n        /* \"#utility.yul\":9843:9960   */\n      iszero\n      tag_248\n      jumpi\n        /* \"#utility.yul\":9879:9958   */\n      tag_249\n      tag_132\n      jump\t// in\n    tag_249:\n        /* \"#utility.yul\":9843:9960   */\n    tag_248:\n        /* \"#utility.yul\":9999:10058   */\n      tag_250\n        /* \"#utility.yul\":10054:10057   */\n      dup5\n        /* \"#utility.yul\":10045:10051   */\n      dup3\n        /* \"#utility.yul\":10034:10043   */\n      dup6\n        /* \"#utility.yul\":10030:10052   */\n      add\n        /* \"#utility.yul\":9999:10058   */\n      tag_138\n      jump\t// in\n    tag_250:\n        /* \"#utility.yul\":9992:9996   */\n      0x00\n        /* \"#utility.yul\":9985:9990   */\n      dup4\n        /* \"#utility.yul\":9981:9997   */\n      add\n        /* \"#utility.yul\":9974:10059   */\n      mstore\n        /* \"#utility.yul\":9737:10070   */\n      pop\n        /* \"#utility.yul\":10144:10146   */\n      0x20\n        /* \"#utility.yul\":10185:10246   */\n      tag_251\n        /* \"#utility.yul\":10242:10245   */\n      dup5\n        /* \"#utility.yul\":10233:10239   */\n      dup3\n        /* \"#utility.yul\":10222:10231   */\n      dup6\n        /* \"#utility.yul\":10218:10240   */\n      add\n        /* \"#utility.yul\":10185:10246   */\n      tag_140\n      jump\t// in\n    tag_251:\n        /* \"#utility.yul\":10178:10182   */\n      0x20\n        /* \"#utility.yul\":10171:10176   */\n      dup4\n        /* \"#utility.yul\":10167:10183   */\n      add\n        /* \"#utility.yul\":10160:10247   */\n      mstore\n        /* \"#utility.yul\":10080:10258   */\n      pop\n        /* \"#utility.yul\":10347:10349   */\n      0x40\n        /* \"#utility.yul\":10336:10345   */\n      dup3\n        /* \"#utility.yul\":10332:10350   */\n      add\n        /* \"#utility.yul\":10319:10351   */\n      calldataload\n        /* \"#utility.yul\":10378:10396   */\n      0xffffffffffffffff\n        /* \"#utility.yul\":10370:10376   */\n      dup2\n        /* \"#utility.yul\":10367:10397   */\n      gt\n        /* \"#utility.yul\":10364:10481   */\n      iszero\n      tag_252\n      jumpi\n        /* \"#utility.yul\":10400:10479   */\n      tag_253\n      tag_132\n      jump\t// in\n    tag_253:\n        /* \"#utility.yul\":10364:10481   */\n    tag_252:\n        /* \"#utility.yul\":10520:10579   */\n      tag_254\n        /* \"#utility.yul\":10575:10578   */\n      dup5\n        /* \"#utility.yul\":10566:10572   */\n      dup3\n        /* \"#utility.yul\":10555:10564   */\n      dup6\n        /* \"#utility.yul\":10551:10573   */\n      add\n        /* \"#utility.yul\":10520:10579   */\n      tag_138\n      jump\t// in\n    tag_254:\n        /* \"#utility.yul\":10513:10517   */\n      0x40\n        /* \"#utility.yul\":10506:10511   */\n      dup4\n        /* \"#utility.yul\":10502:10518   */\n      add\n        /* \"#utility.yul\":10495:10580   */\n      mstore\n        /* \"#utility.yul\":10268:10591   */\n      pop\n        /* \"#utility.yul\":10691:10693   */\n      0x60\n        /* \"#utility.yul\":10680:10689   */\n      dup3\n        /* \"#utility.yul\":10676:10694   */\n      add\n        /* \"#utility.yul\":10663:10695   */\n      calldataload\n        /* \"#utility.yul\":10722:10740   */\n      0xffffffffffffffff\n        /* \"#utility.yul\":10714:10720   */\n      dup2\n        /* \"#utility.yul\":10711:10741   */\n      gt\n        /* \"#utility.yul\":10708:10825   */\n      iszero\n      tag_255\n      jumpi\n        /* \"#utility.yul\":10744:10823   */\n      tag_256\n      tag_132\n      jump\t// in\n    tag_256:\n        /* \"#utility.yul\":10708:10825   */\n    tag_255:\n        /* \"#utility.yul\":10864:10923   */\n      tag_257\n        /* \"#utility.yul\":10919:10922   */\n      dup5\n        /* \"#utility.yul\":10910:10916   */\n      dup3\n        /* \"#utility.yul\":10899:10908   */\n      dup6\n        /* \"#utility.yul\":10895:10917   */\n      add\n        /* \"#utility.yul\":10864:10923   */\n      tag_138\n      jump\t// in\n    tag_257:\n        /* \"#utility.yul\":10857:10861   */\n      0x60\n        /* \"#utility.yul\":10850:10855   */\n      dup4\n        /* \"#utility.yul\":10846:10862   */\n      add\n        /* \"#utility.yul\":10839:10924   */\n      mstore\n        /* \"#utility.yul\":10601:10935   */\n      pop\n        /* \"#utility.yul\":11009:11012   */\n      0x80\n        /* \"#utility.yul\":11051:11112   */\n      tag_258\n        /* \"#utility.yul\":11108:11111   */\n      dup5\n        /* \"#utility.yul\":11099:11105   */\n      dup3\n        /* \"#utility.yul\":11088:11097   */\n      dup6\n        /* \"#utility.yul\":11084:11106   */\n      add\n        /* \"#utility.yul\":11051:11112   */\n      tag_140\n      jump\t// in\n    tag_258:\n        /* \"#utility.yul\":11044:11048   */\n      0x80\n        /* \"#utility.yul\":11037:11042   */\n      dup4\n        /* \"#utility.yul\":11033:11049   */\n      add\n        /* \"#utility.yul\":11026:11113   */\n      mstore\n        /* \"#utility.yul\":10945:11124   */\n      pop\n        /* \"#utility.yul\":11222:11225   */\n      0xa0\n        /* \"#utility.yul\":11211:11220   */\n      dup3\n        /* \"#utility.yul\":11207:11226   */\n      add\n        /* \"#utility.yul\":11194:11227   */\n      calldataload\n        /* \"#utility.yul\":11254:11272   */\n      0xffffffffffffffff\n        /* \"#utility.yul\":11246:11252   */\n      dup2\n        /* \"#utility.yul\":11243:11273   */\n      gt\n        /* \"#utility.yul\":11240:11357   */\n      iszero\n      tag_259\n      jumpi\n        /* \"#utility.yul\":11276:11355   */\n      tag_260\n      tag_132\n      jump\t// in\n    tag_260:\n        /* \"#utility.yul\":11240:11357   */\n    tag_259:\n        /* \"#utility.yul\":11396:11455   */\n      tag_261\n        /* \"#utility.yul\":11451:11454   */\n      dup5\n        /* \"#utility.yul\":11442:11448   */\n      dup3\n        /* \"#utility.yul\":11431:11440   */\n      dup6\n        /* \"#utility.yul\":11427:11449   */\n      add\n        /* \"#utility.yul\":11396:11455   */\n      tag_138\n      jump\t// in\n    tag_261:\n        /* \"#utility.yul\":11389:11393   */\n      0xa0\n        /* \"#utility.yul\":11382:11387   */\n      dup4\n        /* \"#utility.yul\":11378:11394   */\n      add\n        /* \"#utility.yul\":11371:11456   */\n      mstore\n        /* \"#utility.yul\":11134:11467   */\n      pop\n        /* \"#utility.yul\":11568:11571   */\n      0xc0\n        /* \"#utility.yul\":11557:11566   */\n      dup3\n        /* \"#utility.yul\":11553:11572   */\n      add\n        /* \"#utility.yul\":11540:11573   */\n      calldataload\n        /* \"#utility.yul\":11600:11618   */\n      0xffffffffffffffff\n        /* \"#utility.yul\":11592:11598   */\n      dup2\n        /* \"#utility.yul\":11589:11619   */\n      gt\n        /* \"#utility.yul\":11586:11703   */\n      iszero\n      tag_262\n      jumpi\n        /* \"#utility.yul\":11622:11701   */\n      tag_263\n      tag_132\n      jump\t// in\n    tag_263:\n        /* \"#utility.yul\":11586:11703   */\n    tag_262:\n        /* \"#utility.yul\":11742:11801   */\n      tag_264\n        /* \"#utility.yul\":11797:11800   */\n      dup5\n        /* \"#utility.yul\":11788:11794   */\n      dup3\n        /* \"#utility.yul\":11777:11786   */\n      dup6\n        /* \"#utility.yul\":11773:11795   */\n      add\n        /* \"#utility.yul\":11742:11801   */\n      tag_138\n      jump\t// in\n    tag_264:\n        /* \"#utility.yul\":11735:11739   */\n      0xc0\n        /* \"#utility.yul\":11728:11733   */\n      dup4\n        /* \"#utility.yul\":11724:11740   */\n      add\n        /* \"#utility.yul\":11717:11802   */\n      mstore\n        /* \"#utility.yul\":11477:11813   */\n      pop\n        /* \"#utility.yul\":11906:11909   */\n      0xe0\n        /* \"#utility.yul\":11895:11904   */\n      dup3\n        /* \"#utility.yul\":11891:11910   */\n      add\n        /* \"#utility.yul\":11878:11911   */\n      calldataload\n        /* \"#utility.yul\":11938:11956   */\n      0xffffffffffffffff\n        /* \"#utility.yul\":11930:11936   */\n      dup2\n        /* \"#utility.yul\":11927:11957   */\n      gt\n        /* \"#utility.yul\":11924:12041   */\n      iszero\n      tag_265\n      jumpi\n        /* \"#utility.yul\":11960:12039   */\n      tag_266\n      tag_132\n      jump\t// in\n    tag_266:\n        /* \"#utility.yul\":11924:12041   */\n    tag_265:\n        /* \"#utility.yul\":12080:12139   */\n      tag_267\n        /* \"#utility.yul\":12135:12138   */\n      dup5\n        /* \"#utility.yul\":12126:12132   */\n      dup3\n        /* \"#utility.yul\":12115:12124   */\n      dup6\n        /* \"#utility.yul\":12111:12133   */\n      add\n        /* \"#utility.yul\":12080:12139   */\n      tag_138\n      jump\t// in\n    tag_267:\n        /* \"#utility.yul\":12073:12077   */\n      0xe0\n        /* \"#utility.yul\":12066:12071   */\n      dup4\n        /* \"#utility.yul\":12062:12078   */\n      add\n        /* \"#utility.yul\":12055:12140   */\n      mstore\n        /* \"#utility.yul\":11823:12151   */\n      pop\n        /* \"#utility.yul\":9475:12158   */\n      swap3\n      swap2\n      pop\n      pop\n      jump\t// out\n        /* \"#utility.yul\":12164:12707   */\n    tag_12:\n        /* \"#utility.yul\":12250:12256   */\n      0x00\n        /* \"#utility.yul\":12299:12301   */\n      0x20\n        /* \"#utility.yul\":12287:12296   */\n      dup3\n        /* \"#utility.yul\":12278:12285   */\n      dup5\n        /* \"#utility.yul\":12274:12297   */\n      sub\n        /* \"#utility.yul\":12270:12302   */\n      slt\n        /* \"#utility.yul\":12267:12386   */\n      iszero\n      tag_269\n      jumpi\n        /* \"#utility.yul\":12305:12384   */\n      tag_270\n      tag_126\n      jump\t// in\n    tag_270:\n        /* \"#utility.yul\":12267:12386   */\n    tag_269:\n        /* \"#utility.yul\":12453:12454   */\n      0x00\n        /* \"#utility.yul\":12442:12451   */\n      dup3\n        /* \"#utility.yul\":12438:12455   */\n      add\n        /* \"#utility.yul\":12425:12456   */\n      calldataload\n        /* \"#utility.yul\":12483:12501   */\n      0xffffffffffffffff\n        /* \"#utility.yul\":12475:12481   */\n      dup2\n        /* \"#utility.yul\":12472:12502   */\n      gt\n        /* \"#utility.yul\":12469:12586   */\n      iszero\n      tag_271\n      jumpi\n        /* \"#utility.yul\":12505:12584   */\n      tag_272\n      tag_127\n      jump\t// in\n    tag_272:\n        /* \"#utility.yul\":12469:12586   */\n    tag_271:\n        /* \"#utility.yul\":12610:12690   */\n      tag_273\n        /* \"#utility.yul\":12682:12689   */\n      dup5\n        /* \"#utility.yul\":12673:12679   */\n      dup3\n        /* \"#utility.yul\":12662:12671   */\n      dup6\n        /* \"#utility.yul\":12658:12680   */\n      add\n        /* \"#utility.yul\":12610:12690   */\n      tag_141\n      jump\t// in\n    tag_273:\n        /* \"#utility.yul\":12600:12690   */\n      swap2\n      pop\n        /* \"#utility.yul\":12396:12700   */\n      pop\n        /* \"#utility.yul\":12164:12707   */\n      swap3\n      swap2\n      pop\n      pop\n      jump\t// out\n        /* \"#utility.yul\":12713:12790   */\n    tag_142:\n        /* \"#utility.yul\":12750:12757   */\n      0x00\n        /* \"#utility.yul\":12779:12784   */\n      dup2\n        /* \"#utility.yul\":12768:12784   */\n      swap1\n      pop\n        /* \"#utility.yul\":12713:12790   */\n      swap2\n      swap1\n      pop\n      jump\t// out\n        /* \"#utility.yul\":12796:12918   */\n    tag_143:\n        /* \"#utility.yul\":12869:12893   */\n      tag_276\n        /* \"#utility.yul\":12887:12892   */\n      dup2\n        /* \"#utility.yul\":12869:12893   */\n      tag_142\n      jump\t// in\n    tag_276:\n        /* \"#utility.yul\":12862:12867   */\n      dup2\n        /* \"#utility.yul\":12859:12894   */\n      eq\n        /* \"#utility.yul\":12849:12912   */\n      tag_277\n      jumpi\n        /* \"#utility.yul\":12908:12909   */\n      0x00\n        /* \"#utility.yul\":12905:12906   */\n      dup1\n        /* \"#utility.yul\":12898:12910   */\n      revert\n        /* \"#utility.yul\":12849:12912   */\n    tag_277:\n        /* \"#utility.yul\":12796:12918   */\n      pop\n      jump\t// out\n        /* \"#utility.yul\":12924:13063   */\n    tag_144:\n        /* \"#utility.yul\":12970:12975   */\n      0x00\n        /* \"#utility.yul\":13008:13014   */\n      dup2\n        /* \"#utility.yul\":12995:13015   */\n      calldataload\n        /* \"#utility.yul\":12986:13015   */\n      swap1\n      pop\n        /* \"#utility.yul\":13024:13057   */\n      tag_279\n        /* \"#utility.yul\":13051:13056   */\n      dup2\n        /* \"#utility.yul\":13024:13057   */\n      tag_143\n      jump\t// in\n    tag_279:\n        /* \"#utility.yul\":12924:13063   */\n      swap3\n      swap2\n      pop\n      pop\n      jump\t// out\n        /* \"#utility.yul\":13069:13398   */\n    tag_16:\n        /* \"#utility.yul\":13128:13134   */\n      0x00\n        /* \"#utility.yul\":13177:13179   */\n      0x20\n        /* \"#utility.yul\":13165:13174   */\n      dup3\n        /* \"#utility.yul\":13156:13163   */\n      dup5\n        /* \"#utility.yul\":13152:13175   */\n      sub\n        /* \"#utility.yul\":13148:13180   */\n      slt\n        /* \"#utility.yul\":13145:13264   */\n      iszero\n      tag_281\n      jumpi\n        /* \"#utility.yul\":13183:13262   */\n      tag_282\n      tag_126\n      jump\t// in\n    tag_282:\n        /* \"#utility.yul\":13145:13264   */\n    tag_281:\n        /* \"#utility.yul\":13303:13304   */\n      0x00\n        /* \"#utility.yul\":13328:13381   */\n      tag_283\n        /* \"#utility.yul\":13373:13380   */\n      dup5\n        /* \"#utility.yul\":13364:13370   */\n      dup3\n        /* \"#utility.yul\":13353:13362   */\n      dup6\n        /* \"#utility.yul\":13349:13371   */\n      add\n        /* \"#utility.yul\":13328:13381   */\n      tag_144\n      jump\t// in\n    tag_283:\n        /* \"#utility.yul\":13318:13381   */\n      swap2\n      pop\n        /* \"#utility.yul\":13274:13391   */\n      pop\n        /* \"#utility.yul\":13069:13398   */\n      swap3\n      swap2\n      pop\n      pop\n      jump\t// out\n        /* \"#utility.yul\":13404:13573   */\n    tag_145:\n        /* \"#utility.yul\":13488:13499   */\n      0x00\n        /* \"#utility.yul\":13522:13528   */\n      dup3\n        /* \"#utility.yul\":13517:13520   */\n      dup3\n        /* \"#utility.yul\":13510:13529   */\n      mstore\n        /* \"#utility.yul\":13562:13566   */\n      0x20\n        /* \"#utility.yul\":13557:13560   */\n      dup3\n        /* \"#utility.yul\":13553:13567   */\n      add\n        /* \"#utility.yul\":13538:13567   */\n      swap1\n      pop\n        /* \"#utility.yul\":13404:13573   */\n      swap3\n      swap2\n      pop\n      pop\n      jump\t// out\n        /* \"#utility.yul\":13579:13956   */\n    tag_146:\n        /* \"#utility.yul\":13667:13670   */\n      0x00\n        /* \"#utility.yul\":13695:13734   */\n      tag_286\n        /* \"#utility.yul\":13728:13733   */\n      dup3\n        /* \"#utility.yul\":13695:13734   */\n      tag_112\n      jump\t// in\n    tag_286:\n        /* \"#utility.yul\":13750:13821   */\n      tag_287\n        /* \"#utility.yul\":13814:13820   */\n      dup2\n        /* \"#utility.yul\":13809:13812   */\n      dup6\n        /* \"#utility.yul\":13750:13821   */\n      tag_145\n      jump\t// in\n    tag_287:\n        /* \"#utility.yul\":13743:13821   */\n      swap4\n      pop\n        /* \"#utility.yul\":13830:13895   */\n      tag_288\n        /* \"#utility.yul\":13888:13894   */\n      dup2\n        /* \"#utility.yul\":13883:13886   */\n      dup6\n        /* \"#utility.yul\":13876:13880   */\n      0x20\n        /* \"#utility.yul\":13869:13874   */\n      dup7\n        /* \"#utility.yul\":13865:13881   */\n      add\n        /* \"#utility.yul\":13830:13895   */\n      tag_114\n      jump\t// in\n    tag_288:\n        /* \"#utility.yul\":13920:13949   */\n      tag_289\n        /* \"#utility.yul\":13942:13948   */\n      dup2\n        /* \"#utility.yul\":13920:13949   */\n      tag_115\n      jump\t// in\n    tag_289:\n        /* \"#utility.yul\":13915:13918   */\n      dup5\n        /* \"#utility.yul\":13911:13950   */\n      add\n        /* \"#utility.yul\":13904:13950   */\n      swap2\n      pop\n        /* \"#utility.yul\":13671:13956   */\n      pop\n        /* \"#utility.yul\":13579:13956   */\n      swap3\n      swap2\n      pop\n      pop\n      jump\t// out\n        /* \"#utility.yul\":13962:14113   */\n    tag_147:\n        /* \"#utility.yul\":14059:14106   */\n      tag_291\n        /* \"#utility.yul\":14100:14105   */\n      dup2\n        /* \"#utility.yul\":14059:14106   */\n      tag_119\n      jump\t// in\n    tag_291:\n        /* \"#utility.yul\":14054:14057   */\n      dup3\n        /* \"#utility.yul\":14047:14107   */\n      mstore\n        /* \"#utility.yul\":13962:14113   */\n      pop\n      pop\n      jump\t// out\n        /* \"#utility.yul\":14119:15702   */\n    tag_19:\n        /* \"#utility.yul\":14548:14552   */\n      0x00\n        /* \"#utility.yul\":14586:14589   */\n      0x0100\n        /* \"#utility.yul\":14575:14584   */\n      dup3\n        /* \"#utility.yul\":14571:14590   */\n      add\n        /* \"#utility.yul\":14563:14590   */\n      swap1\n      pop\n        /* \"#utility.yul\":14636:14645   */\n      dup2\n        /* \"#utility.yul\":14630:14634   */\n      dup2\n        /* \"#utility.yul\":14626:14646   */\n      sub\n        /* \"#utility.yul\":14622:14623   */\n      0x00\n        /* \"#utility.yul\":14611:14620   */\n      dup4\n        /* \"#utility.yul\":14607:14624   */\n      add\n        /* \"#utility.yul\":14600:14647   */\n      mstore\n        /* \"#utility.yul\":14664:14742   */\n      tag_293\n        /* \"#utility.yul\":14737:14741   */\n      dup2\n        /* \"#utility.yul\":14728:14734   */\n      dup12\n        /* \"#utility.yul\":14664:14742   */\n      tag_146\n      jump\t// in\n    tag_293:\n        /* \"#utility.yul\":14656:14742   */\n      swap1\n      pop\n        /* \"#utility.yul\":14752:14834   */\n      tag_294\n        /* \"#utility.yul\":14830:14832   */\n      0x20\n        /* \"#utility.yul\":14819:14828   */\n      dup4\n        /* \"#utility.yul\":14815:14833   */\n      add\n        /* \"#utility.yul\":14806:14812   */\n      dup11\n        /* \"#utility.yul\":14752:14834   */\n      tag_147\n      jump\t// in\n    tag_294:\n        /* \"#utility.yul\":14881:14890   */\n      dup2\n        /* \"#utility.yul\":14875:14879   */\n      dup2\n        /* \"#utility.yul\":14871:14891   */\n      sub\n        /* \"#utility.yul\":14866:14868   */\n      0x40\n        /* \"#utility.yul\":14855:14864   */\n      dup4\n        /* \"#utility.yul\":14851:14869   */\n      add\n        /* \"#utility.yul\":14844:14892   */\n      mstore\n        /* \"#utility.yul\":14909:14987   */\n      tag_295\n        /* \"#utility.yul\":14982:14986   */\n      dup2\n        /* \"#utility.yul\":14973:14979   */\n      dup10\n        /* \"#utility.yul\":14909:14987   */\n      tag_146\n      jump\t// in\n    tag_295:\n        /* \"#utility.yul\":14901:14987   */\n      swap1\n      pop\n        /* \"#utility.yul\":15034:15043   */\n      dup2\n        /* \"#utility.yul\":15028:15032   */\n      dup2\n        /* \"#utility.yul\":15024:15044   */\n      sub\n        /* \"#utility.yul\":15019:15021   */\n      0x60\n        /* \"#utility.yul\":15008:15017   */\n      dup4\n        /* \"#utility.yul\":15004:15022   */\n      add\n        /* \"#utility.yul\":14997:15045   */\n      mstore\n        /* \"#utility.yul\":15062:15140   */\n      tag_296\n        /* \"#utility.yul\":15135:15139   */\n      dup2\n        /* \"#utility.yul\":15126:15132   */\n      dup9\n        /* \"#utility.yul\":15062:15140   */\n      tag_146\n      jump\t// in\n    tag_296:\n        /* \"#utility.yul\":15054:15140   */\n      swap1\n      pop\n        /* \"#utility.yul\":15150:15233   */\n      tag_297\n        /* \"#utility.yul\":15228:15231   */\n      0x80\n        /* \"#utility.yul\":15217:15226   */\n      dup4\n        /* \"#utility.yul\":15213:15232   */\n      add\n        /* \"#utility.yul\":15204:15210   */\n      dup8\n        /* \"#utility.yul\":15150:15233   */\n      tag_147\n      jump\t// in\n    tag_297:\n        /* \"#utility.yul\":15281:15290   */\n      dup2\n        /* \"#utility.yul\":15275:15279   */\n      dup2\n        /* \"#utility.yul\":15271:15291   */\n      sub\n        /* \"#utility.yul\":15265:15268   */\n      0xa0\n        /* \"#utility.yul\":15254:15263   */\n      dup4\n        /* \"#utility.yul\":15250:15269   */\n      add\n        /* \"#utility.yul\":15243:15292   */\n      mstore\n        /* \"#utility.yul\":15309:15387   */\n      tag_298\n        /* \"#utility.yul\":15382:15386   */\n      dup2\n        /* \"#utility.yul\":15373:15379   */\n      dup7\n        /* \"#utility.yul\":15309:15387   */\n      tag_146\n      jump\t// in\n    tag_298:\n        /* \"#utility.yul\":15301:15387   */\n      swap1\n      pop\n        /* \"#utility.yul\":15435:15444   */\n      dup2\n        /* \"#utility.yul\":15429:15433   */\n      dup2\n        /* \"#utility.yul\":15425:15445   */\n      sub\n        /* \"#utility.yul\":15419:15422   */\n      0xc0\n        /* \"#utility.yul\":15408:15417   */\n      dup4\n        /* \"#utility.yul\":15404:15423   */\n      add\n        /* \"#utility.yul\":15397:15446   */\n      mstore\n        /* \"#utility.yul\":15463:15541   */\n      tag_299\n        /* \"#utility.yul\":15536:15540   */\n      dup2\n        /* \"#utility.yul\":15527:15533   */\n      dup6\n        /* \"#utility.yul\":15463:15541   */\n      tag_146\n      jump\t// in\n    tag_299:\n        /* \"#utility.yul\":15455:15541   */\n      swap1\n      pop\n        /* \"#utility.yul\":15589:15598   */\n      dup2\n        /* \"#utility.yul\":15583:15587   */\n      dup2\n        /* \"#utility.yul\":15579:15599   */\n      sub\n        /* \"#utility.yul\":15573:15576   */\n      0xe0\n        /* \"#utility.yul\":15562:15571   */\n      dup4\n        /* \"#utility.yul\":15558:15577   */\n      add\n        /* \"#utility.yul\":15551:15600   */\n      mstore\n        /* \"#utility.yul\":15617:15695   */\n      tag_300\n        /* \"#utility.yul\":15690:15694   */\n      dup2\n        /* \"#utility.yul\":15681:15687   */\n      dup5\n        /* \"#utility.yul\":15617:15695   */\n      tag_146\n      jump\t// in\n    tag_300:\n        /* \"#utility.yul\":15609:15695   */\n      swap1\n      pop\n        /* \"#utility.yul\":14119:15702   */\n      swap10\n      swap9\n      pop\n      pop\n      pop\n      pop\n      pop\n      pop\n      pop\n      pop\n      pop\n      jump\t// out\n        /* \"#utility.yul\":15708:15888   */\n    tag_148:\n        /* \"#utility.yul\":15756:15833   */\n      0x4e487b7100000000000000000000000000000000000000000000000000000000\n        /* \"#utility.yul\":15753:15754   */\n      0x00\n        /* \"#utility.yul\":15746:15834   */\n      mstore\n        /* \"#utility.yul\":15853:15857   */\n      0x22\n        /* \"#utility.yul\":15850:15851   */\n      0x04\n        /* \"#utility.yul\":15843:15858   */\n      mstore\n        /* \"#utility.yul\":15877:15881   */\n      0x24\n        /* \"#utility.yul\":15874:15875   */\n      0x00\n        /* \"#utility.yul\":15867:15882   */\n      revert\n        /* \"#utility.yul\":15894:16214   */\n    tag_25:\n        /* \"#utility.yul\":15938:15944   */\n      0x00\n        /* \"#utility.yul\":15975:15976   */\n      0x02\n        /* \"#utility.yul\":15969:15973   */\n      dup3\n        /* \"#utility.yul\":15965:15977   */\n      div\n        /* \"#utility.yul\":15955:15977   */\n      swap1\n      pop\n        /* \"#utility.yul\":16022:16023   */\n      0x01\n        /* \"#utility.yul\":16016:16020   */\n      dup3\n        /* \"#utility.yul\":16012:16024   */\n      and\n        /* \"#utility.yul\":16043:16061   */\n      dup1\n        /* \"#utility.yul\":16033:16114   */\n      tag_303\n      jumpi\n        /* \"#utility.yul\":16099:16103   */\n      0x7f\n        /* \"#utility.yul\":16091:16097   */\n      dup3\n        /* \"#utility.yul\":16087:16104   */\n      and\n        /* \"#utility.yul\":16077:16104   */\n      swap2\n      pop\n        /* \"#utility.yul\":16033:16114   */\n    tag_303:\n        /* \"#utility.yul\":16161:16163   */\n      0x20\n        /* \"#utility.yul\":16153:16159   */\n      dup3\n        /* \"#utility.yul\":16150:16164   */\n      lt\n        /* \"#utility.yul\":16130:16148   */\n      dup2\n        /* \"#utility.yul\":16127:16165   */\n      sub\n        /* \"#utility.yul\":16124:16208   */\n      tag_304\n      jumpi\n        /* \"#utility.yul\":16180:16198   */\n      tag_305\n      tag_148\n      jump\t// in\n    tag_305:\n        /* \"#utility.yul\":16124:16208   */\n    tag_304:\n        /* \"#utility.yul\":15945:16214   */\n      pop\n        /* \"#utility.yul\":15894:16214   */\n      swap2\n      swap1\n      pop\n      jump\t// out\n        /* \"#utility.yul\":16220:16361   */\n    tag_149:\n        /* \"#utility.yul\":16269:16273   */\n      0x00\n        /* \"#utility.yul\":16292:16295   */\n      dup2\n        /* \"#utility.yul\":16284:16295   */\n      swap1\n      pop\n        /* \"#utility.yul\":16315:16318   */\n      dup2\n        /* \"#utility.yul\":16312:16313   */\n      0x00\n        /* \"#utility.yul\":16305:16319   */\n      mstore\n        /* \"#utility.yul\":16349:16353   */\n      0x20\n        /* \"#utility.yul\":16346:16347   */\n      0x00\n        /* \"#utility.yul\":16336:16354   */\n      keccak256\n        /* \"#utility.yul\":16328:16354   */\n      swap1\n      pop\n        /* \"#utility.yul\":16220:16361   */\n      swap2\n      swap1\n      pop\n      jump\t// out\n        /* \"#utility.yul\":16367:16460   */\n    tag_150:\n        /* \"#utility.yul\":16404:16410   */\n      0x00\n        /* \"#utility.yul\":16451:16453   */\n      0x20\n        /* \"#utility.yul\":16446:16448   */\n      0x1f\n        /* \"#utility.yul\":16439:16444   */\n      dup4\n        /* \"#utility.yul\":16435:16449   */\n      add\n        /* \"#utility.yul\":16431:16454   */\n      div\n        /* \"#utility.yul\":16421:16454   */\n      swap1\n      pop\n        /* \"#utility.yul\":16367:16460   */\n      swap2\n      swap1\n      pop\n      jump\t// out\n        /* \"#utility.yul\":16466:16573   */\n    tag_151:\n        /* \"#utility.yul\":16510:16518   */\n      0x00\n        /* \"#utility.yul\":16560:16565   */\n      dup3\n        /* \"#utility.yul\":16554:16558   */\n      dup3\n        /* \"#utility.yul\":16550:16566   */\n      shl\n        /* \"#utility.yul\":16529:16566   */\n      swap1\n      pop\n        /* \"#utility.yul\":16466:16573   */\n      swap3\n      swap2\n      pop\n      pop\n      jump\t// out\n        /* \"#utility.yul\":16579:16972   */\n    tag_152:\n        /* \"#utility.yul\":16648:16654   */\n      0x00\n        /* \"#utility.yul\":16698:16699   */\n      0x08\n        /* \"#utility.yul\":16686:16696   */\n      dup4\n        /* \"#utility.yul\":16682:16700   */\n      mul\n        /* \"#utility.yul\":16721:16818   */\n      tag_310\n        /* \"#utility.yul\":16751:16817   */\n      0xffffffffffffffffffffffffffffffffffffffffffffffffffffffffffffffff\n        /* \"#utility.yul\":16740:16749   */\n      dup3\n        /* \"#utility.yul\":16721:16818   */\n      tag_151\n      jump\t// in\n    tag_310:\n        /* \"#utility.yul\":16839:16878   */\n      tag_311\n        /* \"#utility.yul\":16869:16877   */\n      dup7\n        /* \"#utility.yul\":16858:16867   */\n      dup4\n        /* \"#utility.yul\":16839:16878   */\n      tag_151\n      jump\t// in\n    tag_311:\n        /* \"#utility.yul\":16827:16878   */\n      swap6\n      pop\n        /* \"#utility.yul\":16911:16915   */\n      dup1\n        /* \"#utility.yul\":16907:16916   */\n      not\n        /* \"#utility.yul\":16900:16905   */\n      dup5\n        /* \"#utility.yul\":16896:16917   */\n      and\n        /* \"#utility.yul\":16887:16917   */\n      swap4\n      pop\n        /* \"#utility.yul\":16960:16964   */\n      dup1\n        /* \"#utility.yul\":16950:16958   */\n      dup7\n        /* \"#utility.yul\":16946:16965   */\n      and\n        /* \"#utility.yul\":16939:16944   */\n      dup5\n        /* \"#utility.yul\":16936:16966   */\n      or\n        /* \"#utility.yul\":16926:16966   */\n      swap3\n      pop\n        /* \"#utility.yul\":16655:16972   */\n      pop\n      pop\n        /* \"#utility.yul\":16579:16972   */\n      swap4\n      swap3\n      pop\n      pop\n      pop\n      jump\t// out\n        /* \"#utility.yul\":16978:17038   */\n    tag_153:\n        /* \"#utility.yul\":17006:17009   */\n      0x00\n        /* \"#utility.yul\":17027:17032   */\n      dup2\n        /* \"#utility.yul\":17020:17032   */\n      swap1\n      pop\n        /* \"#utility.yul\":16978:17038   */\n      swap2\n      swap1\n      pop\n      jump\t// out\n        /* \"#utility.yul\":17044:17186   */\n    tag_154:\n        /* \"#utility.yul\":17094:17103   */\n      0x00\n        /* \"#utility.yul\":17127:17180   */\n      tag_314\n        /* \"#utility.yul\":17145:17179   */\n      tag_315\n        /* \"#utility.yul\":17154:17178   */\n      tag_316\n        /* \"#utility.yul\":17172:17177   */\n      dup5\n        /* \"#utility.yul\":17154:17178   */\n      tag_142\n      jump\t// in\n    tag_316:\n        /* \"#utility.yul\":17145:17179   */\n      tag_153\n      jump\t// in\n    tag_315:\n        /* \"#utility.yul\":17127:17180   */\n      tag_142\n      jump\t// in\n    tag_314:\n        /* \"#utility.yul\":17114:17180   */\n      swap1\n      pop\n        /* \"#utility.yul\":17044:17186   */\n      swap2\n      swap1\n      pop\n      jump\t// out\n        /* \"#utility.yul\":17192:17267   */\n    tag_155:\n        /* \"#utility.yul\":17235:17238   */\n      0x00\n        /* \"#utility.yul\":17256:17261   */\n      dup2\n        /* \"#utility.yul\":17249:17261   */\n      swap1\n      pop\n        /* \"#utility.yul\":17192:17267   */\n      swap2\n      swap1\n      pop\n      jump\t// out\n        /* \"#utility.yul\":17273:17542   */\n    tag_156:\n        /* \"#utility.yul\":17383:17422   */\n      tag_319\n        /* \"#utility.yul\":17414:17421   */\n      dup4\n        /* \"#utility.yul\":17383:17422   */\n      tag_154\n      jump\t// in\n    tag_319:\n        /* \"#utility.yul\":17444:17535   */\n      tag_320\n        /* \"#utility.yul\":17493:17534   */\n      tag_321\n        /* \"#utility.yul\":17517:17533   */\n      dup3\n        /* \"#utility.yul\":17493:17534   */\n      tag_155\n      jump\t// in\n    tag_321:\n        /* \"#utility.yul\":17485:17491   */\n      dup5\n        /* \"#utility.yul\":17478:17482   */\n      dup5\n        /* \"#utility.yul\":17472:17483   */\n      sload\n        /* \"#utility.yul\":17444:17535   */\n      tag_152\n      jump\t// in\n    tag_320:\n        /* \"#utility.yul\":17438:17442   */\n      dup3\n        /* \"#utility.yul\":17431:17536   */\n      sstore\n        /* \"#utility.yul\":17349:17542   */\n      pop\n        /* \"#utility.yul\":17273:17542   */\n      pop\n      pop\n      pop\n      jump\t// out\n        /* \"#utility.yul\":17548:17621   */\n    tag_157:\n        /* \"#utility.yul\":17593:17596   */\n      0x00\n        /* \"#utility.yul\":17548:17621   */\n      swap1\n      jump\t// out\n        /* \"#utility.yul\":17627:17816   */\n    tag_158:\n        /* \"#utility.yul\":17704:17736   */\n      tag_324\n      tag_157\n      jump\t// in\n    tag_324:\n        /* \"#utility.yul\":17745:17810   */\n      tag_325\n        /* \"#utility.yul\":17803:17809   */\n      dup2\n        /* \"#utility.yul\":17795:17801   */\n      dup5\n        /* \"#utility.yul\":17789:17793   */\n      dup5\n        /* \"#utility.yul\":17745:17810   */\n      tag_156\n      jump\t// in\n    tag_325:\n        /* \"#utility.yul\":17680:17816   */\n      pop\n        /* \"#utility.yul\":17627:17816   */\n      pop\n      pop\n      jump\t// out\n        /* \"#utility.yul\":17822:18008   */\n    tag_159:\n        /* \"#utility.yul\":17882:18002   */\n    tag_327:\n        /* \"#utility.yul\":17899:17902   */\n      dup2\n        /* \"#utility.yul\":17892:17897   */\n      dup2\n        /* \"#utility.yul\":17889:17903   */\n      lt\n        /* \"#utility.yul\":17882:18002   */\n      iszero\n      tag_329\n      jumpi\n        /* \"#utility.yul\":17953:17992   */\n      tag_330\n        /* \"#utility.yul\":17990:17991   */\n      0x00\n        /* \"#utility.yul\":17983:17988   */\n      dup3\n        /* \"#utility.yul\":17953:17992   */\n      tag_158\n      jump\t// in\n    tag_330:\n        /* \"#utility.yul\":17926:17927   */\n      0x01\n        /* \"#utility.yul\":17919:17924   */\n      dup2\n        /* \"#utility.yul\":17915:17928   */\n      add\n        /* \"#utility.yul\":17906:17928   */\n      swap1\n      pop\n        /* \"#utility.yul\":17882:18002   */\n      jump(tag_327)\n    tag_329:\n        /* \"#utility.yul\":17822:18008   */\n      pop\n      pop\n      jump\t// out\n        /* \"#utility.yul\":18014:18557   */\n    tag_160:\n        /* \"#utility.yul\":18115:18117   */\n      0x1f\n        /* \"#utility.yul\":18110:18113   */\n      dup3\n        /* \"#utility.yul\":18107:18118   */\n      gt\n        /* \"#utility.yul\":18104:18550   */\n      iszero\n      tag_332\n      jumpi\n        /* \"#utility.yul\":18149:18187   */\n      tag_333\n        /* \"#utility.yul\":18181:18186   */\n      dup2\n        /* \"#utility.yul\":18149:18187   */\n      tag_149\n      jump\t// in\n    tag_333:\n        /* \"#utility.yul\":18233:18262   */\n      tag_334\n        /* \"#utility.yul\":18251:18261   */\n      dup5\n        /* \"#utility.yul\":18233:18262   */\n      tag_150\n      jump\t// in\n    tag_334:\n        /* \"#utility.yul\":18223:18231   */\n      dup2\n        /* \"#utility.yul\":18219:18263   */\n      add\n        /* \"#utility.yul\":18416:18418   */\n      0x20\n        /* \"#utility.yul\":18404:18414   */\n      dup6\n        /* \"#utility.yul\":18401:18419   */\n      lt\n        /* \"#utility.yul\":18398:18447   */\n      iszero\n      tag_335\n      jumpi\n        /* \"#utility.yul\":18437:18445   */\n      dup2\n        /* \"#utility.yul\":18422:18445   */\n      swap1\n      pop\n        /* \"#utility.yul\":18398:18447   */\n    tag_335:\n        /* \"#utility.yul\":18460:18540   */\n      tag_336\n        /* \"#utility.yul\":18516:18538   */\n      tag_337\n        /* \"#utility.yul\":18534:18537   */\n      dup6\n        /* \"#utility.yul\":18516:18538   */\n      tag_150\n      jump\t// in\n    tag_337:\n        /* \"#utility.yul\":18506:18514   */\n      dup4\n        /* \"#utility.yul\":18502:18539   */\n      add\n        /* \"#utility.yul\":18489:18500   */\n      dup3\n        /* \"#utility.yul\":18460:18540   */\n      tag_159\n      jump\t// in\n    tag_336:\n        /* \"#utility.yul\":18119:18550   */\n      pop\n      pop\n        /* \"#utility.yul\":18104:18550   */\n    tag_332:\n        /* \"#utility.yul\":18014:18557   */\n      pop\n      pop\n      pop\n      jump\t// out\n        /* \"#utility.yul\":18563:18680   */\n    tag_161:\n        /* \"#utility.yul\":18617:18625   */\n      0x00\n        /* \"#utility.yul\":18667:18672   */\n      dup3\n        /* \"#utility.yul\":18661:18665   */\n      dup3\n        /* \"#utility.yul\":18657:18673   */\n      shr\n        /* \"#utility.yul\":18636:18673   */\n      swap1\n      pop\n        /* \"#utility.yul\":18563:18680   */\n      swap3\n      swap2\n      pop\n      pop\n      jump\t// out\n        /* \"#utility.yul\":18686:18855   */\n    tag_162:\n        /* \"#utility.yul\":18730:18736   */\n      0x00\n        /* \"#utility.yul\":18763:18814   */\n      tag_340\n        /* \"#utility.yul\":18811:18812   */\n      0x00\n        /* \"#utility.yul\":18807:18813   */\n      not\n        /* \"#utility.yul\":18799:18804   */\n      dup5\n        /* \"#utility.yul\":18796:18797   */\n      0x08\n        /* \"#utility.yul\":18792:18805   */\n      mul\n        /* \"#utility.yul\":18763:18814   */\n      tag_161\n      jump\t// in\n    tag_340:\n        /* \"#utility.yul\":18759:18815   */\n      not\n        /* \"#utility.yul\":18844:18848   */\n      dup1\n        /* \"#utility.yul\":18838:18842   */\n      dup4\n        /* \"#utility.yul\":18834:18849   */\n      and\n        /* \"#utility.yul\":18824:18849   */\n      swap2\n      pop\n        /* \"#utility.yul\":18737:18855   */\n      pop\n        /* \"#utility.yul\":18686:18855   */\n      swap3\n      swap2\n      pop\n      pop\n      jump\t// out\n        /* \"#utility.yul\":18860:19155   */\n    tag_163:\n        /* \"#utility.yul\":18936:18940   */\n      0x00\n        /* \"#utility.yul\":19082:19111   */\n      tag_342\n        /* \"#utility.yul\":19107:19110   */\n      dup4\n        /* \"#utility.yul\":19101:19105   */\n      dup4\n        /* \"#utility.yul\":19082:19111   */\n      tag_162\n      jump\t// in\n    tag_342:\n        /* \"#utility.yul\":19074:19111   */\n      swap2\n      pop\n        /* \"#utility.yul\":19144:19147   */\n      dup3\n        /* \"#utility.yul\":19141:19142   */\n      0x02\n        /* \"#utility.yul\":19137:19148   */\n      mul\n        /* \"#utility.yul\":19131:19135   */\n      dup3\n        /* \"#utility.yul\":19128:19149   */\n      or\n        /* \"#utility.yul\":19120:19149   */\n      swap1\n      pop\n        /* \"#utility.yul\":18860:19155   */\n      swap3\n      swap2\n      pop\n      pop\n      jump\t// out\n        /* \"#utility.yul\":19160:20555   */\n    tag_67:\n        /* \"#utility.yul\":19277:19314   */\n      tag_344\n        /* \"#utility.yul\":19310:19313   */\n      dup3\n        /* \"#utility.yul\":19277:19314   */\n      tag_112\n      jump\t// in\n    tag_344:\n        /* \"#utility.yul\":19379:19397   */\n      0xffffffffffffffff\n        /* \"#utility.yul\":19371:19377   */\n      dup2\n        /* \"#utility.yul\":19368:19398   */\n      gt\n        /* \"#utility.yul\":19365:19421   */\n      iszero\n      tag_345\n      jumpi\n        /* \"#utility.yul\":19401:19419   */\n      tag_346\n      tag_129\n      jump\t// in\n    tag_346:\n        /* \"#utility.yul\":19365:19421   */\n    tag_345:\n        /* \"#utility.yul\":19445:19483   */\n      tag_347\n        /* \"#utility.yul\":19477:19481   */\n      dup3\n        /* \"#utility.yul\":19471:19482   */\n      sload\n        /* \"#utility.yul\":19445:19483   */\n      tag_25\n      jump\t// in\n    tag_347:\n        /* \"#utility.yul\":19530:19597   */\n      tag_348\n        /* \"#utility.yul\":19590:19596   */\n      dup3\n        /* \"#utility.yul\":19582:19588   */\n      dup3\n        /* \"#utility.yul\":19576:19580   */\n      dup6\n        /* \"#utility.yul\":19530:19597   */\n      tag_160\n      jump\t// in\n    tag_348:\n        /* \"#utility.yul\":19624:19625   */\n      0x00\n        /* \"#utility.yul\":19648:19652   */\n      0x20\n        /* \"#utility.yul\":19635:19652   */\n      swap1\n      pop\n        /* \"#utility.yul\":19680:19682   */\n      0x1f\n        /* \"#utility.yul\":19672:19678   */\n      dup4\n        /* \"#utility.yul\":19669:19683   */\n      gt\n        /* \"#utility.yul\":19697:19698   */\n      0x01\n        /* \"#utility.yul\":19692:20310   */\n      dup2\n      eq\n      tag_350\n      jumpi\n        /* \"#utility.yul\":20354:20355   */\n      0x00\n        /* \"#utility.yul\":20371:20377   */\n      dup5\n        /* \"#utility.yul\":20368:20445   */\n      iszero\n      tag_351\n      jumpi\n        /* \"#utility.yul\":20420:20429   */\n      dup3\n        /* \"#utility.yul\":20415:20418   */\n      dup8\n        /* \"#utility.yul\":20411:20430   */\n      add\n        /* \"#utility.yul\":20405:20431   */\n      mload\n        /* \"#utility.yul\":20396:20431   */\n      swap1\n      pop\n        /* \"#utility.yul\":20368:20445   */\n    tag_351:\n        /* \"#utility.yul\":20471:20538   */\n      tag_352\n        /* \"#utility.yul\":20531:20537   */\n      dup6\n        /* \"#utility.yul\":20524:20529   */\n      dup3\n        /* \"#utility.yul\":20471:20538   */\n      tag_163\n      jump\t// in\n    tag_352:\n        /* \"#utility.yul\":20465:20469   */\n      dup7\n        /* \"#utility.yul\":20458:20539   */\n      sstore\n        /* \"#utility.yul\":20327:20549   */\n      pop\n        /* \"#utility.yul\":19662:20549   */\n      jump(tag_349)\n        /* \"#utility.yul\":19692:20310   */\n    tag_350:\n        /* \"#utility.yul\":19744:19748   */\n      0x1f\n        /* \"#utility.yul\":19740:19749   */\n      not\n        /* \"#utility.yul\":19732:19738   */\n      dup5\n        /* \"#utility.yul\":19728:19750   */\n      and\n        /* \"#utility.yul\":19778:19815   */\n      tag_353\n        /* \"#utility.yul\":19810:19814   */\n      dup7\n        /* \"#utility.yul\":19778:19815   */\n      tag_149\n      jump\t// in\n    tag_353:\n        /* \"#utility.yul\":19837:19838   */\n      0x00\n        /* \"#utility.yul\":19851:20059   */\n    tag_354:\n        /* \"#utility.yul\":19865:19872   */\n      dup3\n        /* \"#utility.yul\":19862:19863   */\n      dup2\n        /* \"#utility.yul\":19859:19873   */\n      lt\n        /* \"#utility.yul\":19851:20059   */\n      iszero\n      tag_356\n      jumpi\n        /* \"#utility.yul\":19944:19953   */\n      dup5\n        /* \"#utility.yul\":19939:19942   */\n      dup10\n        /* \"#utility.yul\":19935:19954   */\n      add\n        /* \"#utility.yul\":19929:19955   */\n      mload\n        /* \"#utility.yul\":19921:19927   */\n      dup3\n        /* \"#utility.yul\":19914:19956   */\n      sstore\n        /* \"#utility.yul\":19995:19996   */\n      0x01\n        /* \"#utility.yul\":19987:19993   */\n      dup3\n        /* \"#utility.yul\":19983:19997   */\n      add\n        /* \"#utility.yul\":19973:19997   */\n      swap2\n      pop\n        /* \"#utility.yul\":20042:20044   */\n      0x20\n        /* \"#utility.yul\":20031:20040   */\n      dup6\n        /* \"#utility.yul\":20027:20045   */\n      add\n        /* \"#utility.yul\":20014:20045   */\n      swap5\n      pop\n        /* \"#utility.yul\":19888:19892   */\n      0x20\n        /* \"#utility.yul\":19885:19886   */\n      dup2\n        /* \"#utility.yul\":19881:19893   */\n      add\n        /* \"#utility.yul\":19876:19893   */\n      swap1\n      pop\n        /* \"#utility.yul\":19851:20059   */\n      jump(tag_354)\n    tag_356:\n        /* \"#utility.yul\":20087:20093   */\n      dup7\n        /* \"#utility.yul\":20078:20085   */\n      dup4\n        /* \"#utility.yul\":20075:20094   */\n      lt\n        /* \"#utility.yul\":20072:20251   */\n      iszero\n      tag_357\n      jumpi\n        /* \"#utility.yul\":20145:20154   */\n      dup5\n        /* \"#utility.yul\":20140:20143   */\n      dup10\n        /* \"#utility.yul\":20136:20155   */\n      add\n        /* \"#utility.yul\":20130:20156   */\n      mload\n        /* \"#utility.yul\":20188:20236   */\n      tag_358\n        /* \"#utility.yul\":20230:20234   */\n      0x1f\n        /* \"#utility.yul\":20222:20228   */\n      dup10\n        /* \"#utility.yul\":20218:20235   */\n      and\n        /* \"#utility.yul\":20207:20216   */\n      dup3\n        /* \"#utility.yul\":20188:20236   */\n      tag_162\n      jump\t// in\n    tag_358:\n        /* \"#utility.yul\":20180:20186   */\n      dup4\n        /* \"#utility.yul\":20173:20237   */\n      sstore\n        /* \"#utility.yul\":20095:20251   */\n      pop\n        /* \"#utility.yul\":20072:20251   */\n    tag_357:\n        /* \"#utility.yul\":20297:20298   */\n      0x01\n        /* \"#utility.yul\":20293:20294   */\n      0x02\n        /* \"#utility.yul\":20285:20291   */\n      dup9\n        /* \"#utility.yul\":20281:20295   */\n      mul\n        /* \"#utility.yul\":20277:20299   */\n      add\n        /* \"#utility.yul\":20271:20275   */\n      dup9\n        /* \"#utility.yul\":20264:20300   */\n      sstore\n        /* \"#utility.yul\":19699:20310   */\n      pop\n      pop\n      pop\n        /* \"#utility.yul\":19662:20549   */\n    tag_349:\n      pop\n        /* \"#utility.yul\":19252:20555   */\n      pop\n      pop\n      pop\n        /* \"#utility.yul\":19160:20555   */\n      pop\n      pop\n      jump\t// out\n\n    auxdata: 0xa2646970667358221220e85f9034674e393b1b25a362006fd2c8e17471fadb000e6ab8003b441ecc47bc64736f6c634300081a0033\n}\n",
				"bytecode": {
					"linkReferences": {},
					"object": "608060405234801561000f575f80fd5b505f6040518061010001604052806040518060400160405280600381526020017f6e696b000000000000000000000000000000000000000000000000000000000081525081526020016005600681111561006c5761006b610294565b5b81526020016040518060400160405280600481526020017f496e697400000000000000000000000000000000000000000000000000000000815250815260200160405180602001604052805f81525081526020016006808111156100d3576100d2610294565b5b81526020016040518060400160405280600181526020017f300000000000000000000000000000000000000000000000000000000000000081525081526020016040518060400160405280601281526020017f746f6b656e5f70726963655f696e5f696e72000000000000000000000000000081525081526020016040518060400160405280600a81526020017f323032352d30322d303600000000000000000000000000000000000000000000815250815250908060018154018082558091505060019003905f5260205f2090600802015f909190919091505f820151815f0190816101c091906104fb565b506020820151816001015f6101000a81548160ff021916908360068111156101eb576101ea610294565b5b0217905550604082015181600201908161020591906104fb565b50606082015181600301908161021b91906104fb565b506080820151816004015f6101000a81548160ff0219169083600681111561024657610245610294565b5b021790555060a082015181600501908161026091906104fb565b5060c082015181600601908161027691906104fb565b5060e082015181600701908161028c91906104fb565b5050506105ca565b7f4e487b71000000000000000000000000000000000000000000000000000000005f52602160045260245ffd5b5f81519050919050565b7f4e487b71000000000000000000000000000000000000000000000000000000005f52604160045260245ffd5b7f4e487b71000000000000000000000000000000000000000000000000000000005f52602260045260245ffd5b5f600282049050600182168061033c57607f821691505b60208210810361034f5761034e6102f8565b5b50919050565b5f819050815f5260205f209050919050565b5f6020601f8301049050919050565b5f82821b905092915050565b5f600883026103b17fffffffffffffffffffffffffffffffffffffffffffffffffffffffffffffffff82610376565b6103bb8683610376565b95508019841693508086168417925050509392505050565b5f819050919050565b5f819050919050565b5f6103ff6103fa6103f5846103d3565b6103dc565b6103d3565b9050919050565b5f819050919050565b610418836103e5565b61042c61042482610406565b848454610382565b825550505050565b5f90565b610440610434565b61044b81848461040f565b505050565b5b8181101561046e576104635f82610438565b600181019050610451565b5050565b601f8211156104b35761048481610355565b61048d84610367565b8101602085101561049c578190505b6104b06104a885610367565b830182610450565b50505b505050565b5f82821c905092915050565b5f6104d35f19846008026104b8565b1980831691505092915050565b5f6104eb83836104c4565b9150826002028217905092915050565b610504826102c1565b67ffffffffffffffff81111561051d5761051c6102cb565b5b6105278254610325565b610532828285610472565b5f60209050601f831160018114610563575f8415610551578287015190505b61055b85826104e0565b8655506105c2565b601f19841661057186610355565b5f5b8281101561059857848901518255600182019150602085019450602081019050610573565b868310156105b557848901516105b1601f8916826104c4565b8355505b6001600288020188555050505b505050505050565b611384806105d75f395ff3fe608060405234801561000f575f80fd5b506004361061003f575f3560e01c806327506f53146100435780633e05c134146100615780639ace38c21461007d575b5f80fd5b61004b6100b4565b6040516100589190610bec565b60405180910390f35b61007b60048036038101906100769190610ee3565b6104e3565b005b61009760048036038101906100929190610f5d565b6105f0565b6040516100ab989796959493929190610fdf565b60405180910390f35b60605f805480602002602001604051908101604052809291908181526020015f905b828210156104da578382905f5260205f209060080201604051806101000160405290815f82018054610107906110b2565b80601f0160208091040260200160405190810160405280929190818152602001828054610133906110b2565b801561017e5780601f106101555761010080835404028352916020019161017e565b820191905f5260205f20905b81548152906001019060200180831161016157829003601f168201915b50505050508152602001600182015f9054906101000a900460ff1660068111156101ab576101aa610a17565b5b60068111156101bd576101bc610a17565b5b81526020016002820180546101d1906110b2565b80601f01602080910402602001604051908101604052809291908181526020018280546101fd906110b2565b80156102485780601f1061021f57610100808354040283529160200191610248565b820191905f5260205f20905b81548152906001019060200180831161022b57829003601f168201915b50505050508152602001600382018054610261906110b2565b80601f016020809104026020016040519081016040528092919081815260200182805461028d906110b2565b80156102d85780601f106102af576101008083540402835291602001916102d8565b820191905f5260205f20905b8154815290600101906020018083116102bb57829003601f168201915b50505050508152602001600482015f9054906101000a900460ff16600681111561030557610304610a17565b5b600681111561031757610316610a17565b5b815260200160058201805461032b906110b2565b80601f0160208091040260200160405190810160405280929190818152602001828054610357906110b2565b80156103a25780601f10610379576101008083540402835291602001916103a2565b820191905f5260205f20905b81548152906001019060200180831161038557829003601f168201915b505050505081526020016006820180546103bb906110b2565b80601f01602080910402602001604051908101604052809291908181526020018280546103e7906110b2565b80156104325780601f1061040957610100808354040283529160200191610432565b820191905f5260205f20905b81548152906001019060200180831161041557829003601f168201915b5050505050815260200160078201805461044b906110b2565b80601f0160208091040260200160405190810160405280929190818152602001828054610477906110b2565b80156104c25780601f10610499576101008083540402835291602001916104c2565b820191905f5260205f20905b8154815290600101906020018083116104a557829003601f168201915b505050505081525050815260200190600101906100d6565b50505050905090565b5f81908060018154018082558091505060019003905f5260205f2090600802015f909190919091505f820151815f01908161051e919061127f565b506020820151816001015f6101000a81548160ff0219169083600681111561054957610548610a17565b5b02179055506040820151816002019081610563919061127f565b506060820151816003019081610579919061127f565b506080820151816004015f6101000a81548160ff021916908360068111156105a4576105a3610a17565b5b021790555060a08201518160050190816105be919061127f565b5060c08201518160060190816105d4919061127f565b5060e08201518160070190816105ea919061127f565b50505050565b5f81815481106105fe575f80fd5b905f5260205f2090600802015f91509050805f01805461061d906110b2565b80601f0160208091040260200160405190810160405280929190818152602001828054610649906110b2565b80156106945780601f1061066b57610100808354040283529160200191610694565b820191905f5260205f20905b81548152906001019060200180831161067757829003601f168201915b505050505090806001015f9054906101000a900460ff16908060020180546106bb906110b2565b80601f01602080910402602001604051908101604052809291908181526020018280546106e7906110b2565b80156107325780601f1061070957610100808354040283529160200191610732565b820191905f5260205f20905b81548152906001019060200180831161071557829003601f168201915b505050505090806003018054610747906110b2565b80601f0160208091040260200160405190810160405280929190818152602001828054610773906110b2565b80156107be5780601f10610795576101008083540402835291602001916107be565b820191905f5260205f20905b8154815290600101906020018083116107a157829003601f168201915b505050505090806004015f9054906101000a900460ff16908060050180546107e5906110b2565b80601f0160208091040260200160405190810160405280929190818152602001828054610811906110b2565b801561085c5780601f106108335761010080835404028352916020019161085c565b820191905f5260205f20905b81548152906001019060200180831161083f57829003601f168201915b505050505090806006018054610871906110b2565b80601f016020809104026020016040519081016040528092919081815260200182805461089d906110b2565b80156108e85780601f106108bf576101008083540402835291602001916108e8565b820191905f5260205f20905b8154815290600101906020018083116108cb57829003601f168201915b5050505050908060070180546108fd906110b2565b80601f0160208091040260200160405190810160405280929190818152602001828054610929906110b2565b80156109745780601f1061094b57610100808354040283529160200191610974565b820191905f5260205f20905b81548152906001019060200180831161095757829003601f168201915b5050505050905088565b5f81519050919050565b5f82825260208201905092915050565b5f819050602082019050919050565b5f81519050919050565b5f82825260208201905092915050565b8281835e5f83830152505050565b5f601f19601f8301169050919050565b5f6109e9826109a7565b6109f381856109b1565b9350610a038185602086016109c1565b610a0c816109cf565b840191505092915050565b7f4e487b71000000000000000000000000000000000000000000000000000000005f52602160045260245ffd5b60078110610a5557610a54610a17565b5b50565b5f819050610a6582610a44565b919050565b5f610a7482610a58565b9050919050565b610a8481610a6a565b82525050565b5f61010083015f8301518482035f860152610aa582826109df565b9150506020830151610aba6020860182610a7b565b5060408301518482036040860152610ad282826109df565b91505060608301518482036060860152610aec82826109df565b9150506080830151610b016080860182610a7b565b5060a083015184820360a0860152610b1982826109df565b91505060c083015184820360c0860152610b3382826109df565b91505060e083015184820360e0860152610b4d82826109df565b9150508091505092915050565b5f610b658383610a8a565b905092915050565b5f602082019050919050565b5f610b838261097e565b610b8d8185610988565b935083602082028501610b9f85610998565b805f5b85811015610bda5784840389528151610bbb8582610b5a565b9450610bc683610b6d565b925060208a01995050600181019050610ba2565b50829750879550505050505092915050565b5f6020820190508181035f830152610c048184610b79565b905092915050565b5f604051905090565b5f80fd5b5f80fd5b5f80fd5b7f4e487b71000000000000000000000000000000000000000000000000000000005f52604160045260245ffd5b610c57826109cf565b810181811067ffffffffffffffff82111715610c7657610c75610c21565b5b80604052505050565b5f610c88610c0c565b9050610c948282610c4e565b919050565b5f80fd5b5f80fd5b5f80fd5b5f67ffffffffffffffff821115610cbf57610cbe610c21565b5b610cc8826109cf565b9050602081019050919050565b828183375f83830152505050565b5f610cf5610cf084610ca5565b610c7f565b905082815260208101848484011115610d1157610d10610ca1565b5b610d1c848285610cd5565b509392505050565b5f82601f830112610d3857610d37610c9d565b5b8135610d48848260208601610ce3565b91505092915050565b60078110610d5d575f80fd5b50565b5f81359050610d6e81610d51565b92915050565b5f6101008284031215610d8a57610d89610c1d565b5b610d95610100610c7f565b90505f82013567ffffffffffffffff811115610db457610db3610c99565b5b610dc084828501610d24565b5f830152506020610dd384828501610d60565b602083015250604082013567ffffffffffffffff811115610df757610df6610c99565b5b610e0384828501610d24565b604083015250606082013567ffffffffffffffff811115610e2757610e26610c99565b5b610e3384828501610d24565b6060830152506080610e4784828501610d60565b60808301525060a082013567ffffffffffffffff811115610e6b57610e6a610c99565b5b610e7784828501610d24565b60a08301525060c082013567ffffffffffffffff811115610e9b57610e9a610c99565b5b610ea784828501610d24565b60c08301525060e082013567ffffffffffffffff811115610ecb57610eca610c99565b5b610ed784828501610d24565b60e08301525092915050565b5f60208284031215610ef857610ef7610c15565b5b5f82013567ffffffffffffffff811115610f1557610f14610c19565b5b610f2184828501610d74565b91505092915050565b5f819050919050565b610f3c81610f2a565b8114610f46575f80fd5b50565b5f81359050610f5781610f33565b92915050565b5f60208284031215610f7257610f71610c15565b5b5f610f7f84828501610f49565b91505092915050565b5f82825260208201905092915050565b5f610fa2826109a7565b610fac8185610f88565b9350610fbc8185602086016109c1565b610fc5816109cf565b840191505092915050565b610fd981610a6a565b82525050565b5f610100820190508181035f830152610ff8818b610f98565b9050611007602083018a610fd0565b81810360408301526110198189610f98565b9050818103606083015261102d8188610f98565b905061103c6080830187610fd0565b81810360a083015261104e8186610f98565b905081810360c08301526110628185610f98565b905081810360e08301526110768184610f98565b90509998505050505050505050565b7f4e487b71000000000000000000000000000000000000000000000000000000005f52602260045260245ffd5b5f60028204905060018216806110c957607f821691505b6020821081036110dc576110db611085565b5b50919050565b5f819050815f5260205f209050919050565b5f6020601f8301049050919050565b5f82821b905092915050565b5f6008830261113e7fffffffffffffffffffffffffffffffffffffffffffffffffffffffffffffffff82611103565b6111488683611103565b95508019841693508086168417925050509392505050565b5f819050919050565b5f61118361117e61117984610f2a565b611160565b610f2a565b9050919050565b5f819050919050565b61119c83611169565b6111b06111a88261118a565b84845461110f565b825550505050565b5f90565b6111c46111b8565b6111cf818484611193565b505050565b5b818110156111f2576111e75f826111bc565b6001810190506111d5565b5050565b601f82111561123757611208816110e2565b611211846110f4565b81016020851015611220578190505b61123461122c856110f4565b8301826111d4565b50505b505050565b5f82821c905092915050565b5f6112575f198460080261123c565b1980831691505092915050565b5f61126f8383611248565b9150826002028217905092915050565b611288826109a7565b67ffffffffffffffff8111156112a1576112a0610c21565b5b6112ab82546110b2565b6112b68282856111f6565b5f60209050601f8311600181146112e7575f84156112d5578287015190505b6112df8582611264565b865550611346565b601f1984166112f5866110e2565b5f5b8281101561131c578489015182556001820191506020850194506020810190506112f7565b868310156113395784890151611335601f891682611248565b8355505b6001600288020188555050505b50505050505056fea2646970667358221220e85f9034674e393b1b25a362006fd2c8e17471fadb000e6ab8003b441ecc47bc64736f6c634300081a0033",
					"opcodes": "PUSH1 0x80 PUSH1 0x40 MSTORE CALLVALUE DUP1 ISZERO PUSH2 0xF JUMPI PUSH0 DUP1 REVERT JUMPDEST POP PUSH0 PUSH1 0x40 MLOAD DUP1 PUSH2 0x100 ADD PUSH1 0x40 MSTORE DUP1 PUSH1 0x40 MLOAD DUP1 PUSH1 0x40 ADD PUSH1 0x40 MSTORE DUP1 PUSH1 0x3 DUP2 MSTORE PUSH1 0x20 ADD PUSH32 0x6E696B0000000000000000000000000000000000000000000000000000000000 DUP2 MSTORE POP DUP2 MSTORE PUSH1 0x20 ADD PUSH1 0x5 PUSH1 0x6 DUP2 GT ISZERO PUSH2 0x6C JUMPI PUSH2 0x6B PUSH2 0x294 JUMP JUMPDEST JUMPDEST DUP2 MSTORE PUSH1 0x20 ADD PUSH1 0x40 MLOAD DUP1 PUSH1 0x40 ADD PUSH1 0x40 MSTORE DUP1 PUSH1 0x4 DUP2 MSTORE PUSH1 0x20 ADD PUSH32 0x496E697400000000000000000000000000000000000000000000000000000000 DUP2 MSTORE POP DUP2 MSTORE PUSH1 0x20 ADD PUSH1 0x40 MLOAD DUP1 PUSH1 0x20 ADD PUSH1 0x40 MSTORE DUP1 PUSH0 DUP2 MSTORE POP DUP2 MSTORE PUSH1 0x20 ADD PUSH1 0x6 DUP1 DUP2 GT ISZERO PUSH2 0xD3 JUMPI PUSH2 0xD2 PUSH2 0x294 JUMP JUMPDEST JUMPDEST DUP2 MSTORE PUSH1 0x20 ADD PUSH1 0x40 MLOAD DUP1 PUSH1 0x40 ADD PUSH1 0x40 MSTORE DUP1 PUSH1 0x1 DUP2 MSTORE PUSH1 0x20 ADD PUSH32 0x3000000000000000000000000000000000000000000000000000000000000000 DUP2 MSTORE POP DUP2 MSTORE PUSH1 0x20 ADD PUSH1 0x40 MLOAD DUP1 PUSH1 0x40 ADD PUSH1 0x40 MSTORE DUP1 PUSH1 0x12 DUP2 MSTORE PUSH1 0x20 ADD PUSH32 0x746F6B656E5F70726963655F696E5F696E720000000000000000000000000000 DUP2 MSTORE POP DUP2 MSTORE PUSH1 0x20 ADD PUSH1 0x40 MLOAD DUP1 PUSH1 0x40 ADD PUSH1 0x40 MSTORE DUP1 PUSH1 0xA DUP2 MSTORE PUSH1 0x20 ADD PUSH32 0x323032352D30322D303600000000000000000000000000000000000000000000 DUP2 MSTORE POP DUP2 MSTORE POP SWAP1 DUP1 PUSH1 0x1 DUP2 SLOAD ADD DUP1 DUP3 SSTORE DUP1 SWAP2 POP POP PUSH1 0x1 SWAP1 SUB SWAP1 PUSH0 MSTORE PUSH1 0x20 PUSH0 KECCAK256 SWAP1 PUSH1 0x8 MUL ADD PUSH0 SWAP1 SWAP2 SWAP1 SWAP2 SWAP1 SWAP2 POP PUSH0 DUP3 ADD MLOAD DUP2 PUSH0 ADD SWAP1 DUP2 PUSH2 0x1C0 SWAP2 SWAP1 PUSH2 0x4FB JUMP JUMPDEST POP PUSH1 0x20 DUP3 ADD MLOAD DUP2 PUSH1 0x1 ADD PUSH0 PUSH2 0x100 EXP DUP2 SLOAD DUP2 PUSH1 0xFF MUL NOT AND SWAP1 DUP4 PUSH1 0x6 DUP2 GT ISZERO PUSH2 0x1EB JUMPI PUSH2 0x1EA PUSH2 0x294 JUMP JUMPDEST JUMPDEST MUL OR SWAP1 SSTORE POP PUSH1 0x40 DUP3 ADD MLOAD DUP2 PUSH1 0x2 ADD SWAP1 DUP2 PUSH2 0x205 SWAP2 SWAP1 PUSH2 0x4FB JUMP JUMPDEST POP PUSH1 0x60 DUP3 ADD MLOAD DUP2 PUSH1 0x3 ADD SWAP1 DUP2 PUSH2 0x21B SWAP2 SWAP1 PUSH2 0x4FB JUMP JUMPDEST POP PUSH1 0x80 DUP3 ADD MLOAD DUP2 PUSH1 0x4 ADD PUSH0 PUSH2 0x100 EXP DUP2 SLOAD DUP2 PUSH1 0xFF MUL NOT AND SWAP1 DUP4 PUSH1 0x6 DUP2 GT ISZERO PUSH2 0x246 JUMPI PUSH2 0x245 PUSH2 0x294 JUMP JUMPDEST JUMPDEST MUL OR SWAP1 SSTORE POP PUSH1 0xA0 DUP3 ADD MLOAD DUP2 PUSH1 0x5 ADD SWAP1 DUP2 PUSH2 0x260 SWAP2 SWAP1 PUSH2 0x4FB JUMP JUMPDEST POP PUSH1 0xC0 DUP3 ADD MLOAD DUP2 PUSH1 0x6 ADD SWAP1 DUP2 PUSH2 0x276 SWAP2 SWAP1 PUSH2 0x4FB JUMP JUMPDEST POP PUSH1 0xE0 DUP3 ADD MLOAD DUP2 PUSH1 0x7 ADD SWAP1 DUP2 PUSH2 0x28C SWAP2 SWAP1 PUSH2 0x4FB JUMP JUMPDEST POP POP POP PUSH2 0x5CA JUMP JUMPDEST PUSH32 0x4E487B7100000000000000000000000000000000000000000000000000000000 PUSH0 MSTORE PUSH1 0x21 PUSH1 0x4 MSTORE PUSH1 0x24 PUSH0 REVERT JUMPDEST PUSH0 DUP2 MLOAD SWAP1 POP SWAP2 SWAP1 POP JUMP JUMPDEST PUSH32 0x4E487B7100000000000000000000000000000000000000000000000000000000 PUSH0 MSTORE PUSH1 0x41 PUSH1 0x4 MSTORE PUSH1 0x24 PUSH0 REVERT JUMPDEST PUSH32 0x4E487B7100000000000000000000000000000000000000000000000000000000 PUSH0 MSTORE PUSH1 0x22 PUSH1 0x4 MSTORE PUSH1 0x24 PUSH0 REVERT JUMPDEST PUSH0 PUSH1 0x2 DUP3 DIV SWAP1 POP PUSH1 0x1 DUP3 AND DUP1 PUSH2 0x33C JUMPI PUSH1 0x7F DUP3 AND SWAP2 POP JUMPDEST PUSH1 0x20 DUP3 LT DUP2 SUB PUSH2 0x34F JUMPI PUSH2 0x34E PUSH2 0x2F8 JUMP JUMPDEST JUMPDEST POP SWAP2 SWAP1 POP JUMP JUMPDEST PUSH0 DUP2 SWAP1 POP DUP2 PUSH0 MSTORE PUSH1 0x20 PUSH0 KECCAK256 SWAP1 POP SWAP2 SWAP1 POP JUMP JUMPDEST PUSH0 PUSH1 0x20 PUSH1 0x1F DUP4 ADD DIV SWAP1 POP SWAP2 SWAP1 POP JUMP JUMPDEST PUSH0 DUP3 DUP3 SHL SWAP1 POP SWAP3 SWAP2 POP POP JUMP JUMPDEST PUSH0 PUSH1 0x8 DUP4 MUL PUSH2 0x3B1 PUSH32 0xFFFFFFFFFFFFFFFFFFFFFFFFFFFFFFFFFFFFFFFFFFFFFFFFFFFFFFFFFFFFFFFF DUP3 PUSH2 0x376 JUMP JUMPDEST PUSH2 0x3BB DUP7 DUP4 PUSH2 0x376 JUMP JUMPDEST SWAP6 POP DUP1 NOT DUP5 AND SWAP4 POP DUP1 DUP7 AND DUP5 OR SWAP3 POP POP POP SWAP4 SWAP3 POP POP POP JUMP JUMPDEST PUSH0 DUP2 SWAP1 POP SWAP2 SWAP1 POP JUMP JUMPDEST PUSH0 DUP2 SWAP1 POP SWAP2 SWAP1 POP JUMP JUMPDEST PUSH0 PUSH2 0x3FF PUSH2 0x3FA PUSH2 0x3F5 DUP5 PUSH2 0x3D3 JUMP JUMPDEST PUSH2 0x3DC JUMP JUMPDEST PUSH2 0x3D3 JUMP JUMPDEST SWAP1 POP SWAP2 SWAP1 POP JUMP JUMPDEST PUSH0 DUP2 SWAP1 POP SWAP2 SWAP1 POP JUMP JUMPDEST PUSH2 0x418 DUP4 PUSH2 0x3E5 JUMP JUMPDEST PUSH2 0x42C PUSH2 0x424 DUP3 PUSH2 0x406 JUMP JUMPDEST DUP5 DUP5 SLOAD PUSH2 0x382 JUMP JUMPDEST DUP3 SSTORE POP POP POP POP JUMP JUMPDEST PUSH0 SWAP1 JUMP JUMPDEST PUSH2 0x440 PUSH2 0x434 JUMP JUMPDEST PUSH2 0x44B DUP2 DUP5 DUP5 PUSH2 0x40F JUMP JUMPDEST POP POP POP JUMP JUMPDEST JUMPDEST DUP2 DUP2 LT ISZERO PUSH2 0x46E JUMPI PUSH2 0x463 PUSH0 DUP3 PUSH2 0x438 JUMP JUMPDEST PUSH1 0x1 DUP2 ADD SWAP1 POP PUSH2 0x451 JUMP JUMPDEST POP POP JUMP JUMPDEST PUSH1 0x1F DUP3 GT ISZERO PUSH2 0x4B3 JUMPI PUSH2 0x484 DUP2 PUSH2 0x355 JUMP JUMPDEST PUSH2 0x48D DUP5 PUSH2 0x367 JUMP JUMPDEST DUP2 ADD PUSH1 0x20 DUP6 LT ISZERO PUSH2 0x49C JUMPI DUP2 SWAP1 POP JUMPDEST PUSH2 0x4B0 PUSH2 0x4A8 DUP6 PUSH2 0x367 JUMP JUMPDEST DUP4 ADD DUP3 PUSH2 0x450 JUMP JUMPDEST POP POP JUMPDEST POP POP POP JUMP JUMPDEST PUSH0 DUP3 DUP3 SHR SWAP1 POP SWAP3 SWAP2 POP POP JUMP JUMPDEST PUSH0 PUSH2 0x4D3 PUSH0 NOT DUP5 PUSH1 0x8 MUL PUSH2 0x4B8 JUMP JUMPDEST NOT DUP1 DUP4 AND SWAP2 POP POP SWAP3 SWAP2 POP POP JUMP JUMPDEST PUSH0 PUSH2 0x4EB DUP4 DUP4 PUSH2 0x4C4 JUMP JUMPDEST SWAP2 POP DUP3 PUSH1 0x2 MUL DUP3 OR SWAP1 POP SWAP3 SWAP2 POP POP JUMP JUMPDEST PUSH2 0x504 DUP3 PUSH2 0x2C1 JUMP JUMPDEST PUSH8 0xFFFFFFFFFFFFFFFF DUP2 GT ISZERO PUSH2 0x51D JUMPI PUSH2 0x51C PUSH2 0x2CB JUMP JUMPDEST JUMPDEST PUSH2 0x527 DUP3 SLOAD PUSH2 0x325 JUMP JUMPDEST PUSH2 0x532 DUP3 DUP3 DUP6 PUSH2 0x472 JUMP JUMPDEST PUSH0 PUSH1 0x20 SWAP1 POP PUSH1 0x1F DUP4 GT PUSH1 0x1 DUP2 EQ PUSH2 0x563 JUMPI PUSH0 DUP5 ISZERO PUSH2 0x551 JUMPI DUP3 DUP8 ADD MLOAD SWAP1 POP JUMPDEST PUSH2 0x55B DUP6 DUP3 PUSH2 0x4E0 JUMP JUMPDEST DUP7 SSTORE POP PUSH2 0x5C2 JUMP JUMPDEST PUSH1 0x1F NOT DUP5 AND PUSH2 0x571 DUP7 PUSH2 0x355 JUMP JUMPDEST PUSH0 JUMPDEST DUP3 DUP2 LT ISZERO PUSH2 0x598 JUMPI DUP5 DUP10 ADD MLOAD DUP3 SSTORE PUSH1 0x1 DUP3 ADD SWAP2 POP PUSH1 0x20 DUP6 ADD SWAP5 POP PUSH1 0x20 DUP2 ADD SWAP1 POP PUSH2 0x573 JUMP JUMPDEST DUP7 DUP4 LT ISZERO PUSH2 0x5B5 JUMPI DUP5 DUP10 ADD MLOAD PUSH2 0x5B1 PUSH1 0x1F DUP10 AND DUP3 PUSH2 0x4C4 JUMP JUMPDEST DUP4 SSTORE POP JUMPDEST PUSH1 0x1 PUSH1 0x2 DUP9 MUL ADD DUP9 SSTORE POP POP POP JUMPDEST POP POP POP POP POP POP JUMP JUMPDEST PUSH2 0x1384 DUP1 PUSH2 0x5D7 PUSH0 CODECOPY PUSH0 RETURN INVALID PUSH1 0x80 PUSH1 0x40 MSTORE CALLVALUE DUP1 ISZERO PUSH2 0xF JUMPI PUSH0 DUP1 REVERT JUMPDEST POP PUSH1 0x4 CALLDATASIZE LT PUSH2 0x3F JUMPI PUSH0 CALLDATALOAD PUSH1 0xE0 SHR DUP1 PUSH4 0x27506F53 EQ PUSH2 0x43 JUMPI DUP1 PUSH4 0x3E05C134 EQ PUSH2 0x61 JUMPI DUP1 PUSH4 0x9ACE38C2 EQ PUSH2 0x7D JUMPI JUMPDEST PUSH0 DUP1 REVERT JUMPDEST PUSH2 0x4B PUSH2 0xB4 JUMP JUMPDEST PUSH1 0x40 MLOAD PUSH2 0x58 SWAP2 SWAP1 PUSH2 0xBEC JUMP JUMPDEST PUSH1 0x40 MLOAD DUP1 SWAP2 SUB SWAP1 RETURN JUMPDEST PUSH2 0x7B PUSH1 0x4 DUP1 CALLDATASIZE SUB DUP2 ADD SWAP1 PUSH2 0x76 SWAP2 SWAP1 PUSH2 0xEE3 JUMP JUMPDEST PUSH2 0x4E3 JUMP JUMPDEST STOP JUMPDEST PUSH2 0x97 PUSH1 0x4 DUP1 CALLDATASIZE SUB DUP2 ADD SWAP1 PUSH2 0x92 SWAP2 SWAP1 PUSH2 0xF5D JUMP JUMPDEST PUSH2 0x5F0 JUMP JUMPDEST PUSH1 0x40 MLOAD PUSH2 0xAB SWAP9 SWAP8 SWAP7 SWAP6 SWAP5 SWAP4 SWAP3 SWAP2 SWAP1 PUSH2 0xFDF JUMP JUMPDEST PUSH1 0x40 MLOAD DUP1 SWAP2 SUB SWAP1 RETURN JUMPDEST PUSH1 0x60 PUSH0 DUP1 SLOAD DUP1 PUSH1 0x20 MUL PUSH1 0x20 ADD PUSH1 0x40 MLOAD SWAP1 DUP2 ADD PUSH1 0x40 MSTORE DUP1 SWAP3 SWAP2 SWAP1 DUP2 DUP2 MSTORE PUSH1 0x20 ADD PUSH0 SWAP1 JUMPDEST DUP3 DUP3 LT ISZERO PUSH2 0x4DA JUMPI DUP4 DUP3 SWAP1 PUSH0 MSTORE PUSH1 0x20 PUSH0 KECCAK256 SWAP1 PUSH1 0x8 MUL ADD PUSH1 0x40 MLOAD DUP1 PUSH2 0x100 ADD PUSH1 0x40 MSTORE SWAP1 DUP2 PUSH0 DUP3 ADD DUP1 SLOAD PUSH2 0x107 SWAP1 PUSH2 0x10B2 JUMP JUMPDEST DUP1 PUSH1 0x1F ADD PUSH1 0x20 DUP1 SWAP2 DIV MUL PUSH1 0x20 ADD PUSH1 0x40 MLOAD SWAP1 DUP2 ADD PUSH1 0x40 MSTORE DUP1 SWAP3 SWAP2 SWAP1 DUP2 DUP2 MSTORE PUSH1 0x20 ADD DUP3 DUP1 SLOAD PUSH2 0x133 SWAP1 PUSH2 0x10B2 JUMP JUMPDEST DUP1 ISZERO PUSH2 0x17E JUMPI DUP1 PUSH1 0x1F LT PUSH2 0x155 JUMPI PUSH2 0x100 DUP1 DUP4 SLOAD DIV MUL DUP4 MSTORE SWAP2 PUSH1 0x20 ADD SWAP2 PUSH2 0x17E JUMP JUMPDEST DUP3 ADD SWAP2 SWAP1 PUSH0 MSTORE PUSH1 0x20 PUSH0 KECCAK256 SWAP1 JUMPDEST DUP2 SLOAD DUP2 MSTORE SWAP1 PUSH1 0x1 ADD SWAP1 PUSH1 0x20 ADD DUP1 DUP4 GT PUSH2 0x161 JUMPI DUP3 SWAP1 SUB PUSH1 0x1F AND DUP3 ADD SWAP2 JUMPDEST POP POP POP POP POP DUP2 MSTORE PUSH1 0x20 ADD PUSH1 0x1 DUP3 ADD PUSH0 SWAP1 SLOAD SWAP1 PUSH2 0x100 EXP SWAP1 DIV PUSH1 0xFF AND PUSH1 0x6 DUP2 GT ISZERO PUSH2 0x1AB JUMPI PUSH2 0x1AA PUSH2 0xA17 JUMP JUMPDEST JUMPDEST PUSH1 0x6 DUP2 GT ISZERO PUSH2 0x1BD JUMPI PUSH2 0x1BC PUSH2 0xA17 JUMP JUMPDEST JUMPDEST DUP2 MSTORE PUSH1 0x20 ADD PUSH1 0x2 DUP3 ADD DUP1 SLOAD PUSH2 0x1D1 SWAP1 PUSH2 0x10B2 JUMP JUMPDEST DUP1 PUSH1 0x1F ADD PUSH1 0x20 DUP1 SWAP2 DIV MUL PUSH1 0x20 ADD PUSH1 0x40 MLOAD SWAP1 DUP2 ADD PUSH1 0x40 MSTORE DUP1 SWAP3 SWAP2 SWAP1 DUP2 DUP2 MSTORE PUSH1 0x20 ADD DUP3 DUP1 SLOAD PUSH2 0x1FD SWAP1 PUSH2 0x10B2 JUMP JUMPDEST DUP1 ISZERO PUSH2 0x248 JUMPI DUP1 PUSH1 0x1F LT PUSH2 0x21F JUMPI PUSH2 0x100 DUP1 DUP4 SLOAD DIV MUL DUP4 MSTORE SWAP2 PUSH1 0x20 ADD SWAP2 PUSH2 0x248 JUMP JUMPDEST DUP3 ADD SWAP2 SWAP1 PUSH0 MSTORE PUSH1 0x20 PUSH0 KECCAK256 SWAP1 JUMPDEST DUP2 SLOAD DUP2 MSTORE SWAP1 PUSH1 0x1 ADD SWAP1 PUSH1 0x20 ADD DUP1 DUP4 GT PUSH2 0x22B JUMPI DUP3 SWAP1 SUB PUSH1 0x1F AND DUP3 ADD SWAP2 JUMPDEST POP POP POP POP POP DUP2 MSTORE PUSH1 0x20 ADD PUSH1 0x3 DUP3 ADD DUP1 SLOAD PUSH2 0x261 SWAP1 PUSH2 0x10B2 JUMP JUMPDEST DUP1 PUSH1 0x1F ADD PUSH1 0x20 DUP1 SWAP2 DIV MUL PUSH1 0x20 ADD PUSH1 0x40 MLOAD SWAP1 DUP2 ADD PUSH1 0x40 MSTORE DUP1 SWAP3 SWAP2 SWAP1 DUP2 DUP2 MSTORE PUSH1 0x20 ADD DUP3 DUP1 SLOAD PUSH2 0x28D SWAP1 PUSH2 0x10B2 JUMP JUMPDEST DUP1 ISZERO PUSH2 0x2D8 JUMPI DUP1 PUSH1 0x1F LT PUSH2 0x2AF JUMPI PUSH2 0x100 DUP1 DUP4 SLOAD DIV MUL DUP4 MSTORE SWAP2 PUSH1 0x20 ADD SWAP2 PUSH2 0x2D8 JUMP JUMPDEST DUP3 ADD SWAP2 SWAP1 PUSH0 MSTORE PUSH1 0x20 PUSH0 KECCAK256 SWAP1 JUMPDEST DUP2 SLOAD DUP2 MSTORE SWAP1 PUSH1 0x1 ADD SWAP1 PUSH1 0x20 ADD DUP1 DUP4 GT PUSH2 0x2BB JUMPI DUP3 SWAP1 SUB PUSH1 0x1F AND DUP3 ADD SWAP2 JUMPDEST POP POP POP POP POP DUP2 MSTORE PUSH1 0x20 ADD PUSH1 0x4 DUP3 ADD PUSH0 SWAP1 SLOAD SWAP1 PUSH2 0x100 EXP SWAP1 DIV PUSH1 0xFF AND PUSH1 0x6 DUP2 GT ISZERO PUSH2 0x305 JUMPI PUSH2 0x304 PUSH2 0xA17 JUMP JUMPDEST JUMPDEST PUSH1 0x6 DUP2 GT ISZERO PUSH2 0x317 JUMPI PUSH2 0x316 PUSH2 0xA17 JUMP JUMPDEST JUMPDEST DUP2 MSTORE PUSH1 0x20 ADD PUSH1 0x5 DUP3 ADD DUP1 SLOAD PUSH2 0x32B SWAP1 PUSH2 0x10B2 JUMP JUMPDEST DUP1 PUSH1 0x1F ADD PUSH1 0x20 DUP1 SWAP2 DIV MUL PUSH1 0x20 ADD PUSH1 0x40 MLOAD SWAP1 DUP2 ADD PUSH1 0x40 MSTORE DUP1 SWAP3 SWAP2 SWAP1 DUP2 DUP2 MSTORE PUSH1 0x20 ADD DUP3 DUP1 SLOAD PUSH2 0x357 SWAP1 PUSH2 0x10B2 JUMP JUMPDEST DUP1 ISZERO PUSH2 0x3A2 JUMPI DUP1 PUSH1 0x1F LT PUSH2 0x379 JUMPI PUSH2 0x100 DUP1 DUP4 SLOAD DIV MUL DUP4 MSTORE SWAP2 PUSH1 0x20 ADD SWAP2 PUSH2 0x3A2 JUMP JUMPDEST DUP3 ADD SWAP2 SWAP1 PUSH0 MSTORE PUSH1 0x20 PUSH0 KECCAK256 SWAP1 JUMPDEST DUP2 SLOAD DUP2 MSTORE SWAP1 PUSH1 0x1 ADD SWAP1 PUSH1 0x20 ADD DUP1 DUP4 GT PUSH2 0x385 JUMPI DUP3 SWAP1 SUB PUSH1 0x1F AND DUP3 ADD SWAP2 JUMPDEST POP POP POP POP POP DUP2 MSTORE PUSH1 0x20 ADD PUSH1 0x6 DUP3 ADD DUP1 SLOAD PUSH2 0x3BB SWAP1 PUSH2 0x10B2 JUMP JUMPDEST DUP1 PUSH1 0x1F ADD PUSH1 0x20 DUP1 SWAP2 DIV MUL PUSH1 0x20 ADD PUSH1 0x40 MLOAD SWAP1 DUP2 ADD PUSH1 0x40 MSTORE DUP1 SWAP3 SWAP2 SWAP1 DUP2 DUP2 MSTORE PUSH1 0x20 ADD DUP3 DUP1 SLOAD PUSH2 0x3E7 SWAP1 PUSH2 0x10B2 JUMP JUMPDEST DUP1 ISZERO PUSH2 0x432 JUMPI DUP1 PUSH1 0x1F LT PUSH2 0x409 JUMPI PUSH2 0x100 DUP1 DUP4 SLOAD DIV MUL DUP4 MSTORE SWAP2 PUSH1 0x20 ADD SWAP2 PUSH2 0x432 JUMP JUMPDEST DUP3 ADD SWAP2 SWAP1 PUSH0 MSTORE PUSH1 0x20 PUSH0 KECCAK256 SWAP1 JUMPDEST DUP2 SLOAD DUP2 MSTORE SWAP1 PUSH1 0x1 ADD SWAP1 PUSH1 0x20 ADD DUP1 DUP4 GT PUSH2 0x415 JUMPI DUP3 SWAP1 SUB PUSH1 0x1F AND DUP3 ADD SWAP2 JUMPDEST POP POP POP POP POP DUP2 MSTORE PUSH1 0x20 ADD PUSH1 0x7 DUP3 ADD DUP1 SLOAD PUSH2 0x44B SWAP1 PUSH2 0x10B2 JUMP JUMPDEST DUP1 PUSH1 0x1F ADD PUSH1 0x20 DUP1 SWAP2 DIV MUL PUSH1 0x20 ADD PUSH1 0x40 MLOAD SWAP1 DUP2 ADD PUSH1 0x40 MSTORE DUP1 SWAP3 SWAP2 SWAP1 DUP2 DUP2 MSTORE PUSH1 0x20 ADD DUP3 DUP1 SLOAD PUSH2 0x477 SWAP1 PUSH2 0x10B2 JUMP JUMPDEST DUP1 ISZERO PUSH2 0x4C2 JUMPI DUP1 PUSH1 0x1F LT PUSH2 0x499 JUMPI PUSH2 0x100 DUP1 DUP4 SLOAD DIV MUL DUP4 MSTORE SWAP2 PUSH1 0x20 ADD SWAP2 PUSH2 0x4C2 JUMP JUMPDEST DUP3 ADD SWAP2 SWAP1 PUSH0 MSTORE PUSH1 0x20 PUSH0 KECCAK256 SWAP1 JUMPDEST DUP2 SLOAD DUP2 MSTORE SWAP1 PUSH1 0x1 ADD SWAP1 PUSH1 0x20 ADD DUP1 DUP4 GT PUSH2 0x4A5 JUMPI DUP3 SWAP1 SUB PUSH1 0x1F AND DUP3 ADD SWAP2 JUMPDEST POP POP POP POP POP DUP2 MSTORE POP POP DUP2 MSTORE PUSH1 0x20 ADD SWAP1 PUSH1 0x1 ADD SWAP1 PUSH2 0xD6 JUMP JUMPDEST POP POP POP POP SWAP1 POP SWAP1 JUMP JUMPDEST PUSH0 DUP2 SWAP1 DUP1 PUSH1 0x1 DUP2 SLOAD ADD DUP1 DUP3 SSTORE DUP1 SWAP2 POP POP PUSH1 0x1 SWAP1 SUB SWAP1 PUSH0 MSTORE PUSH1 0x20 PUSH0 KECCAK256 SWAP1 PUSH1 0x8 MUL ADD PUSH0 SWAP1 SWAP2 SWAP1 SWAP2 SWAP1 SWAP2 POP PUSH0 DUP3 ADD MLOAD DUP2 PUSH0 ADD SWAP1 DUP2 PUSH2 0x51E SWAP2 SWAP1 PUSH2 0x127F JUMP JUMPDEST POP PUSH1 0x20 DUP3 ADD MLOAD DUP2 PUSH1 0x1 ADD PUSH0 PUSH2 0x100 EXP DUP2 SLOAD DUP2 PUSH1 0xFF MUL NOT AND SWAP1 DUP4 PUSH1 0x6 DUP2 GT ISZERO PUSH2 0x549 JUMPI PUSH2 0x548 PUSH2 0xA17 JUMP JUMPDEST JUMPDEST MUL OR SWAP1 SSTORE POP PUSH1 0x40 DUP3 ADD MLOAD DUP2 PUSH1 0x2 ADD SWAP1 DUP2 PUSH2 0x563 SWAP2 SWAP1 PUSH2 0x127F JUMP JUMPDEST POP PUSH1 0x60 DUP3 ADD MLOAD DUP2 PUSH1 0x3 ADD SWAP1 DUP2 PUSH2 0x579 SWAP2 SWAP1 PUSH2 0x127F JUMP JUMPDEST POP PUSH1 0x80 DUP3 ADD MLOAD DUP2 PUSH1 0x4 ADD PUSH0 PUSH2 0x100 EXP DUP2 SLOAD DUP2 PUSH1 0xFF MUL NOT AND SWAP1 DUP4 PUSH1 0x6 DUP2 GT ISZERO PUSH2 0x5A4 JUMPI PUSH2 0x5A3 PUSH2 0xA17 JUMP JUMPDEST JUMPDEST MUL OR SWAP1 SSTORE POP PUSH1 0xA0 DUP3 ADD MLOAD DUP2 PUSH1 0x5 ADD SWAP1 DUP2 PUSH2 0x5BE SWAP2 SWAP1 PUSH2 0x127F JUMP JUMPDEST POP PUSH1 0xC0 DUP3 ADD MLOAD DUP2 PUSH1 0x6 ADD SWAP1 DUP2 PUSH2 0x5D4 SWAP2 SWAP1 PUSH2 0x127F JUMP JUMPDEST POP PUSH1 0xE0 DUP3 ADD MLOAD DUP2 PUSH1 0x7 ADD SWAP1 DUP2 PUSH2 0x5EA SWAP2 SWAP1 PUSH2 0x127F JUMP JUMPDEST POP POP POP POP JUMP JUMPDEST PUSH0 DUP2 DUP2 SLOAD DUP2 LT PUSH2 0x5FE JUMPI PUSH0 DUP1 REVERT JUMPDEST SWAP1 PUSH0 MSTORE PUSH1 0x20 PUSH0 KECCAK256 SWAP1 PUSH1 0x8 MUL ADD PUSH0 SWAP2 POP SWAP1 POP DUP1 PUSH0 ADD DUP1 SLOAD PUSH2 0x61D SWAP1 PUSH2 0x10B2 JUMP JUMPDEST DUP1 PUSH1 0x1F ADD PUSH1 0x20 DUP1 SWAP2 DIV MUL PUSH1 0x20 ADD PUSH1 0x40 MLOAD SWAP1 DUP2 ADD PUSH1 0x40 MSTORE DUP1 SWAP3 SWAP2 SWAP1 DUP2 DUP2 MSTORE PUSH1 0x20 ADD DUP3 DUP1 SLOAD PUSH2 0x649 SWAP1 PUSH2 0x10B2 JUMP JUMPDEST DUP1 ISZERO PUSH2 0x694 JUMPI DUP1 PUSH1 0x1F LT PUSH2 0x66B JUMPI PUSH2 0x100 DUP1 DUP4 SLOAD DIV MUL DUP4 MSTORE SWAP2 PUSH1 0x20 ADD SWAP2 PUSH2 0x694 JUMP JUMPDEST DUP3 ADD SWAP2 SWAP1 PUSH0 MSTORE PUSH1 0x20 PUSH0 KECCAK256 SWAP1 JUMPDEST DUP2 SLOAD DUP2 MSTORE SWAP1 PUSH1 0x1 ADD SWAP1 PUSH1 0x20 ADD DUP1 DUP4 GT PUSH2 0x677 JUMPI DUP3 SWAP1 SUB PUSH1 0x1F AND DUP3 ADD SWAP2 JUMPDEST POP POP POP POP POP SWAP1 DUP1 PUSH1 0x1 ADD PUSH0 SWAP1 SLOAD SWAP1 PUSH2 0x100 EXP SWAP1 DIV PUSH1 0xFF AND SWAP1 DUP1 PUSH1 0x2 ADD DUP1 SLOAD PUSH2 0x6BB SWAP1 PUSH2 0x10B2 JUMP JUMPDEST DUP1 PUSH1 0x1F ADD PUSH1 0x20 DUP1 SWAP2 DIV MUL PUSH1 0x20 ADD PUSH1 0x40 MLOAD SWAP1 DUP2 ADD PUSH1 0x40 MSTORE DUP1 SWAP3 SWAP2 SWAP1 DUP2 DUP2 MSTORE PUSH1 0x20 ADD DUP3 DUP1 SLOAD PUSH2 0x6E7 SWAP1 PUSH2 0x10B2 JUMP JUMPDEST DUP1 ISZERO PUSH2 0x732 JUMPI DUP1 PUSH1 0x1F LT PUSH2 0x709 JUMPI PUSH2 0x100 DUP1 DUP4 SLOAD DIV MUL DUP4 MSTORE SWAP2 PUSH1 0x20 ADD SWAP2 PUSH2 0x732 JUMP JUMPDEST DUP3 ADD SWAP2 SWAP1 PUSH0 MSTORE PUSH1 0x20 PUSH0 KECCAK256 SWAP1 JUMPDEST DUP2 SLOAD DUP2 MSTORE SWAP1 PUSH1 0x1 ADD SWAP1 PUSH1 0x20 ADD DUP1 DUP4 GT PUSH2 0x715 JUMPI DUP3 SWAP1 SUB PUSH1 0x1F AND DUP3 ADD SWAP2 JUMPDEST POP POP POP POP POP SWAP1 DUP1 PUSH1 0x3 ADD DUP1 SLOAD PUSH2 0x747 SWAP1 PUSH2 0x10B2 JUMP JUMPDEST DUP1 PUSH1 0x1F ADD PUSH1 0x20 DUP1 SWAP2 DIV MUL PUSH1 0x20 ADD PUSH1 0x40 MLOAD SWAP1 DUP2 ADD PUSH1 0x40 MSTORE DUP1 SWAP3 SWAP2 SWAP1 DUP2 DUP2 MSTORE PUSH1 0x20 ADD DUP3 DUP1 SLOAD PUSH2 0x773 SWAP1 PUSH2 0x10B2 JUMP JUMPDEST DUP1 ISZERO PUSH2 0x7BE JUMPI DUP1 PUSH1 0x1F LT PUSH2 0x795 JUMPI PUSH2 0x100 DUP1 DUP4 SLOAD DIV MUL DUP4 MSTORE SWAP2 PUSH1 0x20 ADD SWAP2 PUSH2 0x7BE JUMP JUMPDEST DUP3 ADD SWAP2 SWAP1 PUSH0 MSTORE PUSH1 0x20 PUSH0 KECCAK256 SWAP1 JUMPDEST DUP2 SLOAD DUP2 MSTORE SWAP1 PUSH1 0x1 ADD SWAP1 PUSH1 0x20 ADD DUP1 DUP4 GT PUSH2 0x7A1 JUMPI DUP3 SWAP1 SUB PUSH1 0x1F AND DUP3 ADD SWAP2 JUMPDEST POP POP POP POP POP SWAP1 DUP1 PUSH1 0x4 ADD PUSH0 SWAP1 SLOAD SWAP1 PUSH2 0x100 EXP SWAP1 DIV PUSH1 0xFF AND SWAP1 DUP1 PUSH1 0x5 ADD DUP1 SLOAD PUSH2 0x7E5 SWAP1 PUSH2 0x10B2 JUMP JUMPDEST DUP1 PUSH1 0x1F ADD PUSH1 0x20 DUP1 SWAP2 DIV MUL PUSH1 0x20 ADD PUSH1 0x40 MLOAD SWAP1 DUP2 ADD PUSH1 0x40 MSTORE DUP1 SWAP3 SWAP2 SWAP1 DUP2 DUP2 MSTORE PUSH1 0x20 ADD DUP3 DUP1 SLOAD PUSH2 0x811 SWAP1 PUSH2 0x10B2 JUMP JUMPDEST DUP1 ISZERO PUSH2 0x85C JUMPI DUP1 PUSH1 0x1F LT PUSH2 0x833 JUMPI PUSH2 0x100 DUP1 DUP4 SLOAD DIV MUL DUP4 MSTORE SWAP2 PUSH1 0x20 ADD SWAP2 PUSH2 0x85C JUMP JUMPDEST DUP3 ADD SWAP2 SWAP1 PUSH0 MSTORE PUSH1 0x20 PUSH0 KECCAK256 SWAP1 JUMPDEST DUP2 SLOAD DUP2 MSTORE SWAP1 PUSH1 0x1 ADD SWAP1 PUSH1 0x20 ADD DUP1 DUP4 GT PUSH2 0x83F JUMPI DUP3 SWAP1 SUB PUSH1 0x1F AND DUP3 ADD SWAP2 JUMPDEST POP POP POP POP POP SWAP1 DUP1 PUSH1 0x6 ADD DUP1 SLOAD PUSH2 0x871 SWAP1 PUSH2 0x10B2 JUMP JUMPDEST DUP1 PUSH1 0x1F ADD PUSH1 0x20 DUP1 SWAP2 DIV MUL PUSH1 0x20 ADD PUSH1 0x40 MLOAD SWAP1 DUP2 ADD PUSH1 0x40 MSTORE DUP1 SWAP3 SWAP2 SWAP1 DUP2 DUP2 MSTORE PUSH1 0x20 ADD DUP3 DUP1 SLOAD PUSH2 0x89D SWAP1 PUSH2 0x10B2 JUMP JUMPDEST DUP1 ISZERO PUSH2 0x8E8 JUMPI DUP1 PUSH1 0x1F LT PUSH2 0x8BF JUMPI PUSH2 0x100 DUP1 DUP4 SLOAD DIV MUL DUP4 MSTORE SWAP2 PUSH1 0x20 ADD SWAP2 PUSH2 0x8E8 JUMP JUMPDEST DUP3 ADD SWAP2 SWAP1 PUSH0 MSTORE PUSH1 0x20 PUSH0 KECCAK256 SWAP1 JUMPDEST DUP2 SLOAD DUP2 MSTORE SWAP1 PUSH1 0x1 ADD SWAP1 PUSH1 0x20 ADD DUP1 DUP4 GT PUSH2 0x8CB JUMPI DUP3 SWAP1 SUB PUSH1 0x1F AND DUP3 ADD SWAP2 JUMPDEST POP POP POP POP POP SWAP1 DUP1 PUSH1 0x7 ADD DUP1 SLOAD PUSH2 0x8FD SWAP1 PUSH2 0x10B2 JUMP JUMPDEST DUP1 PUSH1 0x1F ADD PUSH1 0x20 DUP1 SWAP2 DIV MUL PUSH1 0x20 ADD PUSH1 0x40 MLOAD SWAP1 DUP2 ADD PUSH1 0x40 MSTORE DUP1 SWAP3 SWAP2 SWAP1 DUP2 DUP2 MSTORE PUSH1 0x20 ADD DUP3 DUP1 SLOAD PUSH2 0x929 SWAP1 PUSH2 0x10B2 JUMP JUMPDEST DUP1 ISZERO PUSH2 0x974 JUMPI DUP1 PUSH1 0x1F LT PUSH2 0x94B JUMPI PUSH2 0x100 DUP1 DUP4 SLOAD DIV MUL DUP4 MSTORE SWAP2 PUSH1 0x20 ADD SWAP2 PUSH2 0x974 JUMP JUMPDEST DUP3 ADD SWAP2 SWAP1 PUSH0 MSTORE PUSH1 0x20 PUSH0 KECCAK256 SWAP1 JUMPDEST DUP2 SLOAD DUP2 MSTORE SWAP1 PUSH1 0x1 ADD SWAP1 PUSH1 0x20 ADD DUP1 DUP4 GT PUSH2 0x957 JUMPI DUP3 SWAP1 SUB PUSH1 0x1F AND DUP3 ADD SWAP2 JUMPDEST POP POP POP POP POP SWAP1 POP DUP9 JUMP JUMPDEST PUSH0 DUP2 MLOAD SWAP1 POP SWAP2 SWAP1 POP JUMP JUMPDEST PUSH0 DUP3 DUP3 MSTORE PUSH1 0x20 DUP3 ADD SWAP1 POP SWAP3 SWAP2 POP POP JUMP JUMPDEST PUSH0 DUP2 SWAP1 POP PUSH1 0x20 DUP3 ADD SWAP1 POP SWAP2 SWAP1 POP JUMP JUMPDEST PUSH0 DUP2 MLOAD SWAP1 POP SWAP2 SWAP1 POP JUMP JUMPDEST PUSH0 DUP3 DUP3 MSTORE PUSH1 0x20 DUP3 ADD SWAP1 POP SWAP3 SWAP2 POP POP JUMP JUMPDEST DUP3 DUP2 DUP4 MCOPY PUSH0 DUP4 DUP4 ADD MSTORE POP POP POP JUMP JUMPDEST PUSH0 PUSH1 0x1F NOT PUSH1 0x1F DUP4 ADD AND SWAP1 POP SWAP2 SWAP1 POP JUMP JUMPDEST PUSH0 PUSH2 0x9E9 DUP3 PUSH2 0x9A7 JUMP JUMPDEST PUSH2 0x9F3 DUP2 DUP6 PUSH2 0x9B1 JUMP JUMPDEST SWAP4 POP PUSH2 0xA03 DUP2 DUP6 PUSH1 0x20 DUP7 ADD PUSH2 0x9C1 JUMP JUMPDEST PUSH2 0xA0C DUP2 PUSH2 0x9CF JUMP JUMPDEST DUP5 ADD SWAP2 POP POP SWAP3 SWAP2 POP POP JUMP JUMPDEST PUSH32 0x4E487B7100000000000000000000000000000000000000000000000000000000 PUSH0 MSTORE PUSH1 0x21 PUSH1 0x4 MSTORE PUSH1 0x24 PUSH0 REVERT JUMPDEST PUSH1 0x7 DUP2 LT PUSH2 0xA55 JUMPI PUSH2 0xA54 PUSH2 0xA17 JUMP JUMPDEST JUMPDEST POP JUMP JUMPDEST PUSH0 DUP2 SWAP1 POP PUSH2 0xA65 DUP3 PUSH2 0xA44 JUMP JUMPDEST SWAP2 SWAP1 POP JUMP JUMPDEST PUSH0 PUSH2 0xA74 DUP3 PUSH2 0xA58 JUMP JUMPDEST SWAP1 POP SWAP2 SWAP1 POP JUMP JUMPDEST PUSH2 0xA84 DUP2 PUSH2 0xA6A JUMP JUMPDEST DUP3 MSTORE POP POP JUMP JUMPDEST PUSH0 PUSH2 0x100 DUP4 ADD PUSH0 DUP4 ADD MLOAD DUP5 DUP3 SUB PUSH0 DUP7 ADD MSTORE PUSH2 0xAA5 DUP3 DUP3 PUSH2 0x9DF JUMP JUMPDEST SWAP2 POP POP PUSH1 0x20 DUP4 ADD MLOAD PUSH2 0xABA PUSH1 0x20 DUP7 ADD DUP3 PUSH2 0xA7B JUMP JUMPDEST POP PUSH1 0x40 DUP4 ADD MLOAD DUP5 DUP3 SUB PUSH1 0x40 DUP7 ADD MSTORE PUSH2 0xAD2 DUP3 DUP3 PUSH2 0x9DF JUMP JUMPDEST SWAP2 POP POP PUSH1 0x60 DUP4 ADD MLOAD DUP5 DUP3 SUB PUSH1 0x60 DUP7 ADD MSTORE PUSH2 0xAEC DUP3 DUP3 PUSH2 0x9DF JUMP JUMPDEST SWAP2 POP POP PUSH1 0x80 DUP4 ADD MLOAD PUSH2 0xB01 PUSH1 0x80 DUP7 ADD DUP3 PUSH2 0xA7B JUMP JUMPDEST POP PUSH1 0xA0 DUP4 ADD MLOAD DUP5 DUP3 SUB PUSH1 0xA0 DUP7 ADD MSTORE PUSH2 0xB19 DUP3 DUP3 PUSH2 0x9DF JUMP JUMPDEST SWAP2 POP POP PUSH1 0xC0 DUP4 ADD MLOAD DUP5 DUP3 SUB PUSH1 0xC0 DUP7 ADD MSTORE PUSH2 0xB33 DUP3 DUP3 PUSH2 0x9DF JUMP JUMPDEST SWAP2 POP POP PUSH1 0xE0 DUP4 ADD MLOAD DUP5 DUP3 SUB PUSH1 0xE0 DUP7 ADD MSTORE PUSH2 0xB4D DUP3 DUP3 PUSH2 0x9DF JUMP JUMPDEST SWAP2 POP POP DUP1 SWAP2 POP POP SWAP3 SWAP2 POP POP JUMP JUMPDEST PUSH0 PUSH2 0xB65 DUP4 DUP4 PUSH2 0xA8A JUMP JUMPDEST SWAP1 POP SWAP3 SWAP2 POP POP JUMP JUMPDEST PUSH0 PUSH1 0x20 DUP3 ADD SWAP1 POP SWAP2 SWAP1 POP JUMP JUMPDEST PUSH0 PUSH2 0xB83 DUP3 PUSH2 0x97E JUMP JUMPDEST PUSH2 0xB8D DUP2 DUP6 PUSH2 0x988 JUMP JUMPDEST SWAP4 POP DUP4 PUSH1 0x20 DUP3 MUL DUP6 ADD PUSH2 0xB9F DUP6 PUSH2 0x998 JUMP JUMPDEST DUP1 PUSH0 JUMPDEST DUP6 DUP2 LT ISZERO PUSH2 0xBDA JUMPI DUP5 DUP5 SUB DUP10 MSTORE DUP2 MLOAD PUSH2 0xBBB DUP6 DUP3 PUSH2 0xB5A JUMP JUMPDEST SWAP5 POP PUSH2 0xBC6 DUP4 PUSH2 0xB6D JUMP JUMPDEST SWAP3 POP PUSH1 0x20 DUP11 ADD SWAP10 POP POP PUSH1 0x1 DUP2 ADD SWAP1 POP PUSH2 0xBA2 JUMP JUMPDEST POP DUP3 SWAP8 POP DUP8 SWAP6 POP POP POP POP POP POP SWAP3 SWAP2 POP POP JUMP JUMPDEST PUSH0 PUSH1 0x20 DUP3 ADD SWAP1 POP DUP2 DUP2 SUB PUSH0 DUP4 ADD MSTORE PUSH2 0xC04 DUP2 DUP5 PUSH2 0xB79 JUMP JUMPDEST SWAP1 POP SWAP3 SWAP2 POP POP JUMP JUMPDEST PUSH0 PUSH1 0x40 MLOAD SWAP1 POP SWAP1 JUMP JUMPDEST PUSH0 DUP1 REVERT JUMPDEST PUSH0 DUP1 REVERT JUMPDEST PUSH0 DUP1 REVERT JUMPDEST PUSH32 0x4E487B7100000000000000000000000000000000000000000000000000000000 PUSH0 MSTORE PUSH1 0x41 PUSH1 0x4 MSTORE PUSH1 0x24 PUSH0 REVERT JUMPDEST PUSH2 0xC57 DUP3 PUSH2 0x9CF JUMP JUMPDEST DUP2 ADD DUP2 DUP2 LT PUSH8 0xFFFFFFFFFFFFFFFF DUP3 GT OR ISZERO PUSH2 0xC76 JUMPI PUSH2 0xC75 PUSH2 0xC21 JUMP JUMPDEST JUMPDEST DUP1 PUSH1 0x40 MSTORE POP POP POP JUMP JUMPDEST PUSH0 PUSH2 0xC88 PUSH2 0xC0C JUMP JUMPDEST SWAP1 POP PUSH2 0xC94 DUP3 DUP3 PUSH2 0xC4E JUMP JUMPDEST SWAP2 SWAP1 POP JUMP JUMPDEST PUSH0 DUP1 REVERT JUMPDEST PUSH0 DUP1 REVERT JUMPDEST PUSH0 DUP1 REVERT JUMPDEST PUSH0 PUSH8 0xFFFFFFFFFFFFFFFF DUP3 GT ISZERO PUSH2 0xCBF JUMPI PUSH2 0xCBE PUSH2 0xC21 JUMP JUMPDEST JUMPDEST PUSH2 0xCC8 DUP3 PUSH2 0x9CF JUMP JUMPDEST SWAP1 POP PUSH1 0x20 DUP2 ADD SWAP1 POP SWAP2 SWAP1 POP JUMP JUMPDEST DUP3 DUP2 DUP4 CALLDATACOPY PUSH0 DUP4 DUP4 ADD MSTORE POP POP POP JUMP JUMPDEST PUSH0 PUSH2 0xCF5 PUSH2 0xCF0 DUP5 PUSH2 0xCA5 JUMP JUMPDEST PUSH2 0xC7F JUMP JUMPDEST SWAP1 POP DUP3 DUP2 MSTORE PUSH1 0x20 DUP2 ADD DUP5 DUP5 DUP5 ADD GT ISZERO PUSH2 0xD11 JUMPI PUSH2 0xD10 PUSH2 0xCA1 JUMP JUMPDEST JUMPDEST PUSH2 0xD1C DUP5 DUP3 DUP6 PUSH2 0xCD5 JUMP JUMPDEST POP SWAP4 SWAP3 POP POP POP JUMP JUMPDEST PUSH0 DUP3 PUSH1 0x1F DUP4 ADD SLT PUSH2 0xD38 JUMPI PUSH2 0xD37 PUSH2 0xC9D JUMP JUMPDEST JUMPDEST DUP2 CALLDATALOAD PUSH2 0xD48 DUP5 DUP3 PUSH1 0x20 DUP7 ADD PUSH2 0xCE3 JUMP JUMPDEST SWAP2 POP POP SWAP3 SWAP2 POP POP JUMP JUMPDEST PUSH1 0x7 DUP2 LT PUSH2 0xD5D JUMPI PUSH0 DUP1 REVERT JUMPDEST POP JUMP JUMPDEST PUSH0 DUP2 CALLDATALOAD SWAP1 POP PUSH2 0xD6E DUP2 PUSH2 0xD51 JUMP JUMPDEST SWAP3 SWAP2 POP POP JUMP JUMPDEST PUSH0 PUSH2 0x100 DUP3 DUP5 SUB SLT ISZERO PUSH2 0xD8A JUMPI PUSH2 0xD89 PUSH2 0xC1D JUMP JUMPDEST JUMPDEST PUSH2 0xD95 PUSH2 0x100 PUSH2 0xC7F JUMP JUMPDEST SWAP1 POP PUSH0 DUP3 ADD CALLDATALOAD PUSH8 0xFFFFFFFFFFFFFFFF DUP2 GT ISZERO PUSH2 0xDB4 JUMPI PUSH2 0xDB3 PUSH2 0xC99 JUMP JUMPDEST JUMPDEST PUSH2 0xDC0 DUP5 DUP3 DUP6 ADD PUSH2 0xD24 JUMP JUMPDEST PUSH0 DUP4 ADD MSTORE POP PUSH1 0x20 PUSH2 0xDD3 DUP5 DUP3 DUP6 ADD PUSH2 0xD60 JUMP JUMPDEST PUSH1 0x20 DUP4 ADD MSTORE POP PUSH1 0x40 DUP3 ADD CALLDATALOAD PUSH8 0xFFFFFFFFFFFFFFFF DUP2 GT ISZERO PUSH2 0xDF7 JUMPI PUSH2 0xDF6 PUSH2 0xC99 JUMP JUMPDEST JUMPDEST PUSH2 0xE03 DUP5 DUP3 DUP6 ADD PUSH2 0xD24 JUMP JUMPDEST PUSH1 0x40 DUP4 ADD MSTORE POP PUSH1 0x60 DUP3 ADD CALLDATALOAD PUSH8 0xFFFFFFFFFFFFFFFF DUP2 GT ISZERO PUSH2 0xE27 JUMPI PUSH2 0xE26 PUSH2 0xC99 JUMP JUMPDEST JUMPDEST PUSH2 0xE33 DUP5 DUP3 DUP6 ADD PUSH2 0xD24 JUMP JUMPDEST PUSH1 0x60 DUP4 ADD MSTORE POP PUSH1 0x80 PUSH2 0xE47 DUP5 DUP3 DUP6 ADD PUSH2 0xD60 JUMP JUMPDEST PUSH1 0x80 DUP4 ADD MSTORE POP PUSH1 0xA0 DUP3 ADD CALLDATALOAD PUSH8 0xFFFFFFFFFFFFFFFF DUP2 GT ISZERO PUSH2 0xE6B JUMPI PUSH2 0xE6A PUSH2 0xC99 JUMP JUMPDEST JUMPDEST PUSH2 0xE77 DUP5 DUP3 DUP6 ADD PUSH2 0xD24 JUMP JUMPDEST PUSH1 0xA0 DUP4 ADD MSTORE POP PUSH1 0xC0 DUP3 ADD CALLDATALOAD PUSH8 0xFFFFFFFFFFFFFFFF DUP2 GT ISZERO PUSH2 0xE9B JUMPI PUSH2 0xE9A PUSH2 0xC99 JUMP JUMPDEST JUMPDEST PUSH2 0xEA7 DUP5 DUP3 DUP6 ADD PUSH2 0xD24 JUMP JUMPDEST PUSH1 0xC0 DUP4 ADD MSTORE POP PUSH1 0xE0 DUP3 ADD CALLDATALOAD PUSH8 0xFFFFFFFFFFFFFFFF DUP2 GT ISZERO PUSH2 0xECB JUMPI PUSH2 0xECA PUSH2 0xC99 JUMP JUMPDEST JUMPDEST PUSH2 0xED7 DUP5 DUP3 DUP6 ADD PUSH2 0xD24 JUMP JUMPDEST PUSH1 0xE0 DUP4 ADD MSTORE POP SWAP3 SWAP2 POP POP JUMP JUMPDEST PUSH0 PUSH1 0x20 DUP3 DUP5 SUB SLT ISZERO PUSH2 0xEF8 JUMPI PUSH2 0xEF7 PUSH2 0xC15 JUMP JUMPDEST JUMPDEST PUSH0 DUP3 ADD CALLDATALOAD PUSH8 0xFFFFFFFFFFFFFFFF DUP2 GT ISZERO PUSH2 0xF15 JUMPI PUSH2 0xF14 PUSH2 0xC19 JUMP JUMPDEST JUMPDEST PUSH2 0xF21 DUP5 DUP3 DUP6 ADD PUSH2 0xD74 JUMP JUMPDEST SWAP2 POP POP SWAP3 SWAP2 POP POP JUMP JUMPDEST PUSH0 DUP2 SWAP1 POP SWAP2 SWAP1 POP JUMP JUMPDEST PUSH2 0xF3C DUP2 PUSH2 0xF2A JUMP JUMPDEST DUP2 EQ PUSH2 0xF46 JUMPI PUSH0 DUP1 REVERT JUMPDEST POP JUMP JUMPDEST PUSH0 DUP2 CALLDATALOAD SWAP1 POP PUSH2 0xF57 DUP2 PUSH2 0xF33 JUMP JUMPDEST SWAP3 SWAP2 POP POP JUMP JUMPDEST PUSH0 PUSH1 0x20 DUP3 DUP5 SUB SLT ISZERO PUSH2 0xF72 JUMPI PUSH2 0xF71 PUSH2 0xC15 JUMP JUMPDEST JUMPDEST PUSH0 PUSH2 0xF7F DUP5 DUP3 DUP6 ADD PUSH2 0xF49 JUMP JUMPDEST SWAP2 POP POP SWAP3 SWAP2 POP POP JUMP JUMPDEST PUSH0 DUP3 DUP3 MSTORE PUSH1 0x20 DUP3 ADD SWAP1 POP SWAP3 SWAP2 POP POP JUMP JUMPDEST PUSH0 PUSH2 0xFA2 DUP3 PUSH2 0x9A7 JUMP JUMPDEST PUSH2 0xFAC DUP2 DUP6 PUSH2 0xF88 JUMP JUMPDEST SWAP4 POP PUSH2 0xFBC DUP2 DUP6 PUSH1 0x20 DUP7 ADD PUSH2 0x9C1 JUMP JUMPDEST PUSH2 0xFC5 DUP2 PUSH2 0x9CF JUMP JUMPDEST DUP5 ADD SWAP2 POP POP SWAP3 SWAP2 POP POP JUMP JUMPDEST PUSH2 0xFD9 DUP2 PUSH2 0xA6A JUMP JUMPDEST DUP3 MSTORE POP POP JUMP JUMPDEST PUSH0 PUSH2 0x100 DUP3 ADD SWAP1 POP DUP2 DUP2 SUB PUSH0 DUP4 ADD MSTORE PUSH2 0xFF8 DUP2 DUP12 PUSH2 0xF98 JUMP JUMPDEST SWAP1 POP PUSH2 0x1007 PUSH1 0x20 DUP4 ADD DUP11 PUSH2 0xFD0 JUMP JUMPDEST DUP2 DUP2 SUB PUSH1 0x40 DUP4 ADD MSTORE PUSH2 0x1019 DUP2 DUP10 PUSH2 0xF98 JUMP JUMPDEST SWAP1 POP DUP2 DUP2 SUB PUSH1 0x60 DUP4 ADD MSTORE PUSH2 0x102D DUP2 DUP9 PUSH2 0xF98 JUMP JUMPDEST SWAP1 POP PUSH2 0x103C PUSH1 0x80 DUP4 ADD DUP8 PUSH2 0xFD0 JUMP JUMPDEST DUP2 DUP2 SUB PUSH1 0xA0 DUP4 ADD MSTORE PUSH2 0x104E DUP2 DUP7 PUSH2 0xF98 JUMP JUMPDEST SWAP1 POP DUP2 DUP2 SUB PUSH1 0xC0 DUP4 ADD MSTORE PUSH2 0x1062 DUP2 DUP6 PUSH2 0xF98 JUMP JUMPDEST SWAP1 POP DUP2 DUP2 SUB PUSH1 0xE0 DUP4 ADD MSTORE PUSH2 0x1076 DUP2 DUP5 PUSH2 0xF98 JUMP JUMPDEST SWAP1 POP SWAP10 SWAP9 POP POP POP POP POP POP POP POP POP JUMP JUMPDEST PUSH32 0x4E487B7100000000000000000000000000000000000000000000000000000000 PUSH0 MSTORE PUSH1 0x22 PUSH1 0x4 MSTORE PUSH1 0x24 PUSH0 REVERT JUMPDEST PUSH0 PUSH1 0x2 DUP3 DIV SWAP1 POP PUSH1 0x1 DUP3 AND DUP1 PUSH2 0x10C9 JUMPI PUSH1 0x7F DUP3 AND SWAP2 POP JUMPDEST PUSH1 0x20 DUP3 LT DUP2 SUB PUSH2 0x10DC JUMPI PUSH2 0x10DB PUSH2 0x1085 JUMP JUMPDEST JUMPDEST POP SWAP2 SWAP1 POP JUMP JUMPDEST PUSH0 DUP2 SWAP1 POP DUP2 PUSH0 MSTORE PUSH1 0x20 PUSH0 KECCAK256 SWAP1 POP SWAP2 SWAP1 POP JUMP JUMPDEST PUSH0 PUSH1 0x20 PUSH1 0x1F DUP4 ADD DIV SWAP1 POP SWAP2 SWAP1 POP JUMP JUMPDEST PUSH0 DUP3 DUP3 SHL SWAP1 POP SWAP3 SWAP2 POP POP JUMP JUMPDEST PUSH0 PUSH1 0x8 DUP4 MUL PUSH2 0x113E PUSH32 0xFFFFFFFFFFFFFFFFFFFFFFFFFFFFFFFFFFFFFFFFFFFFFFFFFFFFFFFFFFFFFFFF DUP3 PUSH2 0x1103 JUMP JUMPDEST PUSH2 0x1148 DUP7 DUP4 PUSH2 0x1103 JUMP JUMPDEST SWAP6 POP DUP1 NOT DUP5 AND SWAP4 POP DUP1 DUP7 AND DUP5 OR SWAP3 POP POP POP SWAP4 SWAP3 POP POP POP JUMP JUMPDEST PUSH0 DUP2 SWAP1 POP SWAP2 SWAP1 POP JUMP JUMPDEST PUSH0 PUSH2 0x1183 PUSH2 0x117E PUSH2 0x1179 DUP5 PUSH2 0xF2A JUMP JUMPDEST PUSH2 0x1160 JUMP JUMPDEST PUSH2 0xF2A JUMP JUMPDEST SWAP1 POP SWAP2 SWAP1 POP JUMP JUMPDEST PUSH0 DUP2 SWAP1 POP SWAP2 SWAP1 POP JUMP JUMPDEST PUSH2 0x119C DUP4 PUSH2 0x1169 JUMP JUMPDEST PUSH2 0x11B0 PUSH2 0x11A8 DUP3 PUSH2 0x118A JUMP JUMPDEST DUP5 DUP5 SLOAD PUSH2 0x110F JUMP JUMPDEST DUP3 SSTORE POP POP POP POP JUMP JUMPDEST PUSH0 SWAP1 JUMP JUMPDEST PUSH2 0x11C4 PUSH2 0x11B8 JUMP JUMPDEST PUSH2 0x11CF DUP2 DUP5 DUP5 PUSH2 0x1193 JUMP JUMPDEST POP POP POP JUMP JUMPDEST JUMPDEST DUP2 DUP2 LT ISZERO PUSH2 0x11F2 JUMPI PUSH2 0x11E7 PUSH0 DUP3 PUSH2 0x11BC JUMP JUMPDEST PUSH1 0x1 DUP2 ADD SWAP1 POP PUSH2 0x11D5 JUMP JUMPDEST POP POP JUMP JUMPDEST PUSH1 0x1F DUP3 GT ISZERO PUSH2 0x1237 JUMPI PUSH2 0x1208 DUP2 PUSH2 0x10E2 JUMP JUMPDEST PUSH2 0x1211 DUP5 PUSH2 0x10F4 JUMP JUMPDEST DUP2 ADD PUSH1 0x20 DUP6 LT ISZERO PUSH2 0x1220 JUMPI DUP2 SWAP1 POP JUMPDEST PUSH2 0x1234 PUSH2 0x122C DUP6 PUSH2 0x10F4 JUMP JUMPDEST DUP4 ADD DUP3 PUSH2 0x11D4 JUMP JUMPDEST POP POP JUMPDEST POP POP POP JUMP JUMPDEST PUSH0 DUP3 DUP3 SHR SWAP1 POP SWAP3 SWAP2 POP POP JUMP JUMPDEST PUSH0 PUSH2 0x1257 PUSH0 NOT DUP5 PUSH1 0x8 MUL PUSH2 0x123C JUMP JUMPDEST NOT DUP1 DUP4 AND SWAP2 POP POP SWAP3 SWAP2 POP POP JUMP JUMPDEST PUSH0 PUSH2 0x126F DUP4 DUP4 PUSH2 0x1248 JUMP JUMPDEST SWAP2 POP DUP3 PUSH1 0x2 MUL DUP3 OR SWAP1 POP SWAP3 SWAP2 POP POP JUMP JUMPDEST PUSH2 0x1288 DUP3 PUSH2 0x9A7 JUMP JUMPDEST PUSH8 0xFFFFFFFFFFFFFFFF DUP2 GT ISZERO PUSH2 0x12A1 JUMPI PUSH2 0x12A0 PUSH2 0xC21 JUMP JUMPDEST JUMPDEST PUSH2 0x12AB DUP3 SLOAD PUSH2 0x10B2 JUMP JUMPDEST PUSH2 0x12B6 DUP3 DUP3 DUP6 PUSH2 0x11F6 JUMP JUMPDEST PUSH0 PUSH1 0x20 SWAP1 POP PUSH1 0x1F DUP4 GT PUSH1 0x1 DUP2 EQ PUSH2 0x12E7 JUMPI PUSH0 DUP5 ISZERO PUSH2 0x12D5 JUMPI DUP3 DUP8 ADD MLOAD SWAP1 POP JUMPDEST PUSH2 0x12DF DUP6 DUP3 PUSH2 0x1264 JUMP JUMPDEST DUP7 SSTORE POP PUSH2 0x1346 JUMP JUMPDEST PUSH1 0x1F NOT DUP5 AND PUSH2 0x12F5 DUP7 PUSH2 0x10E2 JUMP JUMPDEST PUSH0 JUMPDEST DUP3 DUP2 LT ISZERO PUSH2 0x131C JUMPI DUP5 DUP10 ADD MLOAD DUP3 SSTORE PUSH1 0x1 DUP3 ADD SWAP2 POP PUSH1 0x20 DUP6 ADD SWAP5 POP PUSH1 0x20 DUP2 ADD SWAP1 POP PUSH2 0x12F7 JUMP JUMPDEST DUP7 DUP4 LT ISZERO PUSH2 0x1339 JUMPI DUP5 DUP10 ADD MLOAD PUSH2 0x1335 PUSH1 0x1F DUP10 AND DUP3 PUSH2 0x1248 JUMP JUMPDEST DUP4 SSTORE POP JUMPDEST PUSH1 0x1 PUSH1 0x2 DUP9 MUL ADD DUP9 SSTORE POP POP POP JUMPDEST POP POP POP POP POP POP JUMP INVALID LOG2 PUSH5 0x6970667358 0x22 SLT KECCAK256 0xE8 PUSH0 SWAP1 CALLVALUE PUSH8 0x4E393B1B25A36200 PUSH16 0xD2C8E17471FADB000E6AB8003B441ECC SELFBALANCE 0xBC PUSH5 0x736F6C6343 STOP ADDMOD BYTE STOP CALLER "
				},
				"gasEstimates": {
					"creation": {
						"codeDepositCost": "999200",
						"executionCost": "infinite",
						"totalCost": "infinite"
					},
					"external": {
						"addNewTransaction((string,uint8,string,string,uint8,string,string,string))": "infinite",
						"getAllTransactions()": "infinite",
						"transactions(uint256)": "infinite"
					}
				},
				"methodIdentifiers": {
					"addNewTransaction((string,uint8,string,string,uint8,string,string,string))": "3e05c134",
					"getAllTransactions()": "27506f53",
					"transactions(uint256)": "9ace38c2"
				}
			},
			"storageLayout": {
				"storage": [
					{
						"astId": 32,
						"contract": "contracts/Transactions.sol:Transactions",
						"label": "transactions",
						"offset": 0,
						"slot": "0",
						"type": "t_array(t_struct(Transaction)28_storage)dyn_storage"
					}
				],
				"types": {
					"t_array(t_struct(Transaction)28_storage)dyn_storage": {
						"base": "t_struct(Transaction)28_storage",
						"encoding": "dynamic_array",
						"label": "struct Transactions.Transaction[]",
						"numberOfBytes": "32"
					},
					"t_enum(EntityType)9": {
						"encoding": "inplace",
						"label": "enum Transactions.EntityType",
						"numberOfBytes": "1"
					},
					"t_string_storage": {
						"encoding": "bytes",
						"label": "string",
						"numberOfBytes": "32"
					},
					"t_struct(Transaction)28_storage": {
						"encoding": "inplace",
						"label": "struct Transactions.Transaction",
						"members": [
							{
								"astId": 11,
								"contract": "contracts/Transactions.sol:Transactions",
								"label": "subject_entity_id",
								"offset": 0,
								"slot": "0",
								"type": "t_string_storage"
							},
							{
								"astId": 14,
								"contract": "contracts/Transactions.sol:Transactions",
								"label": "subject_entity_type",
								"offset": 0,
								"slot": "1",
								"type": "t_enum(EntityType)9"
							},
							{
								"astId": 16,
								"contract": "contracts/Transactions.sol:Transactions",
								"label": "action",
								"offset": 0,
								"slot": "2",
								"type": "t_string_storage"
							},
							{
								"astId": 18,
								"contract": "contracts/Transactions.sol:Transactions",
								"label": "context_entity_id",
								"offset": 0,
								"slot": "3",
								"type": "t_string_storage"
							},
							{
								"astId": 21,
								"contract": "contracts/Transactions.sol:Transactions",
								"label": "context_entity_type",
								"offset": 0,
								"slot": "4",
								"type": "t_enum(EntityType)9"
							},
							{
								"astId": 23,
								"contract": "contracts/Transactions.sol:Transactions",
								"label": "tokens_involved",
								"offset": 0,
								"slot": "5",
								"type": "t_string_storage"
							},
							{
								"astId": 25,
								"contract": "contracts/Transactions.sol:Transactions",
								"label": "token_price_in_inr",
								"offset": 0,
								"slot": "6",
								"type": "t_string_storage"
							},
							{
								"astId": 27,
								"contract": "contracts/Transactions.sol:Transactions",
								"label": "created_at",
								"offset": 0,
								"slot": "7",
								"type": "t_string_storage"
							}
						],
						"numberOfBytes": "256"
					}
				}
			},
			"userdoc": {
				"kind": "user",
				"methods": {},
				"version": 1
			}
		}
	}
}