{
	"contracts/Transactions.sol": {
		"Transactions": {
			"abi": [
				{
					"inputs": [],
					"stateMutability": "nonpayable",
					"type": "constructor"
				},
				{
					"inputs": [
						{
							"internalType": "string",
							"name": "_subject_entity_id",
							"type": "string"
						},
						{
							"internalType": "enum Transactions.EntityType",
							"name": "_subject_entity_type",
							"type": "uint8"
						},
						{
							"internalType": "string",
							"name": "_action",
							"type": "string"
						},
						{
							"internalType": "string",
							"name": "_context_entity_id",
							"type": "string"
						},
						{
							"internalType": "enum Transactions.EntityType",
							"name": "_context_entity_type",
							"type": "uint8"
						},
						{
							"internalType": "string",
							"name": "_tokens_involved",
							"type": "string"
						},
						{
							"internalType": "string",
							"name": "_token_price_in_inr",
							"type": "string"
						},
						{
							"internalType": "string",
							"name": "_created_at",
							"type": "string"
						}
					],
					"name": "addNewTransaction",
					"outputs": [],
					"stateMutability": "nonpayable",
					"type": "function"
				},
				{
					"inputs": [],
					"name": "getAllTransactions",
					"outputs": [
						{
							"components": [
								{
									"internalType": "string",
									"name": "subject_entity_id",
									"type": "string"
								},
								{
									"internalType": "enum Transactions.EntityType",
									"name": "subject_entity_type",
									"type": "uint8"
								},
								{
									"internalType": "string",
									"name": "action",
									"type": "string"
								},
								{
									"internalType": "string",
									"name": "context_entity_id",
									"type": "string"
								},
								{
									"internalType": "enum Transactions.EntityType",
									"name": "context_entity_type",
									"type": "uint8"
								},
								{
									"internalType": "string",
									"name": "tokens_involved",
									"type": "string"
								},
								{
									"internalType": "string",
									"name": "token_price_in_inr",
									"type": "string"
								},
								{
									"internalType": "string",
									"name": "created_at",
									"type": "string"
								}
							],
							"internalType": "struct Transactions.Transaction[]",
							"name": "",
							"type": "tuple[]"
						}
					],
					"stateMutability": "view",
					"type": "function"
				},
				{
					"inputs": [
						{
							"internalType": "uint256",
							"name": "",
							"type": "uint256"
						}
					],
					"name": "transactions",
					"outputs": [
						{
							"internalType": "string",
							"name": "subject_entity_id",
							"type": "string"
						},
						{
							"internalType": "enum Transactions.EntityType",
							"name": "subject_entity_type",
							"type": "uint8"
						},
						{
							"internalType": "string",
							"name": "action",
							"type": "string"
						},
						{
							"internalType": "string",
							"name": "context_entity_id",
							"type": "string"
						},
						{
							"internalType": "enum Transactions.EntityType",
							"name": "context_entity_type",
							"type": "uint8"
						},
						{
							"internalType": "string",
							"name": "tokens_involved",
							"type": "string"
						},
						{
							"internalType": "string",
							"name": "token_price_in_inr",
							"type": "string"
						},
						{
							"internalType": "string",
							"name": "created_at",
							"type": "string"
						}
					],
					"stateMutability": "view",
					"type": "function"
				}
			],
			"devdoc": {
				"kind": "dev",
				"methods": {},
				"version": 1
			},
			"evm": {
				"assembly": "    /* \"contracts/Transactions.sol\":70:2154  contract Transactions {... */\n  mstore(0x40, 0x80)\n    /* \"contracts/Transactions.sol\":595:1045  constructor() {... */\n  callvalue\n  dup1\n  iszero\n  tag_1\n  jumpi\n  0x00\n  dup1\n  revert\ntag_1:\n  pop\n    /* \"contracts/Transactions.sol\":619:631  transactions */\n  0x00\n    /* \"contracts/Transactions.sol\":650:1028  Transaction({... */\n  mload(0x40)\n  dup1\n  0x0100\n  add\n  0x40\n  mstore\n  dup1\n  mload(0x40)\n  dup1\n  0x40\n  add\n  0x40\n  mstore\n  dup1\n  0x03\n  dup2\n  mstore\n  0x20\n  add\n  0x6e696b0000000000000000000000000000000000000000000000000000000000\n  dup2\n  mstore\n  pop\n  dup2\n  mstore\n  0x20\n  add\n    /* \"contracts/Transactions.sol\":743:767  EntityType.SmartContract */\n  0x05\n    /* \"contracts/Transactions.sol\":650:1028  Transaction({... */\n  0x06\n  dup2\n  gt\n  iszero\n  tag_4\n  jumpi\n  tag_5\n  tag_6\n  jump\t// in\ntag_5:\ntag_4:\n  dup2\n  mstore\n  0x20\n  add\n  mload(0x40)\n  dup1\n  0x40\n  add\n  0x40\n  mstore\n  dup1\n  0x04\n  dup2\n  mstore\n  0x20\n  add\n  0x496e697400000000000000000000000000000000000000000000000000000000\n  dup2\n  mstore\n  pop\n  dup2\n  mstore\n  0x20\n  add\n  mload(0x40)\n  dup1\n  0x20\n  add\n  0x40\n  mstore\n  dup1\n  0x00\n  dup2\n  mstore\n  pop\n  dup2\n  mstore\n  0x20\n  add\n    /* \"contracts/Transactions.sol\":877:892  EntityType.Null */\n  0x06\n    /* \"contracts/Transactions.sol\":650:1028  Transaction({... */\n  dup1\n  dup2\n  gt\n  iszero\n  tag_7\n  jumpi\n  tag_8\n  tag_6\n  jump\t// in\ntag_8:\ntag_7:\n  dup2\n  mstore\n  0x20\n  add\n  mload(0x40)\n  dup1\n  0x40\n  add\n  0x40\n  mstore\n  dup1\n  0x01\n  dup2\n  mstore\n  0x20\n  add\n  0x3000000000000000000000000000000000000000000000000000000000000000\n  dup2\n  mstore\n  pop\n  dup2\n  mstore\n  0x20\n  add\n  mload(0x40)\n  dup1\n  0x40\n  add\n  0x40\n  mstore\n  dup1\n  0x01\n  dup2\n  mstore\n  0x20\n  add\n  0x3000000000000000000000000000000000000000000000000000000000000000\n  dup2\n  mstore\n  pop\n  dup2\n  mstore\n  0x20\n  add\n  mload(0x40)\n  dup1\n  0x40\n  add\n  0x40\n  mstore\n  dup1\n  0x0a\n  dup2\n  mstore\n  0x20\n  add\n  0x323032352d30322d303600000000000000000000000000000000000000000000\n  dup2\n  mstore\n  pop\n  dup2\n  mstore\n  pop\n    /* \"contracts/Transactions.sol\":619:1038  transactions.push(... */\n  swap1\n  dup1\n  0x01\n  dup2\n  sload\n  add\n  dup1\n  dup3\n  sstore\n  dup1\n  swap2\n  pop\n  pop\n  0x01\n  swap1\n  sub\n  swap1\n  0x00\n  mstore\n  keccak256(0x00, 0x20)\n  swap1\n  0x08\n  mul\n  add\n  0x00\n  swap1\n  swap2\n  swap1\n  swap2\n  swap1\n  swap2\n  pop\n  0x00\n  dup3\n  add\n  mload\n  dup2\n  0x00\n  add\n  swap1\n  dup2\n  tag_10\n  swap2\n  swap1\n  tag_11\n  jump\t// in\ntag_10:\n  pop\n  0x20\n  dup3\n  add\n  mload\n  dup2\n  0x01\n  add\n  exp(0x0100, 0x00)\n  dup2\n  sload\n  dup2\n  0xff\n  mul\n  not\n  and\n  swap1\n  dup4\n  0x06\n  dup2\n  gt\n  iszero\n  tag_12\n  jumpi\n  tag_13\n  tag_6\n  jump\t// in\ntag_13:\ntag_12:\n  mul\n  or\n  swap1\n  sstore\n  pop\n  0x40\n  dup3\n  add\n  mload\n  dup2\n  0x02\n  add\n  swap1\n  dup2\n  tag_14\n  swap2\n  swap1\n  tag_11\n  jump\t// in\ntag_14:\n  pop\n  0x60\n  dup3\n  add\n  mload\n  dup2\n  0x03\n  add\n  swap1\n  dup2\n  tag_15\n  swap2\n  swap1\n  tag_11\n  jump\t// in\ntag_15:\n  pop\n  0x80\n  dup3\n  add\n  mload\n  dup2\n  0x04\n  add\n  exp(0x0100, 0x00)\n  dup2\n  sload\n  dup2\n  0xff\n  mul\n  not\n  and\n  swap1\n  dup4\n  0x06\n  dup2\n  gt\n  iszero\n  tag_16\n  jumpi\n  tag_17\n  tag_6\n  jump\t// in\ntag_17:\ntag_16:\n  mul\n  or\n  swap1\n  sstore\n  pop\n  0xa0\n  dup3\n  add\n  mload\n  dup2\n  0x05\n  add\n  swap1\n  dup2\n  tag_18\n  swap2\n  swap1\n  tag_11\n  jump\t// in\ntag_18:\n  pop\n  0xc0\n  dup3\n  add\n  mload\n  dup2\n  0x06\n  add\n  swap1\n  dup2\n  tag_19\n  swap2\n  swap1\n  tag_11\n  jump\t// in\ntag_19:\n  pop\n  0xe0\n  dup3\n  add\n  mload\n  dup2\n  0x07\n  add\n  swap1\n  dup2\n  tag_20\n  swap2\n  swap1\n  tag_11\n  jump\t// in\ntag_20:\n  pop\n  pop\n  pop\n    /* \"contracts/Transactions.sol\":70:2154  contract Transactions {... */\n  jump(tag_21)\n    /* \"#utility.yul\":7:187   */\ntag_6:\n    /* \"#utility.yul\":55:132   */\n  0x4e487b7100000000000000000000000000000000000000000000000000000000\n    /* \"#utility.yul\":52:53   */\n  0x00\n    /* \"#utility.yul\":45:133   */\n  mstore\n    /* \"#utility.yul\":152:156   */\n  0x21\n    /* \"#utility.yul\":149:150   */\n  0x04\n    /* \"#utility.yul\":142:157   */\n  mstore\n    /* \"#utility.yul\":176:180   */\n  0x24\n    /* \"#utility.yul\":173:174   */\n  0x00\n    /* \"#utility.yul\":166:181   */\n  revert\n    /* \"#utility.yul\":193:292   */\ntag_22:\n    /* \"#utility.yul\":245:251   */\n  0x00\n    /* \"#utility.yul\":279:284   */\n  dup2\n    /* \"#utility.yul\":273:285   */\n  mload\n    /* \"#utility.yul\":263:285   */\n  swap1\n  pop\n    /* \"#utility.yul\":193:292   */\n  swap2\n  swap1\n  pop\n  jump\t// out\n    /* \"#utility.yul\":298:478   */\ntag_23:\n    /* \"#utility.yul\":346:423   */\n  0x4e487b7100000000000000000000000000000000000000000000000000000000\n    /* \"#utility.yul\":343:344   */\n  0x00\n    /* \"#utility.yul\":336:424   */\n  mstore\n    /* \"#utility.yul\":443:447   */\n  0x41\n    /* \"#utility.yul\":440:441   */\n  0x04\n    /* \"#utility.yul\":433:448   */\n  mstore\n    /* \"#utility.yul\":467:471   */\n  0x24\n    /* \"#utility.yul\":464:465   */\n  0x00\n    /* \"#utility.yul\":457:472   */\n  revert\n    /* \"#utility.yul\":484:664   */\ntag_24:\n    /* \"#utility.yul\":532:609   */\n  0x4e487b7100000000000000000000000000000000000000000000000000000000\n    /* \"#utility.yul\":529:530   */\n  0x00\n    /* \"#utility.yul\":522:610   */\n  mstore\n    /* \"#utility.yul\":629:633   */\n  0x22\n    /* \"#utility.yul\":626:627   */\n  0x04\n    /* \"#utility.yul\":619:634   */\n  mstore\n    /* \"#utility.yul\":653:657   */\n  0x24\n    /* \"#utility.yul\":650:651   */\n  0x00\n    /* \"#utility.yul\":643:658   */\n  revert\n    /* \"#utility.yul\":670:990   */\ntag_25:\n    /* \"#utility.yul\":714:720   */\n  0x00\n    /* \"#utility.yul\":751:752   */\n  0x02\n    /* \"#utility.yul\":745:749   */\n  dup3\n    /* \"#utility.yul\":741:753   */\n  div\n    /* \"#utility.yul\":731:753   */\n  swap1\n  pop\n    /* \"#utility.yul\":798:799   */\n  0x01\n    /* \"#utility.yul\":792:796   */\n  dup3\n    /* \"#utility.yul\":788:800   */\n  and\n    /* \"#utility.yul\":819:837   */\n  dup1\n    /* \"#utility.yul\":809:890   */\n  tag_48\n  jumpi\n    /* \"#utility.yul\":875:879   */\n  0x7f\n    /* \"#utility.yul\":867:873   */\n  dup3\n    /* \"#utility.yul\":863:880   */\n  and\n    /* \"#utility.yul\":853:880   */\n  swap2\n  pop\n    /* \"#utility.yul\":809:890   */\ntag_48:\n    /* \"#utility.yul\":937:939   */\n  0x20\n    /* \"#utility.yul\":929:935   */\n  dup3\n    /* \"#utility.yul\":926:940   */\n  lt\n    /* \"#utility.yul\":906:924   */\n  dup2\n    /* \"#utility.yul\":903:941   */\n  sub\n    /* \"#utility.yul\":900:984   */\n  tag_49\n  jumpi\n    /* \"#utility.yul\":956:974   */\n  tag_50\n  tag_24\n  jump\t// in\ntag_50:\n    /* \"#utility.yul\":900:984   */\ntag_49:\n    /* \"#utility.yul\":721:990   */\n  pop\n    /* \"#utility.yul\":670:990   */\n  swap2\n  swap1\n  pop\n  jump\t// out\n    /* \"#utility.yul\":996:1137   */\ntag_26:\n    /* \"#utility.yul\":1045:1049   */\n  0x00\n    /* \"#utility.yul\":1068:1071   */\n  dup2\n    /* \"#utility.yul\":1060:1071   */\n  swap1\n  pop\n    /* \"#utility.yul\":1091:1094   */\n  dup2\n    /* \"#utility.yul\":1088:1089   */\n  0x00\n    /* \"#utility.yul\":1081:1095   */\n  mstore\n    /* \"#utility.yul\":1125:1129   */\n  0x20\n    /* \"#utility.yul\":1122:1123   */\n  0x00\n    /* \"#utility.yul\":1112:1130   */\n  keccak256\n    /* \"#utility.yul\":1104:1130   */\n  swap1\n  pop\n    /* \"#utility.yul\":996:1137   */\n  swap2\n  swap1\n  pop\n  jump\t// out\n    /* \"#utility.yul\":1143:1236   */\ntag_27:\n    /* \"#utility.yul\":1180:1186   */\n  0x00\n    /* \"#utility.yul\":1227:1229   */\n  0x20\n    /* \"#utility.yul\":1222:1224   */\n  0x1f\n    /* \"#utility.yul\":1215:1220   */\n  dup4\n    /* \"#utility.yul\":1211:1225   */\n  add\n    /* \"#utility.yul\":1207:1230   */\n  div\n    /* \"#utility.yul\":1197:1230   */\n  swap1\n  pop\n    /* \"#utility.yul\":1143:1236   */\n  swap2\n  swap1\n  pop\n  jump\t// out\n    /* \"#utility.yul\":1242:1349   */\ntag_28:\n    /* \"#utility.yul\":1286:1294   */\n  0x00\n    /* \"#utility.yul\":1336:1341   */\n  dup3\n    /* \"#utility.yul\":1330:1334   */\n  dup3\n    /* \"#utility.yul\":1326:1342   */\n  shl\n    /* \"#utility.yul\":1305:1342   */\n  swap1\n  pop\n    /* \"#utility.yul\":1242:1349   */\n  swap3\n  swap2\n  pop\n  pop\n  jump\t// out\n    /* \"#utility.yul\":1355:1748   */\ntag_29:\n    /* \"#utility.yul\":1424:1430   */\n  0x00\n    /* \"#utility.yul\":1474:1475   */\n  0x08\n    /* \"#utility.yul\":1462:1472   */\n  dup4\n    /* \"#utility.yul\":1458:1476   */\n  mul\n    /* \"#utility.yul\":1497:1594   */\n  tag_55\n    /* \"#utility.yul\":1527:1593   */\n  0xffffffffffffffffffffffffffffffffffffffffffffffffffffffffffffffff\n    /* \"#utility.yul\":1516:1525   */\n  dup3\n    /* \"#utility.yul\":1497:1594   */\n  tag_28\n  jump\t// in\ntag_55:\n    /* \"#utility.yul\":1615:1654   */\n  tag_56\n    /* \"#utility.yul\":1645:1653   */\n  dup7\n    /* \"#utility.yul\":1634:1643   */\n  dup4\n    /* \"#utility.yul\":1615:1654   */\n  tag_28\n  jump\t// in\ntag_56:\n    /* \"#utility.yul\":1603:1654   */\n  swap6\n  pop\n    /* \"#utility.yul\":1687:1691   */\n  dup1\n    /* \"#utility.yul\":1683:1692   */\n  not\n    /* \"#utility.yul\":1676:1681   */\n  dup5\n    /* \"#utility.yul\":1672:1693   */\n  and\n    /* \"#utility.yul\":1663:1693   */\n  swap4\n  pop\n    /* \"#utility.yul\":1736:1740   */\n  dup1\n    /* \"#utility.yul\":1726:1734   */\n  dup7\n    /* \"#utility.yul\":1722:1741   */\n  and\n    /* \"#utility.yul\":1715:1720   */\n  dup5\n    /* \"#utility.yul\":1712:1742   */\n  or\n    /* \"#utility.yul\":1702:1742   */\n  swap3\n  pop\n    /* \"#utility.yul\":1431:1748   */\n  pop\n  pop\n    /* \"#utility.yul\":1355:1748   */\n  swap4\n  swap3\n  pop\n  pop\n  pop\n  jump\t// out\n    /* \"#utility.yul\":1754:1831   */\ntag_30:\n    /* \"#utility.yul\":1791:1798   */\n  0x00\n    /* \"#utility.yul\":1820:1825   */\n  dup2\n    /* \"#utility.yul\":1809:1825   */\n  swap1\n  pop\n    /* \"#utility.yul\":1754:1831   */\n  swap2\n  swap1\n  pop\n  jump\t// out\n    /* \"#utility.yul\":1837:1897   */\ntag_31:\n    /* \"#utility.yul\":1865:1868   */\n  0x00\n    /* \"#utility.yul\":1886:1891   */\n  dup2\n    /* \"#utility.yul\":1879:1891   */\n  swap1\n  pop\n    /* \"#utility.yul\":1837:1897   */\n  swap2\n  swap1\n  pop\n  jump\t// out\n    /* \"#utility.yul\":1903:2045   */\ntag_32:\n    /* \"#utility.yul\":1953:1962   */\n  0x00\n    /* \"#utility.yul\":1986:2039   */\n  tag_60\n    /* \"#utility.yul\":2004:2038   */\n  tag_61\n    /* \"#utility.yul\":2013:2037   */\n  tag_62\n    /* \"#utility.yul\":2031:2036   */\n  dup5\n    /* \"#utility.yul\":2013:2037   */\n  tag_30\n  jump\t// in\ntag_62:\n    /* \"#utility.yul\":2004:2038   */\n  tag_31\n  jump\t// in\ntag_61:\n    /* \"#utility.yul\":1986:2039   */\n  tag_30\n  jump\t// in\ntag_60:\n    /* \"#utility.yul\":1973:2039   */\n  swap1\n  pop\n    /* \"#utility.yul\":1903:2045   */\n  swap2\n  swap1\n  pop\n  jump\t// out\n    /* \"#utility.yul\":2051:2126   */\ntag_33:\n    /* \"#utility.yul\":2094:2097   */\n  0x00\n    /* \"#utility.yul\":2115:2120   */\n  dup2\n    /* \"#utility.yul\":2108:2120   */\n  swap1\n  pop\n    /* \"#utility.yul\":2051:2126   */\n  swap2\n  swap1\n  pop\n  jump\t// out\n    /* \"#utility.yul\":2132:2401   */\ntag_34:\n    /* \"#utility.yul\":2242:2281   */\n  tag_65\n    /* \"#utility.yul\":2273:2280   */\n  dup4\n    /* \"#utility.yul\":2242:2281   */\n  tag_32\n  jump\t// in\ntag_65:\n    /* \"#utility.yul\":2303:2394   */\n  tag_66\n    /* \"#utility.yul\":2352:2393   */\n  tag_67\n    /* \"#utility.yul\":2376:2392   */\n  dup3\n    /* \"#utility.yul\":2352:2393   */\n  tag_33\n  jump\t// in\ntag_67:\n    /* \"#utility.yul\":2344:2350   */\n  dup5\n    /* \"#utility.yul\":2337:2341   */\n  dup5\n    /* \"#utility.yul\":2331:2342   */\n  sload\n    /* \"#utility.yul\":2303:2394   */\n  tag_29\n  jump\t// in\ntag_66:\n    /* \"#utility.yul\":2297:2301   */\n  dup3\n    /* \"#utility.yul\":2290:2395   */\n  sstore\n    /* \"#utility.yul\":2208:2401   */\n  pop\n    /* \"#utility.yul\":2132:2401   */\n  pop\n  pop\n  pop\n  jump\t// out\n    /* \"#utility.yul\":2407:2480   */\ntag_35:\n    /* \"#utility.yul\":2452:2455   */\n  0x00\n    /* \"#utility.yul\":2407:2480   */\n  swap1\n  jump\t// out\n    /* \"#utility.yul\":2486:2675   */\ntag_36:\n    /* \"#utility.yul\":2563:2595   */\n  tag_70\n  tag_35\n  jump\t// in\ntag_70:\n    /* \"#utility.yul\":2604:2669   */\n  tag_71\n    /* \"#utility.yul\":2662:2668   */\n  dup2\n    /* \"#utility.yul\":2654:2660   */\n  dup5\n    /* \"#utility.yul\":2648:2652   */\n  dup5\n    /* \"#utility.yul\":2604:2669   */\n  tag_34\n  jump\t// in\ntag_71:\n    /* \"#utility.yul\":2539:2675   */\n  pop\n    /* \"#utility.yul\":2486:2675   */\n  pop\n  pop\n  jump\t// out\n    /* \"#utility.yul\":2681:2867   */\ntag_37:\n    /* \"#utility.yul\":2741:2861   */\ntag_73:\n    /* \"#utility.yul\":2758:2761   */\n  dup2\n    /* \"#utility.yul\":2751:2756   */\n  dup2\n    /* \"#utility.yul\":2748:2762   */\n  lt\n    /* \"#utility.yul\":2741:2861   */\n  iszero\n  tag_75\n  jumpi\n    /* \"#utility.yul\":2812:2851   */\n  tag_76\n    /* \"#utility.yul\":2849:2850   */\n  0x00\n    /* \"#utility.yul\":2842:2847   */\n  dup3\n    /* \"#utility.yul\":2812:2851   */\n  tag_36\n  jump\t// in\ntag_76:\n    /* \"#utility.yul\":2785:2786   */\n  0x01\n    /* \"#utility.yul\":2778:2783   */\n  dup2\n    /* \"#utility.yul\":2774:2787   */\n  add\n    /* \"#utility.yul\":2765:2787   */\n  swap1\n  pop\n    /* \"#utility.yul\":2741:2861   */\n  jump(tag_73)\ntag_75:\n    /* \"#utility.yul\":2681:2867   */\n  pop\n  pop\n  jump\t// out\n    /* \"#utility.yul\":2873:3416   */\ntag_38:\n    /* \"#utility.yul\":2974:2976   */\n  0x1f\n    /* \"#utility.yul\":2969:2972   */\n  dup3\n    /* \"#utility.yul\":2966:2977   */\n  gt\n    /* \"#utility.yul\":2963:3409   */\n  iszero\n  tag_78\n  jumpi\n    /* \"#utility.yul\":3008:3046   */\n  tag_79\n    /* \"#utility.yul\":3040:3045   */\n  dup2\n    /* \"#utility.yul\":3008:3046   */\n  tag_26\n  jump\t// in\ntag_79:\n    /* \"#utility.yul\":3092:3121   */\n  tag_80\n    /* \"#utility.yul\":3110:3120   */\n  dup5\n    /* \"#utility.yul\":3092:3121   */\n  tag_27\n  jump\t// in\ntag_80:\n    /* \"#utility.yul\":3082:3090   */\n  dup2\n    /* \"#utility.yul\":3078:3122   */\n  add\n    /* \"#utility.yul\":3275:3277   */\n  0x20\n    /* \"#utility.yul\":3263:3273   */\n  dup6\n    /* \"#utility.yul\":3260:3278   */\n  lt\n    /* \"#utility.yul\":3257:3306   */\n  iszero\n  tag_81\n  jumpi\n    /* \"#utility.yul\":3296:3304   */\n  dup2\n    /* \"#utility.yul\":3281:3304   */\n  swap1\n  pop\n    /* \"#utility.yul\":3257:3306   */\ntag_81:\n    /* \"#utility.yul\":3319:3399   */\n  tag_82\n    /* \"#utility.yul\":3375:3397   */\n  tag_83\n    /* \"#utility.yul\":3393:3396   */\n  dup6\n    /* \"#utility.yul\":3375:3397   */\n  tag_27\n  jump\t// in\ntag_83:\n    /* \"#utility.yul\":3365:3373   */\n  dup4\n    /* \"#utility.yul\":3361:3398   */\n  add\n    /* \"#utility.yul\":3348:3359   */\n  dup3\n    /* \"#utility.yul\":3319:3399   */\n  tag_37\n  jump\t// in\ntag_82:\n    /* \"#utility.yul\":2978:3409   */\n  pop\n  pop\n    /* \"#utility.yul\":2963:3409   */\ntag_78:\n    /* \"#utility.yul\":2873:3416   */\n  pop\n  pop\n  pop\n  jump\t// out\n    /* \"#utility.yul\":3422:3539   */\ntag_39:\n    /* \"#utility.yul\":3476:3484   */\n  0x00\n    /* \"#utility.yul\":3526:3531   */\n  dup3\n    /* \"#utility.yul\":3520:3524   */\n  dup3\n    /* \"#utility.yul\":3516:3532   */\n  shr\n    /* \"#utility.yul\":3495:3532   */\n  swap1\n  pop\n    /* \"#utility.yul\":3422:3539   */\n  swap3\n  swap2\n  pop\n  pop\n  jump\t// out\n    /* \"#utility.yul\":3545:3714   */\ntag_40:\n    /* \"#utility.yul\":3589:3595   */\n  0x00\n    /* \"#utility.yul\":3622:3673   */\n  tag_86\n    /* \"#utility.yul\":3670:3671   */\n  0x00\n    /* \"#utility.yul\":3666:3672   */\n  not\n    /* \"#utility.yul\":3658:3663   */\n  dup5\n    /* \"#utility.yul\":3655:3656   */\n  0x08\n    /* \"#utility.yul\":3651:3664   */\n  mul\n    /* \"#utility.yul\":3622:3673   */\n  tag_39\n  jump\t// in\ntag_86:\n    /* \"#utility.yul\":3618:3674   */\n  not\n    /* \"#utility.yul\":3703:3707   */\n  dup1\n    /* \"#utility.yul\":3697:3701   */\n  dup4\n    /* \"#utility.yul\":3693:3708   */\n  and\n    /* \"#utility.yul\":3683:3708   */\n  swap2\n  pop\n    /* \"#utility.yul\":3596:3714   */\n  pop\n    /* \"#utility.yul\":3545:3714   */\n  swap3\n  swap2\n  pop\n  pop\n  jump\t// out\n    /* \"#utility.yul\":3719:4014   */\ntag_41:\n    /* \"#utility.yul\":3795:3799   */\n  0x00\n    /* \"#utility.yul\":3941:3970   */\n  tag_88\n    /* \"#utility.yul\":3966:3969   */\n  dup4\n    /* \"#utility.yul\":3960:3964   */\n  dup4\n    /* \"#utility.yul\":3941:3970   */\n  tag_40\n  jump\t// in\ntag_88:\n    /* \"#utility.yul\":3933:3970   */\n  swap2\n  pop\n    /* \"#utility.yul\":4003:4006   */\n  dup3\n    /* \"#utility.yul\":4000:4001   */\n  0x02\n    /* \"#utility.yul\":3996:4007   */\n  mul\n    /* \"#utility.yul\":3990:3994   */\n  dup3\n    /* \"#utility.yul\":3987:4008   */\n  or\n    /* \"#utility.yul\":3979:4008   */\n  swap1\n  pop\n    /* \"#utility.yul\":3719:4014   */\n  swap3\n  swap2\n  pop\n  pop\n  jump\t// out\n    /* \"#utility.yul\":4019:5414   */\ntag_11:\n    /* \"#utility.yul\":4136:4173   */\n  tag_90\n    /* \"#utility.yul\":4169:4172   */\n  dup3\n    /* \"#utility.yul\":4136:4173   */\n  tag_22\n  jump\t// in\ntag_90:\n    /* \"#utility.yul\":4238:4256   */\n  0xffffffffffffffff\n    /* \"#utility.yul\":4230:4236   */\n  dup2\n    /* \"#utility.yul\":4227:4257   */\n  gt\n    /* \"#utility.yul\":4224:4280   */\n  iszero\n  tag_91\n  jumpi\n    /* \"#utility.yul\":4260:4278   */\n  tag_92\n  tag_23\n  jump\t// in\ntag_92:\n    /* \"#utility.yul\":4224:4280   */\ntag_91:\n    /* \"#utility.yul\":4304:4342   */\n  tag_93\n    /* \"#utility.yul\":4336:4340   */\n  dup3\n    /* \"#utility.yul\":4330:4341   */\n  sload\n    /* \"#utility.yul\":4304:4342   */\n  tag_25\n  jump\t// in\ntag_93:\n    /* \"#utility.yul\":4389:4456   */\n  tag_94\n    /* \"#utility.yul\":4449:4455   */\n  dup3\n    /* \"#utility.yul\":4441:4447   */\n  dup3\n    /* \"#utility.yul\":4435:4439   */\n  dup6\n    /* \"#utility.yul\":4389:4456   */\n  tag_38\n  jump\t// in\ntag_94:\n    /* \"#utility.yul\":4483:4484   */\n  0x00\n    /* \"#utility.yul\":4507:4511   */\n  0x20\n    /* \"#utility.yul\":4494:4511   */\n  swap1\n  pop\n    /* \"#utility.yul\":4539:4541   */\n  0x1f\n    /* \"#utility.yul\":4531:4537   */\n  dup4\n    /* \"#utility.yul\":4528:4542   */\n  gt\n    /* \"#utility.yul\":4556:4557   */\n  0x01\n    /* \"#utility.yul\":4551:5169   */\n  dup2\n  eq\n  tag_96\n  jumpi\n    /* \"#utility.yul\":5213:5214   */\n  0x00\n    /* \"#utility.yul\":5230:5236   */\n  dup5\n    /* \"#utility.yul\":5227:5304   */\n  iszero\n  tag_97\n  jumpi\n    /* \"#utility.yul\":5279:5288   */\n  dup3\n    /* \"#utility.yul\":5274:5277   */\n  dup8\n    /* \"#utility.yul\":5270:5289   */\n  add\n    /* \"#utility.yul\":5264:5290   */\n  mload\n    /* \"#utility.yul\":5255:5290   */\n  swap1\n  pop\n    /* \"#utility.yul\":5227:5304   */\ntag_97:\n    /* \"#utility.yul\":5330:5397   */\n  tag_98\n    /* \"#utility.yul\":5390:5396   */\n  dup6\n    /* \"#utility.yul\":5383:5388   */\n  dup3\n    /* \"#utility.yul\":5330:5397   */\n  tag_41\n  jump\t// in\ntag_98:\n    /* \"#utility.yul\":5324:5328   */\n  dup7\n    /* \"#utility.yul\":5317:5398   */\n  sstore\n    /* \"#utility.yul\":5186:5408   */\n  pop\n    /* \"#utility.yul\":4521:5408   */\n  jump(tag_95)\n    /* \"#utility.yul\":4551:5169   */\ntag_96:\n    /* \"#utility.yul\":4603:4607   */\n  0x1f\n    /* \"#utility.yul\":4599:4608   */\n  not\n    /* \"#utility.yul\":4591:4597   */\n  dup5\n    /* \"#utility.yul\":4587:4609   */\n  and\n    /* \"#utility.yul\":4637:4674   */\n  tag_99\n    /* \"#utility.yul\":4669:4673   */\n  dup7\n    /* \"#utility.yul\":4637:4674   */\n  tag_26\n  jump\t// in\ntag_99:\n    /* \"#utility.yul\":4696:4697   */\n  0x00\n    /* \"#utility.yul\":4710:4918   */\ntag_100:\n    /* \"#utility.yul\":4724:4731   */\n  dup3\n    /* \"#utility.yul\":4721:4722   */\n  dup2\n    /* \"#utility.yul\":4718:4732   */\n  lt\n    /* \"#utility.yul\":4710:4918   */\n  iszero\n  tag_102\n  jumpi\n    /* \"#utility.yul\":4803:4812   */\n  dup5\n    /* \"#utility.yul\":4798:4801   */\n  dup10\n    /* \"#utility.yul\":4794:4813   */\n  add\n    /* \"#utility.yul\":4788:4814   */\n  mload\n    /* \"#utility.yul\":4780:4786   */\n  dup3\n    /* \"#utility.yul\":4773:4815   */\n  sstore\n    /* \"#utility.yul\":4854:4855   */\n  0x01\n    /* \"#utility.yul\":4846:4852   */\n  dup3\n    /* \"#utility.yul\":4842:4856   */\n  add\n    /* \"#utility.yul\":4832:4856   */\n  swap2\n  pop\n    /* \"#utility.yul\":4901:4903   */\n  0x20\n    /* \"#utility.yul\":4890:4899   */\n  dup6\n    /* \"#utility.yul\":4886:4904   */\n  add\n    /* \"#utility.yul\":4873:4904   */\n  swap5\n  pop\n    /* \"#utility.yul\":4747:4751   */\n  0x20\n    /* \"#utility.yul\":4744:4745   */\n  dup2\n    /* \"#utility.yul\":4740:4752   */\n  add\n    /* \"#utility.yul\":4735:4752   */\n  swap1\n  pop\n    /* \"#utility.yul\":4710:4918   */\n  jump(tag_100)\ntag_102:\n    /* \"#utility.yul\":4946:4952   */\n  dup7\n    /* \"#utility.yul\":4937:4944   */\n  dup4\n    /* \"#utility.yul\":4934:4953   */\n  lt\n    /* \"#utility.yul\":4931:5110   */\n  iszero\n  tag_103\n  jumpi\n    /* \"#utility.yul\":5004:5013   */\n  dup5\n    /* \"#utility.yul\":4999:5002   */\n  dup10\n    /* \"#utility.yul\":4995:5014   */\n  add\n    /* \"#utility.yul\":4989:5015   */\n  mload\n    /* \"#utility.yul\":5047:5095   */\n  tag_104\n    /* \"#utility.yul\":5089:5093   */\n  0x1f\n    /* \"#utility.yul\":5081:5087   */\n  dup10\n    /* \"#utility.yul\":5077:5094   */\n  and\n    /* \"#utility.yul\":5066:5075   */\n  dup3\n    /* \"#utility.yul\":5047:5095   */\n  tag_40\n  jump\t// in\ntag_104:\n    /* \"#utility.yul\":5039:5045   */\n  dup4\n    /* \"#utility.yul\":5032:5096   */\n  sstore\n    /* \"#utility.yul\":4954:5110   */\n  pop\n    /* \"#utility.yul\":4931:5110   */\ntag_103:\n    /* \"#utility.yul\":5156:5157   */\n  0x01\n    /* \"#utility.yul\":5152:5153   */\n  0x02\n    /* \"#utility.yul\":5144:5150   */\n  dup9\n    /* \"#utility.yul\":5140:5154   */\n  mul\n    /* \"#utility.yul\":5136:5158   */\n  add\n    /* \"#utility.yul\":5130:5134   */\n  dup9\n    /* \"#utility.yul\":5123:5159   */\n  sstore\n    /* \"#utility.yul\":4558:5169   */\n  pop\n  pop\n  pop\n    /* \"#utility.yul\":4521:5408   */\ntag_95:\n  pop\n    /* \"#utility.yul\":4111:5414   */\n  pop\n  pop\n  pop\n    /* \"#utility.yul\":4019:5414   */\n  pop\n  pop\n  jump\t// out\n    /* \"contracts/Transactions.sol\":70:2154  contract Transactions {... */\ntag_21:\n  dataSize(sub_0)\n  dup1\n  dataOffset(sub_0)\n  0x00\n  codecopy\n  0x00\n  return\nstop\n\nsub_0: assembly {\n        /* \"contracts/Transactions.sol\":70:2154  contract Transactions {... */\n      mstore(0x40, 0x80)\n      callvalue\n      dup1\n      iszero\n      tag_1\n      jumpi\n      0x00\n      dup1\n      revert\n    tag_1:\n      pop\n      jumpi(tag_2, lt(calldatasize, 0x04))\n      shr(0xe0, calldataload(0x00))\n      dup1\n      0x27506f53\n      eq\n      tag_3\n      jumpi\n      dup1\n      0x9ace38c2\n      eq\n      tag_4\n      jumpi\n      dup1\n      0xb760d868\n      eq\n      tag_5\n      jumpi\n    tag_2:\n      0x00\n      dup1\n      revert\n        /* \"contracts/Transactions.sol\":1051:1160  function getAllTransactions() public view returns (Transaction[] memory) {... */\n    tag_3:\n      tag_6\n      tag_7\n      jump\t// in\n    tag_6:\n      mload(0x40)\n      tag_8\n      swap2\n      swap1\n      tag_9\n      jump\t// in\n    tag_8:\n      mload(0x40)\n      dup1\n      swap2\n      sub\n      swap1\n      return\n        /* \"contracts/Transactions.sol\":555:588  Transaction[] public transactions */\n    tag_4:\n      tag_10\n      0x04\n      dup1\n      calldatasize\n      sub\n      dup2\n      add\n      swap1\n      tag_11\n      swap2\n      swap1\n      tag_12\n      jump\t// in\n    tag_11:\n      tag_13\n      jump\t// in\n    tag_10:\n      mload(0x40)\n      tag_14\n      swap9\n      swap8\n      swap7\n      swap6\n      swap5\n      swap4\n      swap3\n      swap2\n      swap1\n      tag_15\n      jump\t// in\n    tag_14:\n      mload(0x40)\n      dup1\n      swap2\n      sub\n      swap1\n      return\n        /* \"contracts/Transactions.sol\":1166:2152  function addNewTransaction(... */\n    tag_5:\n      tag_16\n      0x04\n      dup1\n      calldatasize\n      sub\n      dup2\n      add\n      swap1\n      tag_17\n      swap2\n      swap1\n      tag_18\n      jump\t// in\n    tag_17:\n      tag_19\n      jump\t// in\n    tag_16:\n      stop\n        /* \"contracts/Transactions.sol\":1051:1160  function getAllTransactions() public view returns (Transaction[] memory) {... */\n    tag_7:\n        /* \"contracts/Transactions.sol\":1102:1122  Transaction[] memory */\n      0x60\n        /* \"contracts/Transactions.sol\":1141:1153  transactions */\n      0x00\n        /* \"contracts/Transactions.sol\":1134:1153  return transactions */\n      dup1\n      sload\n      dup1\n      0x20\n      mul\n      0x20\n      add\n      mload(0x40)\n      swap1\n      dup2\n      add\n      0x40\n      mstore\n      dup1\n      swap3\n      swap2\n      swap1\n      dup2\n      dup2\n      mstore\n      0x20\n      add\n      0x00\n      swap1\n    tag_21:\n      dup3\n      dup3\n      lt\n      iszero\n      tag_22\n      jumpi\n      dup4\n      dup3\n      swap1\n      0x00\n      mstore\n      keccak256(0x00, 0x20)\n      swap1\n      0x08\n      mul\n      add\n      mload(0x40)\n      dup1\n      0x0100\n      add\n      0x40\n      mstore\n      swap1\n      dup2\n      0x00\n      dup3\n      add\n      dup1\n      sload\n      tag_24\n      swap1\n      tag_25\n      jump\t// in\n    tag_24:\n      dup1\n      0x1f\n      add\n      0x20\n      dup1\n      swap2\n      div\n      mul\n      0x20\n      add\n      mload(0x40)\n      swap1\n      dup2\n      add\n      0x40\n      mstore\n      dup1\n      swap3\n      swap2\n      swap1\n      dup2\n      dup2\n      mstore\n      0x20\n      add\n      dup3\n      dup1\n      sload\n      tag_26\n      swap1\n      tag_25\n      jump\t// in\n    tag_26:\n      dup1\n      iszero\n      tag_27\n      jumpi\n      dup1\n      0x1f\n      lt\n      tag_28\n      jumpi\n      0x0100\n      dup1\n      dup4\n      sload\n      div\n      mul\n      dup4\n      mstore\n      swap2\n      0x20\n      add\n      swap2\n      jump(tag_27)\n    tag_28:\n      dup3\n      add\n      swap2\n      swap1\n      0x00\n      mstore\n      keccak256(0x00, 0x20)\n      swap1\n    tag_29:\n      dup2\n      sload\n      dup2\n      mstore\n      swap1\n      0x01\n      add\n      swap1\n      0x20\n      add\n      dup1\n      dup4\n      gt\n      tag_29\n      jumpi\n      dup3\n      swap1\n      sub\n      0x1f\n      and\n      dup3\n      add\n      swap2\n    tag_27:\n      pop\n      pop\n      pop\n      pop\n      pop\n      dup2\n      mstore\n      0x20\n      add\n      0x01\n      dup3\n      add\n      0x00\n      swap1\n      sload\n      swap1\n      0x0100\n      exp\n      swap1\n      div\n      0xff\n      and\n      0x06\n      dup2\n      gt\n      iszero\n      tag_30\n      jumpi\n      tag_31\n      tag_32\n      jump\t// in\n    tag_31:\n    tag_30:\n      0x06\n      dup2\n      gt\n      iszero\n      tag_33\n      jumpi\n      tag_34\n      tag_32\n      jump\t// in\n    tag_34:\n    tag_33:\n      dup2\n      mstore\n      0x20\n      add\n      0x02\n      dup3\n      add\n      dup1\n      sload\n      tag_35\n      swap1\n      tag_25\n      jump\t// in\n    tag_35:\n      dup1\n      0x1f\n      add\n      0x20\n      dup1\n      swap2\n      div\n      mul\n      0x20\n      add\n      mload(0x40)\n      swap1\n      dup2\n      add\n      0x40\n      mstore\n      dup1\n      swap3\n      swap2\n      swap1\n      dup2\n      dup2\n      mstore\n      0x20\n      add\n      dup3\n      dup1\n      sload\n      tag_36\n      swap1\n      tag_25\n      jump\t// in\n    tag_36:\n      dup1\n      iszero\n      tag_37\n      jumpi\n      dup1\n      0x1f\n      lt\n      tag_38\n      jumpi\n      0x0100\n      dup1\n      dup4\n      sload\n      div\n      mul\n      dup4\n      mstore\n      swap2\n      0x20\n      add\n      swap2\n      jump(tag_37)\n    tag_38:\n      dup3\n      add\n      swap2\n      swap1\n      0x00\n      mstore\n      keccak256(0x00, 0x20)\n      swap1\n    tag_39:\n      dup2\n      sload\n      dup2\n      mstore\n      swap1\n      0x01\n      add\n      swap1\n      0x20\n      add\n      dup1\n      dup4\n      gt\n      tag_39\n      jumpi\n      dup3\n      swap1\n      sub\n      0x1f\n      and\n      dup3\n      add\n      swap2\n    tag_37:\n      pop\n      pop\n      pop\n      pop\n      pop\n      dup2\n      mstore\n      0x20\n      add\n      0x03\n      dup3\n      add\n      dup1\n      sload\n      tag_40\n      swap1\n      tag_25\n      jump\t// in\n    tag_40:\n      dup1\n      0x1f\n      add\n      0x20\n      dup1\n      swap2\n      div\n      mul\n      0x20\n      add\n      mload(0x40)\n      swap1\n      dup2\n      add\n      0x40\n      mstore\n      dup1\n      swap3\n      swap2\n      swap1\n      dup2\n      dup2\n      mstore\n      0x20\n      add\n      dup3\n      dup1\n      sload\n      tag_41\n      swap1\n      tag_25\n      jump\t// in\n    tag_41:\n      dup1\n      iszero\n      tag_42\n      jumpi\n      dup1\n      0x1f\n      lt\n      tag_43\n      jumpi\n      0x0100\n      dup1\n      dup4\n      sload\n      div\n      mul\n      dup4\n      mstore\n      swap2\n      0x20\n      add\n      swap2\n      jump(tag_42)\n    tag_43:\n      dup3\n      add\n      swap2\n      swap1\n      0x00\n      mstore\n      keccak256(0x00, 0x20)\n      swap1\n    tag_44:\n      dup2\n      sload\n      dup2\n      mstore\n      swap1\n      0x01\n      add\n      swap1\n      0x20\n      add\n      dup1\n      dup4\n      gt\n      tag_44\n      jumpi\n      dup3\n      swap1\n      sub\n      0x1f\n      and\n      dup3\n      add\n      swap2\n    tag_42:\n      pop\n      pop\n      pop\n      pop\n      pop\n      dup2\n      mstore\n      0x20\n      add\n      0x04\n      dup3\n      add\n      0x00\n      swap1\n      sload\n      swap1\n      0x0100\n      exp\n      swap1\n      div\n      0xff\n      and\n      0x06\n      dup2\n      gt\n      iszero\n      tag_45\n      jumpi\n      tag_46\n      tag_32\n      jump\t// in\n    tag_46:\n    tag_45:\n      0x06\n      dup2\n      gt\n      iszero\n      tag_47\n      jumpi\n      tag_48\n      tag_32\n      jump\t// in\n    tag_48:\n    tag_47:\n      dup2\n      mstore\n      0x20\n      add\n      0x05\n      dup3\n      add\n      dup1\n      sload\n      tag_49\n      swap1\n      tag_25\n      jump\t// in\n    tag_49:\n      dup1\n      0x1f\n      add\n      0x20\n      dup1\n      swap2\n      div\n      mul\n      0x20\n      add\n      mload(0x40)\n      swap1\n      dup2\n      add\n      0x40\n      mstore\n      dup1\n      swap3\n      swap2\n      swap1\n      dup2\n      dup2\n      mstore\n      0x20\n      add\n      dup3\n      dup1\n      sload\n      tag_50\n      swap1\n      tag_25\n      jump\t// in\n    tag_50:\n      dup1\n      iszero\n      tag_51\n      jumpi\n      dup1\n      0x1f\n      lt\n      tag_52\n      jumpi\n      0x0100\n      dup1\n      dup4\n      sload\n      div\n      mul\n      dup4\n      mstore\n      swap2\n      0x20\n      add\n      swap2\n      jump(tag_51)\n    tag_52:\n      dup3\n      add\n      swap2\n      swap1\n      0x00\n      mstore\n      keccak256(0x00, 0x20)\n      swap1\n    tag_53:\n      dup2\n      sload\n      dup2\n      mstore\n      swap1\n      0x01\n      add\n      swap1\n      0x20\n      add\n      dup1\n      dup4\n      gt\n      tag_53\n      jumpi\n      dup3\n      swap1\n      sub\n      0x1f\n      and\n      dup3\n      add\n      swap2\n    tag_51:\n      pop\n      pop\n      pop\n      pop\n      pop\n      dup2\n      mstore\n      0x20\n      add\n      0x06\n      dup3\n      add\n      dup1\n      sload\n      tag_54\n      swap1\n      tag_25\n      jump\t// in\n    tag_54:\n      dup1\n      0x1f\n      add\n      0x20\n      dup1\n      swap2\n      div\n      mul\n      0x20\n      add\n      mload(0x40)\n      swap1\n      dup2\n      add\n      0x40\n      mstore\n      dup1\n      swap3\n      swap2\n      swap1\n      dup2\n      dup2\n      mstore\n      0x20\n      add\n      dup3\n      dup1\n      sload\n      tag_55\n      swap1\n      tag_25\n      jump\t// in\n    tag_55:\n      dup1\n      iszero\n      tag_56\n      jumpi\n      dup1\n      0x1f\n      lt\n      tag_57\n      jumpi\n      0x0100\n      dup1\n      dup4\n      sload\n      div\n      mul\n      dup4\n      mstore\n      swap2\n      0x20\n      add\n      swap2\n      jump(tag_56)\n    tag_57:\n      dup3\n      add\n      swap2\n      swap1\n      0x00\n      mstore\n      keccak256(0x00, 0x20)\n      swap1\n    tag_58:\n      dup2\n      sload\n      dup2\n      mstore\n      swap1\n      0x01\n      add\n      swap1\n      0x20\n      add\n      dup1\n      dup4\n      gt\n      tag_58\n      jumpi\n      dup3\n      swap1\n      sub\n      0x1f\n      and\n      dup3\n      add\n      swap2\n    tag_56:\n      pop\n      pop\n      pop\n      pop\n      pop\n      dup2\n      mstore\n      0x20\n      add\n      0x07\n      dup3\n      add\n      dup1\n      sload\n      tag_59\n      swap1\n      tag_25\n      jump\t// in\n    tag_59:\n      dup1\n      0x1f\n      add\n      0x20\n      dup1\n      swap2\n      div\n      mul\n      0x20\n      add\n      mload(0x40)\n      swap1\n      dup2\n      add\n      0x40\n      mstore\n      dup1\n      swap3\n      swap2\n      swap1\n      dup2\n      dup2\n      mstore\n      0x20\n      add\n      dup3\n      dup1\n      sload\n      tag_60\n      swap1\n      tag_25\n      jump\t// in\n    tag_60:\n      dup1\n      iszero\n      tag_61\n      jumpi\n      dup1\n      0x1f\n      lt\n      tag_62\n      jumpi\n      0x0100\n      dup1\n      dup4\n      sload\n      div\n      mul\n      dup4\n      mstore\n      swap2\n      0x20\n      add\n      swap2\n      jump(tag_61)\n    tag_62:\n      dup3\n      add\n      swap2\n      swap1\n      0x00\n      mstore\n      keccak256(0x00, 0x20)\n      swap1\n    tag_63:\n      dup2\n      sload\n      dup2\n      mstore\n      swap1\n      0x01\n      add\n      swap1\n      0x20\n      add\n      dup1\n      dup4\n      gt\n      tag_63\n      jumpi\n      dup3\n      swap1\n      sub\n      0x1f\n      and\n      dup3\n      add\n      swap2\n    tag_61:\n      pop\n      pop\n      pop\n      pop\n      pop\n      dup2\n      mstore\n      pop\n      pop\n      dup2\n      mstore\n      0x20\n      add\n      swap1\n      0x01\n      add\n      swap1\n      jump(tag_21)\n    tag_22:\n      pop\n      pop\n      pop\n      pop\n      swap1\n      pop\n        /* \"contracts/Transactions.sol\":1051:1160  function getAllTransactions() public view returns (Transaction[] memory) {... */\n      swap1\n      jump\t// out\n        /* \"contracts/Transactions.sol\":555:588  Transaction[] public transactions */\n    tag_13:\n      0x00\n      dup2\n      dup2\n      sload\n      dup2\n      lt\n      tag_64\n      jumpi\n      0x00\n      dup1\n      revert\n    tag_64:\n      swap1\n      0x00\n      mstore\n      keccak256(0x00, 0x20)\n      swap1\n      0x08\n      mul\n      add\n      0x00\n      swap2\n      pop\n      swap1\n      pop\n      dup1\n      0x00\n      add\n      dup1\n      sload\n      tag_66\n      swap1\n      tag_25\n      jump\t// in\n    tag_66:\n      dup1\n      0x1f\n      add\n      0x20\n      dup1\n      swap2\n      div\n      mul\n      0x20\n      add\n      mload(0x40)\n      swap1\n      dup2\n      add\n      0x40\n      mstore\n      dup1\n      swap3\n      swap2\n      swap1\n      dup2\n      dup2\n      mstore\n      0x20\n      add\n      dup3\n      dup1\n      sload\n      tag_67\n      swap1\n      tag_25\n      jump\t// in\n    tag_67:\n      dup1\n      iszero\n      tag_68\n      jumpi\n      dup1\n      0x1f\n      lt\n      tag_69\n      jumpi\n      0x0100\n      dup1\n      dup4\n      sload\n      div\n      mul\n      dup4\n      mstore\n      swap2\n      0x20\n      add\n      swap2\n      jump(tag_68)\n    tag_69:\n      dup3\n      add\n      swap2\n      swap1\n      0x00\n      mstore\n      keccak256(0x00, 0x20)\n      swap1\n    tag_70:\n      dup2\n      sload\n      dup2\n      mstore\n      swap1\n      0x01\n      add\n      swap1\n      0x20\n      add\n      dup1\n      dup4\n      gt\n      tag_70\n      jumpi\n      dup3\n      swap1\n      sub\n      0x1f\n      and\n      dup3\n      add\n      swap2\n    tag_68:\n      pop\n      pop\n      pop\n      pop\n      pop\n      swap1\n      dup1\n      0x01\n      add\n      0x00\n      swap1\n      sload\n      swap1\n      0x0100\n      exp\n      swap1\n      div\n      0xff\n      and\n      swap1\n      dup1\n      0x02\n      add\n      dup1\n      sload\n      tag_71\n      swap1\n      tag_25\n      jump\t// in\n    tag_71:\n      dup1\n      0x1f\n      add\n      0x20\n      dup1\n      swap2\n      div\n      mul\n      0x20\n      add\n      mload(0x40)\n      swap1\n      dup2\n      add\n      0x40\n      mstore\n      dup1\n      swap3\n      swap2\n      swap1\n      dup2\n      dup2\n      mstore\n      0x20\n      add\n      dup3\n      dup1\n      sload\n      tag_72\n      swap1\n      tag_25\n      jump\t// in\n    tag_72:\n      dup1\n      iszero\n      tag_73\n      jumpi\n      dup1\n      0x1f\n      lt\n      tag_74\n      jumpi\n      0x0100\n      dup1\n      dup4\n      sload\n      div\n      mul\n      dup4\n      mstore\n      swap2\n      0x20\n      add\n      swap2\n      jump(tag_73)\n    tag_74:\n      dup3\n      add\n      swap2\n      swap1\n      0x00\n      mstore\n      keccak256(0x00, 0x20)\n      swap1\n    tag_75:\n      dup2\n      sload\n      dup2\n      mstore\n      swap1\n      0x01\n      add\n      swap1\n      0x20\n      add\n      dup1\n      dup4\n      gt\n      tag_75\n      jumpi\n      dup3\n      swap1\n      sub\n      0x1f\n      and\n      dup3\n      add\n      swap2\n    tag_73:\n      pop\n      pop\n      pop\n      pop\n      pop\n      swap1\n      dup1\n      0x03\n      add\n      dup1\n      sload\n      tag_76\n      swap1\n      tag_25\n      jump\t// in\n    tag_76:\n      dup1\n      0x1f\n      add\n      0x20\n      dup1\n      swap2\n      div\n      mul\n      0x20\n      add\n      mload(0x40)\n      swap1\n      dup2\n      add\n      0x40\n      mstore\n      dup1\n      swap3\n      swap2\n      swap1\n      dup2\n      dup2\n      mstore\n      0x20\n      add\n      dup3\n      dup1\n      sload\n      tag_77\n      swap1\n      tag_25\n      jump\t// in\n    tag_77:\n      dup1\n      iszero\n      tag_78\n      jumpi\n      dup1\n      0x1f\n      lt\n      tag_79\n      jumpi\n      0x0100\n      dup1\n      dup4\n      sload\n      div\n      mul\n      dup4\n      mstore\n      swap2\n      0x20\n      add\n      swap2\n      jump(tag_78)\n    tag_79:\n      dup3\n      add\n      swap2\n      swap1\n      0x00\n      mstore\n      keccak256(0x00, 0x20)\n      swap1\n    tag_80:\n      dup2\n      sload\n      dup2\n      mstore\n      swap1\n      0x01\n      add\n      swap1\n      0x20\n      add\n      dup1\n      dup4\n      gt\n      tag_80\n      jumpi\n      dup3\n      swap1\n      sub\n      0x1f\n      and\n      dup3\n      add\n      swap2\n    tag_78:\n      pop\n      pop\n      pop\n      pop\n      pop\n      swap1\n      dup1\n      0x04\n      add\n      0x00\n      swap1\n      sload\n      swap1\n      0x0100\n      exp\n      swap1\n      div\n      0xff\n      and\n      swap1\n      dup1\n      0x05\n      add\n      dup1\n      sload\n      tag_81\n      swap1\n      tag_25\n      jump\t// in\n    tag_81:\n      dup1\n      0x1f\n      add\n      0x20\n      dup1\n      swap2\n      div\n      mul\n      0x20\n      add\n      mload(0x40)\n      swap1\n      dup2\n      add\n      0x40\n      mstore\n      dup1\n      swap3\n      swap2\n      swap1\n      dup2\n      dup2\n      mstore\n      0x20\n      add\n      dup3\n      dup1\n      sload\n      tag_82\n      swap1\n      tag_25\n      jump\t// in\n    tag_82:\n      dup1\n      iszero\n      tag_83\n      jumpi\n      dup1\n      0x1f\n      lt\n      tag_84\n      jumpi\n      0x0100\n      dup1\n      dup4\n      sload\n      div\n      mul\n      dup4\n      mstore\n      swap2\n      0x20\n      add\n      swap2\n      jump(tag_83)\n    tag_84:\n      dup3\n      add\n      swap2\n      swap1\n      0x00\n      mstore\n      keccak256(0x00, 0x20)\n      swap1\n    tag_85:\n      dup2\n      sload\n      dup2\n      mstore\n      swap1\n      0x01\n      add\n      swap1\n      0x20\n      add\n      dup1\n      dup4\n      gt\n      tag_85\n      jumpi\n      dup3\n      swap1\n      sub\n      0x1f\n      and\n      dup3\n      add\n      swap2\n    tag_83:\n      pop\n      pop\n      pop\n      pop\n      pop\n      swap1\n      dup1\n      0x06\n      add\n      dup1\n      sload\n      tag_86\n      swap1\n      tag_25\n      jump\t// in\n    tag_86:\n      dup1\n      0x1f\n      add\n      0x20\n      dup1\n      swap2\n      div\n      mul\n      0x20\n      add\n      mload(0x40)\n      swap1\n      dup2\n      add\n      0x40\n      mstore\n      dup1\n      swap3\n      swap2\n      swap1\n      dup2\n      dup2\n      mstore\n      0x20\n      add\n      dup3\n      dup1\n      sload\n      tag_87\n      swap1\n      tag_25\n      jump\t// in\n    tag_87:\n      dup1\n      iszero\n      tag_88\n      jumpi\n      dup1\n      0x1f\n      lt\n      tag_89\n      jumpi\n      0x0100\n      dup1\n      dup4\n      sload\n      div\n      mul\n      dup4\n      mstore\n      swap2\n      0x20\n      add\n      swap2\n      jump(tag_88)\n    tag_89:\n      dup3\n      add\n      swap2\n      swap1\n      0x00\n      mstore\n      keccak256(0x00, 0x20)\n      swap1\n    tag_90:\n      dup2\n      sload\n      dup2\n      mstore\n      swap1\n      0x01\n      add\n      swap1\n      0x20\n      add\n      dup1\n      dup4\n      gt\n      tag_90\n      jumpi\n      dup3\n      swap1\n      sub\n      0x1f\n      and\n      dup3\n      add\n      swap2\n    tag_88:\n      pop\n      pop\n      pop\n      pop\n      pop\n      swap1\n      dup1\n      0x07\n      add\n      dup1\n      sload\n      tag_91\n      swap1\n      tag_25\n      jump\t// in\n    tag_91:\n      dup1\n      0x1f\n      add\n      0x20\n      dup1\n      swap2\n      div\n      mul\n      0x20\n      add\n      mload(0x40)\n      swap1\n      dup2\n      add\n      0x40\n      mstore\n      dup1\n      swap3\n      swap2\n      swap1\n      dup2\n      dup2\n      mstore\n      0x20\n      add\n      dup3\n      dup1\n      sload\n      tag_92\n      swap1\n      tag_25\n      jump\t// in\n    tag_92:\n      dup1\n      iszero\n      tag_93\n      jumpi\n      dup1\n      0x1f\n      lt\n      tag_94\n      jumpi\n      0x0100\n      dup1\n      dup4\n      sload\n      div\n      mul\n      dup4\n      mstore\n      swap2\n      0x20\n      add\n      swap2\n      jump(tag_93)\n    tag_94:\n      dup3\n      add\n      swap2\n      swap1\n      0x00\n      mstore\n      keccak256(0x00, 0x20)\n      swap1\n    tag_95:\n      dup2\n      sload\n      dup2\n      mstore\n      swap1\n      0x01\n      add\n      swap1\n      0x20\n      add\n      dup1\n      dup4\n      gt\n      tag_95\n      jumpi\n      dup3\n      swap1\n      sub\n      0x1f\n      and\n      dup3\n      add\n      swap2\n    tag_93:\n      pop\n      pop\n      pop\n      pop\n      pop\n      swap1\n      pop\n      dup9\n      jump\t// out\n        /* \"contracts/Transactions.sol\":1166:2152  function addNewTransaction(... */\n    tag_19:\n        /* \"contracts/Transactions.sol\":1601:1634  Transaction memory newTransaction */\n      0x00\n        /* \"contracts/Transactions.sol\":1637:2038  Transaction({... */\n      mload(0x40)\n      dup1\n      0x0100\n      add\n      0x40\n      mstore\n      dup1\n        /* \"contracts/Transactions.sol\":1682:1700  _subject_entity_id */\n      dup11\n        /* \"contracts/Transactions.sol\":1637:2038  Transaction({... */\n      dup2\n      mstore\n      0x20\n      add\n        /* \"contracts/Transactions.sol\":1735:1755  _subject_entity_type */\n      dup10\n        /* \"contracts/Transactions.sol\":1637:2038  Transaction({... */\n      0x06\n      dup2\n      gt\n      iszero\n      tag_97\n      jumpi\n      tag_98\n      tag_32\n      jump\t// in\n    tag_98:\n    tag_97:\n      dup2\n      mstore\n      0x20\n      add\n        /* \"contracts/Transactions.sol\":1777:1784  _action */\n      dup9\n        /* \"contracts/Transactions.sol\":1637:2038  Transaction({... */\n      dup2\n      mstore\n      0x20\n      add\n        /* \"contracts/Transactions.sol\":1817:1835  _context_entity_id */\n      dup8\n        /* \"contracts/Transactions.sol\":1637:2038  Transaction({... */\n      dup2\n      mstore\n      0x20\n      add\n        /* \"contracts/Transactions.sol\":1870:1890  _context_entity_type */\n      dup7\n        /* \"contracts/Transactions.sol\":1637:2038  Transaction({... */\n      0x06\n      dup2\n      gt\n      iszero\n      tag_99\n      jumpi\n      tag_100\n      tag_32\n      jump\t// in\n    tag_100:\n    tag_99:\n      dup2\n      mstore\n      0x20\n      add\n        /* \"contracts/Transactions.sol\":1921:1937  _tokens_involved */\n      dup6\n        /* \"contracts/Transactions.sol\":1637:2038  Transaction({... */\n      dup2\n      mstore\n      0x20\n      add\n        /* \"contracts/Transactions.sol\":1971:1990  _token_price_in_inr */\n      dup5\n        /* \"contracts/Transactions.sol\":1637:2038  Transaction({... */\n      dup2\n      mstore\n      0x20\n      add\n        /* \"contracts/Transactions.sol\":2016:2027  _created_at */\n      dup4\n        /* \"contracts/Transactions.sol\":1637:2038  Transaction({... */\n      dup2\n      mstore\n      pop\n        /* \"contracts/Transactions.sol\":1601:2038  Transaction memory newTransaction = Transaction({... */\n      swap1\n      pop\n        /* \"contracts/Transactions.sol\":2112:2124  transactions */\n      0x00\n        /* \"contracts/Transactions.sol\":2130:2144  newTransaction */\n      dup2\n        /* \"contracts/Transactions.sol\":2112:2145  transactions.push(newTransaction) */\n      swap1\n      dup1\n      0x01\n      dup2\n      sload\n      add\n      dup1\n      dup3\n      sstore\n      dup1\n      swap2\n      pop\n      pop\n      0x01\n      swap1\n      sub\n      swap1\n      0x00\n      mstore\n      keccak256(0x00, 0x20)\n      swap1\n      0x08\n      mul\n      add\n      0x00\n      swap1\n      swap2\n      swap1\n      swap2\n      swap1\n      swap2\n      pop\n      0x00\n      dup3\n      add\n      mload\n      dup2\n      0x00\n      add\n      swap1\n      dup2\n      tag_102\n      swap2\n      swap1\n      tag_103\n      jump\t// in\n    tag_102:\n      pop\n      0x20\n      dup3\n      add\n      mload\n      dup2\n      0x01\n      add\n      exp(0x0100, 0x00)\n      dup2\n      sload\n      dup2\n      0xff\n      mul\n      not\n      and\n      swap1\n      dup4\n      0x06\n      dup2\n      gt\n      iszero\n      tag_104\n      jumpi\n      tag_105\n      tag_32\n      jump\t// in\n    tag_105:\n    tag_104:\n      mul\n      or\n      swap1\n      sstore\n      pop\n      0x40\n      dup3\n      add\n      mload\n      dup2\n      0x02\n      add\n      swap1\n      dup2\n      tag_106\n      swap2\n      swap1\n      tag_103\n      jump\t// in\n    tag_106:\n      pop\n      0x60\n      dup3\n      add\n      mload\n      dup2\n      0x03\n      add\n      swap1\n      dup2\n      tag_107\n      swap2\n      swap1\n      tag_103\n      jump\t// in\n    tag_107:\n      pop\n      0x80\n      dup3\n      add\n      mload\n      dup2\n      0x04\n      add\n      exp(0x0100, 0x00)\n      dup2\n      sload\n      dup2\n      0xff\n      mul\n      not\n      and\n      swap1\n      dup4\n      0x06\n      dup2\n      gt\n      iszero\n      tag_108\n      jumpi\n      tag_109\n      tag_32\n      jump\t// in\n    tag_109:\n    tag_108:\n      mul\n      or\n      swap1\n      sstore\n      pop\n      0xa0\n      dup3\n      add\n      mload\n      dup2\n      0x05\n      add\n      swap1\n      dup2\n      tag_110\n      swap2\n      swap1\n      tag_103\n      jump\t// in\n    tag_110:\n      pop\n      0xc0\n      dup3\n      add\n      mload\n      dup2\n      0x06\n      add\n      swap1\n      dup2\n      tag_111\n      swap2\n      swap1\n      tag_103\n      jump\t// in\n    tag_111:\n      pop\n      0xe0\n      dup3\n      add\n      mload\n      dup2\n      0x07\n      add\n      swap1\n      dup2\n      tag_112\n      swap2\n      swap1\n      tag_103\n      jump\t// in\n    tag_112:\n      pop\n      pop\n      pop\n        /* \"contracts/Transactions.sol\":1521:2152  {... */\n      pop\n        /* \"contracts/Transactions.sol\":1166:2152  function addNewTransaction(... */\n      pop\n      pop\n      pop\n      pop\n      pop\n      pop\n      pop\n      pop\n      jump\t// out\n        /* \"#utility.yul\":7:148   */\n    tag_113:\n        /* \"#utility.yul\":101:107   */\n      0x00\n        /* \"#utility.yul\":135:140   */\n      dup2\n        /* \"#utility.yul\":129:141   */\n      mload\n        /* \"#utility.yul\":119:141   */\n      swap1\n      pop\n        /* \"#utility.yul\":7:148   */\n      swap2\n      swap1\n      pop\n      jump\t// out\n        /* \"#utility.yul\":154:365   */\n    tag_114:\n        /* \"#utility.yul\":280:291   */\n      0x00\n        /* \"#utility.yul\":314:320   */\n      dup3\n        /* \"#utility.yul\":309:312   */\n      dup3\n        /* \"#utility.yul\":302:321   */\n      mstore\n        /* \"#utility.yul\":354:358   */\n      0x20\n        /* \"#utility.yul\":349:352   */\n      dup3\n        /* \"#utility.yul\":345:359   */\n      add\n        /* \"#utility.yul\":330:359   */\n      swap1\n      pop\n        /* \"#utility.yul\":154:365   */\n      swap3\n      swap2\n      pop\n      pop\n      jump\t// out\n        /* \"#utility.yul\":371:530   */\n    tag_115:\n        /* \"#utility.yul\":465:469   */\n      0x00\n        /* \"#utility.yul\":488:491   */\n      dup2\n        /* \"#utility.yul\":480:491   */\n      swap1\n      pop\n        /* \"#utility.yul\":518:522   */\n      0x20\n        /* \"#utility.yul\":513:516   */\n      dup3\n        /* \"#utility.yul\":509:523   */\n      add\n        /* \"#utility.yul\":501:523   */\n      swap1\n      pop\n        /* \"#utility.yul\":371:530   */\n      swap2\n      swap1\n      pop\n      jump\t// out\n        /* \"#utility.yul\":536:635   */\n    tag_116:\n        /* \"#utility.yul\":588:594   */\n      0x00\n        /* \"#utility.yul\":622:627   */\n      dup2\n        /* \"#utility.yul\":616:628   */\n      mload\n        /* \"#utility.yul\":606:628   */\n      swap1\n      pop\n        /* \"#utility.yul\":536:635   */\n      swap2\n      swap1\n      pop\n      jump\t// out\n        /* \"#utility.yul\":641:800   */\n    tag_117:\n        /* \"#utility.yul\":715:726   */\n      0x00\n        /* \"#utility.yul\":749:755   */\n      dup3\n        /* \"#utility.yul\":744:747   */\n      dup3\n        /* \"#utility.yul\":737:756   */\n      mstore\n        /* \"#utility.yul\":789:793   */\n      0x20\n        /* \"#utility.yul\":784:787   */\n      dup3\n        /* \"#utility.yul\":780:794   */\n      add\n        /* \"#utility.yul\":765:794   */\n      swap1\n      pop\n        /* \"#utility.yul\":641:800   */\n      swap3\n      swap2\n      pop\n      pop\n      jump\t// out\n        /* \"#utility.yul\":806:945   */\n    tag_118:\n        /* \"#utility.yul\":895:901   */\n      dup3\n        /* \"#utility.yul\":890:893   */\n      dup2\n        /* \"#utility.yul\":885:888   */\n      dup4\n        /* \"#utility.yul\":879:902   */\n      mcopy\n        /* \"#utility.yul\":936:937   */\n      0x00\n        /* \"#utility.yul\":927:933   */\n      dup4\n        /* \"#utility.yul\":922:925   */\n      dup4\n        /* \"#utility.yul\":918:934   */\n      add\n        /* \"#utility.yul\":911:938   */\n      mstore\n        /* \"#utility.yul\":806:945   */\n      pop\n      pop\n      pop\n      jump\t// out\n        /* \"#utility.yul\":951:1053   */\n    tag_119:\n        /* \"#utility.yul\":992:998   */\n      0x00\n        /* \"#utility.yul\":1043:1045   */\n      0x1f\n        /* \"#utility.yul\":1039:1046   */\n      not\n        /* \"#utility.yul\":1034:1036   */\n      0x1f\n        /* \"#utility.yul\":1027:1032   */\n      dup4\n        /* \"#utility.yul\":1023:1037   */\n      add\n        /* \"#utility.yul\":1019:1047   */\n      and\n        /* \"#utility.yul\":1009:1047   */\n      swap1\n      pop\n        /* \"#utility.yul\":951:1053   */\n      swap2\n      swap1\n      pop\n      jump\t// out\n        /* \"#utility.yul\":1059:1416   */\n    tag_120:\n        /* \"#utility.yul\":1137:1140   */\n      0x00\n        /* \"#utility.yul\":1165:1204   */\n      tag_174\n        /* \"#utility.yul\":1198:1203   */\n      dup3\n        /* \"#utility.yul\":1165:1204   */\n      tag_116\n      jump\t// in\n    tag_174:\n        /* \"#utility.yul\":1220:1281   */\n      tag_175\n        /* \"#utility.yul\":1274:1280   */\n      dup2\n        /* \"#utility.yul\":1269:1272   */\n      dup6\n        /* \"#utility.yul\":1220:1281   */\n      tag_117\n      jump\t// in\n    tag_175:\n        /* \"#utility.yul\":1213:1281   */\n      swap4\n      pop\n        /* \"#utility.yul\":1290:1355   */\n      tag_176\n        /* \"#utility.yul\":1348:1354   */\n      dup2\n        /* \"#utility.yul\":1343:1346   */\n      dup6\n        /* \"#utility.yul\":1336:1340   */\n      0x20\n        /* \"#utility.yul\":1329:1334   */\n      dup7\n        /* \"#utility.yul\":1325:1341   */\n      add\n        /* \"#utility.yul\":1290:1355   */\n      tag_118\n      jump\t// in\n    tag_176:\n        /* \"#utility.yul\":1380:1409   */\n      tag_177\n        /* \"#utility.yul\":1402:1408   */\n      dup2\n        /* \"#utility.yul\":1380:1409   */\n      tag_119\n      jump\t// in\n    tag_177:\n        /* \"#utility.yul\":1375:1378   */\n      dup5\n        /* \"#utility.yul\":1371:1410   */\n      add\n        /* \"#utility.yul\":1364:1410   */\n      swap2\n      pop\n        /* \"#utility.yul\":1141:1416   */\n      pop\n        /* \"#utility.yul\":1059:1416   */\n      swap3\n      swap2\n      pop\n      pop\n      jump\t// out\n        /* \"#utility.yul\":1422:1602   */\n    tag_32:\n        /* \"#utility.yul\":1470:1547   */\n      0x4e487b7100000000000000000000000000000000000000000000000000000000\n        /* \"#utility.yul\":1467:1468   */\n      0x00\n        /* \"#utility.yul\":1460:1548   */\n      mstore\n        /* \"#utility.yul\":1567:1571   */\n      0x21\n        /* \"#utility.yul\":1564:1565   */\n      0x04\n        /* \"#utility.yul\":1557:1572   */\n      mstore\n        /* \"#utility.yul\":1591:1595   */\n      0x24\n        /* \"#utility.yul\":1588:1589   */\n      0x00\n        /* \"#utility.yul\":1581:1596   */\n      revert\n        /* \"#utility.yul\":1608:1725   */\n    tag_121:\n        /* \"#utility.yul\":1693:1694   */\n      0x07\n        /* \"#utility.yul\":1686:1691   */\n      dup2\n        /* \"#utility.yul\":1683:1695   */\n      lt\n        /* \"#utility.yul\":1673:1719   */\n      tag_180\n      jumpi\n        /* \"#utility.yul\":1699:1717   */\n      tag_181\n      tag_32\n      jump\t// in\n    tag_181:\n        /* \"#utility.yul\":1673:1719   */\n    tag_180:\n        /* \"#utility.yul\":1608:1725   */\n      pop\n      jump\t// out\n        /* \"#utility.yul\":1731:1866   */\n    tag_122:\n        /* \"#utility.yul\":1780:1787   */\n      0x00\n        /* \"#utility.yul\":1809:1814   */\n      dup2\n        /* \"#utility.yul\":1798:1814   */\n      swap1\n      pop\n        /* \"#utility.yul\":1815:1860   */\n      tag_183\n        /* \"#utility.yul\":1854:1859   */\n      dup3\n        /* \"#utility.yul\":1815:1860   */\n      tag_121\n      jump\t// in\n    tag_183:\n        /* \"#utility.yul\":1731:1866   */\n      swap2\n      swap1\n      pop\n      jump\t// out\n        /* \"#utility.yul\":1872:2007   */\n    tag_123:\n        /* \"#utility.yul\":1932:1941   */\n      0x00\n        /* \"#utility.yul\":1965:2001   */\n      tag_185\n        /* \"#utility.yul\":1995:2000   */\n      dup3\n        /* \"#utility.yul\":1965:2001   */\n      tag_122\n      jump\t// in\n    tag_185:\n        /* \"#utility.yul\":1952:2001   */\n      swap1\n      pop\n        /* \"#utility.yul\":1872:2007   */\n      swap2\n      swap1\n      pop\n      jump\t// out\n        /* \"#utility.yul\":2013:2154   */\n    tag_124:\n        /* \"#utility.yul\":2100:2147   */\n      tag_187\n        /* \"#utility.yul\":2141:2146   */\n      dup2\n        /* \"#utility.yul\":2100:2147   */\n      tag_123\n      jump\t// in\n    tag_187:\n        /* \"#utility.yul\":2095:2098   */\n      dup3\n        /* \"#utility.yul\":2088:2148   */\n      mstore\n        /* \"#utility.yul\":2013:2154   */\n      pop\n      pop\n      jump\t// out\n        /* \"#utility.yul\":2234:4344   */\n    tag_125:\n        /* \"#utility.yul\":2347:2350   */\n      0x00\n        /* \"#utility.yul\":2383:2389   */\n      0x0100\n        /* \"#utility.yul\":2378:2381   */\n      dup4\n        /* \"#utility.yul\":2374:2390   */\n      add\n        /* \"#utility.yul\":2485:2489   */\n      0x00\n        /* \"#utility.yul\":2478:2483   */\n      dup4\n        /* \"#utility.yul\":2474:2490   */\n      add\n        /* \"#utility.yul\":2468:2491   */\n      mload\n        /* \"#utility.yul\":2538:2541   */\n      dup5\n        /* \"#utility.yul\":2532:2536   */\n      dup3\n        /* \"#utility.yul\":2528:2542   */\n      sub\n        /* \"#utility.yul\":2521:2525   */\n      0x00\n        /* \"#utility.yul\":2516:2519   */\n      dup7\n        /* \"#utility.yul\":2512:2526   */\n      add\n        /* \"#utility.yul\":2505:2543   */\n      mstore\n        /* \"#utility.yul\":2564:2637   */\n      tag_189\n        /* \"#utility.yul\":2632:2636   */\n      dup3\n        /* \"#utility.yul\":2618:2630   */\n      dup3\n        /* \"#utility.yul\":2564:2637   */\n      tag_120\n      jump\t// in\n    tag_189:\n        /* \"#utility.yul\":2556:2637   */\n      swap2\n      pop\n        /* \"#utility.yul\":2400:2648   */\n      pop\n        /* \"#utility.yul\":2745:2749   */\n      0x20\n        /* \"#utility.yul\":2738:2743   */\n      dup4\n        /* \"#utility.yul\":2734:2750   */\n      add\n        /* \"#utility.yul\":2728:2751   */\n      mload\n        /* \"#utility.yul\":2764:2837   */\n      tag_190\n        /* \"#utility.yul\":2831:2835   */\n      0x20\n        /* \"#utility.yul\":2826:2829   */\n      dup7\n        /* \"#utility.yul\":2822:2836   */\n      add\n        /* \"#utility.yul\":2808:2820   */\n      dup3\n        /* \"#utility.yul\":2764:2837   */\n      tag_124\n      jump\t// in\n    tag_190:\n        /* \"#utility.yul\":2658:2847   */\n      pop\n        /* \"#utility.yul\":2931:2935   */\n      0x40\n        /* \"#utility.yul\":2924:2929   */\n      dup4\n        /* \"#utility.yul\":2920:2936   */\n      add\n        /* \"#utility.yul\":2914:2937   */\n      mload\n        /* \"#utility.yul\":2984:2987   */\n      dup5\n        /* \"#utility.yul\":2978:2982   */\n      dup3\n        /* \"#utility.yul\":2974:2988   */\n      sub\n        /* \"#utility.yul\":2967:2971   */\n      0x40\n        /* \"#utility.yul\":2962:2965   */\n      dup7\n        /* \"#utility.yul\":2958:2972   */\n      add\n        /* \"#utility.yul\":2951:2989   */\n      mstore\n        /* \"#utility.yul\":3010:3083   */\n      tag_191\n        /* \"#utility.yul\":3078:3082   */\n      dup3\n        /* \"#utility.yul\":3064:3076   */\n      dup3\n        /* \"#utility.yul\":3010:3083   */\n      tag_120\n      jump\t// in\n    tag_191:\n        /* \"#utility.yul\":3002:3083   */\n      swap2\n      pop\n        /* \"#utility.yul\":2857:3094   */\n      pop\n        /* \"#utility.yul\":3189:3193   */\n      0x60\n        /* \"#utility.yul\":3182:3187   */\n      dup4\n        /* \"#utility.yul\":3178:3194   */\n      add\n        /* \"#utility.yul\":3172:3195   */\n      mload\n        /* \"#utility.yul\":3242:3245   */\n      dup5\n        /* \"#utility.yul\":3236:3240   */\n      dup3\n        /* \"#utility.yul\":3232:3246   */\n      sub\n        /* \"#utility.yul\":3225:3229   */\n      0x60\n        /* \"#utility.yul\":3220:3223   */\n      dup7\n        /* \"#utility.yul\":3216:3230   */\n      add\n        /* \"#utility.yul\":3209:3247   */\n      mstore\n        /* \"#utility.yul\":3268:3341   */\n      tag_192\n        /* \"#utility.yul\":3336:3340   */\n      dup3\n        /* \"#utility.yul\":3322:3334   */\n      dup3\n        /* \"#utility.yul\":3268:3341   */\n      tag_120\n      jump\t// in\n    tag_192:\n        /* \"#utility.yul\":3260:3341   */\n      swap2\n      pop\n        /* \"#utility.yul\":3104:3352   */\n      pop\n        /* \"#utility.yul\":3449:3453   */\n      0x80\n        /* \"#utility.yul\":3442:3447   */\n      dup4\n        /* \"#utility.yul\":3438:3454   */\n      add\n        /* \"#utility.yul\":3432:3455   */\n      mload\n        /* \"#utility.yul\":3468:3541   */\n      tag_193\n        /* \"#utility.yul\":3535:3539   */\n      0x80\n        /* \"#utility.yul\":3530:3533   */\n      dup7\n        /* \"#utility.yul\":3526:3540   */\n      add\n        /* \"#utility.yul\":3512:3524   */\n      dup3\n        /* \"#utility.yul\":3468:3541   */\n      tag_124\n      jump\t// in\n    tag_193:\n        /* \"#utility.yul\":3362:3551   */\n      pop\n        /* \"#utility.yul\":3644:3648   */\n      0xa0\n        /* \"#utility.yul\":3637:3642   */\n      dup4\n        /* \"#utility.yul\":3633:3649   */\n      add\n        /* \"#utility.yul\":3627:3650   */\n      mload\n        /* \"#utility.yul\":3697:3700   */\n      dup5\n        /* \"#utility.yul\":3691:3695   */\n      dup3\n        /* \"#utility.yul\":3687:3701   */\n      sub\n        /* \"#utility.yul\":3680:3684   */\n      0xa0\n        /* \"#utility.yul\":3675:3678   */\n      dup7\n        /* \"#utility.yul\":3671:3685   */\n      add\n        /* \"#utility.yul\":3664:3702   */\n      mstore\n        /* \"#utility.yul\":3723:3796   */\n      tag_194\n        /* \"#utility.yul\":3791:3795   */\n      dup3\n        /* \"#utility.yul\":3777:3789   */\n      dup3\n        /* \"#utility.yul\":3723:3796   */\n      tag_120\n      jump\t// in\n    tag_194:\n        /* \"#utility.yul\":3715:3796   */\n      swap2\n      pop\n        /* \"#utility.yul\":3561:3807   */\n      pop\n        /* \"#utility.yul\":3903:3907   */\n      0xc0\n        /* \"#utility.yul\":3896:3901   */\n      dup4\n        /* \"#utility.yul\":3892:3908   */\n      add\n        /* \"#utility.yul\":3886:3909   */\n      mload\n        /* \"#utility.yul\":3956:3959   */\n      dup5\n        /* \"#utility.yul\":3950:3954   */\n      dup3\n        /* \"#utility.yul\":3946:3960   */\n      sub\n        /* \"#utility.yul\":3939:3943   */\n      0xc0\n        /* \"#utility.yul\":3934:3937   */\n      dup7\n        /* \"#utility.yul\":3930:3944   */\n      add\n        /* \"#utility.yul\":3923:3961   */\n      mstore\n        /* \"#utility.yul\":3982:4055   */\n      tag_195\n        /* \"#utility.yul\":4050:4054   */\n      dup3\n        /* \"#utility.yul\":4036:4048   */\n      dup3\n        /* \"#utility.yul\":3982:4055   */\n      tag_120\n      jump\t// in\n    tag_195:\n        /* \"#utility.yul\":3974:4055   */\n      swap2\n      pop\n        /* \"#utility.yul\":3817:4066   */\n      pop\n        /* \"#utility.yul\":4154:4158   */\n      0xe0\n        /* \"#utility.yul\":4147:4152   */\n      dup4\n        /* \"#utility.yul\":4143:4159   */\n      add\n        /* \"#utility.yul\":4137:4160   */\n      mload\n        /* \"#utility.yul\":4207:4210   */\n      dup5\n        /* \"#utility.yul\":4201:4205   */\n      dup3\n        /* \"#utility.yul\":4197:4211   */\n      sub\n        /* \"#utility.yul\":4190:4194   */\n      0xe0\n        /* \"#utility.yul\":4185:4188   */\n      dup7\n        /* \"#utility.yul\":4181:4195   */\n      add\n        /* \"#utility.yul\":4174:4212   */\n      mstore\n        /* \"#utility.yul\":4233:4306   */\n      tag_196\n        /* \"#utility.yul\":4301:4305   */\n      dup3\n        /* \"#utility.yul\":4287:4299   */\n      dup3\n        /* \"#utility.yul\":4233:4306   */\n      tag_120\n      jump\t// in\n    tag_196:\n        /* \"#utility.yul\":4225:4306   */\n      swap2\n      pop\n        /* \"#utility.yul\":4076:4317   */\n      pop\n        /* \"#utility.yul\":4334:4338   */\n      dup1\n        /* \"#utility.yul\":4327:4338   */\n      swap2\n      pop\n        /* \"#utility.yul\":2352:4344   */\n      pop\n        /* \"#utility.yul\":2234:4344   */\n      swap3\n      swap2\n      pop\n      pop\n      jump\t// out\n        /* \"#utility.yul\":4350:4614   */\n    tag_126:\n        /* \"#utility.yul\":4473:4483   */\n      0x00\n        /* \"#utility.yul\":4508:4608   */\n      tag_198\n        /* \"#utility.yul\":4604:4607   */\n      dup4\n        /* \"#utility.yul\":4596:4602   */\n      dup4\n        /* \"#utility.yul\":4508:4608   */\n      tag_125\n      jump\t// in\n    tag_198:\n        /* \"#utility.yul\":4494:4608   */\n      swap1\n      pop\n        /* \"#utility.yul\":4350:4614   */\n      swap3\n      swap2\n      pop\n      pop\n      jump\t// out\n        /* \"#utility.yul\":4620:4760   */\n    tag_127:\n        /* \"#utility.yul\":4717:4721   */\n      0x00\n        /* \"#utility.yul\":4749:4753   */\n      0x20\n        /* \"#utility.yul\":4744:4747   */\n      dup3\n        /* \"#utility.yul\":4740:4754   */\n      add\n        /* \"#utility.yul\":4732:4754   */\n      swap1\n      pop\n        /* \"#utility.yul\":4620:4760   */\n      swap2\n      swap1\n      pop\n      jump\t// out\n        /* \"#utility.yul\":4844:5971   */\n    tag_128:\n        /* \"#utility.yul\":5017:5020   */\n      0x00\n        /* \"#utility.yul\":5046:5127   */\n      tag_201\n        /* \"#utility.yul\":5121:5126   */\n      dup3\n        /* \"#utility.yul\":5046:5127   */\n      tag_113\n      jump\t// in\n    tag_201:\n        /* \"#utility.yul\":5143:5256   */\n      tag_202\n        /* \"#utility.yul\":5249:5255   */\n      dup2\n        /* \"#utility.yul\":5244:5247   */\n      dup6\n        /* \"#utility.yul\":5143:5256   */\n      tag_114\n      jump\t// in\n    tag_202:\n        /* \"#utility.yul\":5136:5256   */\n      swap4\n      pop\n        /* \"#utility.yul\":5282:5285   */\n      dup4\n        /* \"#utility.yul\":5327:5331   */\n      0x20\n        /* \"#utility.yul\":5319:5325   */\n      dup3\n        /* \"#utility.yul\":5315:5332   */\n      mul\n        /* \"#utility.yul\":5310:5313   */\n      dup6\n        /* \"#utility.yul\":5306:5333   */\n      add\n        /* \"#utility.yul\":5357:5440   */\n      tag_203\n        /* \"#utility.yul\":5434:5439   */\n      dup6\n        /* \"#utility.yul\":5357:5440   */\n      tag_115\n      jump\t// in\n    tag_203:\n        /* \"#utility.yul\":5463:5470   */\n      dup1\n        /* \"#utility.yul\":5494:5495   */\n      0x00\n        /* \"#utility.yul\":5479:5926   */\n    tag_204:\n        /* \"#utility.yul\":5504:5510   */\n      dup6\n        /* \"#utility.yul\":5501:5502   */\n      dup2\n        /* \"#utility.yul\":5498:5511   */\n      lt\n        /* \"#utility.yul\":5479:5926   */\n      iszero\n      tag_206\n      jumpi\n        /* \"#utility.yul\":5575:5584   */\n      dup5\n        /* \"#utility.yul\":5569:5573   */\n      dup5\n        /* \"#utility.yul\":5565:5585   */\n      sub\n        /* \"#utility.yul\":5560:5563   */\n      dup10\n        /* \"#utility.yul\":5553:5586   */\n      mstore\n        /* \"#utility.yul\":5626:5632   */\n      dup2\n        /* \"#utility.yul\":5620:5633   */\n      mload\n        /* \"#utility.yul\":5654:5772   */\n      tag_207\n        /* \"#utility.yul\":5767:5771   */\n      dup6\n        /* \"#utility.yul\":5752:5765   */\n      dup3\n        /* \"#utility.yul\":5654:5772   */\n      tag_126\n      jump\t// in\n    tag_207:\n        /* \"#utility.yul\":5646:5772   */\n      swap5\n      pop\n        /* \"#utility.yul\":5795:5882   */\n      tag_208\n        /* \"#utility.yul\":5875:5881   */\n      dup4\n        /* \"#utility.yul\":5795:5882   */\n      tag_127\n      jump\t// in\n    tag_208:\n        /* \"#utility.yul\":5785:5882   */\n      swap3\n      pop\n        /* \"#utility.yul\":5911:5915   */\n      0x20\n        /* \"#utility.yul\":5906:5909   */\n      dup11\n        /* \"#utility.yul\":5902:5916   */\n      add\n        /* \"#utility.yul\":5895:5916   */\n      swap10\n      pop\n        /* \"#utility.yul\":5539:5926   */\n      pop\n        /* \"#utility.yul\":5526:5527   */\n      0x01\n        /* \"#utility.yul\":5523:5524   */\n      dup2\n        /* \"#utility.yul\":5519:5528   */\n      add\n        /* \"#utility.yul\":5514:5528   */\n      swap1\n      pop\n        /* \"#utility.yul\":5479:5926   */\n      jump(tag_204)\n    tag_206:\n        /* \"#utility.yul\":5483:5497   */\n      pop\n        /* \"#utility.yul\":5942:5946   */\n      dup3\n        /* \"#utility.yul\":5935:5946   */\n      swap8\n      pop\n        /* \"#utility.yul\":5962:5965   */\n      dup8\n        /* \"#utility.yul\":5955:5965   */\n      swap6\n      pop\n        /* \"#utility.yul\":5022:5971   */\n      pop\n      pop\n      pop\n      pop\n      pop\n        /* \"#utility.yul\":4844:5971   */\n      swap3\n      swap2\n      pop\n      pop\n      jump\t// out\n        /* \"#utility.yul\":5977:6458   */\n    tag_9:\n        /* \"#utility.yul\":6174:6178   */\n      0x00\n        /* \"#utility.yul\":6212:6214   */\n      0x20\n        /* \"#utility.yul\":6201:6210   */\n      dup3\n        /* \"#utility.yul\":6197:6215   */\n      add\n        /* \"#utility.yul\":6189:6215   */\n      swap1\n      pop\n        /* \"#utility.yul\":6261:6270   */\n      dup2\n        /* \"#utility.yul\":6255:6259   */\n      dup2\n        /* \"#utility.yul\":6251:6271   */\n      sub\n        /* \"#utility.yul\":6247:6248   */\n      0x00\n        /* \"#utility.yul\":6236:6245   */\n      dup4\n        /* \"#utility.yul\":6232:6249   */\n      add\n        /* \"#utility.yul\":6225:6272   */\n      mstore\n        /* \"#utility.yul\":6289:6451   */\n      tag_210\n        /* \"#utility.yul\":6446:6450   */\n      dup2\n        /* \"#utility.yul\":6437:6443   */\n      dup5\n        /* \"#utility.yul\":6289:6451   */\n      tag_128\n      jump\t// in\n    tag_210:\n        /* \"#utility.yul\":6281:6451   */\n      swap1\n      pop\n        /* \"#utility.yul\":5977:6458   */\n      swap3\n      swap2\n      pop\n      pop\n      jump\t// out\n        /* \"#utility.yul\":6464:6539   */\n    tag_129:\n        /* \"#utility.yul\":6497:6503   */\n      0x00\n        /* \"#utility.yul\":6530:6532   */\n      0x40\n        /* \"#utility.yul\":6524:6533   */\n      mload\n        /* \"#utility.yul\":6514:6533   */\n      swap1\n      pop\n        /* \"#utility.yul\":6464:6539   */\n      swap1\n      jump\t// out\n        /* \"#utility.yul\":6545:6662   */\n    tag_130:\n        /* \"#utility.yul\":6654:6655   */\n      0x00\n        /* \"#utility.yul\":6651:6652   */\n      dup1\n        /* \"#utility.yul\":6644:6656   */\n      revert\n        /* \"#utility.yul\":6668:6785   */\n    tag_131:\n        /* \"#utility.yul\":6777:6778   */\n      0x00\n        /* \"#utility.yul\":6774:6775   */\n      dup1\n        /* \"#utility.yul\":6767:6779   */\n      revert\n        /* \"#utility.yul\":6791:6868   */\n    tag_132:\n        /* \"#utility.yul\":6828:6835   */\n      0x00\n        /* \"#utility.yul\":6857:6862   */\n      dup2\n        /* \"#utility.yul\":6846:6862   */\n      swap1\n      pop\n        /* \"#utility.yul\":6791:6868   */\n      swap2\n      swap1\n      pop\n      jump\t// out\n        /* \"#utility.yul\":6874:6996   */\n    tag_133:\n        /* \"#utility.yul\":6947:6971   */\n      tag_216\n        /* \"#utility.yul\":6965:6970   */\n      dup2\n        /* \"#utility.yul\":6947:6971   */\n      tag_132\n      jump\t// in\n    tag_216:\n        /* \"#utility.yul\":6940:6945   */\n      dup2\n        /* \"#utility.yul\":6937:6972   */\n      eq\n        /* \"#utility.yul\":6927:6990   */\n      tag_217\n      jumpi\n        /* \"#utility.yul\":6986:6987   */\n      0x00\n        /* \"#utility.yul\":6983:6984   */\n      dup1\n        /* \"#utility.yul\":6976:6988   */\n      revert\n        /* \"#utility.yul\":6927:6990   */\n    tag_217:\n        /* \"#utility.yul\":6874:6996   */\n      pop\n      jump\t// out\n        /* \"#utility.yul\":7002:7141   */\n    tag_134:\n        /* \"#utility.yul\":7048:7053   */\n      0x00\n        /* \"#utility.yul\":7086:7092   */\n      dup2\n        /* \"#utility.yul\":7073:7093   */\n      calldataload\n        /* \"#utility.yul\":7064:7093   */\n      swap1\n      pop\n        /* \"#utility.yul\":7102:7135   */\n      tag_219\n        /* \"#utility.yul\":7129:7134   */\n      dup2\n        /* \"#utility.yul\":7102:7135   */\n      tag_133\n      jump\t// in\n    tag_219:\n        /* \"#utility.yul\":7002:7141   */\n      swap3\n      swap2\n      pop\n      pop\n      jump\t// out\n        /* \"#utility.yul\":7147:7476   */\n    tag_12:\n        /* \"#utility.yul\":7206:7212   */\n      0x00\n        /* \"#utility.yul\":7255:7257   */\n      0x20\n        /* \"#utility.yul\":7243:7252   */\n      dup3\n        /* \"#utility.yul\":7234:7241   */\n      dup5\n        /* \"#utility.yul\":7230:7253   */\n      sub\n        /* \"#utility.yul\":7226:7258   */\n      slt\n        /* \"#utility.yul\":7223:7342   */\n      iszero\n      tag_221\n      jumpi\n        /* \"#utility.yul\":7261:7340   */\n      tag_222\n      tag_130\n      jump\t// in\n    tag_222:\n        /* \"#utility.yul\":7223:7342   */\n    tag_221:\n        /* \"#utility.yul\":7381:7382   */\n      0x00\n        /* \"#utility.yul\":7406:7459   */\n      tag_223\n        /* \"#utility.yul\":7451:7458   */\n      dup5\n        /* \"#utility.yul\":7442:7448   */\n      dup3\n        /* \"#utility.yul\":7431:7440   */\n      dup6\n        /* \"#utility.yul\":7427:7449   */\n      add\n        /* \"#utility.yul\":7406:7459   */\n      tag_134\n      jump\t// in\n    tag_223:\n        /* \"#utility.yul\":7396:7459   */\n      swap2\n      pop\n        /* \"#utility.yul\":7352:7469   */\n      pop\n        /* \"#utility.yul\":7147:7476   */\n      swap3\n      swap2\n      pop\n      pop\n      jump\t// out\n        /* \"#utility.yul\":7482:7651   */\n    tag_135:\n        /* \"#utility.yul\":7566:7577   */\n      0x00\n        /* \"#utility.yul\":7600:7606   */\n      dup3\n        /* \"#utility.yul\":7595:7598   */\n      dup3\n        /* \"#utility.yul\":7588:7607   */\n      mstore\n        /* \"#utility.yul\":7640:7644   */\n      0x20\n        /* \"#utility.yul\":7635:7638   */\n      dup3\n        /* \"#utility.yul\":7631:7645   */\n      add\n        /* \"#utility.yul\":7616:7645   */\n      swap1\n      pop\n        /* \"#utility.yul\":7482:7651   */\n      swap3\n      swap2\n      pop\n      pop\n      jump\t// out\n        /* \"#utility.yul\":7657:8034   */\n    tag_136:\n        /* \"#utility.yul\":7745:7748   */\n      0x00\n        /* \"#utility.yul\":7773:7812   */\n      tag_226\n        /* \"#utility.yul\":7806:7811   */\n      dup3\n        /* \"#utility.yul\":7773:7812   */\n      tag_116\n      jump\t// in\n    tag_226:\n        /* \"#utility.yul\":7828:7899   */\n      tag_227\n        /* \"#utility.yul\":7892:7898   */\n      dup2\n        /* \"#utility.yul\":7887:7890   */\n      dup6\n        /* \"#utility.yul\":7828:7899   */\n      tag_135\n      jump\t// in\n    tag_227:\n        /* \"#utility.yul\":7821:7899   */\n      swap4\n      pop\n        /* \"#utility.yul\":7908:7973   */\n      tag_228\n        /* \"#utility.yul\":7966:7972   */\n      dup2\n        /* \"#utility.yul\":7961:7964   */\n      dup6\n        /* \"#utility.yul\":7954:7958   */\n      0x20\n        /* \"#utility.yul\":7947:7952   */\n      dup7\n        /* \"#utility.yul\":7943:7959   */\n      add\n        /* \"#utility.yul\":7908:7973   */\n      tag_118\n      jump\t// in\n    tag_228:\n        /* \"#utility.yul\":7998:8027   */\n      tag_229\n        /* \"#utility.yul\":8020:8026   */\n      dup2\n        /* \"#utility.yul\":7998:8027   */\n      tag_119\n      jump\t// in\n    tag_229:\n        /* \"#utility.yul\":7993:7996   */\n      dup5\n        /* \"#utility.yul\":7989:8028   */\n      add\n        /* \"#utility.yul\":7982:8028   */\n      swap2\n      pop\n        /* \"#utility.yul\":7749:8034   */\n      pop\n        /* \"#utility.yul\":7657:8034   */\n      swap3\n      swap2\n      pop\n      pop\n      jump\t// out\n        /* \"#utility.yul\":8040:8191   */\n    tag_137:\n        /* \"#utility.yul\":8137:8184   */\n      tag_231\n        /* \"#utility.yul\":8178:8183   */\n      dup2\n        /* \"#utility.yul\":8137:8184   */\n      tag_123\n      jump\t// in\n    tag_231:\n        /* \"#utility.yul\":8132:8135   */\n      dup3\n        /* \"#utility.yul\":8125:8185   */\n      mstore\n        /* \"#utility.yul\":8040:8191   */\n      pop\n      pop\n      jump\t// out\n        /* \"#utility.yul\":8197:9780   */\n    tag_15:\n        /* \"#utility.yul\":8626:8630   */\n      0x00\n        /* \"#utility.yul\":8664:8667   */\n      0x0100\n        /* \"#utility.yul\":8653:8662   */\n      dup3\n        /* \"#utility.yul\":8649:8668   */\n      add\n        /* \"#utility.yul\":8641:8668   */\n      swap1\n      pop\n        /* \"#utility.yul\":8714:8723   */\n      dup2\n        /* \"#utility.yul\":8708:8712   */\n      dup2\n        /* \"#utility.yul\":8704:8724   */\n      sub\n        /* \"#utility.yul\":8700:8701   */\n      0x00\n        /* \"#utility.yul\":8689:8698   */\n      dup4\n        /* \"#utility.yul\":8685:8702   */\n      add\n        /* \"#utility.yul\":8678:8725   */\n      mstore\n        /* \"#utility.yul\":8742:8820   */\n      tag_233\n        /* \"#utility.yul\":8815:8819   */\n      dup2\n        /* \"#utility.yul\":8806:8812   */\n      dup12\n        /* \"#utility.yul\":8742:8820   */\n      tag_136\n      jump\t// in\n    tag_233:\n        /* \"#utility.yul\":8734:8820   */\n      swap1\n      pop\n        /* \"#utility.yul\":8830:8912   */\n      tag_234\n        /* \"#utility.yul\":8908:8910   */\n      0x20\n        /* \"#utility.yul\":8897:8906   */\n      dup4\n        /* \"#utility.yul\":8893:8911   */\n      add\n        /* \"#utility.yul\":8884:8890   */\n      dup11\n        /* \"#utility.yul\":8830:8912   */\n      tag_137\n      jump\t// in\n    tag_234:\n        /* \"#utility.yul\":8959:8968   */\n      dup2\n        /* \"#utility.yul\":8953:8957   */\n      dup2\n        /* \"#utility.yul\":8949:8969   */\n      sub\n        /* \"#utility.yul\":8944:8946   */\n      0x40\n        /* \"#utility.yul\":8933:8942   */\n      dup4\n        /* \"#utility.yul\":8929:8947   */\n      add\n        /* \"#utility.yul\":8922:8970   */\n      mstore\n        /* \"#utility.yul\":8987:9065   */\n      tag_235\n        /* \"#utility.yul\":9060:9064   */\n      dup2\n        /* \"#utility.yul\":9051:9057   */\n      dup10\n        /* \"#utility.yul\":8987:9065   */\n      tag_136\n      jump\t// in\n    tag_235:\n        /* \"#utility.yul\":8979:9065   */\n      swap1\n      pop\n        /* \"#utility.yul\":9112:9121   */\n      dup2\n        /* \"#utility.yul\":9106:9110   */\n      dup2\n        /* \"#utility.yul\":9102:9122   */\n      sub\n        /* \"#utility.yul\":9097:9099   */\n      0x60\n        /* \"#utility.yul\":9086:9095   */\n      dup4\n        /* \"#utility.yul\":9082:9100   */\n      add\n        /* \"#utility.yul\":9075:9123   */\n      mstore\n        /* \"#utility.yul\":9140:9218   */\n      tag_236\n        /* \"#utility.yul\":9213:9217   */\n      dup2\n        /* \"#utility.yul\":9204:9210   */\n      dup9\n        /* \"#utility.yul\":9140:9218   */\n      tag_136\n      jump\t// in\n    tag_236:\n        /* \"#utility.yul\":9132:9218   */\n      swap1\n      pop\n        /* \"#utility.yul\":9228:9311   */\n      tag_237\n        /* \"#utility.yul\":9306:9309   */\n      0x80\n        /* \"#utility.yul\":9295:9304   */\n      dup4\n        /* \"#utility.yul\":9291:9310   */\n      add\n        /* \"#utility.yul\":9282:9288   */\n      dup8\n        /* \"#utility.yul\":9228:9311   */\n      tag_137\n      jump\t// in\n    tag_237:\n        /* \"#utility.yul\":9359:9368   */\n      dup2\n        /* \"#utility.yul\":9353:9357   */\n      dup2\n        /* \"#utility.yul\":9349:9369   */\n      sub\n        /* \"#utility.yul\":9343:9346   */\n      0xa0\n        /* \"#utility.yul\":9332:9341   */\n      dup4\n        /* \"#utility.yul\":9328:9347   */\n      add\n        /* \"#utility.yul\":9321:9370   */\n      mstore\n        /* \"#utility.yul\":9387:9465   */\n      tag_238\n        /* \"#utility.yul\":9460:9464   */\n      dup2\n        /* \"#utility.yul\":9451:9457   */\n      dup7\n        /* \"#utility.yul\":9387:9465   */\n      tag_136\n      jump\t// in\n    tag_238:\n        /* \"#utility.yul\":9379:9465   */\n      swap1\n      pop\n        /* \"#utility.yul\":9513:9522   */\n      dup2\n        /* \"#utility.yul\":9507:9511   */\n      dup2\n        /* \"#utility.yul\":9503:9523   */\n      sub\n        /* \"#utility.yul\":9497:9500   */\n      0xc0\n        /* \"#utility.yul\":9486:9495   */\n      dup4\n        /* \"#utility.yul\":9482:9501   */\n      add\n        /* \"#utility.yul\":9475:9524   */\n      mstore\n        /* \"#utility.yul\":9541:9619   */\n      tag_239\n        /* \"#utility.yul\":9614:9618   */\n      dup2\n        /* \"#utility.yul\":9605:9611   */\n      dup6\n        /* \"#utility.yul\":9541:9619   */\n      tag_136\n      jump\t// in\n    tag_239:\n        /* \"#utility.yul\":9533:9619   */\n      swap1\n      pop\n        /* \"#utility.yul\":9667:9676   */\n      dup2\n        /* \"#utility.yul\":9661:9665   */\n      dup2\n        /* \"#utility.yul\":9657:9677   */\n      sub\n        /* \"#utility.yul\":9651:9654   */\n      0xe0\n        /* \"#utility.yul\":9640:9649   */\n      dup4\n        /* \"#utility.yul\":9636:9655   */\n      add\n        /* \"#utility.yul\":9629:9678   */\n      mstore\n        /* \"#utility.yul\":9695:9773   */\n      tag_240\n        /* \"#utility.yul\":9768:9772   */\n      dup2\n        /* \"#utility.yul\":9759:9765   */\n      dup5\n        /* \"#utility.yul\":9695:9773   */\n      tag_136\n      jump\t// in\n    tag_240:\n        /* \"#utility.yul\":9687:9773   */\n      swap1\n      pop\n        /* \"#utility.yul\":8197:9780   */\n      swap10\n      swap9\n      pop\n      pop\n      pop\n      pop\n      pop\n      pop\n      pop\n      pop\n      pop\n      jump\t// out\n        /* \"#utility.yul\":9786:9903   */\n    tag_138:\n        /* \"#utility.yul\":9895:9896   */\n      0x00\n        /* \"#utility.yul\":9892:9893   */\n      dup1\n        /* \"#utility.yul\":9885:9897   */\n      revert\n        /* \"#utility.yul\":9909:10026   */\n    tag_139:\n        /* \"#utility.yul\":10018:10019   */\n      0x00\n        /* \"#utility.yul\":10015:10016   */\n      dup1\n        /* \"#utility.yul\":10008:10020   */\n      revert\n        /* \"#utility.yul\":10032:10212   */\n    tag_140:\n        /* \"#utility.yul\":10080:10157   */\n      0x4e487b7100000000000000000000000000000000000000000000000000000000\n        /* \"#utility.yul\":10077:10078   */\n      0x00\n        /* \"#utility.yul\":10070:10158   */\n      mstore\n        /* \"#utility.yul\":10177:10181   */\n      0x41\n        /* \"#utility.yul\":10174:10175   */\n      0x04\n        /* \"#utility.yul\":10167:10182   */\n      mstore\n        /* \"#utility.yul\":10201:10205   */\n      0x24\n        /* \"#utility.yul\":10198:10199   */\n      0x00\n        /* \"#utility.yul\":10191:10206   */\n      revert\n        /* \"#utility.yul\":10218:10499   */\n    tag_141:\n        /* \"#utility.yul\":10301:10328   */\n      tag_245\n        /* \"#utility.yul\":10323:10327   */\n      dup3\n        /* \"#utility.yul\":10301:10328   */\n      tag_119\n      jump\t// in\n    tag_245:\n        /* \"#utility.yul\":10293:10299   */\n      dup2\n        /* \"#utility.yul\":10289:10329   */\n      add\n        /* \"#utility.yul\":10431:10437   */\n      dup2\n        /* \"#utility.yul\":10419:10429   */\n      dup2\n        /* \"#utility.yul\":10416:10438   */\n      lt\n        /* \"#utility.yul\":10395:10413   */\n      0xffffffffffffffff\n        /* \"#utility.yul\":10383:10393   */\n      dup3\n        /* \"#utility.yul\":10380:10414   */\n      gt\n        /* \"#utility.yul\":10377:10439   */\n      or\n        /* \"#utility.yul\":10374:10462   */\n      iszero\n      tag_246\n      jumpi\n        /* \"#utility.yul\":10442:10460   */\n      tag_247\n      tag_140\n      jump\t// in\n    tag_247:\n        /* \"#utility.yul\":10374:10462   */\n    tag_246:\n        /* \"#utility.yul\":10482:10492   */\n      dup1\n        /* \"#utility.yul\":10478:10480   */\n      0x40\n        /* \"#utility.yul\":10471:10493   */\n      mstore\n        /* \"#utility.yul\":10261:10499   */\n      pop\n        /* \"#utility.yul\":10218:10499   */\n      pop\n      pop\n      jump\t// out\n        /* \"#utility.yul\":10505:10634   */\n    tag_142:\n        /* \"#utility.yul\":10539:10545   */\n      0x00\n        /* \"#utility.yul\":10566:10586   */\n      tag_249\n      tag_129\n      jump\t// in\n    tag_249:\n        /* \"#utility.yul\":10556:10586   */\n      swap1\n      pop\n        /* \"#utility.yul\":10595:10628   */\n      tag_250\n        /* \"#utility.yul\":10623:10627   */\n      dup3\n        /* \"#utility.yul\":10615:10621   */\n      dup3\n        /* \"#utility.yul\":10595:10628   */\n      tag_141\n      jump\t// in\n    tag_250:\n        /* \"#utility.yul\":10505:10634   */\n      swap2\n      swap1\n      pop\n      jump\t// out\n        /* \"#utility.yul\":10640:10948   */\n    tag_143:\n        /* \"#utility.yul\":10702:10706   */\n      0x00\n        /* \"#utility.yul\":10792:10810   */\n      0xffffffffffffffff\n        /* \"#utility.yul\":10784:10790   */\n      dup3\n        /* \"#utility.yul\":10781:10811   */\n      gt\n        /* \"#utility.yul\":10778:10834   */\n      iszero\n      tag_252\n      jumpi\n        /* \"#utility.yul\":10814:10832   */\n      tag_253\n      tag_140\n      jump\t// in\n    tag_253:\n        /* \"#utility.yul\":10778:10834   */\n    tag_252:\n        /* \"#utility.yul\":10852:10881   */\n      tag_254\n        /* \"#utility.yul\":10874:10880   */\n      dup3\n        /* \"#utility.yul\":10852:10881   */\n      tag_119\n      jump\t// in\n    tag_254:\n        /* \"#utility.yul\":10844:10881   */\n      swap1\n      pop\n        /* \"#utility.yul\":10936:10940   */\n      0x20\n        /* \"#utility.yul\":10930:10934   */\n      dup2\n        /* \"#utility.yul\":10926:10941   */\n      add\n        /* \"#utility.yul\":10918:10941   */\n      swap1\n      pop\n        /* \"#utility.yul\":10640:10948   */\n      swap2\n      swap1\n      pop\n      jump\t// out\n        /* \"#utility.yul\":10954:11102   */\n    tag_144:\n        /* \"#utility.yul\":11052:11058   */\n      dup3\n        /* \"#utility.yul\":11047:11050   */\n      dup2\n        /* \"#utility.yul\":11042:11045   */\n      dup4\n        /* \"#utility.yul\":11029:11059   */\n      calldatacopy\n        /* \"#utility.yul\":11093:11094   */\n      0x00\n        /* \"#utility.yul\":11084:11090   */\n      dup4\n        /* \"#utility.yul\":11079:11082   */\n      dup4\n        /* \"#utility.yul\":11075:11091   */\n      add\n        /* \"#utility.yul\":11068:11095   */\n      mstore\n        /* \"#utility.yul\":10954:11102   */\n      pop\n      pop\n      pop\n      jump\t// out\n        /* \"#utility.yul\":11108:11533   */\n    tag_145:\n        /* \"#utility.yul\":11186:11191   */\n      0x00\n        /* \"#utility.yul\":11211:11277   */\n      tag_257\n        /* \"#utility.yul\":11227:11276   */\n      tag_258\n        /* \"#utility.yul\":11269:11275   */\n      dup5\n        /* \"#utility.yul\":11227:11276   */\n      tag_143\n      jump\t// in\n    tag_258:\n        /* \"#utility.yul\":11211:11277   */\n      tag_142\n      jump\t// in\n    tag_257:\n        /* \"#utility.yul\":11202:11277   */\n      swap1\n      pop\n        /* \"#utility.yul\":11300:11306   */\n      dup3\n        /* \"#utility.yul\":11293:11298   */\n      dup2\n        /* \"#utility.yul\":11286:11307   */\n      mstore\n        /* \"#utility.yul\":11338:11342   */\n      0x20\n        /* \"#utility.yul\":11331:11336   */\n      dup2\n        /* \"#utility.yul\":11327:11343   */\n      add\n        /* \"#utility.yul\":11376:11379   */\n      dup5\n        /* \"#utility.yul\":11367:11373   */\n      dup5\n        /* \"#utility.yul\":11362:11365   */\n      dup5\n        /* \"#utility.yul\":11358:11374   */\n      add\n        /* \"#utility.yul\":11355:11380   */\n      gt\n        /* \"#utility.yul\":11352:11464   */\n      iszero\n      tag_259\n      jumpi\n        /* \"#utility.yul\":11383:11462   */\n      tag_260\n      tag_139\n      jump\t// in\n    tag_260:\n        /* \"#utility.yul\":11352:11464   */\n    tag_259:\n        /* \"#utility.yul\":11473:11527   */\n      tag_261\n        /* \"#utility.yul\":11520:11526   */\n      dup5\n        /* \"#utility.yul\":11515:11518   */\n      dup3\n        /* \"#utility.yul\":11510:11513   */\n      dup6\n        /* \"#utility.yul\":11473:11527   */\n      tag_144\n      jump\t// in\n    tag_261:\n        /* \"#utility.yul\":11192:11533   */\n      pop\n        /* \"#utility.yul\":11108:11533   */\n      swap4\n      swap3\n      pop\n      pop\n      pop\n      jump\t// out\n        /* \"#utility.yul\":11553:11893   */\n    tag_146:\n        /* \"#utility.yul\":11609:11614   */\n      0x00\n        /* \"#utility.yul\":11658:11661   */\n      dup3\n        /* \"#utility.yul\":11651:11655   */\n      0x1f\n        /* \"#utility.yul\":11643:11649   */\n      dup4\n        /* \"#utility.yul\":11639:11656   */\n      add\n        /* \"#utility.yul\":11635:11662   */\n      slt\n        /* \"#utility.yul\":11625:11747   */\n      tag_263\n      jumpi\n        /* \"#utility.yul\":11666:11745   */\n      tag_264\n      tag_138\n      jump\t// in\n    tag_264:\n        /* \"#utility.yul\":11625:11747   */\n    tag_263:\n        /* \"#utility.yul\":11783:11789   */\n      dup2\n        /* \"#utility.yul\":11770:11790   */\n      calldataload\n        /* \"#utility.yul\":11808:11887   */\n      tag_265\n        /* \"#utility.yul\":11883:11886   */\n      dup5\n        /* \"#utility.yul\":11875:11881   */\n      dup3\n        /* \"#utility.yul\":11868:11872   */\n      0x20\n        /* \"#utility.yul\":11860:11866   */\n      dup7\n        /* \"#utility.yul\":11856:11873   */\n      add\n        /* \"#utility.yul\":11808:11887   */\n      tag_145\n      jump\t// in\n    tag_265:\n        /* \"#utility.yul\":11799:11887   */\n      swap2\n      pop\n        /* \"#utility.yul\":11615:11893   */\n      pop\n        /* \"#utility.yul\":11553:11893   */\n      swap3\n      swap2\n      pop\n      pop\n      jump\t// out\n        /* \"#utility.yul\":11899:12010   */\n    tag_147:\n        /* \"#utility.yul\":11984:11985   */\n      0x07\n        /* \"#utility.yul\":11977:11982   */\n      dup2\n        /* \"#utility.yul\":11974:11986   */\n      lt\n        /* \"#utility.yul\":11964:12004   */\n      tag_267\n      jumpi\n        /* \"#utility.yul\":12000:12001   */\n      0x00\n        /* \"#utility.yul\":11997:11998   */\n      dup1\n        /* \"#utility.yul\":11990:12002   */\n      revert\n        /* \"#utility.yul\":11964:12004   */\n    tag_267:\n        /* \"#utility.yul\":11899:12010   */\n      pop\n      jump\t// out\n        /* \"#utility.yul\":12016:12179   */\n    tag_148:\n        /* \"#utility.yul\":12074:12079   */\n      0x00\n        /* \"#utility.yul\":12112:12118   */\n      dup2\n        /* \"#utility.yul\":12099:12119   */\n      calldataload\n        /* \"#utility.yul\":12090:12119   */\n      swap1\n      pop\n        /* \"#utility.yul\":12128:12173   */\n      tag_269\n        /* \"#utility.yul\":12167:12172   */\n      dup2\n        /* \"#utility.yul\":12128:12173   */\n      tag_147\n      jump\t// in\n    tag_269:\n        /* \"#utility.yul\":12016:12179   */\n      swap3\n      swap2\n      pop\n      pop\n      jump\t// out\n        /* \"#utility.yul\":12185:14662   */\n    tag_18:\n        /* \"#utility.yul\":12391:12397   */\n      0x00\n        /* \"#utility.yul\":12399:12405   */\n      dup1\n        /* \"#utility.yul\":12407:12413   */\n      0x00\n        /* \"#utility.yul\":12415:12421   */\n      dup1\n        /* \"#utility.yul\":12423:12429   */\n      0x00\n        /* \"#utility.yul\":12431:12437   */\n      dup1\n        /* \"#utility.yul\":12439:12445   */\n      0x00\n        /* \"#utility.yul\":12447:12453   */\n      dup1\n        /* \"#utility.yul\":12496:12499   */\n      0x0100\n        /* \"#utility.yul\":12484:12493   */\n      dup10\n        /* \"#utility.yul\":12475:12482   */\n      dup12\n        /* \"#utility.yul\":12471:12494   */\n      sub\n        /* \"#utility.yul\":12467:12500   */\n      slt\n        /* \"#utility.yul\":12464:12584   */\n      iszero\n      tag_271\n      jumpi\n        /* \"#utility.yul\":12503:12582   */\n      tag_272\n      tag_130\n      jump\t// in\n    tag_272:\n        /* \"#utility.yul\":12464:12584   */\n    tag_271:\n        /* \"#utility.yul\":12651:12652   */\n      0x00\n        /* \"#utility.yul\":12640:12649   */\n      dup10\n        /* \"#utility.yul\":12636:12653   */\n      add\n        /* \"#utility.yul\":12623:12654   */\n      calldataload\n        /* \"#utility.yul\":12681:12699   */\n      0xffffffffffffffff\n        /* \"#utility.yul\":12673:12679   */\n      dup2\n        /* \"#utility.yul\":12670:12700   */\n      gt\n        /* \"#utility.yul\":12667:12784   */\n      iszero\n      tag_273\n      jumpi\n        /* \"#utility.yul\":12703:12782   */\n      tag_274\n      tag_131\n      jump\t// in\n    tag_274:\n        /* \"#utility.yul\":12667:12784   */\n    tag_273:\n        /* \"#utility.yul\":12808:12871   */\n      tag_275\n        /* \"#utility.yul\":12863:12870   */\n      dup12\n        /* \"#utility.yul\":12854:12860   */\n      dup3\n        /* \"#utility.yul\":12843:12852   */\n      dup13\n        /* \"#utility.yul\":12839:12861   */\n      add\n        /* \"#utility.yul\":12808:12871   */\n      tag_146\n      jump\t// in\n    tag_275:\n        /* \"#utility.yul\":12798:12871   */\n      swap9\n      pop\n        /* \"#utility.yul\":12594:12881   */\n      pop\n        /* \"#utility.yul\":12920:12922   */\n      0x20\n        /* \"#utility.yul\":12946:13011   */\n      tag_276\n        /* \"#utility.yul\":13003:13010   */\n      dup12\n        /* \"#utility.yul\":12994:13000   */\n      dup3\n        /* \"#utility.yul\":12983:12992   */\n      dup13\n        /* \"#utility.yul\":12979:13001   */\n      add\n        /* \"#utility.yul\":12946:13011   */\n      tag_148\n      jump\t// in\n    tag_276:\n        /* \"#utility.yul\":12936:13011   */\n      swap8\n      pop\n        /* \"#utility.yul\":12891:13021   */\n      pop\n        /* \"#utility.yul\":13088:13090   */\n      0x40\n        /* \"#utility.yul\":13077:13086   */\n      dup10\n        /* \"#utility.yul\":13073:13091   */\n      add\n        /* \"#utility.yul\":13060:13092   */\n      calldataload\n        /* \"#utility.yul\":13119:13137   */\n      0xffffffffffffffff\n        /* \"#utility.yul\":13111:13117   */\n      dup2\n        /* \"#utility.yul\":13108:13138   */\n      gt\n        /* \"#utility.yul\":13105:13222   */\n      iszero\n      tag_277\n      jumpi\n        /* \"#utility.yul\":13141:13220   */\n      tag_278\n      tag_131\n      jump\t// in\n    tag_278:\n        /* \"#utility.yul\":13105:13222   */\n    tag_277:\n        /* \"#utility.yul\":13246:13309   */\n      tag_279\n        /* \"#utility.yul\":13301:13308   */\n      dup12\n        /* \"#utility.yul\":13292:13298   */\n      dup3\n        /* \"#utility.yul\":13281:13290   */\n      dup13\n        /* \"#utility.yul\":13277:13299   */\n      add\n        /* \"#utility.yul\":13246:13309   */\n      tag_146\n      jump\t// in\n    tag_279:\n        /* \"#utility.yul\":13236:13309   */\n      swap7\n      pop\n        /* \"#utility.yul\":13031:13319   */\n      pop\n        /* \"#utility.yul\":13386:13388   */\n      0x60\n        /* \"#utility.yul\":13375:13384   */\n      dup10\n        /* \"#utility.yul\":13371:13389   */\n      add\n        /* \"#utility.yul\":13358:13390   */\n      calldataload\n        /* \"#utility.yul\":13417:13435   */\n      0xffffffffffffffff\n        /* \"#utility.yul\":13409:13415   */\n      dup2\n        /* \"#utility.yul\":13406:13436   */\n      gt\n        /* \"#utility.yul\":13403:13520   */\n      iszero\n      tag_280\n      jumpi\n        /* \"#utility.yul\":13439:13518   */\n      tag_281\n      tag_131\n      jump\t// in\n    tag_281:\n        /* \"#utility.yul\":13403:13520   */\n    tag_280:\n        /* \"#utility.yul\":13544:13607   */\n      tag_282\n        /* \"#utility.yul\":13599:13606   */\n      dup12\n        /* \"#utility.yul\":13590:13596   */\n      dup3\n        /* \"#utility.yul\":13579:13588   */\n      dup13\n        /* \"#utility.yul\":13575:13597   */\n      add\n        /* \"#utility.yul\":13544:13607   */\n      tag_146\n      jump\t// in\n    tag_282:\n        /* \"#utility.yul\":13534:13607   */\n      swap6\n      pop\n        /* \"#utility.yul\":13329:13617   */\n      pop\n        /* \"#utility.yul\":13656:13659   */\n      0x80\n        /* \"#utility.yul\":13683:13748   */\n      tag_283\n        /* \"#utility.yul\":13740:13747   */\n      dup12\n        /* \"#utility.yul\":13731:13737   */\n      dup3\n        /* \"#utility.yul\":13720:13729   */\n      dup13\n        /* \"#utility.yul\":13716:13738   */\n      add\n        /* \"#utility.yul\":13683:13748   */\n      tag_148\n      jump\t// in\n    tag_283:\n        /* \"#utility.yul\":13673:13748   */\n      swap5\n      pop\n        /* \"#utility.yul\":13627:13758   */\n      pop\n        /* \"#utility.yul\":13825:13828   */\n      0xa0\n        /* \"#utility.yul\":13814:13823   */\n      dup10\n        /* \"#utility.yul\":13810:13829   */\n      add\n        /* \"#utility.yul\":13797:13830   */\n      calldataload\n        /* \"#utility.yul\":13857:13875   */\n      0xffffffffffffffff\n        /* \"#utility.yul\":13849:13855   */\n      dup2\n        /* \"#utility.yul\":13846:13876   */\n      gt\n        /* \"#utility.yul\":13843:13960   */\n      iszero\n      tag_284\n      jumpi\n        /* \"#utility.yul\":13879:13958   */\n      tag_285\n      tag_131\n      jump\t// in\n    tag_285:\n        /* \"#utility.yul\":13843:13960   */\n    tag_284:\n        /* \"#utility.yul\":13984:14047   */\n      tag_286\n        /* \"#utility.yul\":14039:14046   */\n      dup12\n        /* \"#utility.yul\":14030:14036   */\n      dup3\n        /* \"#utility.yul\":14019:14028   */\n      dup13\n        /* \"#utility.yul\":14015:14037   */\n      add\n        /* \"#utility.yul\":13984:14047   */\n      tag_146\n      jump\t// in\n    tag_286:\n        /* \"#utility.yul\":13974:14047   */\n      swap4\n      pop\n        /* \"#utility.yul\":13768:14057   */\n      pop\n        /* \"#utility.yul\":14124:14127   */\n      0xc0\n        /* \"#utility.yul\":14113:14122   */\n      dup10\n        /* \"#utility.yul\":14109:14128   */\n      add\n        /* \"#utility.yul\":14096:14129   */\n      calldataload\n        /* \"#utility.yul\":14156:14174   */\n      0xffffffffffffffff\n        /* \"#utility.yul\":14148:14154   */\n      dup2\n        /* \"#utility.yul\":14145:14175   */\n      gt\n        /* \"#utility.yul\":14142:14259   */\n      iszero\n      tag_287\n      jumpi\n        /* \"#utility.yul\":14178:14257   */\n      tag_288\n      tag_131\n      jump\t// in\n    tag_288:\n        /* \"#utility.yul\":14142:14259   */\n    tag_287:\n        /* \"#utility.yul\":14283:14346   */\n      tag_289\n        /* \"#utility.yul\":14338:14345   */\n      dup12\n        /* \"#utility.yul\":14329:14335   */\n      dup3\n        /* \"#utility.yul\":14318:14327   */\n      dup13\n        /* \"#utility.yul\":14314:14336   */\n      add\n        /* \"#utility.yul\":14283:14346   */\n      tag_146\n      jump\t// in\n    tag_289:\n        /* \"#utility.yul\":14273:14346   */\n      swap3\n      pop\n        /* \"#utility.yul\":14067:14356   */\n      pop\n        /* \"#utility.yul\":14423:14426   */\n      0xe0\n        /* \"#utility.yul\":14412:14421   */\n      dup10\n        /* \"#utility.yul\":14408:14427   */\n      add\n        /* \"#utility.yul\":14395:14428   */\n      calldataload\n        /* \"#utility.yul\":14455:14473   */\n      0xffffffffffffffff\n        /* \"#utility.yul\":14447:14453   */\n      dup2\n        /* \"#utility.yul\":14444:14474   */\n      gt\n        /* \"#utility.yul\":14441:14558   */\n      iszero\n      tag_290\n      jumpi\n        /* \"#utility.yul\":14477:14556   */\n      tag_291\n      tag_131\n      jump\t// in\n    tag_291:\n        /* \"#utility.yul\":14441:14558   */\n    tag_290:\n        /* \"#utility.yul\":14582:14645   */\n      tag_292\n        /* \"#utility.yul\":14637:14644   */\n      dup12\n        /* \"#utility.yul\":14628:14634   */\n      dup3\n        /* \"#utility.yul\":14617:14626   */\n      dup13\n        /* \"#utility.yul\":14613:14635   */\n      add\n        /* \"#utility.yul\":14582:14645   */\n      tag_146\n      jump\t// in\n    tag_292:\n        /* \"#utility.yul\":14572:14645   */\n      swap2\n      pop\n        /* \"#utility.yul\":14366:14655   */\n      pop\n        /* \"#utility.yul\":12185:14662   */\n      swap3\n      swap6\n      swap9\n      pop\n      swap3\n      swap6\n      swap9\n      swap1\n      swap4\n      swap7\n      pop\n      jump\t// out\n        /* \"#utility.yul\":14668:14848   */\n    tag_149:\n        /* \"#utility.yul\":14716:14793   */\n      0x4e487b7100000000000000000000000000000000000000000000000000000000\n        /* \"#utility.yul\":14713:14714   */\n      0x00\n        /* \"#utility.yul\":14706:14794   */\n      mstore\n        /* \"#utility.yul\":14813:14817   */\n      0x22\n        /* \"#utility.yul\":14810:14811   */\n      0x04\n        /* \"#utility.yul\":14803:14818   */\n      mstore\n        /* \"#utility.yul\":14837:14841   */\n      0x24\n        /* \"#utility.yul\":14834:14835   */\n      0x00\n        /* \"#utility.yul\":14827:14842   */\n      revert\n        /* \"#utility.yul\":14854:15174   */\n    tag_25:\n        /* \"#utility.yul\":14898:14904   */\n      0x00\n        /* \"#utility.yul\":14935:14936   */\n      0x02\n        /* \"#utility.yul\":14929:14933   */\n      dup3\n        /* \"#utility.yul\":14925:14937   */\n      div\n        /* \"#utility.yul\":14915:14937   */\n      swap1\n      pop\n        /* \"#utility.yul\":14982:14983   */\n      0x01\n        /* \"#utility.yul\":14976:14980   */\n      dup3\n        /* \"#utility.yul\":14972:14984   */\n      and\n        /* \"#utility.yul\":15003:15021   */\n      dup1\n        /* \"#utility.yul\":14993:15074   */\n      tag_295\n      jumpi\n        /* \"#utility.yul\":15059:15063   */\n      0x7f\n        /* \"#utility.yul\":15051:15057   */\n      dup3\n        /* \"#utility.yul\":15047:15064   */\n      and\n        /* \"#utility.yul\":15037:15064   */\n      swap2\n      pop\n        /* \"#utility.yul\":14993:15074   */\n    tag_295:\n        /* \"#utility.yul\":15121:15123   */\n      0x20\n        /* \"#utility.yul\":15113:15119   */\n      dup3\n        /* \"#utility.yul\":15110:15124   */\n      lt\n        /* \"#utility.yul\":15090:15108   */\n      dup2\n        /* \"#utility.yul\":15087:15125   */\n      sub\n        /* \"#utility.yul\":15084:15168   */\n      tag_296\n      jumpi\n        /* \"#utility.yul\":15140:15158   */\n      tag_297\n      tag_149\n      jump\t// in\n    tag_297:\n        /* \"#utility.yul\":15084:15168   */\n    tag_296:\n        /* \"#utility.yul\":14905:15174   */\n      pop\n        /* \"#utility.yul\":14854:15174   */\n      swap2\n      swap1\n      pop\n      jump\t// out\n        /* \"#utility.yul\":15180:15321   */\n    tag_150:\n        /* \"#utility.yul\":15229:15233   */\n      0x00\n        /* \"#utility.yul\":15252:15255   */\n      dup2\n        /* \"#utility.yul\":15244:15255   */\n      swap1\n      pop\n        /* \"#utility.yul\":15275:15278   */\n      dup2\n        /* \"#utility.yul\":15272:15273   */\n      0x00\n        /* \"#utility.yul\":15265:15279   */\n      mstore\n        /* \"#utility.yul\":15309:15313   */\n      0x20\n        /* \"#utility.yul\":15306:15307   */\n      0x00\n        /* \"#utility.yul\":15296:15314   */\n      keccak256\n        /* \"#utility.yul\":15288:15314   */\n      swap1\n      pop\n        /* \"#utility.yul\":15180:15321   */\n      swap2\n      swap1\n      pop\n      jump\t// out\n        /* \"#utility.yul\":15327:15420   */\n    tag_151:\n        /* \"#utility.yul\":15364:15370   */\n      0x00\n        /* \"#utility.yul\":15411:15413   */\n      0x20\n        /* \"#utility.yul\":15406:15408   */\n      0x1f\n        /* \"#utility.yul\":15399:15404   */\n      dup4\n        /* \"#utility.yul\":15395:15409   */\n      add\n        /* \"#utility.yul\":15391:15414   */\n      div\n        /* \"#utility.yul\":15381:15414   */\n      swap1\n      pop\n        /* \"#utility.yul\":15327:15420   */\n      swap2\n      swap1\n      pop\n      jump\t// out\n        /* \"#utility.yul\":15426:15533   */\n    tag_152:\n        /* \"#utility.yul\":15470:15478   */\n      0x00\n        /* \"#utility.yul\":15520:15525   */\n      dup3\n        /* \"#utility.yul\":15514:15518   */\n      dup3\n        /* \"#utility.yul\":15510:15526   */\n      shl\n        /* \"#utility.yul\":15489:15526   */\n      swap1\n      pop\n        /* \"#utility.yul\":15426:15533   */\n      swap3\n      swap2\n      pop\n      pop\n      jump\t// out\n        /* \"#utility.yul\":15539:15932   */\n    tag_153:\n        /* \"#utility.yul\":15608:15614   */\n      0x00\n        /* \"#utility.yul\":15658:15659   */\n      0x08\n        /* \"#utility.yul\":15646:15656   */\n      dup4\n        /* \"#utility.yul\":15642:15660   */\n      mul\n        /* \"#utility.yul\":15681:15778   */\n      tag_302\n        /* \"#utility.yul\":15711:15777   */\n      0xffffffffffffffffffffffffffffffffffffffffffffffffffffffffffffffff\n        /* \"#utility.yul\":15700:15709   */\n      dup3\n        /* \"#utility.yul\":15681:15778   */\n      tag_152\n      jump\t// in\n    tag_302:\n        /* \"#utility.yul\":15799:15838   */\n      tag_303\n        /* \"#utility.yul\":15829:15837   */\n      dup7\n        /* \"#utility.yul\":15818:15827   */\n      dup4\n        /* \"#utility.yul\":15799:15838   */\n      tag_152\n      jump\t// in\n    tag_303:\n        /* \"#utility.yul\":15787:15838   */\n      swap6\n      pop\n        /* \"#utility.yul\":15871:15875   */\n      dup1\n        /* \"#utility.yul\":15867:15876   */\n      not\n        /* \"#utility.yul\":15860:15865   */\n      dup5\n        /* \"#utility.yul\":15856:15877   */\n      and\n        /* \"#utility.yul\":15847:15877   */\n      swap4\n      pop\n        /* \"#utility.yul\":15920:15924   */\n      dup1\n        /* \"#utility.yul\":15910:15918   */\n      dup7\n        /* \"#utility.yul\":15906:15925   */\n      and\n        /* \"#utility.yul\":15899:15904   */\n      dup5\n        /* \"#utility.yul\":15896:15926   */\n      or\n        /* \"#utility.yul\":15886:15926   */\n      swap3\n      pop\n        /* \"#utility.yul\":15615:15932   */\n      pop\n      pop\n        /* \"#utility.yul\":15539:15932   */\n      swap4\n      swap3\n      pop\n      pop\n      pop\n      jump\t// out\n        /* \"#utility.yul\":15938:15998   */\n    tag_154:\n        /* \"#utility.yul\":15966:15969   */\n      0x00\n        /* \"#utility.yul\":15987:15992   */\n      dup2\n        /* \"#utility.yul\":15980:15992   */\n      swap1\n      pop\n        /* \"#utility.yul\":15938:15998   */\n      swap2\n      swap1\n      pop\n      jump\t// out\n        /* \"#utility.yul\":16004:16146   */\n    tag_155:\n        /* \"#utility.yul\":16054:16063   */\n      0x00\n        /* \"#utility.yul\":16087:16140   */\n      tag_306\n        /* \"#utility.yul\":16105:16139   */\n      tag_307\n        /* \"#utility.yul\":16114:16138   */\n      tag_308\n        /* \"#utility.yul\":16132:16137   */\n      dup5\n        /* \"#utility.yul\":16114:16138   */\n      tag_132\n      jump\t// in\n    tag_308:\n        /* \"#utility.yul\":16105:16139   */\n      tag_154\n      jump\t// in\n    tag_307:\n        /* \"#utility.yul\":16087:16140   */\n      tag_132\n      jump\t// in\n    tag_306:\n        /* \"#utility.yul\":16074:16140   */\n      swap1\n      pop\n        /* \"#utility.yul\":16004:16146   */\n      swap2\n      swap1\n      pop\n      jump\t// out\n        /* \"#utility.yul\":16152:16227   */\n    tag_156:\n        /* \"#utility.yul\":16195:16198   */\n      0x00\n        /* \"#utility.yul\":16216:16221   */\n      dup2\n        /* \"#utility.yul\":16209:16221   */\n      swap1\n      pop\n        /* \"#utility.yul\":16152:16227   */\n      swap2\n      swap1\n      pop\n      jump\t// out\n        /* \"#utility.yul\":16233:16502   */\n    tag_157:\n        /* \"#utility.yul\":16343:16382   */\n      tag_311\n        /* \"#utility.yul\":16374:16381   */\n      dup4\n        /* \"#utility.yul\":16343:16382   */\n      tag_155\n      jump\t// in\n    tag_311:\n        /* \"#utility.yul\":16404:16495   */\n      tag_312\n        /* \"#utility.yul\":16453:16494   */\n      tag_313\n        /* \"#utility.yul\":16477:16493   */\n      dup3\n        /* \"#utility.yul\":16453:16494   */\n      tag_156\n      jump\t// in\n    tag_313:\n        /* \"#utility.yul\":16445:16451   */\n      dup5\n        /* \"#utility.yul\":16438:16442   */\n      dup5\n        /* \"#utility.yul\":16432:16443   */\n      sload\n        /* \"#utility.yul\":16404:16495   */\n      tag_153\n      jump\t// in\n    tag_312:\n        /* \"#utility.yul\":16398:16402   */\n      dup3\n        /* \"#utility.yul\":16391:16496   */\n      sstore\n        /* \"#utility.yul\":16309:16502   */\n      pop\n        /* \"#utility.yul\":16233:16502   */\n      pop\n      pop\n      pop\n      jump\t// out\n        /* \"#utility.yul\":16508:16581   */\n    tag_158:\n        /* \"#utility.yul\":16553:16556   */\n      0x00\n        /* \"#utility.yul\":16508:16581   */\n      swap1\n      jump\t// out\n        /* \"#utility.yul\":16587:16776   */\n    tag_159:\n        /* \"#utility.yul\":16664:16696   */\n      tag_316\n      tag_158\n      jump\t// in\n    tag_316:\n        /* \"#utility.yul\":16705:16770   */\n      tag_317\n        /* \"#utility.yul\":16763:16769   */\n      dup2\n        /* \"#utility.yul\":16755:16761   */\n      dup5\n        /* \"#utility.yul\":16749:16753   */\n      dup5\n        /* \"#utility.yul\":16705:16770   */\n      tag_157\n      jump\t// in\n    tag_317:\n        /* \"#utility.yul\":16640:16776   */\n      pop\n        /* \"#utility.yul\":16587:16776   */\n      pop\n      pop\n      jump\t// out\n        /* \"#utility.yul\":16782:16968   */\n    tag_160:\n        /* \"#utility.yul\":16842:16962   */\n    tag_319:\n        /* \"#utility.yul\":16859:16862   */\n      dup2\n        /* \"#utility.yul\":16852:16857   */\n      dup2\n        /* \"#utility.yul\":16849:16863   */\n      lt\n        /* \"#utility.yul\":16842:16962   */\n      iszero\n      tag_321\n      jumpi\n        /* \"#utility.yul\":16913:16952   */\n      tag_322\n        /* \"#utility.yul\":16950:16951   */\n      0x00\n        /* \"#utility.yul\":16943:16948   */\n      dup3\n        /* \"#utility.yul\":16913:16952   */\n      tag_159\n      jump\t// in\n    tag_322:\n        /* \"#utility.yul\":16886:16887   */\n      0x01\n        /* \"#utility.yul\":16879:16884   */\n      dup2\n        /* \"#utility.yul\":16875:16888   */\n      add\n        /* \"#utility.yul\":16866:16888   */\n      swap1\n      pop\n        /* \"#utility.yul\":16842:16962   */\n      jump(tag_319)\n    tag_321:\n        /* \"#utility.yul\":16782:16968   */\n      pop\n      pop\n      jump\t// out\n        /* \"#utility.yul\":16974:17517   */\n    tag_161:\n        /* \"#utility.yul\":17075:17077   */\n      0x1f\n        /* \"#utility.yul\":17070:17073   */\n      dup3\n        /* \"#utility.yul\":17067:17078   */\n      gt\n        /* \"#utility.yul\":17064:17510   */\n      iszero\n      tag_324\n      jumpi\n        /* \"#utility.yul\":17109:17147   */\n      tag_325\n        /* \"#utility.yul\":17141:17146   */\n      dup2\n        /* \"#utility.yul\":17109:17147   */\n      tag_150\n      jump\t// in\n    tag_325:\n        /* \"#utility.yul\":17193:17222   */\n      tag_326\n        /* \"#utility.yul\":17211:17221   */\n      dup5\n        /* \"#utility.yul\":17193:17222   */\n      tag_151\n      jump\t// in\n    tag_326:\n        /* \"#utility.yul\":17183:17191   */\n      dup2\n        /* \"#utility.yul\":17179:17223   */\n      add\n        /* \"#utility.yul\":17376:17378   */\n      0x20\n        /* \"#utility.yul\":17364:17374   */\n      dup6\n        /* \"#utility.yul\":17361:17379   */\n      lt\n        /* \"#utility.yul\":17358:17407   */\n      iszero\n      tag_327\n      jumpi\n        /* \"#utility.yul\":17397:17405   */\n      dup2\n        /* \"#utility.yul\":17382:17405   */\n      swap1\n      pop\n        /* \"#utility.yul\":17358:17407   */\n    tag_327:\n        /* \"#utility.yul\":17420:17500   */\n      tag_328\n        /* \"#utility.yul\":17476:17498   */\n      tag_329\n        /* \"#utility.yul\":17494:17497   */\n      dup6\n        /* \"#utility.yul\":17476:17498   */\n      tag_151\n      jump\t// in\n    tag_329:\n        /* \"#utility.yul\":17466:17474   */\n      dup4\n        /* \"#utility.yul\":17462:17499   */\n      add\n        /* \"#utility.yul\":17449:17460   */\n      dup3\n        /* \"#utility.yul\":17420:17500   */\n      tag_160\n      jump\t// in\n    tag_328:\n        /* \"#utility.yul\":17079:17510   */\n      pop\n      pop\n        /* \"#utility.yul\":17064:17510   */\n    tag_324:\n        /* \"#utility.yul\":16974:17517   */\n      pop\n      pop\n      pop\n      jump\t// out\n        /* \"#utility.yul\":17523:17640   */\n    tag_162:\n        /* \"#utility.yul\":17577:17585   */\n      0x00\n        /* \"#utility.yul\":17627:17632   */\n      dup3\n        /* \"#utility.yul\":17621:17625   */\n      dup3\n        /* \"#utility.yul\":17617:17633   */\n      shr\n        /* \"#utility.yul\":17596:17633   */\n      swap1\n      pop\n        /* \"#utility.yul\":17523:17640   */\n      swap3\n      swap2\n      pop\n      pop\n      jump\t// out\n        /* \"#utility.yul\":17646:17815   */\n    tag_163:\n        /* \"#utility.yul\":17690:17696   */\n      0x00\n        /* \"#utility.yul\":17723:17774   */\n      tag_332\n        /* \"#utility.yul\":17771:17772   */\n      0x00\n        /* \"#utility.yul\":17767:17773   */\n      not\n        /* \"#utility.yul\":17759:17764   */\n      dup5\n        /* \"#utility.yul\":17756:17757   */\n      0x08\n        /* \"#utility.yul\":17752:17765   */\n      mul\n        /* \"#utility.yul\":17723:17774   */\n      tag_162\n      jump\t// in\n    tag_332:\n        /* \"#utility.yul\":17719:17775   */\n      not\n        /* \"#utility.yul\":17804:17808   */\n      dup1\n        /* \"#utility.yul\":17798:17802   */\n      dup4\n        /* \"#utility.yul\":17794:17809   */\n      and\n        /* \"#utility.yul\":17784:17809   */\n      swap2\n      pop\n        /* \"#utility.yul\":17697:17815   */\n      pop\n        /* \"#utility.yul\":17646:17815   */\n      swap3\n      swap2\n      pop\n      pop\n      jump\t// out\n        /* \"#utility.yul\":17820:18115   */\n    tag_164:\n        /* \"#utility.yul\":17896:17900   */\n      0x00\n        /* \"#utility.yul\":18042:18071   */\n      tag_334\n        /* \"#utility.yul\":18067:18070   */\n      dup4\n        /* \"#utility.yul\":18061:18065   */\n      dup4\n        /* \"#utility.yul\":18042:18071   */\n      tag_163\n      jump\t// in\n    tag_334:\n        /* \"#utility.yul\":18034:18071   */\n      swap2\n      pop\n        /* \"#utility.yul\":18104:18107   */\n      dup3\n        /* \"#utility.yul\":18101:18102   */\n      0x02\n        /* \"#utility.yul\":18097:18108   */\n      mul\n        /* \"#utility.yul\":18091:18095   */\n      dup3\n        /* \"#utility.yul\":18088:18109   */\n      or\n        /* \"#utility.yul\":18080:18109   */\n      swap1\n      pop\n        /* \"#utility.yul\":17820:18115   */\n      swap3\n      swap2\n      pop\n      pop\n      jump\t// out\n        /* \"#utility.yul\":18120:19515   */\n    tag_103:\n        /* \"#utility.yul\":18237:18274   */\n      tag_336\n        /* \"#utility.yul\":18270:18273   */\n      dup3\n        /* \"#utility.yul\":18237:18274   */\n      tag_116\n      jump\t// in\n    tag_336:\n        /* \"#utility.yul\":18339:18357   */\n      0xffffffffffffffff\n        /* \"#utility.yul\":18331:18337   */\n      dup2\n        /* \"#utility.yul\":18328:18358   */\n      gt\n        /* \"#utility.yul\":18325:18381   */\n      iszero\n      tag_337\n      jumpi\n        /* \"#utility.yul\":18361:18379   */\n      tag_338\n      tag_140\n      jump\t// in\n    tag_338:\n        /* \"#utility.yul\":18325:18381   */\n    tag_337:\n        /* \"#utility.yul\":18405:18443   */\n      tag_339\n        /* \"#utility.yul\":18437:18441   */\n      dup3\n        /* \"#utility.yul\":18431:18442   */\n      sload\n        /* \"#utility.yul\":18405:18443   */\n      tag_25\n      jump\t// in\n    tag_339:\n        /* \"#utility.yul\":18490:18557   */\n      tag_340\n        /* \"#utility.yul\":18550:18556   */\n      dup3\n        /* \"#utility.yul\":18542:18548   */\n      dup3\n        /* \"#utility.yul\":18536:18540   */\n      dup6\n        /* \"#utility.yul\":18490:18557   */\n      tag_161\n      jump\t// in\n    tag_340:\n        /* \"#utility.yul\":18584:18585   */\n      0x00\n        /* \"#utility.yul\":18608:18612   */\n      0x20\n        /* \"#utility.yul\":18595:18612   */\n      swap1\n      pop\n        /* \"#utility.yul\":18640:18642   */\n      0x1f\n        /* \"#utility.yul\":18632:18638   */\n      dup4\n        /* \"#utility.yul\":18629:18643   */\n      gt\n        /* \"#utility.yul\":18657:18658   */\n      0x01\n        /* \"#utility.yul\":18652:19270   */\n      dup2\n      eq\n      tag_342\n      jumpi\n        /* \"#utility.yul\":19314:19315   */\n      0x00\n        /* \"#utility.yul\":19331:19337   */\n      dup5\n        /* \"#utility.yul\":19328:19405   */\n      iszero\n      tag_343\n      jumpi\n        /* \"#utility.yul\":19380:19389   */\n      dup3\n        /* \"#utility.yul\":19375:19378   */\n      dup8\n        /* \"#utility.yul\":19371:19390   */\n      add\n        /* \"#utility.yul\":19365:19391   */\n      mload\n        /* \"#utility.yul\":19356:19391   */\n      swap1\n      pop\n        /* \"#utility.yul\":19328:19405   */\n    tag_343:\n        /* \"#utility.yul\":19431:19498   */\n      tag_344\n        /* \"#utility.yul\":19491:19497   */\n      dup6\n        /* \"#utility.yul\":19484:19489   */\n      dup3\n        /* \"#utility.yul\":19431:19498   */\n      tag_164\n      jump\t// in\n    tag_344:\n        /* \"#utility.yul\":19425:19429   */\n      dup7\n        /* \"#utility.yul\":19418:19499   */\n      sstore\n        /* \"#utility.yul\":19287:19509   */\n      pop\n        /* \"#utility.yul\":18622:19509   */\n      jump(tag_341)\n        /* \"#utility.yul\":18652:19270   */\n    tag_342:\n        /* \"#utility.yul\":18704:18708   */\n      0x1f\n        /* \"#utility.yul\":18700:18709   */\n      not\n        /* \"#utility.yul\":18692:18698   */\n      dup5\n        /* \"#utility.yul\":18688:18710   */\n      and\n        /* \"#utility.yul\":18738:18775   */\n      tag_345\n        /* \"#utility.yul\":18770:18774   */\n      dup7\n        /* \"#utility.yul\":18738:18775   */\n      tag_150\n      jump\t// in\n    tag_345:\n        /* \"#utility.yul\":18797:18798   */\n      0x00\n        /* \"#utility.yul\":18811:19019   */\n    tag_346:\n        /* \"#utility.yul\":18825:18832   */\n      dup3\n        /* \"#utility.yul\":18822:18823   */\n      dup2\n        /* \"#utility.yul\":18819:18833   */\n      lt\n        /* \"#utility.yul\":18811:19019   */\n      iszero\n      tag_348\n      jumpi\n        /* \"#utility.yul\":18904:18913   */\n      dup5\n        /* \"#utility.yul\":18899:18902   */\n      dup10\n        /* \"#utility.yul\":18895:18914   */\n      add\n        /* \"#utility.yul\":18889:18915   */\n      mload\n        /* \"#utility.yul\":18881:18887   */\n      dup3\n        /* \"#utility.yul\":18874:18916   */\n      sstore\n        /* \"#utility.yul\":18955:18956   */\n      0x01\n        /* \"#utility.yul\":18947:18953   */\n      dup3\n        /* \"#utility.yul\":18943:18957   */\n      add\n        /* \"#utility.yul\":18933:18957   */\n      swap2\n      pop\n        /* \"#utility.yul\":19002:19004   */\n      0x20\n        /* \"#utility.yul\":18991:19000   */\n      dup6\n        /* \"#utility.yul\":18987:19005   */\n      add\n        /* \"#utility.yul\":18974:19005   */\n      swap5\n      pop\n        /* \"#utility.yul\":18848:18852   */\n      0x20\n        /* \"#utility.yul\":18845:18846   */\n      dup2\n        /* \"#utility.yul\":18841:18853   */\n      add\n        /* \"#utility.yul\":18836:18853   */\n      swap1\n      pop\n        /* \"#utility.yul\":18811:19019   */\n      jump(tag_346)\n    tag_348:\n        /* \"#utility.yul\":19047:19053   */\n      dup7\n        /* \"#utility.yul\":19038:19045   */\n      dup4\n        /* \"#utility.yul\":19035:19054   */\n      lt\n        /* \"#utility.yul\":19032:19211   */\n      iszero\n      tag_349\n      jumpi\n        /* \"#utility.yul\":19105:19114   */\n      dup5\n        /* \"#utility.yul\":19100:19103   */\n      dup10\n        /* \"#utility.yul\":19096:19115   */\n      add\n        /* \"#utility.yul\":19090:19116   */\n      mload\n        /* \"#utility.yul\":19148:19196   */\n      tag_350\n        /* \"#utility.yul\":19190:19194   */\n      0x1f\n        /* \"#utility.yul\":19182:19188   */\n      dup10\n        /* \"#utility.yul\":19178:19195   */\n      and\n        /* \"#utility.yul\":19167:19176   */\n      dup3\n        /* \"#utility.yul\":19148:19196   */\n      tag_163\n      jump\t// in\n    tag_350:\n        /* \"#utility.yul\":19140:19146   */\n      dup4\n        /* \"#utility.yul\":19133:19197   */\n      sstore\n        /* \"#utility.yul\":19055:19211   */\n      pop\n        /* \"#utility.yul\":19032:19211   */\n    tag_349:\n        /* \"#utility.yul\":19257:19258   */\n      0x01\n        /* \"#utility.yul\":19253:19254   */\n      0x02\n        /* \"#utility.yul\":19245:19251   */\n      dup9\n        /* \"#utility.yul\":19241:19255   */\n      mul\n        /* \"#utility.yul\":19237:19259   */\n      add\n        /* \"#utility.yul\":19231:19235   */\n      dup9\n        /* \"#utility.yul\":19224:19260   */\n      sstore\n        /* \"#utility.yul\":18659:19270   */\n      pop\n      pop\n      pop\n        /* \"#utility.yul\":18622:19509   */\n    tag_341:\n      pop\n        /* \"#utility.yul\":18212:19515   */\n      pop\n      pop\n      pop\n        /* \"#utility.yul\":18120:19515   */\n      pop\n      pop\n      jump\t// out\n\n    auxdata: 0xa264697066735822122093d24e832b2bb69962d419eb6a9902ac65596fcdfacbc0c34d38777f58d3e9d564736f6c634300081a0033\n}\n",
				"bytecode": {
					"linkReferences": {},
					"object": "608060405234801561000f575f80fd5b505f6040518061010001604052806040518060400160405280600381526020017f6e696b000000000000000000000000000000000000000000000000000000000081525081526020016005600681111561006c5761006b610294565b5b81526020016040518060400160405280600481526020017f496e697400000000000000000000000000000000000000000000000000000000815250815260200160405180602001604052805f81525081526020016006808111156100d3576100d2610294565b5b81526020016040518060400160405280600181526020017f300000000000000000000000000000000000000000000000000000000000000081525081526020016040518060400160405280600181526020017f300000000000000000000000000000000000000000000000000000000000000081525081526020016040518060400160405280600a81526020017f323032352d30322d303600000000000000000000000000000000000000000000815250815250908060018154018082558091505060019003905f5260205f2090600802015f909190919091505f820151815f0190816101c091906104fb565b506020820151816001015f6101000a81548160ff021916908360068111156101eb576101ea610294565b5b0217905550604082015181600201908161020591906104fb565b50606082015181600301908161021b91906104fb565b506080820151816004015f6101000a81548160ff0219169083600681111561024657610245610294565b5b021790555060a082015181600501908161026091906104fb565b5060c082015181600601908161027691906104fb565b5060e082015181600701908161028c91906104fb565b5050506105ca565b7f4e487b71000000000000000000000000000000000000000000000000000000005f52602160045260245ffd5b5f81519050919050565b7f4e487b71000000000000000000000000000000000000000000000000000000005f52604160045260245ffd5b7f4e487b71000000000000000000000000000000000000000000000000000000005f52602260045260245ffd5b5f600282049050600182168061033c57607f821691505b60208210810361034f5761034e6102f8565b5b50919050565b5f819050815f5260205f209050919050565b5f6020601f8301049050919050565b5f82821b905092915050565b5f600883026103b17fffffffffffffffffffffffffffffffffffffffffffffffffffffffffffffffff82610376565b6103bb8683610376565b95508019841693508086168417925050509392505050565b5f819050919050565b5f819050919050565b5f6103ff6103fa6103f5846103d3565b6103dc565b6103d3565b9050919050565b5f819050919050565b610418836103e5565b61042c61042482610406565b848454610382565b825550505050565b5f90565b610440610434565b61044b81848461040f565b505050565b5b8181101561046e576104635f82610438565b600181019050610451565b5050565b601f8211156104b35761048481610355565b61048d84610367565b8101602085101561049c578190505b6104b06104a885610367565b830182610450565b50505b505050565b5f82821c905092915050565b5f6104d35f19846008026104b8565b1980831691505092915050565b5f6104eb83836104c4565b9150826002028217905092915050565b610504826102c1565b67ffffffffffffffff81111561051d5761051c6102cb565b5b6105278254610325565b610532828285610472565b5f60209050601f831160018114610563575f8415610551578287015190505b61055b85826104e0565b8655506105c2565b601f19841661057186610355565b5f5b8281101561059857848901518255600182019150602085019450602081019050610573565b868310156105b557848901516105b1601f8916826104c4565b8355505b6001600288020188555050505b505050505050565b611388806105d75f395ff3fe608060405234801561000f575f80fd5b506004361061003f575f3560e01c806327506f53146100435780639ace38c214610061578063b760d86814610098575b5f80fd5b61004b6100b4565b6040516100589190610c55565b60405180910390f35b61007b60048036038101906100769190610cb9565b6104e3565b60405161008f989796959493929190610d3b565b60405180910390f35b6100b260048036038101906100ad9190610f30565b610871565b005b60605f805480602002602001604051908101604052809291908181526020015f905b828210156104da578382905f5260205f209060080201604051806101000160405290815f82018054610107906110b6565b80601f0160208091040260200160405190810160405280929190818152602001828054610133906110b6565b801561017e5780601f106101555761010080835404028352916020019161017e565b820191905f5260205f20905b81548152906001019060200180831161016157829003601f168201915b50505050508152602001600182015f9054906101000a900460ff1660068111156101ab576101aa610a80565b5b60068111156101bd576101bc610a80565b5b81526020016002820180546101d1906110b6565b80601f01602080910402602001604051908101604052809291908181526020018280546101fd906110b6565b80156102485780601f1061021f57610100808354040283529160200191610248565b820191905f5260205f20905b81548152906001019060200180831161022b57829003601f168201915b50505050508152602001600382018054610261906110b6565b80601f016020809104026020016040519081016040528092919081815260200182805461028d906110b6565b80156102d85780601f106102af576101008083540402835291602001916102d8565b820191905f5260205f20905b8154815290600101906020018083116102bb57829003601f168201915b50505050508152602001600482015f9054906101000a900460ff16600681111561030557610304610a80565b5b600681111561031757610316610a80565b5b815260200160058201805461032b906110b6565b80601f0160208091040260200160405190810160405280929190818152602001828054610357906110b6565b80156103a25780601f10610379576101008083540402835291602001916103a2565b820191905f5260205f20905b81548152906001019060200180831161038557829003601f168201915b505050505081526020016006820180546103bb906110b6565b80601f01602080910402602001604051908101604052809291908181526020018280546103e7906110b6565b80156104325780601f1061040957610100808354040283529160200191610432565b820191905f5260205f20905b81548152906001019060200180831161041557829003601f168201915b5050505050815260200160078201805461044b906110b6565b80601f0160208091040260200160405190810160405280929190818152602001828054610477906110b6565b80156104c25780601f10610499576101008083540402835291602001916104c2565b820191905f5260205f20905b8154815290600101906020018083116104a557829003601f168201915b505050505081525050815260200190600101906100d6565b50505050905090565b5f81815481106104f1575f80fd5b905f5260205f2090600802015f91509050805f018054610510906110b6565b80601f016020809104026020016040519081016040528092919081815260200182805461053c906110b6565b80156105875780601f1061055e57610100808354040283529160200191610587565b820191905f5260205f20905b81548152906001019060200180831161056a57829003601f168201915b505050505090806001015f9054906101000a900460ff16908060020180546105ae906110b6565b80601f01602080910402602001604051908101604052809291908181526020018280546105da906110b6565b80156106255780601f106105fc57610100808354040283529160200191610625565b820191905f5260205f20905b81548152906001019060200180831161060857829003601f168201915b50505050509080600301805461063a906110b6565b80601f0160208091040260200160405190810160405280929190818152602001828054610666906110b6565b80156106b15780601f10610688576101008083540402835291602001916106b1565b820191905f5260205f20905b81548152906001019060200180831161069457829003601f168201915b505050505090806004015f9054906101000a900460ff16908060050180546106d8906110b6565b80601f0160208091040260200160405190810160405280929190818152602001828054610704906110b6565b801561074f5780601f106107265761010080835404028352916020019161074f565b820191905f5260205f20905b81548152906001019060200180831161073257829003601f168201915b505050505090806006018054610764906110b6565b80601f0160208091040260200160405190810160405280929190818152602001828054610790906110b6565b80156107db5780601f106107b2576101008083540402835291602001916107db565b820191905f5260205f20905b8154815290600101906020018083116107be57829003601f168201915b5050505050908060070180546107f0906110b6565b80601f016020809104026020016040519081016040528092919081815260200182805461081c906110b6565b80156108675780601f1061083e57610100808354040283529160200191610867565b820191905f5260205f20905b81548152906001019060200180831161084a57829003601f168201915b5050505050905088565b5f6040518061010001604052808a815260200189600681111561089757610896610a80565b5b81526020018881526020018781526020018660068111156108bb576108ba610a80565b5b81526020018581526020018481526020018381525090505f81908060018154018082558091505060019003905f5260205f2090600802015f909190919091505f820151815f01908161090d9190611283565b506020820151816001015f6101000a81548160ff0219169083600681111561093857610937610a80565b5b021790555060408201518160020190816109529190611283565b5060608201518160030190816109689190611283565b506080820151816004015f6101000a81548160ff0219169083600681111561099357610992610a80565b5b021790555060a08201518160050190816109ad9190611283565b5060c08201518160060190816109c39190611283565b5060e08201518160070190816109d99190611283565b505050505050505050505050565b5f81519050919050565b5f82825260208201905092915050565b5f819050602082019050919050565b5f81519050919050565b5f82825260208201905092915050565b8281835e5f83830152505050565b5f601f19601f8301169050919050565b5f610a5282610a10565b610a5c8185610a1a565b9350610a6c818560208601610a2a565b610a7581610a38565b840191505092915050565b7f4e487b71000000000000000000000000000000000000000000000000000000005f52602160045260245ffd5b60078110610abe57610abd610a80565b5b50565b5f819050610ace82610aad565b919050565b5f610add82610ac1565b9050919050565b610aed81610ad3565b82525050565b5f61010083015f8301518482035f860152610b0e8282610a48565b9150506020830151610b236020860182610ae4565b5060408301518482036040860152610b3b8282610a48565b91505060608301518482036060860152610b558282610a48565b9150506080830151610b6a6080860182610ae4565b5060a083015184820360a0860152610b828282610a48565b91505060c083015184820360c0860152610b9c8282610a48565b91505060e083015184820360e0860152610bb68282610a48565b9150508091505092915050565b5f610bce8383610af3565b905092915050565b5f602082019050919050565b5f610bec826109e7565b610bf681856109f1565b935083602082028501610c0885610a01565b805f5b85811015610c435784840389528151610c248582610bc3565b9450610c2f83610bd6565b925060208a01995050600181019050610c0b565b50829750879550505050505092915050565b5f6020820190508181035f830152610c6d8184610be2565b905092915050565b5f604051905090565b5f80fd5b5f80fd5b5f819050919050565b610c9881610c86565b8114610ca2575f80fd5b50565b5f81359050610cb381610c8f565b92915050565b5f60208284031215610cce57610ccd610c7e565b5b5f610cdb84828501610ca5565b91505092915050565b5f82825260208201905092915050565b5f610cfe82610a10565b610d088185610ce4565b9350610d18818560208601610a2a565b610d2181610a38565b840191505092915050565b610d3581610ad3565b82525050565b5f610100820190508181035f830152610d54818b610cf4565b9050610d63602083018a610d2c565b8181036040830152610d758189610cf4565b90508181036060830152610d898188610cf4565b9050610d986080830187610d2c565b81810360a0830152610daa8186610cf4565b905081810360c0830152610dbe8185610cf4565b905081810360e0830152610dd28184610cf4565b90509998505050505050505050565b5f80fd5b5f80fd5b7f4e487b71000000000000000000000000000000000000000000000000000000005f52604160045260245ffd5b610e1f82610a38565b810181811067ffffffffffffffff82111715610e3e57610e3d610de9565b5b80604052505050565b5f610e50610c75565b9050610e5c8282610e16565b919050565b5f67ffffffffffffffff821115610e7b57610e7a610de9565b5b610e8482610a38565b9050602081019050919050565b828183375f83830152505050565b5f610eb1610eac84610e61565b610e47565b905082815260208101848484011115610ecd57610ecc610de5565b5b610ed8848285610e91565b509392505050565b5f82601f830112610ef457610ef3610de1565b5b8135610f04848260208601610e9f565b91505092915050565b60078110610f19575f80fd5b50565b5f81359050610f2a81610f0d565b92915050565b5f805f805f805f80610100898b031215610f4d57610f4c610c7e565b5b5f89013567ffffffffffffffff811115610f6a57610f69610c82565b5b610f768b828c01610ee0565b9850506020610f878b828c01610f1c565b975050604089013567ffffffffffffffff811115610fa857610fa7610c82565b5b610fb48b828c01610ee0565b965050606089013567ffffffffffffffff811115610fd557610fd4610c82565b5b610fe18b828c01610ee0565b9550506080610ff28b828c01610f1c565b94505060a089013567ffffffffffffffff81111561101357611012610c82565b5b61101f8b828c01610ee0565b93505060c089013567ffffffffffffffff8111156110405761103f610c82565b5b61104c8b828c01610ee0565b92505060e089013567ffffffffffffffff81111561106d5761106c610c82565b5b6110798b828c01610ee0565b9150509295985092959890939650565b7f4e487b71000000000000000000000000000000000000000000000000000000005f52602260045260245ffd5b5f60028204905060018216806110cd57607f821691505b6020821081036110e0576110df611089565b5b50919050565b5f819050815f5260205f209050919050565b5f6020601f8301049050919050565b5f82821b905092915050565b5f600883026111427fffffffffffffffffffffffffffffffffffffffffffffffffffffffffffffffff82611107565b61114c8683611107565b95508019841693508086168417925050509392505050565b5f819050919050565b5f61118761118261117d84610c86565b611164565b610c86565b9050919050565b5f819050919050565b6111a08361116d565b6111b46111ac8261118e565b848454611113565b825550505050565b5f90565b6111c86111bc565b6111d3818484611197565b505050565b5b818110156111f6576111eb5f826111c0565b6001810190506111d9565b5050565b601f82111561123b5761120c816110e6565b611215846110f8565b81016020851015611224578190505b611238611230856110f8565b8301826111d8565b50505b505050565b5f82821c905092915050565b5f61125b5f1984600802611240565b1980831691505092915050565b5f611273838361124c565b9150826002028217905092915050565b61128c82610a10565b67ffffffffffffffff8111156112a5576112a4610de9565b5b6112af82546110b6565b6112ba8282856111fa565b5f60209050601f8311600181146112eb575f84156112d9578287015190505b6112e38582611268565b86555061134a565b601f1984166112f9866110e6565b5f5b82811015611320578489015182556001820191506020850194506020810190506112fb565b8683101561133d5784890151611339601f89168261124c565b8355505b6001600288020188555050505b50505050505056fea264697066735822122093d24e832b2bb69962d419eb6a9902ac65596fcdfacbc0c34d38777f58d3e9d564736f6c634300081a0033",
					"opcodes": "PUSH1 0x80 PUSH1 0x40 MSTORE CALLVALUE DUP1 ISZERO PUSH2 0xF JUMPI PUSH0 DUP1 REVERT JUMPDEST POP PUSH0 PUSH1 0x40 MLOAD DUP1 PUSH2 0x100 ADD PUSH1 0x40 MSTORE DUP1 PUSH1 0x40 MLOAD DUP1 PUSH1 0x40 ADD PUSH1 0x40 MSTORE DUP1 PUSH1 0x3 DUP2 MSTORE PUSH1 0x20 ADD PUSH32 0x6E696B0000000000000000000000000000000000000000000000000000000000 DUP2 MSTORE POP DUP2 MSTORE PUSH1 0x20 ADD PUSH1 0x5 PUSH1 0x6 DUP2 GT ISZERO PUSH2 0x6C JUMPI PUSH2 0x6B PUSH2 0x294 JUMP JUMPDEST JUMPDEST DUP2 MSTORE PUSH1 0x20 ADD PUSH1 0x40 MLOAD DUP1 PUSH1 0x40 ADD PUSH1 0x40 MSTORE DUP1 PUSH1 0x4 DUP2 MSTORE PUSH1 0x20 ADD PUSH32 0x496E697400000000000000000000000000000000000000000000000000000000 DUP2 MSTORE POP DUP2 MSTORE PUSH1 0x20 ADD PUSH1 0x40 MLOAD DUP1 PUSH1 0x20 ADD PUSH1 0x40 MSTORE DUP1 PUSH0 DUP2 MSTORE POP DUP2 MSTORE PUSH1 0x20 ADD PUSH1 0x6 DUP1 DUP2 GT ISZERO PUSH2 0xD3 JUMPI PUSH2 0xD2 PUSH2 0x294 JUMP JUMPDEST JUMPDEST DUP2 MSTORE PUSH1 0x20 ADD PUSH1 0x40 MLOAD DUP1 PUSH1 0x40 ADD PUSH1 0x40 MSTORE DUP1 PUSH1 0x1 DUP2 MSTORE PUSH1 0x20 ADD PUSH32 0x3000000000000000000000000000000000000000000000000000000000000000 DUP2 MSTORE POP DUP2 MSTORE PUSH1 0x20 ADD PUSH1 0x40 MLOAD DUP1 PUSH1 0x40 ADD PUSH1 0x40 MSTORE DUP1 PUSH1 0x1 DUP2 MSTORE PUSH1 0x20 ADD PUSH32 0x3000000000000000000000000000000000000000000000000000000000000000 DUP2 MSTORE POP DUP2 MSTORE PUSH1 0x20 ADD PUSH1 0x40 MLOAD DUP1 PUSH1 0x40 ADD PUSH1 0x40 MSTORE DUP1 PUSH1 0xA DUP2 MSTORE PUSH1 0x20 ADD PUSH32 0x323032352D30322D303600000000000000000000000000000000000000000000 DUP2 MSTORE POP DUP2 MSTORE POP SWAP1 DUP1 PUSH1 0x1 DUP2 SLOAD ADD DUP1 DUP3 SSTORE DUP1 SWAP2 POP POP PUSH1 0x1 SWAP1 SUB SWAP1 PUSH0 MSTORE PUSH1 0x20 PUSH0 KECCAK256 SWAP1 PUSH1 0x8 MUL ADD PUSH0 SWAP1 SWAP2 SWAP1 SWAP2 SWAP1 SWAP2 POP PUSH0 DUP3 ADD MLOAD DUP2 PUSH0 ADD SWAP1 DUP2 PUSH2 0x1C0 SWAP2 SWAP1 PUSH2 0x4FB JUMP JUMPDEST POP PUSH1 0x20 DUP3 ADD MLOAD DUP2 PUSH1 0x1 ADD PUSH0 PUSH2 0x100 EXP DUP2 SLOAD DUP2 PUSH1 0xFF MUL NOT AND SWAP1 DUP4 PUSH1 0x6 DUP2 GT ISZERO PUSH2 0x1EB JUMPI PUSH2 0x1EA PUSH2 0x294 JUMP JUMPDEST JUMPDEST MUL OR SWAP1 SSTORE POP PUSH1 0x40 DUP3 ADD MLOAD DUP2 PUSH1 0x2 ADD SWAP1 DUP2 PUSH2 0x205 SWAP2 SWAP1 PUSH2 0x4FB JUMP JUMPDEST POP PUSH1 0x60 DUP3 ADD MLOAD DUP2 PUSH1 0x3 ADD SWAP1 DUP2 PUSH2 0x21B SWAP2 SWAP1 PUSH2 0x4FB JUMP JUMPDEST POP PUSH1 0x80 DUP3 ADD MLOAD DUP2 PUSH1 0x4 ADD PUSH0 PUSH2 0x100 EXP DUP2 SLOAD DUP2 PUSH1 0xFF MUL NOT AND SWAP1 DUP4 PUSH1 0x6 DUP2 GT ISZERO PUSH2 0x246 JUMPI PUSH2 0x245 PUSH2 0x294 JUMP JUMPDEST JUMPDEST MUL OR SWAP1 SSTORE POP PUSH1 0xA0 DUP3 ADD MLOAD DUP2 PUSH1 0x5 ADD SWAP1 DUP2 PUSH2 0x260 SWAP2 SWAP1 PUSH2 0x4FB JUMP JUMPDEST POP PUSH1 0xC0 DUP3 ADD MLOAD DUP2 PUSH1 0x6 ADD SWAP1 DUP2 PUSH2 0x276 SWAP2 SWAP1 PUSH2 0x4FB JUMP JUMPDEST POP PUSH1 0xE0 DUP3 ADD MLOAD DUP2 PUSH1 0x7 ADD SWAP1 DUP2 PUSH2 0x28C SWAP2 SWAP1 PUSH2 0x4FB JUMP JUMPDEST POP POP POP PUSH2 0x5CA JUMP JUMPDEST PUSH32 0x4E487B7100000000000000000000000000000000000000000000000000000000 PUSH0 MSTORE PUSH1 0x21 PUSH1 0x4 MSTORE PUSH1 0x24 PUSH0 REVERT JUMPDEST PUSH0 DUP2 MLOAD SWAP1 POP SWAP2 SWAP1 POP JUMP JUMPDEST PUSH32 0x4E487B7100000000000000000000000000000000000000000000000000000000 PUSH0 MSTORE PUSH1 0x41 PUSH1 0x4 MSTORE PUSH1 0x24 PUSH0 REVERT JUMPDEST PUSH32 0x4E487B7100000000000000000000000000000000000000000000000000000000 PUSH0 MSTORE PUSH1 0x22 PUSH1 0x4 MSTORE PUSH1 0x24 PUSH0 REVERT JUMPDEST PUSH0 PUSH1 0x2 DUP3 DIV SWAP1 POP PUSH1 0x1 DUP3 AND DUP1 PUSH2 0x33C JUMPI PUSH1 0x7F DUP3 AND SWAP2 POP JUMPDEST PUSH1 0x20 DUP3 LT DUP2 SUB PUSH2 0x34F JUMPI PUSH2 0x34E PUSH2 0x2F8 JUMP JUMPDEST JUMPDEST POP SWAP2 SWAP1 POP JUMP JUMPDEST PUSH0 DUP2 SWAP1 POP DUP2 PUSH0 MSTORE PUSH1 0x20 PUSH0 KECCAK256 SWAP1 POP SWAP2 SWAP1 POP JUMP JUMPDEST PUSH0 PUSH1 0x20 PUSH1 0x1F DUP4 ADD DIV SWAP1 POP SWAP2 SWAP1 POP JUMP JUMPDEST PUSH0 DUP3 DUP3 SHL SWAP1 POP SWAP3 SWAP2 POP POP JUMP JUMPDEST PUSH0 PUSH1 0x8 DUP4 MUL PUSH2 0x3B1 PUSH32 0xFFFFFFFFFFFFFFFFFFFFFFFFFFFFFFFFFFFFFFFFFFFFFFFFFFFFFFFFFFFFFFFF DUP3 PUSH2 0x376 JUMP JUMPDEST PUSH2 0x3BB DUP7 DUP4 PUSH2 0x376 JUMP JUMPDEST SWAP6 POP DUP1 NOT DUP5 AND SWAP4 POP DUP1 DUP7 AND DUP5 OR SWAP3 POP POP POP SWAP4 SWAP3 POP POP POP JUMP JUMPDEST PUSH0 DUP2 SWAP1 POP SWAP2 SWAP1 POP JUMP JUMPDEST PUSH0 DUP2 SWAP1 POP SWAP2 SWAP1 POP JUMP JUMPDEST PUSH0 PUSH2 0x3FF PUSH2 0x3FA PUSH2 0x3F5 DUP5 PUSH2 0x3D3 JUMP JUMPDEST PUSH2 0x3DC JUMP JUMPDEST PUSH2 0x3D3 JUMP JUMPDEST SWAP1 POP SWAP2 SWAP1 POP JUMP JUMPDEST PUSH0 DUP2 SWAP1 POP SWAP2 SWAP1 POP JUMP JUMPDEST PUSH2 0x418 DUP4 PUSH2 0x3E5 JUMP JUMPDEST PUSH2 0x42C PUSH2 0x424 DUP3 PUSH2 0x406 JUMP JUMPDEST DUP5 DUP5 SLOAD PUSH2 0x382 JUMP JUMPDEST DUP3 SSTORE POP POP POP POP JUMP JUMPDEST PUSH0 SWAP1 JUMP JUMPDEST PUSH2 0x440 PUSH2 0x434 JUMP JUMPDEST PUSH2 0x44B DUP2 DUP5 DUP5 PUSH2 0x40F JUMP JUMPDEST POP POP POP JUMP JUMPDEST JUMPDEST DUP2 DUP2 LT ISZERO PUSH2 0x46E JUMPI PUSH2 0x463 PUSH0 DUP3 PUSH2 0x438 JUMP JUMPDEST PUSH1 0x1 DUP2 ADD SWAP1 POP PUSH2 0x451 JUMP JUMPDEST POP POP JUMP JUMPDEST PUSH1 0x1F DUP3 GT ISZERO PUSH2 0x4B3 JUMPI PUSH2 0x484 DUP2 PUSH2 0x355 JUMP JUMPDEST PUSH2 0x48D DUP5 PUSH2 0x367 JUMP JUMPDEST DUP2 ADD PUSH1 0x20 DUP6 LT ISZERO PUSH2 0x49C JUMPI DUP2 SWAP1 POP JUMPDEST PUSH2 0x4B0 PUSH2 0x4A8 DUP6 PUSH2 0x367 JUMP JUMPDEST DUP4 ADD DUP3 PUSH2 0x450 JUMP JUMPDEST POP POP JUMPDEST POP POP POP JUMP JUMPDEST PUSH0 DUP3 DUP3 SHR SWAP1 POP SWAP3 SWAP2 POP POP JUMP JUMPDEST PUSH0 PUSH2 0x4D3 PUSH0 NOT DUP5 PUSH1 0x8 MUL PUSH2 0x4B8 JUMP JUMPDEST NOT DUP1 DUP4 AND SWAP2 POP POP SWAP3 SWAP2 POP POP JUMP JUMPDEST PUSH0 PUSH2 0x4EB DUP4 DUP4 PUSH2 0x4C4 JUMP JUMPDEST SWAP2 POP DUP3 PUSH1 0x2 MUL DUP3 OR SWAP1 POP SWAP3 SWAP2 POP POP JUMP JUMPDEST PUSH2 0x504 DUP3 PUSH2 0x2C1 JUMP JUMPDEST PUSH8 0xFFFFFFFFFFFFFFFF DUP2 GT ISZERO PUSH2 0x51D JUMPI PUSH2 0x51C PUSH2 0x2CB JUMP JUMPDEST JUMPDEST PUSH2 0x527 DUP3 SLOAD PUSH2 0x325 JUMP JUMPDEST PUSH2 0x532 DUP3 DUP3 DUP6 PUSH2 0x472 JUMP JUMPDEST PUSH0 PUSH1 0x20 SWAP1 POP PUSH1 0x1F DUP4 GT PUSH1 0x1 DUP2 EQ PUSH2 0x563 JUMPI PUSH0 DUP5 ISZERO PUSH2 0x551 JUMPI DUP3 DUP8 ADD MLOAD SWAP1 POP JUMPDEST PUSH2 0x55B DUP6 DUP3 PUSH2 0x4E0 JUMP JUMPDEST DUP7 SSTORE POP PUSH2 0x5C2 JUMP JUMPDEST PUSH1 0x1F NOT DUP5 AND PUSH2 0x571 DUP7 PUSH2 0x355 JUMP JUMPDEST PUSH0 JUMPDEST DUP3 DUP2 LT ISZERO PUSH2 0x598 JUMPI DUP5 DUP10 ADD MLOAD DUP3 SSTORE PUSH1 0x1 DUP3 ADD SWAP2 POP PUSH1 0x20 DUP6 ADD SWAP5 POP PUSH1 0x20 DUP2 ADD SWAP1 POP PUSH2 0x573 JUMP JUMPDEST DUP7 DUP4 LT ISZERO PUSH2 0x5B5 JUMPI DUP5 DUP10 ADD MLOAD PUSH2 0x5B1 PUSH1 0x1F DUP10 AND DUP3 PUSH2 0x4C4 JUMP JUMPDEST DUP4 SSTORE POP JUMPDEST PUSH1 0x1 PUSH1 0x2 DUP9 MUL ADD DUP9 SSTORE POP POP POP JUMPDEST POP POP POP POP POP POP JUMP JUMPDEST PUSH2 0x1388 DUP1 PUSH2 0x5D7 PUSH0 CODECOPY PUSH0 RETURN INVALID PUSH1 0x80 PUSH1 0x40 MSTORE CALLVALUE DUP1 ISZERO PUSH2 0xF JUMPI PUSH0 DUP1 REVERT JUMPDEST POP PUSH1 0x4 CALLDATASIZE LT PUSH2 0x3F JUMPI PUSH0 CALLDATALOAD PUSH1 0xE0 SHR DUP1 PUSH4 0x27506F53 EQ PUSH2 0x43 JUMPI DUP1 PUSH4 0x9ACE38C2 EQ PUSH2 0x61 JUMPI DUP1 PUSH4 0xB760D868 EQ PUSH2 0x98 JUMPI JUMPDEST PUSH0 DUP1 REVERT JUMPDEST PUSH2 0x4B PUSH2 0xB4 JUMP JUMPDEST PUSH1 0x40 MLOAD PUSH2 0x58 SWAP2 SWAP1 PUSH2 0xC55 JUMP JUMPDEST PUSH1 0x40 MLOAD DUP1 SWAP2 SUB SWAP1 RETURN JUMPDEST PUSH2 0x7B PUSH1 0x4 DUP1 CALLDATASIZE SUB DUP2 ADD SWAP1 PUSH2 0x76 SWAP2 SWAP1 PUSH2 0xCB9 JUMP JUMPDEST PUSH2 0x4E3 JUMP JUMPDEST PUSH1 0x40 MLOAD PUSH2 0x8F SWAP9 SWAP8 SWAP7 SWAP6 SWAP5 SWAP4 SWAP3 SWAP2 SWAP1 PUSH2 0xD3B JUMP JUMPDEST PUSH1 0x40 MLOAD DUP1 SWAP2 SUB SWAP1 RETURN JUMPDEST PUSH2 0xB2 PUSH1 0x4 DUP1 CALLDATASIZE SUB DUP2 ADD SWAP1 PUSH2 0xAD SWAP2 SWAP1 PUSH2 0xF30 JUMP JUMPDEST PUSH2 0x871 JUMP JUMPDEST STOP JUMPDEST PUSH1 0x60 PUSH0 DUP1 SLOAD DUP1 PUSH1 0x20 MUL PUSH1 0x20 ADD PUSH1 0x40 MLOAD SWAP1 DUP2 ADD PUSH1 0x40 MSTORE DUP1 SWAP3 SWAP2 SWAP1 DUP2 DUP2 MSTORE PUSH1 0x20 ADD PUSH0 SWAP1 JUMPDEST DUP3 DUP3 LT ISZERO PUSH2 0x4DA JUMPI DUP4 DUP3 SWAP1 PUSH0 MSTORE PUSH1 0x20 PUSH0 KECCAK256 SWAP1 PUSH1 0x8 MUL ADD PUSH1 0x40 MLOAD DUP1 PUSH2 0x100 ADD PUSH1 0x40 MSTORE SWAP1 DUP2 PUSH0 DUP3 ADD DUP1 SLOAD PUSH2 0x107 SWAP1 PUSH2 0x10B6 JUMP JUMPDEST DUP1 PUSH1 0x1F ADD PUSH1 0x20 DUP1 SWAP2 DIV MUL PUSH1 0x20 ADD PUSH1 0x40 MLOAD SWAP1 DUP2 ADD PUSH1 0x40 MSTORE DUP1 SWAP3 SWAP2 SWAP1 DUP2 DUP2 MSTORE PUSH1 0x20 ADD DUP3 DUP1 SLOAD PUSH2 0x133 SWAP1 PUSH2 0x10B6 JUMP JUMPDEST DUP1 ISZERO PUSH2 0x17E JUMPI DUP1 PUSH1 0x1F LT PUSH2 0x155 JUMPI PUSH2 0x100 DUP1 DUP4 SLOAD DIV MUL DUP4 MSTORE SWAP2 PUSH1 0x20 ADD SWAP2 PUSH2 0x17E JUMP JUMPDEST DUP3 ADD SWAP2 SWAP1 PUSH0 MSTORE PUSH1 0x20 PUSH0 KECCAK256 SWAP1 JUMPDEST DUP2 SLOAD DUP2 MSTORE SWAP1 PUSH1 0x1 ADD SWAP1 PUSH1 0x20 ADD DUP1 DUP4 GT PUSH2 0x161 JUMPI DUP3 SWAP1 SUB PUSH1 0x1F AND DUP3 ADD SWAP2 JUMPDEST POP POP POP POP POP DUP2 MSTORE PUSH1 0x20 ADD PUSH1 0x1 DUP3 ADD PUSH0 SWAP1 SLOAD SWAP1 PUSH2 0x100 EXP SWAP1 DIV PUSH1 0xFF AND PUSH1 0x6 DUP2 GT ISZERO PUSH2 0x1AB JUMPI PUSH2 0x1AA PUSH2 0xA80 JUMP JUMPDEST JUMPDEST PUSH1 0x6 DUP2 GT ISZERO PUSH2 0x1BD JUMPI PUSH2 0x1BC PUSH2 0xA80 JUMP JUMPDEST JUMPDEST DUP2 MSTORE PUSH1 0x20 ADD PUSH1 0x2 DUP3 ADD DUP1 SLOAD PUSH2 0x1D1 SWAP1 PUSH2 0x10B6 JUMP JUMPDEST DUP1 PUSH1 0x1F ADD PUSH1 0x20 DUP1 SWAP2 DIV MUL PUSH1 0x20 ADD PUSH1 0x40 MLOAD SWAP1 DUP2 ADD PUSH1 0x40 MSTORE DUP1 SWAP3 SWAP2 SWAP1 DUP2 DUP2 MSTORE PUSH1 0x20 ADD DUP3 DUP1 SLOAD PUSH2 0x1FD SWAP1 PUSH2 0x10B6 JUMP JUMPDEST DUP1 ISZERO PUSH2 0x248 JUMPI DUP1 PUSH1 0x1F LT PUSH2 0x21F JUMPI PUSH2 0x100 DUP1 DUP4 SLOAD DIV MUL DUP4 MSTORE SWAP2 PUSH1 0x20 ADD SWAP2 PUSH2 0x248 JUMP JUMPDEST DUP3 ADD SWAP2 SWAP1 PUSH0 MSTORE PUSH1 0x20 PUSH0 KECCAK256 SWAP1 JUMPDEST DUP2 SLOAD DUP2 MSTORE SWAP1 PUSH1 0x1 ADD SWAP1 PUSH1 0x20 ADD DUP1 DUP4 GT PUSH2 0x22B JUMPI DUP3 SWAP1 SUB PUSH1 0x1F AND DUP3 ADD SWAP2 JUMPDEST POP POP POP POP POP DUP2 MSTORE PUSH1 0x20 ADD PUSH1 0x3 DUP3 ADD DUP1 SLOAD PUSH2 0x261 SWAP1 PUSH2 0x10B6 JUMP JUMPDEST DUP1 PUSH1 0x1F ADD PUSH1 0x20 DUP1 SWAP2 DIV MUL PUSH1 0x20 ADD PUSH1 0x40 MLOAD SWAP1 DUP2 ADD PUSH1 0x40 MSTORE DUP1 SWAP3 SWAP2 SWAP1 DUP2 DUP2 MSTORE PUSH1 0x20 ADD DUP3 DUP1 SLOAD PUSH2 0x28D SWAP1 PUSH2 0x10B6 JUMP JUMPDEST DUP1 ISZERO PUSH2 0x2D8 JUMPI DUP1 PUSH1 0x1F LT PUSH2 0x2AF JUMPI PUSH2 0x100 DUP1 DUP4 SLOAD DIV MUL DUP4 MSTORE SWAP2 PUSH1 0x20 ADD SWAP2 PUSH2 0x2D8 JUMP JUMPDEST DUP3 ADD SWAP2 SWAP1 PUSH0 MSTORE PUSH1 0x20 PUSH0 KECCAK256 SWAP1 JUMPDEST DUP2 SLOAD DUP2 MSTORE SWAP1 PUSH1 0x1 ADD SWAP1 PUSH1 0x20 ADD DUP1 DUP4 GT PUSH2 0x2BB JUMPI DUP3 SWAP1 SUB PUSH1 0x1F AND DUP3 ADD SWAP2 JUMPDEST POP POP POP POP POP DUP2 MSTORE PUSH1 0x20 ADD PUSH1 0x4 DUP3 ADD PUSH0 SWAP1 SLOAD SWAP1 PUSH2 0x100 EXP SWAP1 DIV PUSH1 0xFF AND PUSH1 0x6 DUP2 GT ISZERO PUSH2 0x305 JUMPI PUSH2 0x304 PUSH2 0xA80 JUMP JUMPDEST JUMPDEST PUSH1 0x6 DUP2 GT ISZERO PUSH2 0x317 JUMPI PUSH2 0x316 PUSH2 0xA80 JUMP JUMPDEST JUMPDEST DUP2 MSTORE PUSH1 0x20 ADD PUSH1 0x5 DUP3 ADD DUP1 SLOAD PUSH2 0x32B SWAP1 PUSH2 0x10B6 JUMP JUMPDEST DUP1 PUSH1 0x1F ADD PUSH1 0x20 DUP1 SWAP2 DIV MUL PUSH1 0x20 ADD PUSH1 0x40 MLOAD SWAP1 DUP2 ADD PUSH1 0x40 MSTORE DUP1 SWAP3 SWAP2 SWAP1 DUP2 DUP2 MSTORE PUSH1 0x20 ADD DUP3 DUP1 SLOAD PUSH2 0x357 SWAP1 PUSH2 0x10B6 JUMP JUMPDEST DUP1 ISZERO PUSH2 0x3A2 JUMPI DUP1 PUSH1 0x1F LT PUSH2 0x379 JUMPI PUSH2 0x100 DUP1 DUP4 SLOAD DIV MUL DUP4 MSTORE SWAP2 PUSH1 0x20 ADD SWAP2 PUSH2 0x3A2 JUMP JUMPDEST DUP3 ADD SWAP2 SWAP1 PUSH0 MSTORE PUSH1 0x20 PUSH0 KECCAK256 SWAP1 JUMPDEST DUP2 SLOAD DUP2 MSTORE SWAP1 PUSH1 0x1 ADD SWAP1 PUSH1 0x20 ADD DUP1 DUP4 GT PUSH2 0x385 JUMPI DUP3 SWAP1 SUB PUSH1 0x1F AND DUP3 ADD SWAP2 JUMPDEST POP POP POP POP POP DUP2 MSTORE PUSH1 0x20 ADD PUSH1 0x6 DUP3 ADD DUP1 SLOAD PUSH2 0x3BB SWAP1 PUSH2 0x10B6 JUMP JUMPDEST DUP1 PUSH1 0x1F ADD PUSH1 0x20 DUP1 SWAP2 DIV MUL PUSH1 0x20 ADD PUSH1 0x40 MLOAD SWAP1 DUP2 ADD PUSH1 0x40 MSTORE DUP1 SWAP3 SWAP2 SWAP1 DUP2 DUP2 MSTORE PUSH1 0x20 ADD DUP3 DUP1 SLOAD PUSH2 0x3E7 SWAP1 PUSH2 0x10B6 JUMP JUMPDEST DUP1 ISZERO PUSH2 0x432 JUMPI DUP1 PUSH1 0x1F LT PUSH2 0x409 JUMPI PUSH2 0x100 DUP1 DUP4 SLOAD DIV MUL DUP4 MSTORE SWAP2 PUSH1 0x20 ADD SWAP2 PUSH2 0x432 JUMP JUMPDEST DUP3 ADD SWAP2 SWAP1 PUSH0 MSTORE PUSH1 0x20 PUSH0 KECCAK256 SWAP1 JUMPDEST DUP2 SLOAD DUP2 MSTORE SWAP1 PUSH1 0x1 ADD SWAP1 PUSH1 0x20 ADD DUP1 DUP4 GT PUSH2 0x415 JUMPI DUP3 SWAP1 SUB PUSH1 0x1F AND DUP3 ADD SWAP2 JUMPDEST POP POP POP POP POP DUP2 MSTORE PUSH1 0x20 ADD PUSH1 0x7 DUP3 ADD DUP1 SLOAD PUSH2 0x44B SWAP1 PUSH2 0x10B6 JUMP JUMPDEST DUP1 PUSH1 0x1F ADD PUSH1 0x20 DUP1 SWAP2 DIV MUL PUSH1 0x20 ADD PUSH1 0x40 MLOAD SWAP1 DUP2 ADD PUSH1 0x40 MSTORE DUP1 SWAP3 SWAP2 SWAP1 DUP2 DUP2 MSTORE PUSH1 0x20 ADD DUP3 DUP1 SLOAD PUSH2 0x477 SWAP1 PUSH2 0x10B6 JUMP JUMPDEST DUP1 ISZERO PUSH2 0x4C2 JUMPI DUP1 PUSH1 0x1F LT PUSH2 0x499 JUMPI PUSH2 0x100 DUP1 DUP4 SLOAD DIV MUL DUP4 MSTORE SWAP2 PUSH1 0x20 ADD SWAP2 PUSH2 0x4C2 JUMP JUMPDEST DUP3 ADD SWAP2 SWAP1 PUSH0 MSTORE PUSH1 0x20 PUSH0 KECCAK256 SWAP1 JUMPDEST DUP2 SLOAD DUP2 MSTORE SWAP1 PUSH1 0x1 ADD SWAP1 PUSH1 0x20 ADD DUP1 DUP4 GT PUSH2 0x4A5 JUMPI DUP3 SWAP1 SUB PUSH1 0x1F AND DUP3 ADD SWAP2 JUMPDEST POP POP POP POP POP DUP2 MSTORE POP POP DUP2 MSTORE PUSH1 0x20 ADD SWAP1 PUSH1 0x1 ADD SWAP1 PUSH2 0xD6 JUMP JUMPDEST POP POP POP POP SWAP1 POP SWAP1 JUMP JUMPDEST PUSH0 DUP2 DUP2 SLOAD DUP2 LT PUSH2 0x4F1 JUMPI PUSH0 DUP1 REVERT JUMPDEST SWAP1 PUSH0 MSTORE PUSH1 0x20 PUSH0 KECCAK256 SWAP1 PUSH1 0x8 MUL ADD PUSH0 SWAP2 POP SWAP1 POP DUP1 PUSH0 ADD DUP1 SLOAD PUSH2 0x510 SWAP1 PUSH2 0x10B6 JUMP JUMPDEST DUP1 PUSH1 0x1F ADD PUSH1 0x20 DUP1 SWAP2 DIV MUL PUSH1 0x20 ADD PUSH1 0x40 MLOAD SWAP1 DUP2 ADD PUSH1 0x40 MSTORE DUP1 SWAP3 SWAP2 SWAP1 DUP2 DUP2 MSTORE PUSH1 0x20 ADD DUP3 DUP1 SLOAD PUSH2 0x53C SWAP1 PUSH2 0x10B6 JUMP JUMPDEST DUP1 ISZERO PUSH2 0x587 JUMPI DUP1 PUSH1 0x1F LT PUSH2 0x55E JUMPI PUSH2 0x100 DUP1 DUP4 SLOAD DIV MUL DUP4 MSTORE SWAP2 PUSH1 0x20 ADD SWAP2 PUSH2 0x587 JUMP JUMPDEST DUP3 ADD SWAP2 SWAP1 PUSH0 MSTORE PUSH1 0x20 PUSH0 KECCAK256 SWAP1 JUMPDEST DUP2 SLOAD DUP2 MSTORE SWAP1 PUSH1 0x1 ADD SWAP1 PUSH1 0x20 ADD DUP1 DUP4 GT PUSH2 0x56A JUMPI DUP3 SWAP1 SUB PUSH1 0x1F AND DUP3 ADD SWAP2 JUMPDEST POP POP POP POP POP SWAP1 DUP1 PUSH1 0x1 ADD PUSH0 SWAP1 SLOAD SWAP1 PUSH2 0x100 EXP SWAP1 DIV PUSH1 0xFF AND SWAP1 DUP1 PUSH1 0x2 ADD DUP1 SLOAD PUSH2 0x5AE SWAP1 PUSH2 0x10B6 JUMP JUMPDEST DUP1 PUSH1 0x1F ADD PUSH1 0x20 DUP1 SWAP2 DIV MUL PUSH1 0x20 ADD PUSH1 0x40 MLOAD SWAP1 DUP2 ADD PUSH1 0x40 MSTORE DUP1 SWAP3 SWAP2 SWAP1 DUP2 DUP2 MSTORE PUSH1 0x20 ADD DUP3 DUP1 SLOAD PUSH2 0x5DA SWAP1 PUSH2 0x10B6 JUMP JUMPDEST DUP1 ISZERO PUSH2 0x625 JUMPI DUP1 PUSH1 0x1F LT PUSH2 0x5FC JUMPI PUSH2 0x100 DUP1 DUP4 SLOAD DIV MUL DUP4 MSTORE SWAP2 PUSH1 0x20 ADD SWAP2 PUSH2 0x625 JUMP JUMPDEST DUP3 ADD SWAP2 SWAP1 PUSH0 MSTORE PUSH1 0x20 PUSH0 KECCAK256 SWAP1 JUMPDEST DUP2 SLOAD DUP2 MSTORE SWAP1 PUSH1 0x1 ADD SWAP1 PUSH1 0x20 ADD DUP1 DUP4 GT PUSH2 0x608 JUMPI DUP3 SWAP1 SUB PUSH1 0x1F AND DUP3 ADD SWAP2 JUMPDEST POP POP POP POP POP SWAP1 DUP1 PUSH1 0x3 ADD DUP1 SLOAD PUSH2 0x63A SWAP1 PUSH2 0x10B6 JUMP JUMPDEST DUP1 PUSH1 0x1F ADD PUSH1 0x20 DUP1 SWAP2 DIV MUL PUSH1 0x20 ADD PUSH1 0x40 MLOAD SWAP1 DUP2 ADD PUSH1 0x40 MSTORE DUP1 SWAP3 SWAP2 SWAP1 DUP2 DUP2 MSTORE PUSH1 0x20 ADD DUP3 DUP1 SLOAD PUSH2 0x666 SWAP1 PUSH2 0x10B6 JUMP JUMPDEST DUP1 ISZERO PUSH2 0x6B1 JUMPI DUP1 PUSH1 0x1F LT PUSH2 0x688 JUMPI PUSH2 0x100 DUP1 DUP4 SLOAD DIV MUL DUP4 MSTORE SWAP2 PUSH1 0x20 ADD SWAP2 PUSH2 0x6B1 JUMP JUMPDEST DUP3 ADD SWAP2 SWAP1 PUSH0 MSTORE PUSH1 0x20 PUSH0 KECCAK256 SWAP1 JUMPDEST DUP2 SLOAD DUP2 MSTORE SWAP1 PUSH1 0x1 ADD SWAP1 PUSH1 0x20 ADD DUP1 DUP4 GT PUSH2 0x694 JUMPI DUP3 SWAP1 SUB PUSH1 0x1F AND DUP3 ADD SWAP2 JUMPDEST POP POP POP POP POP SWAP1 DUP1 PUSH1 0x4 ADD PUSH0 SWAP1 SLOAD SWAP1 PUSH2 0x100 EXP SWAP1 DIV PUSH1 0xFF AND SWAP1 DUP1 PUSH1 0x5 ADD DUP1 SLOAD PUSH2 0x6D8 SWAP1 PUSH2 0x10B6 JUMP JUMPDEST DUP1 PUSH1 0x1F ADD PUSH1 0x20 DUP1 SWAP2 DIV MUL PUSH1 0x20 ADD PUSH1 0x40 MLOAD SWAP1 DUP2 ADD PUSH1 0x40 MSTORE DUP1 SWAP3 SWAP2 SWAP1 DUP2 DUP2 MSTORE PUSH1 0x20 ADD DUP3 DUP1 SLOAD PUSH2 0x704 SWAP1 PUSH2 0x10B6 JUMP JUMPDEST DUP1 ISZERO PUSH2 0x74F JUMPI DUP1 PUSH1 0x1F LT PUSH2 0x726 JUMPI PUSH2 0x100 DUP1 DUP4 SLOAD DIV MUL DUP4 MSTORE SWAP2 PUSH1 0x20 ADD SWAP2 PUSH2 0x74F JUMP JUMPDEST DUP3 ADD SWAP2 SWAP1 PUSH0 MSTORE PUSH1 0x20 PUSH0 KECCAK256 SWAP1 JUMPDEST DUP2 SLOAD DUP2 MSTORE SWAP1 PUSH1 0x1 ADD SWAP1 PUSH1 0x20 ADD DUP1 DUP4 GT PUSH2 0x732 JUMPI DUP3 SWAP1 SUB PUSH1 0x1F AND DUP3 ADD SWAP2 JUMPDEST POP POP POP POP POP SWAP1 DUP1 PUSH1 0x6 ADD DUP1 SLOAD PUSH2 0x764 SWAP1 PUSH2 0x10B6 JUMP JUMPDEST DUP1 PUSH1 0x1F ADD PUSH1 0x20 DUP1 SWAP2 DIV MUL PUSH1 0x20 ADD PUSH1 0x40 MLOAD SWAP1 DUP2 ADD PUSH1 0x40 MSTORE DUP1 SWAP3 SWAP2 SWAP1 DUP2 DUP2 MSTORE PUSH1 0x20 ADD DUP3 DUP1 SLOAD PUSH2 0x790 SWAP1 PUSH2 0x10B6 JUMP JUMPDEST DUP1 ISZERO PUSH2 0x7DB JUMPI DUP1 PUSH1 0x1F LT PUSH2 0x7B2 JUMPI PUSH2 0x100 DUP1 DUP4 SLOAD DIV MUL DUP4 MSTORE SWAP2 PUSH1 0x20 ADD SWAP2 PUSH2 0x7DB JUMP JUMPDEST DUP3 ADD SWAP2 SWAP1 PUSH0 MSTORE PUSH1 0x20 PUSH0 KECCAK256 SWAP1 JUMPDEST DUP2 SLOAD DUP2 MSTORE SWAP1 PUSH1 0x1 ADD SWAP1 PUSH1 0x20 ADD DUP1 DUP4 GT PUSH2 0x7BE JUMPI DUP3 SWAP1 SUB PUSH1 0x1F AND DUP3 ADD SWAP2 JUMPDEST POP POP POP POP POP SWAP1 DUP1 PUSH1 0x7 ADD DUP1 SLOAD PUSH2 0x7F0 SWAP1 PUSH2 0x10B6 JUMP JUMPDEST DUP1 PUSH1 0x1F ADD PUSH1 0x20 DUP1 SWAP2 DIV MUL PUSH1 0x20 ADD PUSH1 0x40 MLOAD SWAP1 DUP2 ADD PUSH1 0x40 MSTORE DUP1 SWAP3 SWAP2 SWAP1 DUP2 DUP2 MSTORE PUSH1 0x20 ADD DUP3 DUP1 SLOAD PUSH2 0x81C SWAP1 PUSH2 0x10B6 JUMP JUMPDEST DUP1 ISZERO PUSH2 0x867 JUMPI DUP1 PUSH1 0x1F LT PUSH2 0x83E JUMPI PUSH2 0x100 DUP1 DUP4 SLOAD DIV MUL DUP4 MSTORE SWAP2 PUSH1 0x20 ADD SWAP2 PUSH2 0x867 JUMP JUMPDEST DUP3 ADD SWAP2 SWAP1 PUSH0 MSTORE PUSH1 0x20 PUSH0 KECCAK256 SWAP1 JUMPDEST DUP2 SLOAD DUP2 MSTORE SWAP1 PUSH1 0x1 ADD SWAP1 PUSH1 0x20 ADD DUP1 DUP4 GT PUSH2 0x84A JUMPI DUP3 SWAP1 SUB PUSH1 0x1F AND DUP3 ADD SWAP2 JUMPDEST POP POP POP POP POP SWAP1 POP DUP9 JUMP JUMPDEST PUSH0 PUSH1 0x40 MLOAD DUP1 PUSH2 0x100 ADD PUSH1 0x40 MSTORE DUP1 DUP11 DUP2 MSTORE PUSH1 0x20 ADD DUP10 PUSH1 0x6 DUP2 GT ISZERO PUSH2 0x897 JUMPI PUSH2 0x896 PUSH2 0xA80 JUMP JUMPDEST JUMPDEST DUP2 MSTORE PUSH1 0x20 ADD DUP9 DUP2 MSTORE PUSH1 0x20 ADD DUP8 DUP2 MSTORE PUSH1 0x20 ADD DUP7 PUSH1 0x6 DUP2 GT ISZERO PUSH2 0x8BB JUMPI PUSH2 0x8BA PUSH2 0xA80 JUMP JUMPDEST JUMPDEST DUP2 MSTORE PUSH1 0x20 ADD DUP6 DUP2 MSTORE PUSH1 0x20 ADD DUP5 DUP2 MSTORE PUSH1 0x20 ADD DUP4 DUP2 MSTORE POP SWAP1 POP PUSH0 DUP2 SWAP1 DUP1 PUSH1 0x1 DUP2 SLOAD ADD DUP1 DUP3 SSTORE DUP1 SWAP2 POP POP PUSH1 0x1 SWAP1 SUB SWAP1 PUSH0 MSTORE PUSH1 0x20 PUSH0 KECCAK256 SWAP1 PUSH1 0x8 MUL ADD PUSH0 SWAP1 SWAP2 SWAP1 SWAP2 SWAP1 SWAP2 POP PUSH0 DUP3 ADD MLOAD DUP2 PUSH0 ADD SWAP1 DUP2 PUSH2 0x90D SWAP2 SWAP1 PUSH2 0x1283 JUMP JUMPDEST POP PUSH1 0x20 DUP3 ADD MLOAD DUP2 PUSH1 0x1 ADD PUSH0 PUSH2 0x100 EXP DUP2 SLOAD DUP2 PUSH1 0xFF MUL NOT AND SWAP1 DUP4 PUSH1 0x6 DUP2 GT ISZERO PUSH2 0x938 JUMPI PUSH2 0x937 PUSH2 0xA80 JUMP JUMPDEST JUMPDEST MUL OR SWAP1 SSTORE POP PUSH1 0x40 DUP3 ADD MLOAD DUP2 PUSH1 0x2 ADD SWAP1 DUP2 PUSH2 0x952 SWAP2 SWAP1 PUSH2 0x1283 JUMP JUMPDEST POP PUSH1 0x60 DUP3 ADD MLOAD DUP2 PUSH1 0x3 ADD SWAP1 DUP2 PUSH2 0x968 SWAP2 SWAP1 PUSH2 0x1283 JUMP JUMPDEST POP PUSH1 0x80 DUP3 ADD MLOAD DUP2 PUSH1 0x4 ADD PUSH0 PUSH2 0x100 EXP DUP2 SLOAD DUP2 PUSH1 0xFF MUL NOT AND SWAP1 DUP4 PUSH1 0x6 DUP2 GT ISZERO PUSH2 0x993 JUMPI PUSH2 0x992 PUSH2 0xA80 JUMP JUMPDEST JUMPDEST MUL OR SWAP1 SSTORE POP PUSH1 0xA0 DUP3 ADD MLOAD DUP2 PUSH1 0x5 ADD SWAP1 DUP2 PUSH2 0x9AD SWAP2 SWAP1 PUSH2 0x1283 JUMP JUMPDEST POP PUSH1 0xC0 DUP3 ADD MLOAD DUP2 PUSH1 0x6 ADD SWAP1 DUP2 PUSH2 0x9C3 SWAP2 SWAP1 PUSH2 0x1283 JUMP JUMPDEST POP PUSH1 0xE0 DUP3 ADD MLOAD DUP2 PUSH1 0x7 ADD SWAP1 DUP2 PUSH2 0x9D9 SWAP2 SWAP1 PUSH2 0x1283 JUMP JUMPDEST POP POP POP POP POP POP POP POP POP POP POP POP JUMP JUMPDEST PUSH0 DUP2 MLOAD SWAP1 POP SWAP2 SWAP1 POP JUMP JUMPDEST PUSH0 DUP3 DUP3 MSTORE PUSH1 0x20 DUP3 ADD SWAP1 POP SWAP3 SWAP2 POP POP JUMP JUMPDEST PUSH0 DUP2 SWAP1 POP PUSH1 0x20 DUP3 ADD SWAP1 POP SWAP2 SWAP1 POP JUMP JUMPDEST PUSH0 DUP2 MLOAD SWAP1 POP SWAP2 SWAP1 POP JUMP JUMPDEST PUSH0 DUP3 DUP3 MSTORE PUSH1 0x20 DUP3 ADD SWAP1 POP SWAP3 SWAP2 POP POP JUMP JUMPDEST DUP3 DUP2 DUP4 MCOPY PUSH0 DUP4 DUP4 ADD MSTORE POP POP POP JUMP JUMPDEST PUSH0 PUSH1 0x1F NOT PUSH1 0x1F DUP4 ADD AND SWAP1 POP SWAP2 SWAP1 POP JUMP JUMPDEST PUSH0 PUSH2 0xA52 DUP3 PUSH2 0xA10 JUMP JUMPDEST PUSH2 0xA5C DUP2 DUP6 PUSH2 0xA1A JUMP JUMPDEST SWAP4 POP PUSH2 0xA6C DUP2 DUP6 PUSH1 0x20 DUP7 ADD PUSH2 0xA2A JUMP JUMPDEST PUSH2 0xA75 DUP2 PUSH2 0xA38 JUMP JUMPDEST DUP5 ADD SWAP2 POP POP SWAP3 SWAP2 POP POP JUMP JUMPDEST PUSH32 0x4E487B7100000000000000000000000000000000000000000000000000000000 PUSH0 MSTORE PUSH1 0x21 PUSH1 0x4 MSTORE PUSH1 0x24 PUSH0 REVERT JUMPDEST PUSH1 0x7 DUP2 LT PUSH2 0xABE JUMPI PUSH2 0xABD PUSH2 0xA80 JUMP JUMPDEST JUMPDEST POP JUMP JUMPDEST PUSH0 DUP2 SWAP1 POP PUSH2 0xACE DUP3 PUSH2 0xAAD JUMP JUMPDEST SWAP2 SWAP1 POP JUMP JUMPDEST PUSH0 PUSH2 0xADD DUP3 PUSH2 0xAC1 JUMP JUMPDEST SWAP1 POP SWAP2 SWAP1 POP JUMP JUMPDEST PUSH2 0xAED DUP2 PUSH2 0xAD3 JUMP JUMPDEST DUP3 MSTORE POP POP JUMP JUMPDEST PUSH0 PUSH2 0x100 DUP4 ADD PUSH0 DUP4 ADD MLOAD DUP5 DUP3 SUB PUSH0 DUP7 ADD MSTORE PUSH2 0xB0E DUP3 DUP3 PUSH2 0xA48 JUMP JUMPDEST SWAP2 POP POP PUSH1 0x20 DUP4 ADD MLOAD PUSH2 0xB23 PUSH1 0x20 DUP7 ADD DUP3 PUSH2 0xAE4 JUMP JUMPDEST POP PUSH1 0x40 DUP4 ADD MLOAD DUP5 DUP3 SUB PUSH1 0x40 DUP7 ADD MSTORE PUSH2 0xB3B DUP3 DUP3 PUSH2 0xA48 JUMP JUMPDEST SWAP2 POP POP PUSH1 0x60 DUP4 ADD MLOAD DUP5 DUP3 SUB PUSH1 0x60 DUP7 ADD MSTORE PUSH2 0xB55 DUP3 DUP3 PUSH2 0xA48 JUMP JUMPDEST SWAP2 POP POP PUSH1 0x80 DUP4 ADD MLOAD PUSH2 0xB6A PUSH1 0x80 DUP7 ADD DUP3 PUSH2 0xAE4 JUMP JUMPDEST POP PUSH1 0xA0 DUP4 ADD MLOAD DUP5 DUP3 SUB PUSH1 0xA0 DUP7 ADD MSTORE PUSH2 0xB82 DUP3 DUP3 PUSH2 0xA48 JUMP JUMPDEST SWAP2 POP POP PUSH1 0xC0 DUP4 ADD MLOAD DUP5 DUP3 SUB PUSH1 0xC0 DUP7 ADD MSTORE PUSH2 0xB9C DUP3 DUP3 PUSH2 0xA48 JUMP JUMPDEST SWAP2 POP POP PUSH1 0xE0 DUP4 ADD MLOAD DUP5 DUP3 SUB PUSH1 0xE0 DUP7 ADD MSTORE PUSH2 0xBB6 DUP3 DUP3 PUSH2 0xA48 JUMP JUMPDEST SWAP2 POP POP DUP1 SWAP2 POP POP SWAP3 SWAP2 POP POP JUMP JUMPDEST PUSH0 PUSH2 0xBCE DUP4 DUP4 PUSH2 0xAF3 JUMP JUMPDEST SWAP1 POP SWAP3 SWAP2 POP POP JUMP JUMPDEST PUSH0 PUSH1 0x20 DUP3 ADD SWAP1 POP SWAP2 SWAP1 POP JUMP JUMPDEST PUSH0 PUSH2 0xBEC DUP3 PUSH2 0x9E7 JUMP JUMPDEST PUSH2 0xBF6 DUP2 DUP6 PUSH2 0x9F1 JUMP JUMPDEST SWAP4 POP DUP4 PUSH1 0x20 DUP3 MUL DUP6 ADD PUSH2 0xC08 DUP6 PUSH2 0xA01 JUMP JUMPDEST DUP1 PUSH0 JUMPDEST DUP6 DUP2 LT ISZERO PUSH2 0xC43 JUMPI DUP5 DUP5 SUB DUP10 MSTORE DUP2 MLOAD PUSH2 0xC24 DUP6 DUP3 PUSH2 0xBC3 JUMP JUMPDEST SWAP5 POP PUSH2 0xC2F DUP4 PUSH2 0xBD6 JUMP JUMPDEST SWAP3 POP PUSH1 0x20 DUP11 ADD SWAP10 POP POP PUSH1 0x1 DUP2 ADD SWAP1 POP PUSH2 0xC0B JUMP JUMPDEST POP DUP3 SWAP8 POP DUP8 SWAP6 POP POP POP POP POP POP SWAP3 SWAP2 POP POP JUMP JUMPDEST PUSH0 PUSH1 0x20 DUP3 ADD SWAP1 POP DUP2 DUP2 SUB PUSH0 DUP4 ADD MSTORE PUSH2 0xC6D DUP2 DUP5 PUSH2 0xBE2 JUMP JUMPDEST SWAP1 POP SWAP3 SWAP2 POP POP JUMP JUMPDEST PUSH0 PUSH1 0x40 MLOAD SWAP1 POP SWAP1 JUMP JUMPDEST PUSH0 DUP1 REVERT JUMPDEST PUSH0 DUP1 REVERT JUMPDEST PUSH0 DUP2 SWAP1 POP SWAP2 SWAP1 POP JUMP JUMPDEST PUSH2 0xC98 DUP2 PUSH2 0xC86 JUMP JUMPDEST DUP2 EQ PUSH2 0xCA2 JUMPI PUSH0 DUP1 REVERT JUMPDEST POP JUMP JUMPDEST PUSH0 DUP2 CALLDATALOAD SWAP1 POP PUSH2 0xCB3 DUP2 PUSH2 0xC8F JUMP JUMPDEST SWAP3 SWAP2 POP POP JUMP JUMPDEST PUSH0 PUSH1 0x20 DUP3 DUP5 SUB SLT ISZERO PUSH2 0xCCE JUMPI PUSH2 0xCCD PUSH2 0xC7E JUMP JUMPDEST JUMPDEST PUSH0 PUSH2 0xCDB DUP5 DUP3 DUP6 ADD PUSH2 0xCA5 JUMP JUMPDEST SWAP2 POP POP SWAP3 SWAP2 POP POP JUMP JUMPDEST PUSH0 DUP3 DUP3 MSTORE PUSH1 0x20 DUP3 ADD SWAP1 POP SWAP3 SWAP2 POP POP JUMP JUMPDEST PUSH0 PUSH2 0xCFE DUP3 PUSH2 0xA10 JUMP JUMPDEST PUSH2 0xD08 DUP2 DUP6 PUSH2 0xCE4 JUMP JUMPDEST SWAP4 POP PUSH2 0xD18 DUP2 DUP6 PUSH1 0x20 DUP7 ADD PUSH2 0xA2A JUMP JUMPDEST PUSH2 0xD21 DUP2 PUSH2 0xA38 JUMP JUMPDEST DUP5 ADD SWAP2 POP POP SWAP3 SWAP2 POP POP JUMP JUMPDEST PUSH2 0xD35 DUP2 PUSH2 0xAD3 JUMP JUMPDEST DUP3 MSTORE POP POP JUMP JUMPDEST PUSH0 PUSH2 0x100 DUP3 ADD SWAP1 POP DUP2 DUP2 SUB PUSH0 DUP4 ADD MSTORE PUSH2 0xD54 DUP2 DUP12 PUSH2 0xCF4 JUMP JUMPDEST SWAP1 POP PUSH2 0xD63 PUSH1 0x20 DUP4 ADD DUP11 PUSH2 0xD2C JUMP JUMPDEST DUP2 DUP2 SUB PUSH1 0x40 DUP4 ADD MSTORE PUSH2 0xD75 DUP2 DUP10 PUSH2 0xCF4 JUMP JUMPDEST SWAP1 POP DUP2 DUP2 SUB PUSH1 0x60 DUP4 ADD MSTORE PUSH2 0xD89 DUP2 DUP9 PUSH2 0xCF4 JUMP JUMPDEST SWAP1 POP PUSH2 0xD98 PUSH1 0x80 DUP4 ADD DUP8 PUSH2 0xD2C JUMP JUMPDEST DUP2 DUP2 SUB PUSH1 0xA0 DUP4 ADD MSTORE PUSH2 0xDAA DUP2 DUP7 PUSH2 0xCF4 JUMP JUMPDEST SWAP1 POP DUP2 DUP2 SUB PUSH1 0xC0 DUP4 ADD MSTORE PUSH2 0xDBE DUP2 DUP6 PUSH2 0xCF4 JUMP JUMPDEST SWAP1 POP DUP2 DUP2 SUB PUSH1 0xE0 DUP4 ADD MSTORE PUSH2 0xDD2 DUP2 DUP5 PUSH2 0xCF4 JUMP JUMPDEST SWAP1 POP SWAP10 SWAP9 POP POP POP POP POP POP POP POP POP JUMP JUMPDEST PUSH0 DUP1 REVERT JUMPDEST PUSH0 DUP1 REVERT JUMPDEST PUSH32 0x4E487B7100000000000000000000000000000000000000000000000000000000 PUSH0 MSTORE PUSH1 0x41 PUSH1 0x4 MSTORE PUSH1 0x24 PUSH0 REVERT JUMPDEST PUSH2 0xE1F DUP3 PUSH2 0xA38 JUMP JUMPDEST DUP2 ADD DUP2 DUP2 LT PUSH8 0xFFFFFFFFFFFFFFFF DUP3 GT OR ISZERO PUSH2 0xE3E JUMPI PUSH2 0xE3D PUSH2 0xDE9 JUMP JUMPDEST JUMPDEST DUP1 PUSH1 0x40 MSTORE POP POP POP JUMP JUMPDEST PUSH0 PUSH2 0xE50 PUSH2 0xC75 JUMP JUMPDEST SWAP1 POP PUSH2 0xE5C DUP3 DUP3 PUSH2 0xE16 JUMP JUMPDEST SWAP2 SWAP1 POP JUMP JUMPDEST PUSH0 PUSH8 0xFFFFFFFFFFFFFFFF DUP3 GT ISZERO PUSH2 0xE7B JUMPI PUSH2 0xE7A PUSH2 0xDE9 JUMP JUMPDEST JUMPDEST PUSH2 0xE84 DUP3 PUSH2 0xA38 JUMP JUMPDEST SWAP1 POP PUSH1 0x20 DUP2 ADD SWAP1 POP SWAP2 SWAP1 POP JUMP JUMPDEST DUP3 DUP2 DUP4 CALLDATACOPY PUSH0 DUP4 DUP4 ADD MSTORE POP POP POP JUMP JUMPDEST PUSH0 PUSH2 0xEB1 PUSH2 0xEAC DUP5 PUSH2 0xE61 JUMP JUMPDEST PUSH2 0xE47 JUMP JUMPDEST SWAP1 POP DUP3 DUP2 MSTORE PUSH1 0x20 DUP2 ADD DUP5 DUP5 DUP5 ADD GT ISZERO PUSH2 0xECD JUMPI PUSH2 0xECC PUSH2 0xDE5 JUMP JUMPDEST JUMPDEST PUSH2 0xED8 DUP5 DUP3 DUP6 PUSH2 0xE91 JUMP JUMPDEST POP SWAP4 SWAP3 POP POP POP JUMP JUMPDEST PUSH0 DUP3 PUSH1 0x1F DUP4 ADD SLT PUSH2 0xEF4 JUMPI PUSH2 0xEF3 PUSH2 0xDE1 JUMP JUMPDEST JUMPDEST DUP2 CALLDATALOAD PUSH2 0xF04 DUP5 DUP3 PUSH1 0x20 DUP7 ADD PUSH2 0xE9F JUMP JUMPDEST SWAP2 POP POP SWAP3 SWAP2 POP POP JUMP JUMPDEST PUSH1 0x7 DUP2 LT PUSH2 0xF19 JUMPI PUSH0 DUP1 REVERT JUMPDEST POP JUMP JUMPDEST PUSH0 DUP2 CALLDATALOAD SWAP1 POP PUSH2 0xF2A DUP2 PUSH2 0xF0D JUMP JUMPDEST SWAP3 SWAP2 POP POP JUMP JUMPDEST PUSH0 DUP1 PUSH0 DUP1 PUSH0 DUP1 PUSH0 DUP1 PUSH2 0x100 DUP10 DUP12 SUB SLT ISZERO PUSH2 0xF4D JUMPI PUSH2 0xF4C PUSH2 0xC7E JUMP JUMPDEST JUMPDEST PUSH0 DUP10 ADD CALLDATALOAD PUSH8 0xFFFFFFFFFFFFFFFF DUP2 GT ISZERO PUSH2 0xF6A JUMPI PUSH2 0xF69 PUSH2 0xC82 JUMP JUMPDEST JUMPDEST PUSH2 0xF76 DUP12 DUP3 DUP13 ADD PUSH2 0xEE0 JUMP JUMPDEST SWAP9 POP POP PUSH1 0x20 PUSH2 0xF87 DUP12 DUP3 DUP13 ADD PUSH2 0xF1C JUMP JUMPDEST SWAP8 POP POP PUSH1 0x40 DUP10 ADD CALLDATALOAD PUSH8 0xFFFFFFFFFFFFFFFF DUP2 GT ISZERO PUSH2 0xFA8 JUMPI PUSH2 0xFA7 PUSH2 0xC82 JUMP JUMPDEST JUMPDEST PUSH2 0xFB4 DUP12 DUP3 DUP13 ADD PUSH2 0xEE0 JUMP JUMPDEST SWAP7 POP POP PUSH1 0x60 DUP10 ADD CALLDATALOAD PUSH8 0xFFFFFFFFFFFFFFFF DUP2 GT ISZERO PUSH2 0xFD5 JUMPI PUSH2 0xFD4 PUSH2 0xC82 JUMP JUMPDEST JUMPDEST PUSH2 0xFE1 DUP12 DUP3 DUP13 ADD PUSH2 0xEE0 JUMP JUMPDEST SWAP6 POP POP PUSH1 0x80 PUSH2 0xFF2 DUP12 DUP3 DUP13 ADD PUSH2 0xF1C JUMP JUMPDEST SWAP5 POP POP PUSH1 0xA0 DUP10 ADD CALLDATALOAD PUSH8 0xFFFFFFFFFFFFFFFF DUP2 GT ISZERO PUSH2 0x1013 JUMPI PUSH2 0x1012 PUSH2 0xC82 JUMP JUMPDEST JUMPDEST PUSH2 0x101F DUP12 DUP3 DUP13 ADD PUSH2 0xEE0 JUMP JUMPDEST SWAP4 POP POP PUSH1 0xC0 DUP10 ADD CALLDATALOAD PUSH8 0xFFFFFFFFFFFFFFFF DUP2 GT ISZERO PUSH2 0x1040 JUMPI PUSH2 0x103F PUSH2 0xC82 JUMP JUMPDEST JUMPDEST PUSH2 0x104C DUP12 DUP3 DUP13 ADD PUSH2 0xEE0 JUMP JUMPDEST SWAP3 POP POP PUSH1 0xE0 DUP10 ADD CALLDATALOAD PUSH8 0xFFFFFFFFFFFFFFFF DUP2 GT ISZERO PUSH2 0x106D JUMPI PUSH2 0x106C PUSH2 0xC82 JUMP JUMPDEST JUMPDEST PUSH2 0x1079 DUP12 DUP3 DUP13 ADD PUSH2 0xEE0 JUMP JUMPDEST SWAP2 POP POP SWAP3 SWAP6 SWAP9 POP SWAP3 SWAP6 SWAP9 SWAP1 SWAP4 SWAP7 POP JUMP JUMPDEST PUSH32 0x4E487B7100000000000000000000000000000000000000000000000000000000 PUSH0 MSTORE PUSH1 0x22 PUSH1 0x4 MSTORE PUSH1 0x24 PUSH0 REVERT JUMPDEST PUSH0 PUSH1 0x2 DUP3 DIV SWAP1 POP PUSH1 0x1 DUP3 AND DUP1 PUSH2 0x10CD JUMPI PUSH1 0x7F DUP3 AND SWAP2 POP JUMPDEST PUSH1 0x20 DUP3 LT DUP2 SUB PUSH2 0x10E0 JUMPI PUSH2 0x10DF PUSH2 0x1089 JUMP JUMPDEST JUMPDEST POP SWAP2 SWAP1 POP JUMP JUMPDEST PUSH0 DUP2 SWAP1 POP DUP2 PUSH0 MSTORE PUSH1 0x20 PUSH0 KECCAK256 SWAP1 POP SWAP2 SWAP1 POP JUMP JUMPDEST PUSH0 PUSH1 0x20 PUSH1 0x1F DUP4 ADD DIV SWAP1 POP SWAP2 SWAP1 POP JUMP JUMPDEST PUSH0 DUP3 DUP3 SHL SWAP1 POP SWAP3 SWAP2 POP POP JUMP JUMPDEST PUSH0 PUSH1 0x8 DUP4 MUL PUSH2 0x1142 PUSH32 0xFFFFFFFFFFFFFFFFFFFFFFFFFFFFFFFFFFFFFFFFFFFFFFFFFFFFFFFFFFFFFFFF DUP3 PUSH2 0x1107 JUMP JUMPDEST PUSH2 0x114C DUP7 DUP4 PUSH2 0x1107 JUMP JUMPDEST SWAP6 POP DUP1 NOT DUP5 AND SWAP4 POP DUP1 DUP7 AND DUP5 OR SWAP3 POP POP POP SWAP4 SWAP3 POP POP POP JUMP JUMPDEST PUSH0 DUP2 SWAP1 POP SWAP2 SWAP1 POP JUMP JUMPDEST PUSH0 PUSH2 0x1187 PUSH2 0x1182 PUSH2 0x117D DUP5 PUSH2 0xC86 JUMP JUMPDEST PUSH2 0x1164 JUMP JUMPDEST PUSH2 0xC86 JUMP JUMPDEST SWAP1 POP SWAP2 SWAP1 POP JUMP JUMPDEST PUSH0 DUP2 SWAP1 POP SWAP2 SWAP1 POP JUMP JUMPDEST PUSH2 0x11A0 DUP4 PUSH2 0x116D JUMP JUMPDEST PUSH2 0x11B4 PUSH2 0x11AC DUP3 PUSH2 0x118E JUMP JUMPDEST DUP5 DUP5 SLOAD PUSH2 0x1113 JUMP JUMPDEST DUP3 SSTORE POP POP POP POP JUMP JUMPDEST PUSH0 SWAP1 JUMP JUMPDEST PUSH2 0x11C8 PUSH2 0x11BC JUMP JUMPDEST PUSH2 0x11D3 DUP2 DUP5 DUP5 PUSH2 0x1197 JUMP JUMPDEST POP POP POP JUMP JUMPDEST JUMPDEST DUP2 DUP2 LT ISZERO PUSH2 0x11F6 JUMPI PUSH2 0x11EB PUSH0 DUP3 PUSH2 0x11C0 JUMP JUMPDEST PUSH1 0x1 DUP2 ADD SWAP1 POP PUSH2 0x11D9 JUMP JUMPDEST POP POP JUMP JUMPDEST PUSH1 0x1F DUP3 GT ISZERO PUSH2 0x123B JUMPI PUSH2 0x120C DUP2 PUSH2 0x10E6 JUMP JUMPDEST PUSH2 0x1215 DUP5 PUSH2 0x10F8 JUMP JUMPDEST DUP2 ADD PUSH1 0x20 DUP6 LT ISZERO PUSH2 0x1224 JUMPI DUP2 SWAP1 POP JUMPDEST PUSH2 0x1238 PUSH2 0x1230 DUP6 PUSH2 0x10F8 JUMP JUMPDEST DUP4 ADD DUP3 PUSH2 0x11D8 JUMP JUMPDEST POP POP JUMPDEST POP POP POP JUMP JUMPDEST PUSH0 DUP3 DUP3 SHR SWAP1 POP SWAP3 SWAP2 POP POP JUMP JUMPDEST PUSH0 PUSH2 0x125B PUSH0 NOT DUP5 PUSH1 0x8 MUL PUSH2 0x1240 JUMP JUMPDEST NOT DUP1 DUP4 AND SWAP2 POP POP SWAP3 SWAP2 POP POP JUMP JUMPDEST PUSH0 PUSH2 0x1273 DUP4 DUP4 PUSH2 0x124C JUMP JUMPDEST SWAP2 POP DUP3 PUSH1 0x2 MUL DUP3 OR SWAP1 POP SWAP3 SWAP2 POP POP JUMP JUMPDEST PUSH2 0x128C DUP3 PUSH2 0xA10 JUMP JUMPDEST PUSH8 0xFFFFFFFFFFFFFFFF DUP2 GT ISZERO PUSH2 0x12A5 JUMPI PUSH2 0x12A4 PUSH2 0xDE9 JUMP JUMPDEST JUMPDEST PUSH2 0x12AF DUP3 SLOAD PUSH2 0x10B6 JUMP JUMPDEST PUSH2 0x12BA DUP3 DUP3 DUP6 PUSH2 0x11FA JUMP JUMPDEST PUSH0 PUSH1 0x20 SWAP1 POP PUSH1 0x1F DUP4 GT PUSH1 0x1 DUP2 EQ PUSH2 0x12EB JUMPI PUSH0 DUP5 ISZERO PUSH2 0x12D9 JUMPI DUP3 DUP8 ADD MLOAD SWAP1 POP JUMPDEST PUSH2 0x12E3 DUP6 DUP3 PUSH2 0x1268 JUMP JUMPDEST DUP7 SSTORE POP PUSH2 0x134A JUMP JUMPDEST PUSH1 0x1F NOT DUP5 AND PUSH2 0x12F9 DUP7 PUSH2 0x10E6 JUMP JUMPDEST PUSH0 JUMPDEST DUP3 DUP2 LT ISZERO PUSH2 0x1320 JUMPI DUP5 DUP10 ADD MLOAD DUP3 SSTORE PUSH1 0x1 DUP3 ADD SWAP2 POP PUSH1 0x20 DUP6 ADD SWAP5 POP PUSH1 0x20 DUP2 ADD SWAP1 POP PUSH2 0x12FB JUMP JUMPDEST DUP7 DUP4 LT ISZERO PUSH2 0x133D JUMPI DUP5 DUP10 ADD MLOAD PUSH2 0x1339 PUSH1 0x1F DUP10 AND DUP3 PUSH2 0x124C JUMP JUMPDEST DUP4 SSTORE POP JUMPDEST PUSH1 0x1 PUSH1 0x2 DUP9 MUL ADD DUP9 SSTORE POP POP POP JUMPDEST POP POP POP POP POP POP JUMP INVALID LOG2 PUSH5 0x6970667358 0x22 SLT KECCAK256 SWAP4 0xD2 0x4E DUP4 0x2B 0x2B 0xB6 SWAP10 PUSH3 0xD419EB PUSH11 0x9902AC65596FCDFACBC0C3 0x4D CODESIZE PUSH24 0x7F58D3E9D564736F6C634300081A00330000000000000000 "
				},
				"gasEstimates": {
					"creation": {
						"codeDepositCost": "1000000",
						"executionCost": "infinite",
						"totalCost": "infinite"
					},
					"external": {
						"addNewTransaction(string,uint8,string,string,uint8,string,string,string)": "infinite",
						"getAllTransactions()": "infinite",
						"transactions(uint256)": "infinite"
					}
				},
				"methodIdentifiers": {
					"addNewTransaction(string,uint8,string,string,uint8,string,string,string)": "b760d868",
					"getAllTransactions()": "27506f53",
					"transactions(uint256)": "9ace38c2"
				}
			},
			"storageLayout": {
				"storage": [
					{
						"astId": 32,
						"contract": "contracts/Transactions.sol:Transactions",
						"label": "transactions",
						"offset": 0,
						"slot": "0",
						"type": "t_array(t_struct(Transaction)28_storage)dyn_storage"
					}
				],
				"types": {
					"t_array(t_struct(Transaction)28_storage)dyn_storage": {
						"base": "t_struct(Transaction)28_storage",
						"encoding": "dynamic_array",
						"label": "struct Transactions.Transaction[]",
						"numberOfBytes": "32"
					},
					"t_enum(EntityType)9": {
						"encoding": "inplace",
						"label": "enum Transactions.EntityType",
						"numberOfBytes": "1"
					},
					"t_string_storage": {
						"encoding": "bytes",
						"label": "string",
						"numberOfBytes": "32"
					},
					"t_struct(Transaction)28_storage": {
						"encoding": "inplace",
						"label": "struct Transactions.Transaction",
						"members": [
							{
								"astId": 11,
								"contract": "contracts/Transactions.sol:Transactions",
								"label": "subject_entity_id",
								"offset": 0,
								"slot": "0",
								"type": "t_string_storage"
							},
							{
								"astId": 14,
								"contract": "contracts/Transactions.sol:Transactions",
								"label": "subject_entity_type",
								"offset": 0,
								"slot": "1",
								"type": "t_enum(EntityType)9"
							},
							{
								"astId": 16,
								"contract": "contracts/Transactions.sol:Transactions",
								"label": "action",
								"offset": 0,
								"slot": "2",
								"type": "t_string_storage"
							},
							{
								"astId": 18,
								"contract": "contracts/Transactions.sol:Transactions",
								"label": "context_entity_id",
								"offset": 0,
								"slot": "3",
								"type": "t_string_storage"
							},
							{
								"astId": 21,
								"contract": "contracts/Transactions.sol:Transactions",
								"label": "context_entity_type",
								"offset": 0,
								"slot": "4",
								"type": "t_enum(EntityType)9"
							},
							{
								"astId": 23,
								"contract": "contracts/Transactions.sol:Transactions",
								"label": "tokens_involved",
								"offset": 0,
								"slot": "5",
								"type": "t_string_storage"
							},
							{
								"astId": 25,
								"contract": "contracts/Transactions.sol:Transactions",
								"label": "token_price_in_inr",
								"offset": 0,
								"slot": "6",
								"type": "t_string_storage"
							},
							{
								"astId": 27,
								"contract": "contracts/Transactions.sol:Transactions",
								"label": "created_at",
								"offset": 0,
								"slot": "7",
								"type": "t_string_storage"
							}
						],
						"numberOfBytes": "256"
					}
				}
			},
			"userdoc": {
				"kind": "user",
				"methods": {},
				"version": 1
			}
		}
	}
}